{
  "_format": "hh-sol-artifact-1",
  "contractName": "MockGearboxVault",
  "sourceName": "src/helpers/contracts/MockGearboxVault.sol",
  "abi": [
    {
      "inputs": [
        {
          "internalType": "address",
          "name": "underlyingAsset",
          "type": "address"
        }
      ],
      "stateMutability": "nonpayable",
      "type": "constructor"
    },
    {
      "inputs": [
        {
          "internalType": "uint256",
          "name": "",
          "type": "uint256"
        },
        {
          "internalType": "address",
          "name": "",
          "type": "address"
        },
        {
          "internalType": "uint256",
          "name": "",
          "type": "uint256"
        }
      ],
      "name": "addLiquidity",
      "outputs": [],
      "stateMutability": "pure",
      "type": "function"
    },
    {
      "inputs": [
        {
          "internalType": "uint256",
          "name": "amountDiesel",
          "type": "uint256"
        }
      ],
      "name": "fromDiesel",
      "outputs": [
        {
          "internalType": "uint256",
          "name": "",
          "type": "uint256"
        }
      ],
      "stateMutability": "view",
      "type": "function"
    },
    {
      "inputs": [],
      "name": "getDieselRate_RAY",
      "outputs": [
        {
          "internalType": "uint256",
          "name": "",
          "type": "uint256"
        }
      ],
      "stateMutability": "view",
      "type": "function"
    },
    {
      "inputs": [],
      "name": "maybeRevertMaliciously",
      "outputs": [],
      "stateMutability": "view",
      "type": "function"
    },
    {
      "inputs": [
        {
          "internalType": "uint256",
          "name": "",
          "type": "uint256"
        },
        {
          "internalType": "address",
          "name": "",
          "type": "address"
        }
      ],
      "name": "removeLiquidity",
      "outputs": [],
      "stateMutability": "pure",
      "type": "function"
    },
    {
      "inputs": [],
      "name": "revertType",
      "outputs": [
        {
          "internalType": "enum MaliciousQueryReverter.RevertType",
          "name": "",
          "type": "uint8"
        }
      ],
      "stateMutability": "view",
      "type": "function"
    },
    {
      "inputs": [
        {
          "internalType": "uint256",
          "name": "rate",
          "type": "uint256"
        }
      ],
      "name": "setRate",
      "outputs": [],
      "stateMutability": "nonpayable",
      "type": "function"
    },
    {
      "inputs": [
        {
          "internalType": "enum MaliciousQueryReverter.RevertType",
          "name": "newRevertType",
          "type": "uint8"
        }
      ],
      "name": "setRevertType",
      "outputs": [],
      "stateMutability": "nonpayable",
      "type": "function"
    },
    {
      "inputs": [],
      "name": "spoofJoinExitQueryRevert",
      "outputs": [],
      "stateMutability": "pure",
      "type": "function"
    },
    {
      "inputs": [],
      "name": "spoofSwapQueryRevert",
      "outputs": [],
      "stateMutability": "pure",
      "type": "function"
    },
    {
      "inputs": [],
      "name": "underlyingToken",
      "outputs": [
        {
          "internalType": "address",
          "name": "",
          "type": "address"
        }
      ],
      "stateMutability": "view",
      "type": "function"
    }
  ],
  "bytecode": "0x60a06040526000805460ff191690556b033b2e3c9fd0803ce800000060015534801561002a57600080fd5b506040516106933803806106938339818101604052602081101561004d57600080fd5b5051606081901b6001600160601b0319166080526001600160a01b0316610612610081600039806102a452506106126000f3fe608060405234801561001057600080fd5b50600436106100c95760003560e01c806334fcf437116100815780637ce3ee481161005b5780637ce3ee48146101be5780639aa5d462146101c6578063d652e8c614610205576100c9565b806334fcf4371461016a5780635427c93814610187578063788c6bfe146101b6576100c9565b80632495a599116100b25780632495a5991461011157806329478cb4146101425780632cd103391461014a576100c9565b806305fe138b146100ce578063146d4eee14610109575b600080fd5b610107600480360360408110156100e457600080fd5b508035906020013573ffffffffffffffffffffffffffffffffffffffff1661022e565b005b610107610232565b6101196102a2565b6040805173ffffffffffffffffffffffffffffffffffffffff9092168252519081900360200190f35b6101076102c6565b6101076004803603602081101561016057600080fd5b503560ff1661038f565b6101076004803603602081101561018057600080fd5b50356103ce565b6101a46004803603602081101561019d57600080fd5b50356103d3565b60408051918252519081900360200190f35b6101a46103fd565b61010761040e565b610107600480360360608110156101dc57600080fd5b5080359073ffffffffffffffffffffffffffffffffffffffff60208201351690604001356104e7565b61020d6104ec565b6040518082600381111561021d57fe5b815260200191505060405180910390f35b5050565b604080516002808252606080830184529260208301908036833701905050905060018160008151811061026157fe5b60200260200101818152505060028160018151811061027c57fe5b602002602001018181525050602081510263fa61cc126020830352600482036024820181fd5b7f000000000000000000000000000000000000000000000000000000000000000090565b600160005460ff1660038111156102d957fe5b141561034657604080517f08c379a000000000000000000000000000000000000000000000000000000000815260206004820152601460248201527f4e4f4e5f4d414c4943494f55535f524556455254000000000000000000000000604482015290519081900360640190fd5b600260005460ff16600381111561035957fe5b141561036c57610367610232565b61038d565b600360005460ff16600381111561037f57fe5b141561038d5761038d61040e565b565b600080548291907fffffffffffffffffffffffffffffffffffffffffffffffffffffffffffffff001660018360038111156103c657fe5b021790555050565b600155565b6000633b9aca006103ef600154846104f590919063ffffffff16565b816103f657fe5b0492915050565b60006104076102c6565b5060015490565b604080516002808252606080830184529260208301908036833701905050905060018160008151811061043d57fe5b60200260200101818152505060028160018151811061045857fe5b60209081029190910181019190915281516101a47fffffffffffffffffffffffffffffffffffffffffffffffffffffffffffffffe084018190526343adbafb7fffffffffffffffffffffffffffffffffffffffffffffffffffffffffffffffc085015291027fffffffffffffffffffffffffffffffffffffffffffffffffffffffffffffffdc83016044820181fd5b505050565b60005460ff1681565b600082820261051984158061051257508385838161050f57fe5b04145b600361052b565b670de0b6b3a764000090049392505050565b8161022e5761022e8161055e817f42414c0000000000000000000000000000000000000000000000000000000000610561565b50565b7f08c379a000000000000000000000000000000000000000000000000000000000600090815260206004526007602452600a808404818106603090810160081b958390069590950190829004918206850160101b01602363ffffff0060e086901c160160181b0190930160c81b60445260e882901c90606490fdfea26469706673582212204857fd7880d4ea475c59573acffd708a32d7d99ca3cddc77c0ecb73d110f633764736f6c63430007010033",
  "linkReferences": {},
  "deployedLinkReferences": {}
}