{
  "_format": "hh-sol-artifact-1",
  "contractName": "MockERC4626Token",
  "sourceName": "src/helpers/contracts/MockERC4626Token.sol",
  "abi": [
    {
      "inputs": [
        {
          "internalType": "string",
          "name": "name",
          "type": "string"
        },
        {
          "internalType": "string",
          "name": "symbol",
          "type": "string"
        },
        {
          "internalType": "uint8",
          "name": "decimals",
          "type": "uint8"
        },
        {
          "internalType": "address",
          "name": "asset",
          "type": "address"
        }
      ],
      "stateMutability": "nonpayable",
      "type": "constructor"
    },
    {
      "anonymous": false,
      "inputs": [
        {
          "indexed": true,
          "internalType": "address",
          "name": "owner",
          "type": "address"
        },
        {
          "indexed": true,
          "internalType": "address",
          "name": "spender",
          "type": "address"
        },
        {
          "indexed": false,
          "internalType": "uint256",
          "name": "value",
          "type": "uint256"
        }
      ],
      "name": "Approval",
      "type": "event"
    },
    {
      "anonymous": false,
      "inputs": [
        {
          "indexed": true,
          "internalType": "address",
          "name": "from",
          "type": "address"
        },
        {
          "indexed": true,
          "internalType": "address",
          "name": "to",
          "type": "address"
        },
        {
          "indexed": false,
          "internalType": "uint256",
          "name": "value",
          "type": "uint256"
        }
      ],
      "name": "Transfer",
      "type": "event"
    },
    {
      "inputs": [],
      "name": "DOMAIN_SEPARATOR",
      "outputs": [
        {
          "internalType": "bytes32",
          "name": "",
          "type": "bytes32"
        }
      ],
      "stateMutability": "view",
      "type": "function"
    },
    {
      "inputs": [
        {
          "internalType": "address",
          "name": "owner",
          "type": "address"
        },
        {
          "internalType": "address",
          "name": "spender",
          "type": "address"
        }
      ],
      "name": "allowance",
      "outputs": [
        {
          "internalType": "uint256",
          "name": "",
          "type": "uint256"
        }
      ],
      "stateMutability": "view",
      "type": "function"
    },
    {
      "inputs": [
        {
          "internalType": "address",
          "name": "spender",
          "type": "address"
        },
        {
          "internalType": "uint256",
          "name": "amount",
          "type": "uint256"
        }
      ],
      "name": "approve",
      "outputs": [
        {
          "internalType": "bool",
          "name": "",
          "type": "bool"
        }
      ],
      "stateMutability": "nonpayable",
      "type": "function"
    },
    {
      "inputs": [],
      "name": "asset",
      "outputs": [
        {
          "internalType": "address",
          "name": "",
          "type": "address"
        }
      ],
      "stateMutability": "view",
      "type": "function"
    },
    {
      "inputs": [
        {
          "internalType": "address",
          "name": "account",
          "type": "address"
        }
      ],
      "name": "balanceOf",
      "outputs": [
        {
          "internalType": "uint256",
          "name": "",
          "type": "uint256"
        }
      ],
      "stateMutability": "view",
      "type": "function"
    },
    {
      "inputs": [
        {
          "internalType": "uint256",
          "name": "amount",
          "type": "uint256"
        }
      ],
      "name": "burn",
      "outputs": [],
      "stateMutability": "nonpayable",
      "type": "function"
    },
    {
      "inputs": [
        {
          "internalType": "address",
          "name": "account",
          "type": "address"
        },
        {
          "internalType": "uint256",
          "name": "amount",
          "type": "uint256"
        }
      ],
      "name": "burnFrom",
      "outputs": [],
      "stateMutability": "nonpayable",
      "type": "function"
    },
    {
      "inputs": [
        {
          "internalType": "address",
          "name": "sender",
          "type": "address"
        },
        {
          "internalType": "uint256",
          "name": "amount",
          "type": "uint256"
        }
      ],
      "name": "burnWithoutAllowance",
      "outputs": [],
      "stateMutability": "nonpayable",
      "type": "function"
    },
    {
      "inputs": [
        {
          "internalType": "uint256",
          "name": "shares",
          "type": "uint256"
        }
      ],
      "name": "convertToAssets",
      "outputs": [
        {
          "internalType": "uint256",
          "name": "",
          "type": "uint256"
        }
      ],
      "stateMutability": "view",
      "type": "function"
    },
    {
      "inputs": [
        {
          "internalType": "uint256",
          "name": "assets",
          "type": "uint256"
        }
      ],
      "name": "convertToShares",
      "outputs": [
        {
          "internalType": "uint256",
          "name": "",
          "type": "uint256"
        }
      ],
      "stateMutability": "view",
      "type": "function"
    },
    {
      "inputs": [],
      "name": "decimals",
      "outputs": [
        {
          "internalType": "uint8",
          "name": "",
          "type": "uint8"
        }
      ],
      "stateMutability": "view",
      "type": "function"
    },
    {
      "inputs": [
        {
          "internalType": "address",
          "name": "spender",
          "type": "address"
        },
        {
          "internalType": "uint256",
          "name": "subtractedValue",
          "type": "uint256"
        }
      ],
      "name": "decreaseAllowance",
      "outputs": [
        {
          "internalType": "bool",
          "name": "",
          "type": "bool"
        }
      ],
      "stateMutability": "nonpayable",
      "type": "function"
    },
    {
      "inputs": [
        {
          "internalType": "uint256",
          "name": "assets",
          "type": "uint256"
        },
        {
          "internalType": "address",
          "name": "receiver",
          "type": "address"
        }
      ],
      "name": "deposit",
      "outputs": [
        {
          "internalType": "uint256",
          "name": "",
          "type": "uint256"
        }
      ],
      "stateMutability": "nonpayable",
      "type": "function"
    },
    {
      "inputs": [],
      "name": "getDomainSeparator",
      "outputs": [
        {
          "internalType": "bytes32",
          "name": "",
          "type": "bytes32"
        }
      ],
      "stateMutability": "view",
      "type": "function"
    },
    {
      "inputs": [
        {
          "internalType": "address",
          "name": "account",
          "type": "address"
        }
      ],
      "name": "getNextNonce",
      "outputs": [
        {
          "internalType": "uint256",
          "name": "",
          "type": "uint256"
        }
      ],
      "stateMutability": "view",
      "type": "function"
    },
    {
      "inputs": [
        {
          "internalType": "address",
          "name": "spender",
          "type": "address"
        },
        {
          "internalType": "uint256",
          "name": "addedValue",
          "type": "uint256"
        }
      ],
      "name": "increaseAllowance",
      "outputs": [
        {
          "internalType": "bool",
          "name": "",
          "type": "bool"
        }
      ],
      "stateMutability": "nonpayable",
      "type": "function"
    },
    {
      "inputs": [],
      "name": "maybeRevertMaliciously",
      "outputs": [],
      "stateMutability": "view",
      "type": "function"
    },
    {
      "inputs": [
        {
          "internalType": "address",
          "name": "recipient",
          "type": "address"
        },
        {
          "internalType": "uint256",
          "name": "amount",
          "type": "uint256"
        }
      ],
      "name": "mint",
      "outputs": [],
      "stateMutability": "nonpayable",
      "type": "function"
    },
    {
      "inputs": [],
      "name": "name",
      "outputs": [
        {
          "internalType": "string",
          "name": "",
          "type": "string"
        }
      ],
      "stateMutability": "view",
      "type": "function"
    },
    {
      "inputs": [
        {
          "internalType": "address",
          "name": "owner",
          "type": "address"
        }
      ],
      "name": "nonces",
      "outputs": [
        {
          "internalType": "uint256",
          "name": "",
          "type": "uint256"
        }
      ],
      "stateMutability": "view",
      "type": "function"
    },
    {
      "inputs": [
        {
          "internalType": "address",
          "name": "owner",
          "type": "address"
        },
        {
          "internalType": "address",
          "name": "spender",
          "type": "address"
        },
        {
          "internalType": "uint256",
          "name": "value",
          "type": "uint256"
        },
        {
          "internalType": "uint256",
          "name": "deadline",
          "type": "uint256"
        },
        {
          "internalType": "uint8",
          "name": "v",
          "type": "uint8"
        },
        {
          "internalType": "bytes32",
          "name": "r",
          "type": "bytes32"
        },
        {
          "internalType": "bytes32",
          "name": "s",
          "type": "bytes32"
        }
      ],
      "name": "permit",
      "outputs": [],
      "stateMutability": "nonpayable",
      "type": "function"
    },
    {
      "inputs": [
        {
          "internalType": "uint256",
          "name": "shares",
          "type": "uint256"
        }
      ],
      "name": "previewMint",
      "outputs": [
        {
          "internalType": "uint256",
          "name": "",
          "type": "uint256"
        }
      ],
      "stateMutability": "view",
      "type": "function"
    },
    {
      "inputs": [
        {
          "internalType": "uint256",
          "name": "shares",
          "type": "uint256"
        },
        {
          "internalType": "address",
          "name": "",
          "type": "address"
        },
        {
          "internalType": "address",
          "name": "owner",
          "type": "address"
        }
      ],
      "name": "redeem",
      "outputs": [
        {
          "internalType": "uint256",
          "name": "",
          "type": "uint256"
        }
      ],
      "stateMutability": "nonpayable",
      "type": "function"
    },
    {
      "inputs": [],
      "name": "revertType",
      "outputs": [
        {
          "internalType": "enum MaliciousQueryReverter.RevertType",
          "name": "",
          "type": "uint8"
        }
      ],
      "stateMutability": "view",
      "type": "function"
    },
    {
      "inputs": [
        {
          "internalType": "uint256",
          "name": "newRate",
          "type": "uint256"
        }
      ],
      "name": "setRate",
      "outputs": [],
      "stateMutability": "nonpayable",
      "type": "function"
    },
    {
      "inputs": [
        {
          "internalType": "enum MaliciousQueryReverter.RevertType",
          "name": "newRevertType",
          "type": "uint8"
        }
      ],
      "name": "setRevertType",
      "outputs": [],
      "stateMutability": "nonpayable",
      "type": "function"
    },
    {
      "inputs": [],
      "name": "spoofJoinExitQueryRevert",
      "outputs": [],
      "stateMutability": "pure",
      "type": "function"
    },
    {
      "inputs": [],
      "name": "spoofSwapQueryRevert",
      "outputs": [],
      "stateMutability": "pure",
      "type": "function"
    },
    {
      "inputs": [],
      "name": "symbol",
      "outputs": [
        {
          "internalType": "string",
          "name": "",
          "type": "string"
        }
      ],
      "stateMutability": "view",
      "type": "function"
    },
    {
      "inputs": [],
      "name": "totalAssets",
      "outputs": [
        {
          "internalType": "uint256",
          "name": "",
          "type": "uint256"
        }
      ],
      "stateMutability": "view",
      "type": "function"
    },
    {
      "inputs": [],
      "name": "totalSupply",
      "outputs": [
        {
          "internalType": "uint256",
          "name": "",
          "type": "uint256"
        }
      ],
      "stateMutability": "view",
      "type": "function"
    },
    {
      "inputs": [
        {
          "internalType": "address",
          "name": "recipient",
          "type": "address"
        },
        {
          "internalType": "uint256",
          "name": "amount",
          "type": "uint256"
        }
      ],
      "name": "transfer",
      "outputs": [
        {
          "internalType": "bool",
          "name": "",
          "type": "bool"
        }
      ],
      "stateMutability": "nonpayable",
      "type": "function"
    },
    {
      "inputs": [
        {
          "internalType": "address",
          "name": "sender",
          "type": "address"
        },
        {
          "internalType": "address",
          "name": "recipient",
          "type": "address"
        },
        {
          "internalType": "uint256",
          "name": "amount",
          "type": "uint256"
        }
      ],
      "name": "transferFrom",
      "outputs": [
        {
          "internalType": "bool",
          "name": "",
          "type": "bool"
        }
      ],
      "stateMutability": "nonpayable",
      "type": "function"
    }
  ],
  "bytecode": "0x6101006040526007805460ff19169055670de0b6b3a76400006008553480156200002857600080fd5b5060405162001cb238038062001cb2833981810160405260808110156200004e57600080fd5b81019080805160405193929190846401000000008211156200006f57600080fd5b9083019060208201858111156200008557600080fd5b8251640100000000811182820188101715620000a057600080fd5b82525081516020918201929091019080838360005b83811015620000cf578181015183820152602001620000b5565b50505050905090810190601f168015620000fd5780820380516001836020036101000a031916815260200191505b50604052602001805160405193929190846401000000008211156200012157600080fd5b9083019060208201858111156200013757600080fd5b82516401000000008111828201881017156200015257600080fd5b82525081516020918201929091019080838360005b838110156200018157818101518382015260200162000167565b50505050905090810190601f168015620001af5780820380516001836020036101000a031916815260200191505b5060408181526020838101519382015183830190925260018352603160f81b818401528751939550909350869286928692859283929183918791620001fa9160039185019062000418565b5080516200021090600490602084019062000418565b50506005805460ff19166012179055508151602092830120608052805191012060a052507f8b73c3c69bb8fe3d512ecc4cf759cc79239f7b179b0ffacaa9a75d522b39400f60c05262000263816200035f565b505050806001600160a01b031660e0816001600160a01b031660601b815250506000816001600160a01b031663313ce5676040518163ffffffff1660e01b815260040160206040518083038186803b158015620002bf57600080fd5b505afa158015620002d4573d6000803e3d6000fd5b505050506040513d6020811015620002eb57600080fd5b505160ff16905060006200030d60128362000375602090811b62000f1517901c565b905080600a0a670de0b6b3a76400000260098190555060006200034060128660ff166200037560201b62000f151760201c565b670de0b6b3a7640000600a91820a02905550620004b495505050505050565b6005805460ff191660ff92909216919091179055565b6000620003878383111560016200038d565b50900390565b816200039e576200039e81620003a2565b5050565b620003b4816210905360ea1b620003b7565b50565b62461bcd60e51b600090815260206004526007602452600a808404818106603090810160081b958390069590950190829004918206850160101b01602363ffffff0060e086901c160160181b0190930160c81b60445260e882901c90606490fd5b828054600181600116156101000203166002900490600052602060002090601f016020900481019282601f106200045b57805160ff19168380011785556200048b565b828001600101855582156200048b579182015b828111156200048b5782518255916020019190600101906200046e565b50620004999291506200049d565b5090565b5b808211156200049957600081556001016200049e565b60805160a05160c05160e05160601c6117c5620004ed60003980610a7b52508061149b5250806114dd5250806114bc52506117c56000f3fe608060405234801561001057600080fd5b506004361061020b5760003560e01c80636e553f651161012a578063a457c2d7116100bd578063c6e6f5921161008c578063d652e8c611610071578063d652e8c614610730578063dd62ed3e14610759578063ed24911d146107945761020b565b8063c6e6f592146106b5578063d505accf146106d25761020b565b8063a457c2d7146105e5578063a9059cbb1461061e578063b3d7f6b914610657578063ba087652146106745761020b565b80637ce3ee48116100f95780637ce3ee481461056f5780637ecebe001461057757806390193b7c146105aa57806395d89b41146105dd5761020b565b80636e553f651461049157806370a08231146104ca57806379cc6790146104fd5780637c602bc2146105365761020b565b80632cd10339116101a257806338d52e0f1161017157806338d52e0f146103d1578063395093511461040257806340c10f191461043b57806342966c68146104745761020b565b80632cd103391461036e578063313ce5671461038e57806334fcf437146103ac5780633644e515146103c95761020b565b8063146d4eee116101de578063146d4eee1461031157806318160ddd1461031b57806323b872dd1461032357806329478cb4146103665761020b565b806301e1d1141461021057806306fdde031461022a57806307a2d13a146102a7578063095ea7b3146102c4575b600080fd5b61021861079c565b60408051918252519081900360200190f35b6102326107a2565b6040805160208082528351818301528351919283929083019185019080838360005b8381101561026c578181015183820152602001610254565b50505050905090810190601f1680156102995780820380516001836020036101000a031916815260200191505b509250505060405180910390f35b610218600480360360208110156102bd57600080fd5b5035610856565b6102fd600480360360408110156102da57600080fd5b5073ffffffffffffffffffffffffffffffffffffffff8135169060200135610867565b604080519115158252519081900360200190f35b61031961087d565b005b6102186108ed565b6102fd6004803603606081101561033957600080fd5b5073ffffffffffffffffffffffffffffffffffffffff8135811691602081013590911690604001356108f3565b610319610954565b6103196004803603602081101561038457600080fd5b503560ff16610a1d565b610396610a5c565b6040805160ff9092168252519081900360200190f35b610319600480360360208110156103c257600080fd5b5035610a65565b610218610a6a565b6103d9610a79565b6040805173ffffffffffffffffffffffffffffffffffffffff9092168252519081900360200190f35b6102fd6004803603604081101561041857600080fd5b5073ffffffffffffffffffffffffffffffffffffffff8135169060200135610a9d565b6103196004803603604081101561045157600080fd5b5073ffffffffffffffffffffffffffffffffffffffff8135169060200135610ae0565b6103196004803603602081101561048a57600080fd5b5035610aee565b610218600480360360408110156104a757600080fd5b508035906020013573ffffffffffffffffffffffffffffffffffffffff16610afb565b610218600480360360208110156104e057600080fd5b503573ffffffffffffffffffffffffffffffffffffffff16610b2a565b6103196004803603604081101561051357600080fd5b5073ffffffffffffffffffffffffffffffffffffffff8135169060200135610b52565b6103196004803603604081101561054c57600080fd5b5073ffffffffffffffffffffffffffffffffffffffff8135169060200135610b88565b610319610b92565b6102186004803603602081101561058d57600080fd5b503573ffffffffffffffffffffffffffffffffffffffff16610c6b565b610218600480360360208110156105c057600080fd5b503573ffffffffffffffffffffffffffffffffffffffff16610c72565b610232610c9a565b6102fd600480360360408110156105fb57600080fd5b5073ffffffffffffffffffffffffffffffffffffffff8135169060200135610d19565b6102fd6004803603604081101561063457600080fd5b5073ffffffffffffffffffffffffffffffffffffffff8135169060200135610d5f565b6102186004803603602081101561066d57600080fd5b5035610d6c565b6102186004803603606081101561068a57600080fd5b5080359073ffffffffffffffffffffffffffffffffffffffff60208201358116916040013516610dba565b610218600480360360208110156106cb57600080fd5b5035610dea565b610319600480360360e08110156106e857600080fd5b5073ffffffffffffffffffffffffffffffffffffffff813581169160208101359091169060408101359060608101359060ff6080820135169060a08101359060c00135610df5565b610738610eca565b6040518082600381111561074857fe5b815260200191505060405180910390f35b6102186004803603604081101561076f57600080fd5b5073ffffffffffffffffffffffffffffffffffffffff81358116916020013516610ed3565b610218610f0b565b600b5490565b60038054604080516020601f60027fffffffffffffffffffffffffffffffffffffffffffffffffffffffffffffffff61010060018816150201909516949094049384018190048102820181019092528281526060939092909183018282801561084c5780601f106108215761010080835404028352916020019161084c565b820191906000526020600020905b81548152906001019060200180831161082f57829003601f168201915b5050505050905090565b600061086182610f2b565b92915050565b6000610874338484610f71565b50600192915050565b60408051600280825260608083018452926020830190803683370190505090506001816000815181106108ac57fe5b6020026020010181815250506002816001815181106108c757fe5b602002602001018181525050602081510263fa61cc126020830352600482036024820181fd5b60025490565b6000610900848484610fe0565b73ffffffffffffffffffffffffffffffffffffffff841660009081526001602090815260408083203380855292529091205461094a918691610945908661019e611109565b610f71565b5060019392505050565b600160075460ff16600381111561096757fe5b14156109d457604080517f08c379a000000000000000000000000000000000000000000000000000000000815260206004820152601460248201527f4e4f4e5f4d414c4943494f55535f524556455254000000000000000000000000604482015290519081900360640190fd5b600260075460ff1660038111156109e757fe5b14156109fa576109f561087d565b610a1b565b600360075460ff166003811115610a0d57fe5b1415610a1b57610a1b610b92565b565b600780548291907fffffffffffffffffffffffffffffffffffffffffffffffffffffffffffffff00166001836003811115610a5457fe5b021790555050565b60055460ff1690565b600855565b6000610a74610f0b565b905090565b7f000000000000000000000000000000000000000000000000000000000000000090565b33600081815260016020908152604080832073ffffffffffffffffffffffffffffffffffffffff871684529091528120549091610874918590610945908661111f565b610aea8282611138565b5050565b610af833826111f1565b50565b600080610b07846112e1565b9050610b138382611138565b600b54610b20908561111f565b600b559392505050565b73ffffffffffffffffffffffffffffffffffffffff1660009081526020819052604090205490565b6000610b6c826101a1610b658633610ed3565b9190611109565b9050610b79833383610f71565b610b8383836111f1565b505050565b610aea82826111f1565b6040805160028082526060808301845292602083019080368337019050509050600181600081518110610bc157fe5b602002602001018181525050600281600181518110610bdc57fe5b60209081029190910181019190915281516101a47fffffffffffffffffffffffffffffffffffffffffffffffffffffffffffffffe084018190526343adbafb7fffffffffffffffffffffffffffffffffffffffffffffffffffffffffffffffc085015291027fffffffffffffffffffffffffffffffffffffffffffffffffffffffffffffffdc83016044820181fd5b6000610861825b73ffffffffffffffffffffffffffffffffffffffff1660009081526006602052604090205490565b60048054604080516020601f60027fffffffffffffffffffffffffffffffffffffffffffffffffffffffffffffffff61010060018816150201909516949094049384018190048102820181019092528281526060939092909183018282801561084c5780601f106108215761010080835404028352916020019161084c565b33600081815260016020908152604080832073ffffffffffffffffffffffffffffffffffffffff871684529091528120549091610874918590610945908661019f611109565b6000610874338484610fe0565b6000610d76610954565b6000610d8d6008548461132190919063ffffffff16565b90506000610db2600954610dac600a548561137490919063ffffffff16565b906113a7565b949350505050565b600080610dc685610f2b565b9050610dd283866111f1565b600b54610ddf9082610f15565b600b55949350505050565b6000610861826112e1565b60007f6e71edae12b1b97f4d1f60370fef10105fa2faae0126114a169c64845d6126c9888888610e248c610c72565b89604051602001808781526020018673ffffffffffffffffffffffffffffffffffffffff1681526020018573ffffffffffffffffffffffffffffffffffffffff1681526020018481526020018381526020018281526020019650505050505050604051602081830303815290604052805190602001209050610eb58882610eac8787876113f4565b886101f8611433565b610ec0888888610f71565b5050505050505050565b60075460ff1681565b73ffffffffffffffffffffffffffffffffffffffff918216600090815260016020908152604080832093909416825291909152205490565b6000610a74611497565b6000610f25838311156001611562565b50900390565b6000610f35610954565b6000610f4c6008548461137490919063ffffffff16565b90506000610db2600954610f6b600a548561137490919063ffffffff16565b90611321565b73ffffffffffffffffffffffffffffffffffffffff808416600081815260016020908152604080832094871680845294825291829020859055815185815291517f8c5be1e5ebec7d5bd14f71427d1e84f3dd0314c0f7b2291e5b200ac8c7c3b9259281900390910190a3505050565b61100473ffffffffffffffffffffffffffffffffffffffff84161515610198611562565b61102873ffffffffffffffffffffffffffffffffffffffff83161515610199611562565b611033838383610b83565b73ffffffffffffffffffffffffffffffffffffffff831660009081526020819052604090205461106690826101a0611109565b73ffffffffffffffffffffffffffffffffffffffff80851660009081526020819052604080822093909355908416815220546110a2908261111f565b73ffffffffffffffffffffffffffffffffffffffff8084166000818152602081815260409182902094909455805185815290519193928716927fddf252ad1be2c89b69c2b068fc378daa952ba7f163c4a11628f55a4df523b3ef92918290030190a3505050565b60006111188484111583611562565b5050900390565b60008282016111318482101583611562565b9392505050565b61114460008383610b83565b61115e611159826111536108ed565b9061111f565b611570565b73ffffffffffffffffffffffffffffffffffffffff821660009081526020819052604090205461118e908261111f565b73ffffffffffffffffffffffffffffffffffffffff83166000818152602081815260408083209490945583518581529351929391927fddf252ad1be2c89b69c2b068fc378daa952ba7f163c4a11628f55a4df523b3ef9281900390910190a35050565b61121573ffffffffffffffffffffffffffffffffffffffff8316151561019b611562565b61122182600083610b83565b73ffffffffffffffffffffffffffffffffffffffff821660009081526020819052604090205461125490826101b2611109565b73ffffffffffffffffffffffffffffffffffffffff831660009081526020819052604090205561128f611159826112896108ed565b90611575565b60408051828152905160009173ffffffffffffffffffffffffffffffffffffffff8516917fddf252ad1be2c89b69c2b068fc378daa952ba7f163c4a11628f55a4df523b3ef9181900360200190a35050565b60006112eb610954565b60006113026008548461132190919063ffffffff16565b90506000610db2600a54610f6b6009548561137490919063ffffffff16565b60006113308215156004611562565b670de0b6b3a7640000830261136284158061135b5750670de0b6b3a764000085838161135857fe5b04145b6005611562565b82818161136b57fe5b04949350505050565b600082820261139884158061139157508385838161138e57fe5b04145b6003611562565b670de0b6b3a76400008161136b565b60006113b68215156004611562565b670de0b6b3a764000083026113de84158061135b5750670de0b6b3a764000085838161135857fe5b6001836001830304018115150291505092915050565b60408051604180825260808201909252606091829190602082018180368337019050509050836020820152826040820152846060820153949350505050565b600061143e85611583565b905061145461144e8783876115ea565b83611562565b611463428410156101b8611562565b50505073ffffffffffffffffffffffffffffffffffffffff9092166000908152600660205260409020805460010190555050565b60007f00000000000000000000000000000000000000000000000000000000000000007f00000000000000000000000000000000000000000000000000000000000000007f00000000000000000000000000000000000000000000000000000000000000006115046116fc565b30604051602001808681526020018581526020018481526020018381526020018273ffffffffffffffffffffffffffffffffffffffff1681526020019550505050505060405160208183030381529060405280519060200120905090565b81610aea57610aea81611700565b600255565b600061113183836001611109565b600061158d611497565b8260405160200180807f190100000000000000000000000000000000000000000000000000000000000081525060020183815260200182815260200192505050604051602081830303815290604052805190602001209050919050565b60006115fc82516041146101b9611562565b60008060006020850151925060408501519150606085015160001a9050600060018783868660405160008152602001604052604051808581526020018460ff1681526020018381526020018281526020019450505050506020604051602081039080840390855afa158015611675573d6000803e3d6000fd5b50506040517fffffffffffffffffffffffffffffffffffffffffffffffffffffffffffffffe0015191505073ffffffffffffffffffffffffffffffffffffffff8116158015906116f057508773ffffffffffffffffffffffffffffffffffffffff168173ffffffffffffffffffffffffffffffffffffffff16145b98975050505050505050565b4690565b7f08c379a000000000000000000000000000000000000000000000000000000000600090815260206004526007602452600a808304818106603090810160081b83860601918390049283060160101b016642414c230000300160c81b604452610af8917f42414c0000000000000000000000000000000000000000000000000000000000906242414c90606490fdfea2646970667358221220e5238e88c5f085862aea30d725f4957df29e46b0a72d43176f09cdcc561e88c064736f6c63430007010033",
  "linkReferences": {},
  "deployedLinkReferences": {}
}