{
  "_format": "hh-sol-artifact-1",
  "contractName": "MockVE",
  "sourceName": "src/helpers/contracts/MockVE.sol",
  "abi": [
    {
      "inputs": [],
      "stateMutability": "nonpayable",
      "type": "constructor"
    },
    {
      "anonymous": false,
      "inputs": [
        {
          "indexed": true,
          "internalType": "address",
          "name": "owner",
          "type": "address"
        },
        {
          "indexed": true,
          "internalType": "address",
          "name": "spender",
          "type": "address"
        },
        {
          "indexed": false,
          "internalType": "uint256",
          "name": "value",
          "type": "uint256"
        }
      ],
      "name": "Approval",
      "type": "event"
    },
    {
      "anonymous": false,
      "inputs": [
        {
          "indexed": true,
          "internalType": "address",
          "name": "from",
          "type": "address"
        },
        {
          "indexed": true,
          "internalType": "address",
          "name": "to",
          "type": "address"
        },
        {
          "indexed": false,
          "internalType": "uint256",
          "name": "value",
          "type": "uint256"
        }
      ],
      "name": "Transfer",
      "type": "event"
    },
    {
      "inputs": [],
      "name": "DOMAIN_SEPARATOR",
      "outputs": [
        {
          "internalType": "bytes32",
          "name": "",
          "type": "bytes32"
        }
      ],
      "stateMutability": "view",
      "type": "function"
    },
    {
      "inputs": [
        {
          "internalType": "address",
          "name": "owner",
          "type": "address"
        },
        {
          "internalType": "address",
          "name": "spender",
          "type": "address"
        }
      ],
      "name": "allowance",
      "outputs": [
        {
          "internalType": "uint256",
          "name": "",
          "type": "uint256"
        }
      ],
      "stateMutability": "view",
      "type": "function"
    },
    {
      "inputs": [
        {
          "internalType": "address",
          "name": "spender",
          "type": "address"
        },
        {
          "internalType": "uint256",
          "name": "amount",
          "type": "uint256"
        }
      ],
      "name": "approve",
      "outputs": [
        {
          "internalType": "bool",
          "name": "",
          "type": "bool"
        }
      ],
      "stateMutability": "nonpayable",
      "type": "function"
    },
    {
      "inputs": [
        {
          "internalType": "address",
          "name": "account",
          "type": "address"
        }
      ],
      "name": "balanceOf",
      "outputs": [
        {
          "internalType": "uint256",
          "name": "",
          "type": "uint256"
        }
      ],
      "stateMutability": "view",
      "type": "function"
    },
    {
      "inputs": [
        {
          "internalType": "uint256",
          "name": "amount",
          "type": "uint256"
        }
      ],
      "name": "burn",
      "outputs": [],
      "stateMutability": "nonpayable",
      "type": "function"
    },
    {
      "inputs": [
        {
          "internalType": "address",
          "name": "account",
          "type": "address"
        },
        {
          "internalType": "uint256",
          "name": "amount",
          "type": "uint256"
        }
      ],
      "name": "burnFrom",
      "outputs": [],
      "stateMutability": "nonpayable",
      "type": "function"
    },
    {
      "inputs": [
        {
          "internalType": "address",
          "name": "sender",
          "type": "address"
        },
        {
          "internalType": "uint256",
          "name": "amount",
          "type": "uint256"
        }
      ],
      "name": "burnWithoutAllowance",
      "outputs": [],
      "stateMutability": "nonpayable",
      "type": "function"
    },
    {
      "inputs": [],
      "name": "decimals",
      "outputs": [
        {
          "internalType": "uint8",
          "name": "",
          "type": "uint8"
        }
      ],
      "stateMutability": "view",
      "type": "function"
    },
    {
      "inputs": [
        {
          "internalType": "address",
          "name": "spender",
          "type": "address"
        },
        {
          "internalType": "uint256",
          "name": "subtractedValue",
          "type": "uint256"
        }
      ],
      "name": "decreaseAllowance",
      "outputs": [
        {
          "internalType": "bool",
          "name": "",
          "type": "bool"
        }
      ],
      "stateMutability": "nonpayable",
      "type": "function"
    },
    {
      "inputs": [],
      "name": "getDomainSeparator",
      "outputs": [
        {
          "internalType": "bytes32",
          "name": "",
          "type": "bytes32"
        }
      ],
      "stateMutability": "view",
      "type": "function"
    },
    {
      "inputs": [
        {
          "internalType": "address",
          "name": "account",
          "type": "address"
        }
      ],
      "name": "getNextNonce",
      "outputs": [
        {
          "internalType": "uint256",
          "name": "",
          "type": "uint256"
        }
      ],
      "stateMutability": "view",
      "type": "function"
    },
    {
      "inputs": [
        {
          "internalType": "address",
          "name": "spender",
          "type": "address"
        },
        {
          "internalType": "uint256",
          "name": "addedValue",
          "type": "uint256"
        }
      ],
      "name": "increaseAllowance",
      "outputs": [
        {
          "internalType": "bool",
          "name": "",
          "type": "bool"
        }
      ],
      "stateMutability": "nonpayable",
      "type": "function"
    },
    {
      "inputs": [
        {
          "internalType": "address",
          "name": "",
          "type": "address"
        }
      ],
      "name": "locked__end",
      "outputs": [
        {
          "internalType": "uint256",
          "name": "",
          "type": "uint256"
        }
      ],
      "stateMutability": "view",
      "type": "function"
    },
    {
      "inputs": [
        {
          "internalType": "address",
          "name": "recipient",
          "type": "address"
        },
        {
          "internalType": "uint256",
          "name": "amount",
          "type": "uint256"
        }
      ],
      "name": "mint",
      "outputs": [],
      "stateMutability": "nonpayable",
      "type": "function"
    },
    {
      "inputs": [],
      "name": "name",
      "outputs": [
        {
          "internalType": "string",
          "name": "",
          "type": "string"
        }
      ],
      "stateMutability": "view",
      "type": "function"
    },
    {
      "inputs": [
        {
          "internalType": "address",
          "name": "owner",
          "type": "address"
        }
      ],
      "name": "nonces",
      "outputs": [
        {
          "internalType": "uint256",
          "name": "",
          "type": "uint256"
        }
      ],
      "stateMutability": "view",
      "type": "function"
    },
    {
      "inputs": [
        {
          "internalType": "address",
          "name": "owner",
          "type": "address"
        },
        {
          "internalType": "address",
          "name": "spender",
          "type": "address"
        },
        {
          "internalType": "uint256",
          "name": "value",
          "type": "uint256"
        },
        {
          "internalType": "uint256",
          "name": "deadline",
          "type": "uint256"
        },
        {
          "internalType": "uint8",
          "name": "v",
          "type": "uint8"
        },
        {
          "internalType": "bytes32",
          "name": "r",
          "type": "bytes32"
        },
        {
          "internalType": "bytes32",
          "name": "s",
          "type": "bytes32"
        }
      ],
      "name": "permit",
      "outputs": [],
      "stateMutability": "nonpayable",
      "type": "function"
    },
    {
      "inputs": [
        {
          "internalType": "address",
          "name": "user",
          "type": "address"
        },
        {
          "internalType": "uint256",
          "name": "end",
          "type": "uint256"
        }
      ],
      "name": "setLockedEnd",
      "outputs": [],
      "stateMutability": "nonpayable",
      "type": "function"
    },
    {
      "inputs": [],
      "name": "symbol",
      "outputs": [
        {
          "internalType": "string",
          "name": "",
          "type": "string"
        }
      ],
      "stateMutability": "view",
      "type": "function"
    },
    {
      "inputs": [],
      "name": "totalSupply",
      "outputs": [
        {
          "internalType": "uint256",
          "name": "",
          "type": "uint256"
        }
      ],
      "stateMutability": "view",
      "type": "function"
    },
    {
      "inputs": [
        {
          "internalType": "address",
          "name": "recipient",
          "type": "address"
        },
        {
          "internalType": "uint256",
          "name": "amount",
          "type": "uint256"
        }
      ],
      "name": "transfer",
      "outputs": [
        {
          "internalType": "bool",
          "name": "",
          "type": "bool"
        }
      ],
      "stateMutability": "nonpayable",
      "type": "function"
    },
    {
      "inputs": [
        {
          "internalType": "address",
          "name": "sender",
          "type": "address"
        },
        {
          "internalType": "address",
          "name": "recipient",
          "type": "address"
        },
        {
          "internalType": "uint256",
          "name": "amount",
          "type": "uint256"
        }
      ],
      "name": "transferFrom",
      "outputs": [
        {
          "internalType": "bool",
          "name": "",
          "type": "bool"
        }
      ],
      "stateMutability": "nonpayable",
      "type": "function"
    }
  ],
  "bytecode": "0x60e06040523480156200001157600080fd5b506040518060400160405280600f81526020016e4d6f636b204272696467656420564560881b815250604051806040016040528060068152602001651b5d9950905360d21b81525060128280604051806040016040528060018152602001603160f81b815250858581600390805190602001906200009192919062000119565b508051620000a790600490602084019062000119565b50506005805460ff19166012179055508151602092830120608052805191012060a052507f8b73c3c69bb8fe3d512ecc4cf759cc79239f7b179b0ffacaa9a75d522b39400f60c052620000fa8162000103565b505050620001b5565b6005805460ff191660ff92909216919091179055565b828054600181600116156101000203166002900490600052602060002090601f016020900481019282601f106200015c57805160ff19168380011785556200018c565b828001600101855582156200018c579182015b828111156200018c5782518255916020019190600101906200016f565b506200019a9291506200019e565b5090565b5b808211156200019a57600081556001016200019f565b60805160a05160c0516111a4620001e260003980610e7a525080610ebc525080610e9b52506111a46000f3fe608060405234801561001057600080fd5b50600436106101825760003560e01c806379cc6790116100d8578063a457c2d71161008c578063d505accf11610066578063d505accf14610556578063dd62ed3e146105b4578063ed24911d146105ef57610182565b8063a457c2d7146104b1578063a9059cbb146104ea578063adc635891461052357610182565b80637ecebe00116100bd5780637ecebe001461044357806390193b7c1461047657806395d89b41146104a957610182565b806379cc6790146103d15780637c602bc21461040a57610182565b80633644e5151161013a57806340c10f191161011457806340c10f191461034857806342966c681461038157806370a082311461039e57610182565b80633644e515146102cc57806336aeef2a146102d4578063395093511461030f57610182565b806318160ddd1161016b57806318160ddd1461025157806323b872dd1461026b578063313ce567146102ae57610182565b806306fdde0314610187578063095ea7b314610204575b600080fd5b61018f6105f7565b6040805160208082528351818301528351919283929083019185019080838360005b838110156101c95781810151838201526020016101b1565b50505050905090810190601f1680156101f65780820380516001836020036101000a031916815260200191505b509250505060405180910390f35b61023d6004803603604081101561021a57600080fd5b5073ffffffffffffffffffffffffffffffffffffffff81351690602001356106ab565b604080519115158252519081900360200190f35b6102596106c1565b60408051918252519081900360200190f35b61023d6004803603606081101561028157600080fd5b5073ffffffffffffffffffffffffffffffffffffffff8135811691602081013590911690604001356106c7565b6102b6610728565b6040805160ff9092168252519081900360200190f35b610259610731565b61030d600480360360408110156102ea57600080fd5b5073ffffffffffffffffffffffffffffffffffffffff8135169060200135610740565b005b61023d6004803603604081101561032557600080fd5b5073ffffffffffffffffffffffffffffffffffffffff8135169060200135610769565b61030d6004803603604081101561035e57600080fd5b5073ffffffffffffffffffffffffffffffffffffffff81351690602001356107ac565b61030d6004803603602081101561039757600080fd5b50356107ba565b610259600480360360208110156103b457600080fd5b503573ffffffffffffffffffffffffffffffffffffffff166107c7565b61030d600480360360408110156103e757600080fd5b5073ffffffffffffffffffffffffffffffffffffffff81351690602001356107ef565b61030d6004803603604081101561042057600080fd5b5073ffffffffffffffffffffffffffffffffffffffff8135169060200135610825565b6102596004803603602081101561045957600080fd5b503573ffffffffffffffffffffffffffffffffffffffff1661082f565b6102596004803603602081101561048c57600080fd5b503573ffffffffffffffffffffffffffffffffffffffff16610840565b61018f610868565b61023d600480360360408110156104c757600080fd5b5073ffffffffffffffffffffffffffffffffffffffff81351690602001356108e7565b61023d6004803603604081101561050057600080fd5b5073ffffffffffffffffffffffffffffffffffffffff813516906020013561092d565b6102596004803603602081101561053957600080fd5b503573ffffffffffffffffffffffffffffffffffffffff1661093a565b61030d600480360360e081101561056c57600080fd5b5073ffffffffffffffffffffffffffffffffffffffff813581169160208101359091169060408101359060608101359060ff6080820135169060a08101359060c0013561094c565b610259600480360360408110156105ca57600080fd5b5073ffffffffffffffffffffffffffffffffffffffff81358116916020013516610a21565b610259610a59565b60038054604080516020601f60027fffffffffffffffffffffffffffffffffffffffffffffffffffffffffffffffff6101006001881615020190951694909404938401819004810282018101909252828152606093909290918301828280156106a15780601f10610676576101008083540402835291602001916106a1565b820191906000526020600020905b81548152906001019060200180831161068457829003601f168201915b5050505050905090565b60006106b8338484610a63565b50600192915050565b60025490565b60006106d4848484610ad2565b73ffffffffffffffffffffffffffffffffffffffff841660009081526001602090815260408083203380855292529091205461071e918691610719908661019e610bfb565b610a63565b5060019392505050565b60055460ff1690565b600061073b610a59565b905090565b73ffffffffffffffffffffffffffffffffffffffff909116600090815260076020526040902055565b33600081815260016020908152604080832073ffffffffffffffffffffffffffffffffffffffff8716845290915281205490916106b89185906107199086610c11565b6107b68282610c2a565b5050565b6107c43382610ce3565b50565b73ffffffffffffffffffffffffffffffffffffffff1660009081526020819052604090205490565b6000610809826101a16108028633610a21565b9190610bfb565b9050610816833383610a63565b6108208383610ce3565b505050565b6107b68282610ce3565b600061083a82610840565b92915050565b73ffffffffffffffffffffffffffffffffffffffff1660009081526006602052604090205490565b60048054604080516020601f60027fffffffffffffffffffffffffffffffffffffffffffffffffffffffffffffffff6101006001881615020190951694909404938401819004810282018101909252828152606093909290918301828280156106a15780601f10610676576101008083540402835291602001916106a1565b33600081815260016020908152604080832073ffffffffffffffffffffffffffffffffffffffff8716845290915281205490916106b8918590610719908661019f610bfb565b60006106b8338484610ad2565b60076020526000908152604090205481565b60007f6e71edae12b1b97f4d1f60370fef10105fa2faae0126114a169c64845d6126c988888861097b8c610840565b89604051602001808781526020018673ffffffffffffffffffffffffffffffffffffffff1681526020018573ffffffffffffffffffffffffffffffffffffffff1681526020018481526020018381526020018281526020019650505050505050604051602081830303815290604052805190602001209050610a0c8882610a03878787610dd3565b886101f8610e12565b610a17888888610a63565b5050505050505050565b73ffffffffffffffffffffffffffffffffffffffff918216600090815260016020908152604080832093909416825291909152205490565b600061073b610e76565b73ffffffffffffffffffffffffffffffffffffffff808416600081815260016020908152604080832094871680845294825291829020859055815185815291517f8c5be1e5ebec7d5bd14f71427d1e84f3dd0314c0f7b2291e5b200ac8c7c3b9259281900390910190a3505050565b610af673ffffffffffffffffffffffffffffffffffffffff84161515610198610f41565b610b1a73ffffffffffffffffffffffffffffffffffffffff83161515610199610f41565b610b25838383610820565b73ffffffffffffffffffffffffffffffffffffffff8316600090815260208190526040902054610b5890826101a0610bfb565b73ffffffffffffffffffffffffffffffffffffffff8085166000908152602081905260408082209390935590841681522054610b949082610c11565b73ffffffffffffffffffffffffffffffffffffffff8084166000818152602081815260409182902094909455805185815290519193928716927fddf252ad1be2c89b69c2b068fc378daa952ba7f163c4a11628f55a4df523b3ef92918290030190a3505050565b6000610c0a8484111583610f41565b5050900390565b6000828201610c238482101583610f41565b9392505050565b610c3660008383610820565b610c50610c4b82610c456106c1565b90610c11565b610f4f565b73ffffffffffffffffffffffffffffffffffffffff8216600090815260208190526040902054610c809082610c11565b73ffffffffffffffffffffffffffffffffffffffff83166000818152602081815260408083209490945583518581529351929391927fddf252ad1be2c89b69c2b068fc378daa952ba7f163c4a11628f55a4df523b3ef9281900390910190a35050565b610d0773ffffffffffffffffffffffffffffffffffffffff8316151561019b610f41565b610d1382600083610820565b73ffffffffffffffffffffffffffffffffffffffff8216600090815260208190526040902054610d4690826101b2610bfb565b73ffffffffffffffffffffffffffffffffffffffff8316600090815260208190526040902055610d81610c4b82610d7b6106c1565b90610f54565b60408051828152905160009173ffffffffffffffffffffffffffffffffffffffff8516917fddf252ad1be2c89b69c2b068fc378daa952ba7f163c4a11628f55a4df523b3ef9181900360200190a35050565b60408051604180825260808201909252606091829190602082018180368337019050509050836020820152826040820152846060820153949350505050565b6000610e1d85610f62565b9050610e33610e2d878387610fc9565b83610f41565b610e42428410156101b8610f41565b50505073ffffffffffffffffffffffffffffffffffffffff9092166000908152600660205260409020805460010190555050565b60007f00000000000000000000000000000000000000000000000000000000000000007f00000000000000000000000000000000000000000000000000000000000000007f0000000000000000000000000000000000000000000000000000000000000000610ee36110db565b30604051602001808681526020018581526020018481526020018381526020018273ffffffffffffffffffffffffffffffffffffffff1681526020019550505050505060405160208183030381529060405280519060200120905090565b816107b6576107b6816110df565b600255565b6000610c2383836001610bfb565b6000610f6c610e76565b8260405160200180807f190100000000000000000000000000000000000000000000000000000000000081525060020183815260200182815260200192505050604051602081830303815290604052805190602001209050919050565b6000610fdb82516041146101b9610f41565b60008060006020850151925060408501519150606085015160001a9050600060018783868660405160008152602001604052604051808581526020018460ff1681526020018381526020018281526020019450505050506020604051602081039080840390855afa158015611054573d6000803e3d6000fd5b50506040517fffffffffffffffffffffffffffffffffffffffffffffffffffffffffffffffe0015191505073ffffffffffffffffffffffffffffffffffffffff8116158015906110cf57508773ffffffffffffffffffffffffffffffffffffffff168173ffffffffffffffffffffffffffffffffffffffff16145b98975050505050505050565b4690565b7f08c379a000000000000000000000000000000000000000000000000000000000600090815260206004526007602452600a808304818106603090810160081b83860601918390049283060160101b016642414c230000300160c81b6044526107c4917f42414c0000000000000000000000000000000000000000000000000000000000906242414c90606490fdfea26469706673582212205aa79da2f9e564d7327c62fab1bff5177147db1d45bc4e450cd09a405a5a3dd264736f6c63430007010033",
  "linkReferences": {},
  "deployedLinkReferences": {}
}