{
  "_format": "hh-sol-artifact-1",
  "contractName": "MockSilo",
  "sourceName": "src/helpers/contracts/MockSilo.sol",
  "abi": [
    {
      "inputs": [
        {
          "internalType": "address",
          "name": "_siloRepository",
          "type": "address"
        },
        {
          "internalType": "address",
          "name": "_siloAsset",
          "type": "address"
        }
      ],
      "stateMutability": "nonpayable",
      "type": "constructor"
    },
    {
      "inputs": [
        {
          "internalType": "address",
          "name": "_asset",
          "type": "address"
        }
      ],
      "name": "assetStorage",
      "outputs": [
        {
          "components": [
            {
              "internalType": "address",
              "name": "collateralToken",
              "type": "address"
            },
            {
              "internalType": "address",
              "name": "collateralOnlyToken",
              "type": "address"
            },
            {
              "internalType": "address",
              "name": "debtToken",
              "type": "address"
            },
            {
              "internalType": "uint256",
              "name": "totalDeposits",
              "type": "uint256"
            },
            {
              "internalType": "uint256",
              "name": "collateralOnlyDeposits",
              "type": "uint256"
            },
            {
              "internalType": "uint256",
              "name": "totalBorrowAmount",
              "type": "uint256"
            }
          ],
          "internalType": "struct IBaseSilo.AssetStorage",
          "name": "",
          "type": "tuple"
        }
      ],
      "stateMutability": "view",
      "type": "function"
    },
    {
      "inputs": [
        {
          "internalType": "address",
          "name": "",
          "type": "address"
        },
        {
          "internalType": "uint256",
          "name": "",
          "type": "uint256"
        },
        {
          "internalType": "bool",
          "name": "",
          "type": "bool"
        }
      ],
      "name": "deposit",
      "outputs": [
        {
          "internalType": "uint256",
          "name": "collateralAmount",
          "type": "uint256"
        },
        {
          "internalType": "uint256",
          "name": "collateralShare",
          "type": "uint256"
        }
      ],
      "stateMutability": "pure",
      "type": "function"
    },
    {
      "inputs": [
        {
          "internalType": "address",
          "name": "_asset",
          "type": "address"
        }
      ],
      "name": "interestData",
      "outputs": [
        {
          "components": [
            {
              "internalType": "uint256",
              "name": "harvestedProtocolFees",
              "type": "uint256"
            },
            {
              "internalType": "uint256",
              "name": "protocolFees",
              "type": "uint256"
            },
            {
              "internalType": "uint64",
              "name": "interestRateTimestamp",
              "type": "uint64"
            },
            {
              "internalType": "enum IBaseSilo.AssetStatus",
              "name": "status",
              "type": "uint8"
            }
          ],
          "internalType": "struct IBaseSilo.AssetInterestData",
          "name": "",
          "type": "tuple"
        }
      ],
      "stateMutability": "view",
      "type": "function"
    },
    {
      "inputs": [],
      "name": "maybeRevertMaliciously",
      "outputs": [],
      "stateMutability": "view",
      "type": "function"
    },
    {
      "inputs": [],
      "name": "revertType",
      "outputs": [
        {
          "internalType": "enum MaliciousQueryReverter.RevertType",
          "name": "",
          "type": "uint8"
        }
      ],
      "stateMutability": "view",
      "type": "function"
    },
    {
      "inputs": [
        {
          "internalType": "address",
          "name": "interestBearingAsset",
          "type": "address"
        },
        {
          "internalType": "address",
          "name": "collateralToken",
          "type": "address"
        },
        {
          "internalType": "address",
          "name": "collateralOnlyToken",
          "type": "address"
        },
        {
          "internalType": "address",
          "name": "debtToken",
          "type": "address"
        },
        {
          "internalType": "uint256",
          "name": "totalDeposits",
          "type": "uint256"
        },
        {
          "internalType": "uint256",
          "name": "collateralOnlyDeposits",
          "type": "uint256"
        },
        {
          "internalType": "uint256",
          "name": "totalBorrowAmount",
          "type": "uint256"
        }
      ],
      "name": "setAssetStorage",
      "outputs": [],
      "stateMutability": "nonpayable",
      "type": "function"
    },
    {
      "inputs": [
        {
          "internalType": "address",
          "name": "interestBearingAsset",
          "type": "address"
        },
        {
          "internalType": "uint256",
          "name": "harvestedProtocolFees",
          "type": "uint256"
        },
        {
          "internalType": "uint256",
          "name": "protocolFees",
          "type": "uint256"
        },
        {
          "internalType": "uint64",
          "name": "interestRateTimestamp",
          "type": "uint64"
        },
        {
          "internalType": "enum IBaseSilo.AssetStatus",
          "name": "status",
          "type": "uint8"
        }
      ],
      "name": "setInterestData",
      "outputs": [],
      "stateMutability": "nonpayable",
      "type": "function"
    },
    {
      "inputs": [
        {
          "internalType": "enum MaliciousQueryReverter.RevertType",
          "name": "newRevertType",
          "type": "uint8"
        }
      ],
      "name": "setRevertType",
      "outputs": [],
      "stateMutability": "nonpayable",
      "type": "function"
    },
    {
      "inputs": [],
      "name": "siloAsset",
      "outputs": [
        {
          "internalType": "address",
          "name": "",
          "type": "address"
        }
      ],
      "stateMutability": "view",
      "type": "function"
    },
    {
      "inputs": [],
      "name": "siloRepository",
      "outputs": [
        {
          "internalType": "address",
          "name": "",
          "type": "address"
        }
      ],
      "stateMutability": "view",
      "type": "function"
    },
    {
      "inputs": [],
      "name": "spoofJoinExitQueryRevert",
      "outputs": [],
      "stateMutability": "pure",
      "type": "function"
    },
    {
      "inputs": [],
      "name": "spoofSwapQueryRevert",
      "outputs": [],
      "stateMutability": "pure",
      "type": "function"
    },
    {
      "inputs": [
        {
          "internalType": "address",
          "name": "",
          "type": "address"
        },
        {
          "internalType": "uint256",
          "name": "",
          "type": "uint256"
        },
        {
          "internalType": "bool",
          "name": "",
          "type": "bool"
        }
      ],
      "name": "withdraw",
      "outputs": [
        {
          "internalType": "uint256",
          "name": "withdrawnAmount",
          "type": "uint256"
        },
        {
          "internalType": "uint256",
          "name": "withdrawnShare",
          "type": "uint256"
        }
      ],
      "stateMutability": "pure",
      "type": "function"
    }
  ],
  "bytecode": "0x60c06040526000805460ff1916905534801561001a57600080fd5b50604051610bd5380380610bd583398101604081905261003991610074565b6001600160601b0319606092831b811660a052911b166080526100a8565b80516001600160a01b038116811461006e57600080fd5b92915050565b60008060408385031215610086578182fd5b6100908484610057565b915061009f8460208501610057565b90509250929050565b60805160601c60a05160601c610b046100d16000398061062c5250806103375250610b046000f3fe608060405234801561001057600080fd5b50600436106100df5760003560e01c80637ce3ee481161008c578063bf27304111610066578063bf2730411461017e578063d652e8c61461019e578063ead5d35914610109578063fb255703146101b3576100df565b80637ce3ee481461015b578063ace49cd714610163578063bde1271814610176576100df565b80633edd1128116100bd5780633edd1128146101095780634521c01914610133578063686196d014610148576100df565b8063146d4eee146100e457806329478cb4146100ee5780632cd10339146100f6575b600080fd5b6100ec6101d3565b005b6100ec610243565b6100ec61010436600461098f565b6102e0565b61011c6101173660046108df565b61031f565b60405161012a929190610ac0565b60405180910390f35b61013b61032a565b60405161012a91906109ae565b6100ec61015636600461086d565b610359565b6100ec610438565b6100ec610171366004610923565b610511565b61013b61061f565b61019161018c36600461084b565b61064e565b60405161012a9190610a60565b6101a66106de565b60405161012a91906109cf565b6101c66101c136600461084b565b6106e7565b60405161012a9190610a1a565b604080516002808252606080830184529260208301908036833701905050905060018160008151811061020257fe5b60200260200101818152505060028160018151811061021d57fe5b602002602001018181525050602081510263fa61cc126020830352600482036024820181fd5b600160005460ff16600381111561025657fe5b1415610297576040517f08c379a000000000000000000000000000000000000000000000000000000000815260040161028e906109e3565b60405180910390fd5b600260005460ff1660038111156102aa57fe5b14156102bd576102b86101d3565b6102de565b600360005460ff1660038111156102d057fe5b14156102de576102de610438565b565b600080548291907fffffffffffffffffffffffffffffffffffffffffffffffffffffffffffffff0016600183600381111561031757fe5b021790555050565b600080935093915050565b6000610334610243565b507f000000000000000000000000000000000000000000000000000000000000000090565b610361610243565b610369610784565b506040805160c08101825273ffffffffffffffffffffffffffffffffffffffff97881681529587166020808801918252958816878301908152606088019586526080880194855260a08801938452988816600090815260019687905291909120955186549088167fffffffffffffffffffffffff0000000000000000000000000000000000000000918216178755905194860180549588169582169590951790945595516002850180549190961693169290921790935591516003820155905160048201559051600590910155565b604080516002808252606080830184529260208301908036833701905050905060018160008151811061046757fe5b60200260200101818152505060028160018151811061048257fe5b60209081029190910181019190915281516101a47fffffffffffffffffffffffffffffffffffffffffffffffffffffffffffffffe084018190526343adbafb7fffffffffffffffffffffffffffffffffffffffffffffffffffffffffffffffc085015291027fffffffffffffffffffffffffffffffffffffffffffffffffffffffffffffffdc83016044820181fd5b610519610243565b6105216107fc565b60405180608001604052808681526020018581526020018467ffffffffffffffff16815260200183600281111561055457fe5b905273ffffffffffffffffffffffffffffffffffffffff8716600090815260026020818152604092839020845181559084015160018201559183015182820180547fffffffffffffffffffffffffffffffffffffffffffffffff00000000000000001667ffffffffffffffff9092169190911780825560608501519495508594927fffffffffffffffffffffffffffffffffffffffffffffff00ffffffffffffffff909116906801000000000000000090849081111561061057fe5b02179055505050505050505050565b6000610629610243565b507f000000000000000000000000000000000000000000000000000000000000000090565b610656610784565b61065e610243565b610666610784565b505073ffffffffffffffffffffffffffffffffffffffff908116600090815260016020818152604092839020835160c08101855281548616815292810154851691830191909152600281015490931691810191909152600382015460608201526004820154608082015260059091015460a082015290565b60005460ff1681565b6106ef6107fc565b6106f7610243565b73ffffffffffffffffffffffffffffffffffffffff82166000908152600260208181526040928390208351608081018552815481526001820154928101929092528083015467ffffffffffffffff81169483019490945290929091606084019168010000000000000000900460ff169081111561077057fe5b600281111561077b57fe5b90525092915050565b6040518060c00160405280600073ffffffffffffffffffffffffffffffffffffffff168152602001600073ffffffffffffffffffffffffffffffffffffffff168152602001600073ffffffffffffffffffffffffffffffffffffffff1681526020016000815260200160008152602001600081525090565b6040805160808101825260008082526020820181905291810182905290606082015290565b803573ffffffffffffffffffffffffffffffffffffffff8116811461084557600080fd5b92915050565b60006020828403121561085c578081fd5b6108668383610821565b9392505050565b600080600080600080600060e0888a031215610887578283fd5b6108918989610821565b96506108a08960208a01610821565b95506108af8960408a01610821565b94506108be8960608a01610821565b9699959850939660808101359560a0820135955060c0909101359350915050565b6000806000606084860312156108f3578283fd5b6108fd8585610821565b92506020840135915060408401358015158114610918578182fd5b809150509250925092565b600080600080600060a0868803121561093a578081fd5b6109448787610821565b94506020860135935060408601359250606086013567ffffffffffffffff8116811461096e578182fd5b9150608086013560038110610981578182fd5b809150509295509295909350565b6000602082840312156109a0578081fd5b813560048110610866578182fd5b73ffffffffffffffffffffffffffffffffffffffff91909116815260200190565b60208101600483106109dd57fe5b91905290565b60208082526014908201527f4e4f4e5f4d414c4943494f55535f524556455254000000000000000000000000604082015260600190565b6000608082019050825182526020830151602083015267ffffffffffffffff6040840151166040830152606083015160038110610a5357fe5b8060608401525092915050565b600060c08201905073ffffffffffffffffffffffffffffffffffffffff80845116835280602085015116602084015280604085015116604084015250606083015160608301526080830151608083015260a083015160a083015292915050565b91825260208201526040019056fea2646970667358221220e62337ba493c09a2582d38c4abe9971e00fc67741b449f45168d026d68e6487764736f6c63430007010033",
  "linkReferences": {},
  "deployedLinkReferences": {}
}