{
  "_format": "hh-sol-artifact-1",
  "contractName": "MockBaseSilo",
  "sourceName": "src/helpers/contracts/MockBaseSilo.sol",
  "abi": [
    {
      "inputs": [
        {
          "internalType": "address",
          "name": "siloRepository",
          "type": "address"
        },
        {
          "internalType": "address",
          "name": "siloAsset",
          "type": "address"
        }
      ],
      "stateMutability": "nonpayable",
      "type": "constructor"
    },
    {
      "inputs": [
        {
          "internalType": "address",
          "name": "_asset",
          "type": "address"
        }
      ],
      "name": "assetStorage",
      "outputs": [
        {
          "components": [
            {
              "internalType": "address",
              "name": "collateralToken",
              "type": "address"
            },
            {
              "internalType": "address",
              "name": "collateralOnlyToken",
              "type": "address"
            },
            {
              "internalType": "address",
              "name": "debtToken",
              "type": "address"
            },
            {
              "internalType": "uint256",
              "name": "totalDeposits",
              "type": "uint256"
            },
            {
              "internalType": "uint256",
              "name": "collateralOnlyDeposits",
              "type": "uint256"
            },
            {
              "internalType": "uint256",
              "name": "totalBorrowAmount",
              "type": "uint256"
            }
          ],
          "internalType": "struct IBaseSilo.AssetStorage",
          "name": "",
          "type": "tuple"
        }
      ],
      "stateMutability": "view",
      "type": "function"
    },
    {
      "inputs": [
        {
          "internalType": "address",
          "name": "_asset",
          "type": "address"
        }
      ],
      "name": "interestData",
      "outputs": [
        {
          "components": [
            {
              "internalType": "uint256",
              "name": "harvestedProtocolFees",
              "type": "uint256"
            },
            {
              "internalType": "uint256",
              "name": "protocolFees",
              "type": "uint256"
            },
            {
              "internalType": "uint64",
              "name": "interestRateTimestamp",
              "type": "uint64"
            },
            {
              "internalType": "enum IBaseSilo.AssetStatus",
              "name": "status",
              "type": "uint8"
            }
          ],
          "internalType": "struct IBaseSilo.AssetInterestData",
          "name": "",
          "type": "tuple"
        }
      ],
      "stateMutability": "view",
      "type": "function"
    },
    {
      "inputs": [],
      "name": "maybeRevertMaliciously",
      "outputs": [],
      "stateMutability": "view",
      "type": "function"
    },
    {
      "inputs": [],
      "name": "revertType",
      "outputs": [
        {
          "internalType": "enum MaliciousQueryReverter.RevertType",
          "name": "",
          "type": "uint8"
        }
      ],
      "stateMutability": "view",
      "type": "function"
    },
    {
      "inputs": [
        {
          "internalType": "address",
          "name": "interestBearingAsset",
          "type": "address"
        },
        {
          "internalType": "address",
          "name": "collateralToken",
          "type": "address"
        },
        {
          "internalType": "address",
          "name": "collateralOnlyToken",
          "type": "address"
        },
        {
          "internalType": "address",
          "name": "debtToken",
          "type": "address"
        },
        {
          "internalType": "uint256",
          "name": "totalDeposits",
          "type": "uint256"
        },
        {
          "internalType": "uint256",
          "name": "collateralOnlyDeposits",
          "type": "uint256"
        },
        {
          "internalType": "uint256",
          "name": "totalBorrowAmount",
          "type": "uint256"
        }
      ],
      "name": "setAssetStorage",
      "outputs": [],
      "stateMutability": "nonpayable",
      "type": "function"
    },
    {
      "inputs": [
        {
          "internalType": "address",
          "name": "interestBearingAsset",
          "type": "address"
        },
        {
          "internalType": "uint256",
          "name": "harvestedProtocolFees",
          "type": "uint256"
        },
        {
          "internalType": "uint256",
          "name": "protocolFees",
          "type": "uint256"
        },
        {
          "internalType": "uint64",
          "name": "interestRateTimestamp",
          "type": "uint64"
        },
        {
          "internalType": "enum IBaseSilo.AssetStatus",
          "name": "status",
          "type": "uint8"
        }
      ],
      "name": "setInterestData",
      "outputs": [],
      "stateMutability": "nonpayable",
      "type": "function"
    },
    {
      "inputs": [
        {
          "internalType": "enum MaliciousQueryReverter.RevertType",
          "name": "newRevertType",
          "type": "uint8"
        }
      ],
      "name": "setRevertType",
      "outputs": [],
      "stateMutability": "nonpayable",
      "type": "function"
    },
    {
      "inputs": [],
      "name": "siloAsset",
      "outputs": [
        {
          "internalType": "address",
          "name": "",
          "type": "address"
        }
      ],
      "stateMutability": "view",
      "type": "function"
    },
    {
      "inputs": [],
      "name": "siloRepository",
      "outputs": [
        {
          "internalType": "address",
          "name": "",
          "type": "address"
        }
      ],
      "stateMutability": "view",
      "type": "function"
    },
    {
      "inputs": [],
      "name": "spoofJoinExitQueryRevert",
      "outputs": [],
      "stateMutability": "pure",
      "type": "function"
    },
    {
      "inputs": [],
      "name": "spoofSwapQueryRevert",
      "outputs": [],
      "stateMutability": "pure",
      "type": "function"
    }
  ],
  "bytecode": "0x60c06040526000805460ff1916905534801561001a57600080fd5b50604051610b41380380610b4183398101604081905261003991610074565b6001600160601b0319606092831b811660a052911b166080526100a8565b80516001600160a01b038116811461006e57600080fd5b92915050565b60008060408385031215610086578182fd5b6100908484610057565b915061009f8460208501610057565b90509250929050565b60805160601c60a05160601c610a706100d1600039806105ea5250806102f55250610a706000f3fe608060405234801561001057600080fd5b50600436106100c95760003560e01c80637ce3ee4811610081578063bf2730411161005b578063bf27304114610147578063d652e8c614610167578063fb2557031461017c576100c9565b80637ce3ee4814610124578063ace49cd71461012c578063bde127181461013f576100c9565b80632cd10339116100b25780632cd10339146100e05780634521c019146100f3578063686196d014610111576100c9565b8063146d4eee146100ce57806329478cb4146100d8575b600080fd5b6100d661019c565b005b6100d661020c565b6100d66100ee366004610909565b6102a9565b6100fb6102e8565b6040516101089190610928565b60405180910390f35b6100d661011f36600461082b565b610317565b6100d66103f6565b6100d661013a36600461089d565b6104cf565b6100fb6105dd565b61015a610155366004610809565b61060c565b60405161010891906109da565b61016f61069c565b6040516101089190610949565b61018f61018a366004610809565b6106a5565b6040516101089190610994565b60408051600280825260608083018452926020830190803683370190505090506001816000815181106101cb57fe5b6020026020010181815250506002816001815181106101e657fe5b602002602001018181525050602081510263fa61cc126020830352600482036024820181fd5b600160005460ff16600381111561021f57fe5b1415610260576040517f08c379a00000000000000000000000000000000000000000000000000000000081526004016102579061095d565b60405180910390fd5b600260005460ff16600381111561027357fe5b14156102865761028161019c565b6102a7565b600360005460ff16600381111561029957fe5b14156102a7576102a76103f6565b565b600080548291907fffffffffffffffffffffffffffffffffffffffffffffffffffffffffffffff001660018360038111156102e057fe5b021790555050565b60006102f261020c565b507f000000000000000000000000000000000000000000000000000000000000000090565b61031f61020c565b610327610742565b506040805160c08101825273ffffffffffffffffffffffffffffffffffffffff97881681529587166020808801918252958816878301908152606088019586526080880194855260a08801938452988816600090815260019687905291909120955186549088167fffffffffffffffffffffffff0000000000000000000000000000000000000000918216178755905194860180549588169582169590951790945595516002850180549190961693169290921790935591516003820155905160048201559051600590910155565b604080516002808252606080830184529260208301908036833701905050905060018160008151811061042557fe5b60200260200101818152505060028160018151811061044057fe5b60209081029190910181019190915281516101a47fffffffffffffffffffffffffffffffffffffffffffffffffffffffffffffffe084018190526343adbafb7fffffffffffffffffffffffffffffffffffffffffffffffffffffffffffffffc085015291027fffffffffffffffffffffffffffffffffffffffffffffffffffffffffffffffdc83016044820181fd5b6104d761020c565b6104df6107ba565b60405180608001604052808681526020018581526020018467ffffffffffffffff16815260200183600281111561051257fe5b905273ffffffffffffffffffffffffffffffffffffffff8716600090815260026020818152604092839020845181559084015160018201559183015182820180547fffffffffffffffffffffffffffffffffffffffffffffffff00000000000000001667ffffffffffffffff9092169190911780825560608501519495508594927fffffffffffffffffffffffffffffffffffffffffffffff00ffffffffffffffff90911690680100000000000000009084908111156105ce57fe5b02179055505050505050505050565b60006105e761020c565b507f000000000000000000000000000000000000000000000000000000000000000090565b610614610742565b61061c61020c565b610624610742565b505073ffffffffffffffffffffffffffffffffffffffff908116600090815260016020818152604092839020835160c08101855281548616815292810154851691830191909152600281015490931691810191909152600382015460608201526004820154608082015260059091015460a082015290565b60005460ff1681565b6106ad6107ba565b6106b561020c565b73ffffffffffffffffffffffffffffffffffffffff82166000908152600260208181526040928390208351608081018552815481526001820154928101929092528083015467ffffffffffffffff81169483019490945290929091606084019168010000000000000000900460ff169081111561072e57fe5b600281111561073957fe5b90525092915050565b6040518060c00160405280600073ffffffffffffffffffffffffffffffffffffffff168152602001600073ffffffffffffffffffffffffffffffffffffffff168152602001600073ffffffffffffffffffffffffffffffffffffffff1681526020016000815260200160008152602001600081525090565b6040805160808101825260008082526020820181905291810182905290606082015290565b803573ffffffffffffffffffffffffffffffffffffffff8116811461080357600080fd5b92915050565b60006020828403121561081a578081fd5b61082483836107df565b9392505050565b600080600080600080600060e0888a031215610845578283fd5b61084f89896107df565b965061085e8960208a016107df565b955061086d8960408a016107df565b945061087c8960608a016107df565b9699959850939660808101359560a0820135955060c0909101359350915050565b600080600080600060a086880312156108b4578081fd5b6108be87876107df565b94506020860135935060408601359250606086013567ffffffffffffffff811681146108e8578182fd5b91506080860135600381106108fb578182fd5b809150509295509295909350565b60006020828403121561091a578081fd5b813560048110610824578182fd5b73ffffffffffffffffffffffffffffffffffffffff91909116815260200190565b602081016004831061095757fe5b91905290565b60208082526014908201527f4e4f4e5f4d414c4943494f55535f524556455254000000000000000000000000604082015260600190565b6000608082019050825182526020830151602083015267ffffffffffffffff60408401511660408301526060830151600381106109cd57fe5b8060608401525092915050565b600060c08201905073ffffffffffffffffffffffffffffffffffffffff80845116835280602085015116602084015280604085015116604084015250606083015160608301526080830151608083015260a083015160a08301529291505056fea26469706673582212206444a4ae91417154f62cccf6728fdaa97e7b6f9188b9ac89f7e15968603315d964736f6c63430007010033",
  "linkReferences": {},
  "deployedLinkReferences": {}
}