{
  "_format": "hh-sol-artifact-1",
  "contractName": "MockVeDelegation",
  "sourceName": "src/helpers/contracts/MockVeDelegation.sol",
  "abi": [
    {
      "inputs": [],
      "stateMutability": "nonpayable",
      "type": "constructor"
    },
    {
      "anonymous": false,
      "inputs": [
        {
          "indexed": true,
          "internalType": "address",
          "name": "owner",
          "type": "address"
        },
        {
          "indexed": true,
          "internalType": "address",
          "name": "spender",
          "type": "address"
        },
        {
          "indexed": false,
          "internalType": "uint256",
          "name": "value",
          "type": "uint256"
        }
      ],
      "name": "Approval",
      "type": "event"
    },
    {
      "anonymous": false,
      "inputs": [
        {
          "indexed": true,
          "internalType": "address",
          "name": "from",
          "type": "address"
        },
        {
          "indexed": true,
          "internalType": "address",
          "name": "to",
          "type": "address"
        },
        {
          "indexed": false,
          "internalType": "uint256",
          "name": "value",
          "type": "uint256"
        }
      ],
      "name": "Transfer",
      "type": "event"
    },
    {
      "inputs": [],
      "name": "DOMAIN_SEPARATOR",
      "outputs": [
        {
          "internalType": "bytes32",
          "name": "",
          "type": "bytes32"
        }
      ],
      "stateMutability": "view",
      "type": "function"
    },
    {
      "inputs": [
        {
          "internalType": "address",
          "name": "user",
          "type": "address"
        }
      ],
      "name": "adjusted_balance_of",
      "outputs": [
        {
          "internalType": "uint256",
          "name": "",
          "type": "uint256"
        }
      ],
      "stateMutability": "view",
      "type": "function"
    },
    {
      "inputs": [
        {
          "internalType": "address",
          "name": "owner",
          "type": "address"
        },
        {
          "internalType": "address",
          "name": "spender",
          "type": "address"
        }
      ],
      "name": "allowance",
      "outputs": [
        {
          "internalType": "uint256",
          "name": "",
          "type": "uint256"
        }
      ],
      "stateMutability": "view",
      "type": "function"
    },
    {
      "inputs": [
        {
          "internalType": "address",
          "name": "spender",
          "type": "address"
        },
        {
          "internalType": "uint256",
          "name": "amount",
          "type": "uint256"
        }
      ],
      "name": "approve",
      "outputs": [
        {
          "internalType": "bool",
          "name": "",
          "type": "bool"
        }
      ],
      "stateMutability": "nonpayable",
      "type": "function"
    },
    {
      "inputs": [
        {
          "internalType": "address",
          "name": "account",
          "type": "address"
        }
      ],
      "name": "balanceOf",
      "outputs": [
        {
          "internalType": "uint256",
          "name": "",
          "type": "uint256"
        }
      ],
      "stateMutability": "view",
      "type": "function"
    },
    {
      "inputs": [
        {
          "internalType": "uint256",
          "name": "amount",
          "type": "uint256"
        }
      ],
      "name": "burn",
      "outputs": [],
      "stateMutability": "nonpayable",
      "type": "function"
    },
    {
      "inputs": [
        {
          "internalType": "address",
          "name": "account",
          "type": "address"
        },
        {
          "internalType": "uint256",
          "name": "amount",
          "type": "uint256"
        }
      ],
      "name": "burnFrom",
      "outputs": [],
      "stateMutability": "nonpayable",
      "type": "function"
    },
    {
      "inputs": [
        {
          "internalType": "address",
          "name": "sender",
          "type": "address"
        },
        {
          "internalType": "uint256",
          "name": "amount",
          "type": "uint256"
        }
      ],
      "name": "burnWithoutAllowance",
      "outputs": [],
      "stateMutability": "nonpayable",
      "type": "function"
    },
    {
      "inputs": [],
      "name": "decimals",
      "outputs": [
        {
          "internalType": "uint8",
          "name": "",
          "type": "uint8"
        }
      ],
      "stateMutability": "view",
      "type": "function"
    },
    {
      "inputs": [
        {
          "internalType": "address",
          "name": "spender",
          "type": "address"
        },
        {
          "internalType": "uint256",
          "name": "subtractedValue",
          "type": "uint256"
        }
      ],
      "name": "decreaseAllowance",
      "outputs": [
        {
          "internalType": "bool",
          "name": "",
          "type": "bool"
        }
      ],
      "stateMutability": "nonpayable",
      "type": "function"
    },
    {
      "inputs": [],
      "name": "getDomainSeparator",
      "outputs": [
        {
          "internalType": "bytes32",
          "name": "",
          "type": "bytes32"
        }
      ],
      "stateMutability": "view",
      "type": "function"
    },
    {
      "inputs": [
        {
          "internalType": "address",
          "name": "account",
          "type": "address"
        }
      ],
      "name": "getNextNonce",
      "outputs": [
        {
          "internalType": "uint256",
          "name": "",
          "type": "uint256"
        }
      ],
      "stateMutability": "view",
      "type": "function"
    },
    {
      "inputs": [
        {
          "internalType": "address",
          "name": "spender",
          "type": "address"
        },
        {
          "internalType": "uint256",
          "name": "addedValue",
          "type": "uint256"
        }
      ],
      "name": "increaseAllowance",
      "outputs": [
        {
          "internalType": "bool",
          "name": "",
          "type": "bool"
        }
      ],
      "stateMutability": "nonpayable",
      "type": "function"
    },
    {
      "inputs": [
        {
          "internalType": "address",
          "name": "recipient",
          "type": "address"
        },
        {
          "internalType": "uint256",
          "name": "amount",
          "type": "uint256"
        }
      ],
      "name": "mint",
      "outputs": [],
      "stateMutability": "nonpayable",
      "type": "function"
    },
    {
      "inputs": [],
      "name": "name",
      "outputs": [
        {
          "internalType": "string",
          "name": "",
          "type": "string"
        }
      ],
      "stateMutability": "view",
      "type": "function"
    },
    {
      "inputs": [
        {
          "internalType": "address",
          "name": "owner",
          "type": "address"
        }
      ],
      "name": "nonces",
      "outputs": [
        {
          "internalType": "uint256",
          "name": "",
          "type": "uint256"
        }
      ],
      "stateMutability": "view",
      "type": "function"
    },
    {
      "inputs": [
        {
          "internalType": "address",
          "name": "owner",
          "type": "address"
        },
        {
          "internalType": "address",
          "name": "spender",
          "type": "address"
        },
        {
          "internalType": "uint256",
          "name": "value",
          "type": "uint256"
        },
        {
          "internalType": "uint256",
          "name": "deadline",
          "type": "uint256"
        },
        {
          "internalType": "uint8",
          "name": "v",
          "type": "uint8"
        },
        {
          "internalType": "bytes32",
          "name": "r",
          "type": "bytes32"
        },
        {
          "internalType": "bytes32",
          "name": "s",
          "type": "bytes32"
        }
      ],
      "name": "permit",
      "outputs": [],
      "stateMutability": "nonpayable",
      "type": "function"
    },
    {
      "inputs": [],
      "name": "symbol",
      "outputs": [
        {
          "internalType": "string",
          "name": "",
          "type": "string"
        }
      ],
      "stateMutability": "view",
      "type": "function"
    },
    {
      "inputs": [],
      "name": "totalSupply",
      "outputs": [
        {
          "internalType": "uint256",
          "name": "",
          "type": "uint256"
        }
      ],
      "stateMutability": "view",
      "type": "function"
    },
    {
      "inputs": [
        {
          "internalType": "address",
          "name": "recipient",
          "type": "address"
        },
        {
          "internalType": "uint256",
          "name": "amount",
          "type": "uint256"
        }
      ],
      "name": "transfer",
      "outputs": [
        {
          "internalType": "bool",
          "name": "",
          "type": "bool"
        }
      ],
      "stateMutability": "nonpayable",
      "type": "function"
    },
    {
      "inputs": [
        {
          "internalType": "address",
          "name": "sender",
          "type": "address"
        },
        {
          "internalType": "address",
          "name": "recipient",
          "type": "address"
        },
        {
          "internalType": "uint256",
          "name": "amount",
          "type": "uint256"
        }
      ],
      "name": "transferFrom",
      "outputs": [
        {
          "internalType": "bool",
          "name": "",
          "type": "bool"
        }
      ],
      "stateMutability": "nonpayable",
      "type": "function"
    }
  ],
  "bytecode": "0x60e06040523480156200001157600080fd5b506040518060400160405280601281526020017126b7b1b5902b22903232b632b3b0ba34b7b760711b81525060405180604001604052806006815260200165191d9950905360d21b81525060128280604051806040016040528060018152602001603160f81b81525085858160039080519060200190620000949291906200011c565b508051620000aa9060049060208401906200011c565b50506005805460ff19166012179055508151602092830120608052805191012060a052507f8b73c3c69bb8fe3d512ecc4cf759cc79239f7b179b0ffacaa9a75d522b39400f60c052620000fd8162000106565b505050620001b8565b6005805460ff191660ff92909216919091179055565b828054600181600116156101000203166002900490600052602060002090601f016020900481019282601f106200015f57805160ff19168380011785556200018f565b828001600101855582156200018f579182015b828111156200018f57825182559160200191906001019062000172565b506200019d929150620001a1565b5090565b5b808211156200019d5760008155600101620001a2565b60805160a05160c05161113a620001e560003980610e10525080610e52525080610e31525061113a6000f3fe608060405234801561001057600080fd5b50600436106101775760003560e01c806379cc6790116100d8578063a457c2d71161008c578063d505accf11610066578063d505accf14610512578063dd62ed3e14610570578063ed24911d146105ab57610177565b8063a457c2d71461046d578063a9059cbb146104a6578063bbf7408a146104df57610177565b80637ecebe00116100bd5780637ecebe00146103ff57806390193b7c1461043257806395d89b411461046557610177565b806379cc67901461038d5780637c602bc2146103c657610177565b80633644e5151161012f57806340c10f191161011457806340c10f191461030257806342966c681461033d57806370a082311461035a57610177565b80633644e515146102c157806339509351146102c957610177565b806318160ddd1161016057806318160ddd1461024657806323b872dd14610260578063313ce567146102a357610177565b806306fdde031461017c578063095ea7b3146101f9575b600080fd5b6101846105b3565b6040805160208082528351818301528351919283929083019185019080838360005b838110156101be5781810151838201526020016101a6565b50505050905090810190601f1680156101eb5780820380516001836020036101000a031916815260200191505b509250505060405180910390f35b6102326004803603604081101561020f57600080fd5b5073ffffffffffffffffffffffffffffffffffffffff8135169060200135610667565b604080519115158252519081900360200190f35b61024e61067d565b60408051918252519081900360200190f35b6102326004803603606081101561027657600080fd5b5073ffffffffffffffffffffffffffffffffffffffff81358116916020810135909116906040013561068c565b6102ab6106ed565b6040805160ff9092168252519081900360200190f35b61024e6106f6565b610232600480360360408110156102df57600080fd5b5073ffffffffffffffffffffffffffffffffffffffff8135169060200135610700565b61033b6004803603604081101561031857600080fd5b5073ffffffffffffffffffffffffffffffffffffffff8135169060200135610743565b005b61033b6004803603602081101561035357600080fd5b5035610751565b61024e6004803603602081101561037057600080fd5b503573ffffffffffffffffffffffffffffffffffffffff1661075e565b61033b600480360360408110156103a357600080fd5b5073ffffffffffffffffffffffffffffffffffffffff8135169060200135610786565b61033b600480360360408110156103dc57600080fd5b5073ffffffffffffffffffffffffffffffffffffffff81351690602001356107bc565b61024e6004803603602081101561041557600080fd5b503573ffffffffffffffffffffffffffffffffffffffff166107c6565b61024e6004803603602081101561044857600080fd5b503573ffffffffffffffffffffffffffffffffffffffff166107d7565b6101846107ff565b6102326004803603604081101561048357600080fd5b5073ffffffffffffffffffffffffffffffffffffffff813516906020013561087e565b610232600480360360408110156104bc57600080fd5b5073ffffffffffffffffffffffffffffffffffffffff81351690602001356108c4565b61024e600480360360208110156104f557600080fd5b503573ffffffffffffffffffffffffffffffffffffffff166108d1565b61033b600480360360e081101561052857600080fd5b5073ffffffffffffffffffffffffffffffffffffffff813581169160208101359091169060408101359060608101359060ff6080820135169060a08101359060c001356108dc565b61024e6004803603604081101561058657600080fd5b5073ffffffffffffffffffffffffffffffffffffffff813581169160200135166109b1565b61024e6109e9565b60038054604080516020601f60027fffffffffffffffffffffffffffffffffffffffffffffffffffffffffffffffff61010060018816150201909516949094049384018190048102820181019092528281526060939092909183018282801561065d5780601f106106325761010080835404028352916020019161065d565b820191906000526020600020905b81548152906001019060200180831161064057829003601f168201915b5050505050905090565b60006106743384846109f3565b50600192915050565b6000610687610a62565b905090565b6000610699848484610a68565b73ffffffffffffffffffffffffffffffffffffffff84166000908152600160209081526040808320338085529252909120546106e39186916106de908661019e610b91565b6109f3565b5060019392505050565b60055460ff1690565b60006106876109e9565b33600081815260016020908152604080832073ffffffffffffffffffffffffffffffffffffffff8716845290915281205490916106749185906106de9086610ba7565b61074d8282610bc0565b5050565b61075b3382610c79565b50565b73ffffffffffffffffffffffffffffffffffffffff1660009081526020819052604090205490565b60006107a0826101a161079986336109b1565b9190610b91565b90506107ad8333836109f3565b6107b78383610c79565b505050565b61074d8282610c79565b60006107d1826107d7565b92915050565b73ffffffffffffffffffffffffffffffffffffffff1660009081526006602052604090205490565b60048054604080516020601f60027fffffffffffffffffffffffffffffffffffffffffffffffffffffffffffffffff61010060018816150201909516949094049384018190048102820181019092528281526060939092909183018282801561065d5780601f106106325761010080835404028352916020019161065d565b33600081815260016020908152604080832073ffffffffffffffffffffffffffffffffffffffff8716845290915281205490916106749185906106de908661019f610b91565b6000610674338484610a68565b60006107d18261075e565b60007f6e71edae12b1b97f4d1f60370fef10105fa2faae0126114a169c64845d6126c988888861090b8c6107d7565b89604051602001808781526020018673ffffffffffffffffffffffffffffffffffffffff1681526020018573ffffffffffffffffffffffffffffffffffffffff168152602001848152602001838152602001828152602001965050505050505060405160208183030381529060405280519060200120905061099c8882610993878787610d69565b886101f8610da8565b6109a78888886109f3565b5050505050505050565b73ffffffffffffffffffffffffffffffffffffffff918216600090815260016020908152604080832093909416825291909152205490565b6000610687610e0c565b73ffffffffffffffffffffffffffffffffffffffff808416600081815260016020908152604080832094871680845294825291829020859055815185815291517f8c5be1e5ebec7d5bd14f71427d1e84f3dd0314c0f7b2291e5b200ac8c7c3b9259281900390910190a3505050565b60025490565b610a8c73ffffffffffffffffffffffffffffffffffffffff84161515610198610ed7565b610ab073ffffffffffffffffffffffffffffffffffffffff83161515610199610ed7565b610abb8383836107b7565b73ffffffffffffffffffffffffffffffffffffffff8316600090815260208190526040902054610aee90826101a0610b91565b73ffffffffffffffffffffffffffffffffffffffff8085166000908152602081905260408082209390935590841681522054610b2a9082610ba7565b73ffffffffffffffffffffffffffffffffffffffff8084166000818152602081815260409182902094909455805185815290519193928716927fddf252ad1be2c89b69c2b068fc378daa952ba7f163c4a11628f55a4df523b3ef92918290030190a3505050565b6000610ba08484111583610ed7565b5050900390565b6000828201610bb98482101583610ed7565b9392505050565b610bcc600083836107b7565b610be6610be182610bdb61067d565b90610ba7565b610ee5565b73ffffffffffffffffffffffffffffffffffffffff8216600090815260208190526040902054610c169082610ba7565b73ffffffffffffffffffffffffffffffffffffffff83166000818152602081815260408083209490945583518581529351929391927fddf252ad1be2c89b69c2b068fc378daa952ba7f163c4a11628f55a4df523b3ef9281900390910190a35050565b610c9d73ffffffffffffffffffffffffffffffffffffffff8316151561019b610ed7565b610ca9826000836107b7565b73ffffffffffffffffffffffffffffffffffffffff8216600090815260208190526040902054610cdc90826101b2610b91565b73ffffffffffffffffffffffffffffffffffffffff8316600090815260208190526040902055610d17610be182610d1161067d565b90610eea565b60408051828152905160009173ffffffffffffffffffffffffffffffffffffffff8516917fddf252ad1be2c89b69c2b068fc378daa952ba7f163c4a11628f55a4df523b3ef9181900360200190a35050565b60408051604180825260808201909252606091829190602082018180368337019050509050836020820152826040820152846060820153949350505050565b6000610db385610ef8565b9050610dc9610dc3878387610f5f565b83610ed7565b610dd8428410156101b8610ed7565b50505073ffffffffffffffffffffffffffffffffffffffff9092166000908152600660205260409020805460010190555050565b60007f00000000000000000000000000000000000000000000000000000000000000007f00000000000000000000000000000000000000000000000000000000000000007f0000000000000000000000000000000000000000000000000000000000000000610e79611071565b30604051602001808681526020018581526020018481526020018381526020018273ffffffffffffffffffffffffffffffffffffffff1681526020019550505050505060405160208183030381529060405280519060200120905090565b8161074d5761074d81611075565b600255565b6000610bb983836001610b91565b6000610f02610e0c565b8260405160200180807f190100000000000000000000000000000000000000000000000000000000000081525060020183815260200182815260200192505050604051602081830303815290604052805190602001209050919050565b6000610f7182516041146101b9610ed7565b60008060006020850151925060408501519150606085015160001a9050600060018783868660405160008152602001604052604051808581526020018460ff1681526020018381526020018281526020019450505050506020604051602081039080840390855afa158015610fea573d6000803e3d6000fd5b50506040517fffffffffffffffffffffffffffffffffffffffffffffffffffffffffffffffe0015191505073ffffffffffffffffffffffffffffffffffffffff81161580159061106557508773ffffffffffffffffffffffffffffffffffffffff168173ffffffffffffffffffffffffffffffffffffffff16145b98975050505050505050565b4690565b7f08c379a000000000000000000000000000000000000000000000000000000000600090815260206004526007602452600a808304818106603090810160081b83860601918390049283060160101b016642414c230000300160c81b60445261075b917f42414c0000000000000000000000000000000000000000000000000000000000906242414c90606490fdfea264697066735822122085b86967329e2d5ae733a30599165dc0b97cf11a0e2a993da9d83ec804fa812564736f6c63430007010033",
  "linkReferences": {},
  "deployedLinkReferences": {}
}