{
  "_format": "hh-sol-artifact-1",
  "contractName": "ReadOnlyReentrancyAttackerWP",
  "sourceName": "src/helpers/contracts/ReadOnlyReentrancyAttackerWP.sol",
  "abi": [
    {
      "inputs": [
        {
          "internalType": "contract IVault",
          "name": "vault",
          "type": "address"
        }
      ],
      "stateMutability": "nonpayable",
      "type": "constructor"
    },
    {
      "inputs": [
        {
          "internalType": "bytes32",
          "name": "poolId",
          "type": "bytes32"
        },
        {
          "components": [
            {
              "internalType": "contract IAsset[]",
              "name": "assets",
              "type": "address[]"
            },
            {
              "internalType": "uint256[]",
              "name": "maxAmountsIn",
              "type": "uint256[]"
            },
            {
              "internalType": "bytes",
              "name": "userData",
              "type": "bytes"
            },
            {
              "internalType": "bool",
              "name": "fromInternalBalance",
              "type": "bool"
            }
          ],
          "internalType": "struct IVault.JoinPoolRequest",
          "name": "joinPoolRequest",
          "type": "tuple"
        },
        {
          "internalType": "enum ReadOnlyReentrancyAttackerWP.AttackType",
          "name": "attackType",
          "type": "uint8"
        }
      ],
      "name": "startAttack",
      "outputs": [],
      "stateMutability": "payable",
      "type": "function"
    },
    {
      "stateMutability": "payable",
      "type": "receive"
    }
  ],
  "bytecode": "0x60a060405234801561001057600080fd5b50604051610a3c380380610a3c83398101604081905261002f91610044565b60601b6001600160601b031916608052610072565b600060208284031215610055578081fd5b81516001600160a01b038116811461006b578182fd5b9392505050565b60805160601c6109a9610093600039806094528061029452506109a96000f3fe6080604052600436106100225760003560e01c80637abf63a01461003657610031565b366100315761002f610049565b005b600080fd5b61002f6100443660046105f7565b61020c565b600080546001546040517ff6c0092700000000000000000000000000000000000000000000000000000000815260ff909216929173ffffffffffffffffffffffffffffffffffffffff7f0000000000000000000000000000000000000000000000000000000000000000169163f6c00927916100c891906004016107a6565b604080518083038186803b1580156100df57600080fd5b505afa1580156100f3573d6000803e3d6000fd5b505050506040513d601f19601f820116820180604052508101906101179190610598565b509050600082600181111561012857fe5b1415610193578073ffffffffffffffffffffffffffffffffffffffff1663b7b814fc6040518163ffffffff1660e01b8152600401600060405180830381600087803b15801561017657600080fd5b505af115801561018a573d6000803e3d6000fd5b50505050610208565b60018260018111156101a157fe5b1415610208578073ffffffffffffffffffffffffffffffffffffffff16630da0669c6040518163ffffffff1660e01b8152600401600060405180830381600087803b1580156101ef57600080fd5b505af1158015610203573d6000803e3d6000fd5b505050505b5050565b6000341161024f576040517f08c379a0000000000000000000000000000000000000000000000000000000008152600401610246906108a9565b60405180910390fd5b600080548291907fffffffffffffffffffffffffffffffffffffffffffffffffffffffffffffff00166001838181111561028557fe5b021790555060018390558151517f000000000000000000000000000000000000000000000000000000000000000060005b82811015610388576000856000015182815181106102d057fe5b602002602001015190508073ffffffffffffffffffffffffffffffffffffffff1663095ea7b3848860200151858151811061030757fe5b60200260200101516040518363ffffffff1660e01b815260040161032c929190610780565b602060405180830381600087803b15801561034657600080fd5b505af115801561035a573d6000803e3d6000fd5b505050506040513d601f19601f8201168201806040525081019061037e91906105d4565b50506001016102b6565b506040517fb95cac2800000000000000000000000000000000000000000000000000000000815273ffffffffffffffffffffffffffffffffffffffff82169063b95cac289034906103e3908990309081908b906004016107af565b6000604051808303818588803b1580156103fc57600080fd5b505af1158015610410573d6000803e3d6000fd5b50505050505050505050565b600082601f83011261042c578081fd5b813561043f61043a82610907565b6108e0565b81815291506020808301908481018184028601820187101561046057600080fd5b60005b8481101561048857813561047681610940565b84529282019290820190600101610463565b505050505092915050565b600082601f8301126104a3578081fd5b81356104b161043a82610907565b8181529150602080830190848101818402860182018710156104d257600080fd5b60005b84811015610488578135845292820192908201906001016104d5565b80356104fc81610965565b92915050565b600082601f830112610512578081fd5b813567ffffffffffffffff811115610528578182fd5b61055960207fffffffffffffffffffffffffffffffffffffffffffffffffffffffffffffffe0601f840116016108e0565b915080825283602082850101111561057057600080fd5b8060208401602084013760009082016020015292915050565b8035600281106104fc57600080fd5b600080604083850312156105aa578182fd5b82516105b581610940565b6020840151909250600381106105c9578182fd5b809150509250929050565b6000602082840312156105e5578081fd5b81516105f081610965565b9392505050565b60008060006060848603121561060b578081fd5b83359250602084013567ffffffffffffffff80821115610629578283fd5b908501906080828803121561063c578283fd5b61064660806108e0565b823582811115610654578485fd5b6106608982860161041c565b825250602083013582811115610674578485fd5b61068089828601610493565b602083015250604083013582811115610697578485fd5b6106a389828601610502565b6040830152506106b688606085016104f1565b60608201528094505050506106ce8560408601610589565b90509250925092565b6000815180845260208085019450808401835b83811015610706578151875295820195908201906001016106ea565b509495945050505050565b15159052565b60008151808452815b8181101561073c57602081850181015186830182015201610720565b8181111561074d5782602083870101525b50601f017fffffffffffffffffffffffffffffffffffffffffffffffffffffffffffffffe0169290920160200192915050565b73ffffffffffffffffffffffffffffffffffffffff929092168252602082015260400190565b90815260200190565b6000858252602073ffffffffffffffffffffffffffffffffffffffff8087168285015280861660408501525060806060840152610100830184516080808601528181518084526101208701915084830193508592505b8083101561082d576108178451610927565b8252928401926001929092019190840190610805565b508387015193507fffffffffffffffffffffffffffffffffffffffffffffffffffffffffffffff809250828682030160a087015261086b81856106d7565b935050506040850151818584030160c08601526108888382610717565b92505050606084015161089e60e0850182610711565b509695505050505050565b60208082526010908201527f496e73756666696369656e742045544800000000000000000000000000000000604082015260600190565b60405181810167ffffffffffffffff811182821017156108ff57600080fd5b604052919050565b600067ffffffffffffffff82111561091d578081fd5b5060209081020190565b73ffffffffffffffffffffffffffffffffffffffff1690565b73ffffffffffffffffffffffffffffffffffffffff8116811461096257600080fd5b50565b801515811461096257600080fdfea2646970667358221220055ee4d62347f1addfb97575487ddc97c89a556ae8d7b4492cf3bdb02c47884e64736f6c63430007010033",
  "linkReferences": {},
  "deployedLinkReferences": {}
}