{
  "_format": "hh-sol-artifact-1",
  "contractName": "ReadOnlyReentrancyAttackerLP",
  "sourceName": "src/helpers/contracts/ReadOnlyReentrancyAttackerLP.sol",
  "abi": [
    {
      "inputs": [
        {
          "internalType": "contract IVault",
          "name": "vault",
          "type": "address"
        }
      ],
      "stateMutability": "nonpayable",
      "type": "constructor"
    },
    {
      "inputs": [],
      "name": "RECOVERY_MODE_EXIT_KIND",
      "outputs": [
        {
          "internalType": "uint8",
          "name": "",
          "type": "uint8"
        }
      ],
      "stateMutability": "view",
      "type": "function"
    },
    {
      "inputs": [
        {
          "internalType": "contract ILinearPool",
          "name": "pool",
          "type": "address"
        },
        {
          "internalType": "enum ReadOnlyReentrancyAttackerLP.AttackType",
          "name": "attackType",
          "type": "uint8"
        },
        {
          "internalType": "uint256",
          "name": "bptAmountIn",
          "type": "uint256"
        }
      ],
      "name": "startAttack",
      "outputs": [],
      "stateMutability": "payable",
      "type": "function"
    },
    {
      "stateMutability": "payable",
      "type": "receive"
    }
  ],
  "bytecode": "0x60a060405234801561001057600080fd5b50604051610be9380380610be983398101604081905261002f91610044565b60601b6001600160601b031916608052610072565b600060208284031215610055578081fd5b81516001600160a01b038116811461006b578182fd5b9392505050565b60805160601c610b5a61008f6000398061027d5250610b5a6000f3fe60806040526004361061002d5760003560e01c806309564cb114610041578063a1c7cc0f1461006c5761003c565b3661003c5761003a61007f565b005b600080fd5b34801561004d57600080fd5b506100566101f8565b6040516100639190610a7e565b60405180910390f35b61003a61007a366004610827565b6101fd565b6000805460ff81169161010090910473ffffffffffffffffffffffffffffffffffffffff16908260018111156100b157fe5b1415610154576040517f9f11080e00000000000000000000000000000000000000000000000000000000815273ffffffffffffffffffffffffffffffffffffffff821690639f11080e9061011d906801158e460913d0000090681b1ae4d6e2ef50000090600401610a70565b600060405180830381600087803b15801561013757600080fd5b505af115801561014b573d6000803e3d6000fd5b505050506101f4565b600182600181111561016257fe5b14156101f4576040517f38e9922e00000000000000000000000000000000000000000000000000000000815273ffffffffffffffffffffffffffffffffffffffff8216906338e9922e906101c190662386f26fc1000090600401610936565b600060405180830381600087803b1580156101db57600080fd5b505af11580156101ef573d6000803e3d6000fd5b505050505b5050565b60ff81565b600080548391907fffffffffffffffffffffffffffffffffffffffffffffffffffffffffffffff00166001838181111561023357fe5b021790555082600060016101000a81548173ffffffffffffffffffffffffffffffffffffffff021916908373ffffffffffffffffffffffffffffffffffffffff16021790555060007f0000000000000000000000000000000000000000000000000000000000000000905060008173ffffffffffffffffffffffffffffffffffffffff1663ad5c46486040518163ffffffff1660e01b815260040160206040518083038186803b1580156102e657600080fd5b505afa1580156102fa573d6000803e3d6000fd5b505050506040513d601f19601f8201168201806040525081019061031e919061086a565b905060008573ffffffffffffffffffffffffffffffffffffffff166338fff2d06040518163ffffffff1660e01b815260040160206040518083038186803b15801561036857600080fd5b505afa15801561037c573d6000803e3d6000fd5b505050506040513d601f19601f820116820180604052508101906103a0919061080f565b9050606060ff856040516020016103b8929190610a8c565b604080517fffffffffffffffffffffffffffffffffffffffffffffffffffffffffffffffe0818403018152908290527ff94d4668000000000000000000000000000000000000000000000000000000008252915060609073ffffffffffffffffffffffffffffffffffffffff86169063f94d46689061043b908690600401610936565b60006040518083038186803b15801561045357600080fd5b505afa158015610467573d6000803e3d6000fd5b505050506040513d6000823e601f3d9081017fffffffffffffffffffffffffffffffffffffffffffffffffffffffffffffffe01682016040526104ad9190810190610743565b5050905060005b8151811015610559578473ffffffffffffffffffffffffffffffffffffffff168282815181106104e057fe5b602002602001015173ffffffffffffffffffffffffffffffffffffffff16141561055157600082828151811061051257fe5b602002602001019073ffffffffffffffffffffffffffffffffffffffff16908173ffffffffffffffffffffffffffffffffffffffff1681525050610559565b6001016104b4565b8151811061059c576040517f08c379a000000000000000000000000000000000000000000000000000000000815260040161059390610a39565b60405180910390fd5b6105a46106ab565b60405180608001604052806105b8856106a8565b8152602001845167ffffffffffffffff811180156105d557600080fd5b506040519080825280602002602001820160405280156105ff578160200160208202803683370190505b508152602081018690526000604091820152517f8bdb391300000000000000000000000000000000000000000000000000000000815290915073ffffffffffffffffffffffffffffffffffffffff881690638bdb39139061066a90889030908190879060040161093f565b600060405180830381600087803b15801561068457600080fd5b505af1158015610698573d6000803e3d6000fd5b5050505050505050505050505050565b90565b60405180608001604052806060815260200160608152602001606081526020016000151581525090565b600082601f8301126106e5578081fd5b81516106f86106f382610ac6565b610a9f565b81815291506020808301908481018184028601820187101561071957600080fd5b60005b848110156107385781518452928201929082019060010161071c565b505050505092915050565b600080600060608486031215610757578283fd5b835167ffffffffffffffff8082111561076e578485fd5b818601915086601f830112610781578485fd5b815161078f6106f382610ac6565b80828252602080830192508086018b8283870289010111156107af57898afd5b8996505b848710156107da5780516107c681610aff565b8452600196909601959281019281016107b3565b5089015190975093505050808211156107f1578384fd5b506107fe868287016106d5565b925050604084015190509250925092565b600060208284031215610820578081fd5b5051919050565b60008060006060848603121561083b578283fd5b833561084681610aff565b9250602084013560028110610859578283fd5b929592945050506040919091013590565b60006020828403121561087b578081fd5b815161088681610aff565b9392505050565b6000815180845260208085019450808401835b838110156108bc578151875295820195908201906001016108a0565b509495945050505050565b15159052565b60008151808452815b818110156108f2576020818501810151868301820152016108d6565b818111156109035782602083870101525b50601f017fffffffffffffffffffffffffffffffffffffffffffffffffffffffffffffffe0169290920160200192915050565b90815260200190565b6000858252602073ffffffffffffffffffffffffffffffffffffffff8087168285015280861660408501525060806060840152610100830184516080808601528181518084526101208701915084830193508592505b808310156109bd576109a78451610ae6565b8252928401926001929092019190840190610995565b508387015193507fffffffffffffffffffffffffffffffffffffffffffffffffffffffffffffff809250828682030160a08701526109fb818561088d565b935050506040850151818584030160c0860152610a1883826108cd565b925050506060840151610a2e60e08501826108c7565b509695505050505050565b6020808252601a908201527f506f6f6c20646f6573206e6f7420636f6e7461696e2057455448000000000000604082015260600190565b918252602082015260400190565b60ff91909116815260200190565b60ff929092168252602082015260400190565b60405181810167ffffffffffffffff81118282101715610abe57600080fd5b604052919050565b600067ffffffffffffffff821115610adc578081fd5b5060209081020190565b73ffffffffffffffffffffffffffffffffffffffff1690565b73ffffffffffffffffffffffffffffffffffffffff81168114610b2157600080fd5b5056fea2646970667358221220f5fbd275905a72adf242c72cd30f42ba0eb9e311a560fe8e4b84d0e5f29aa7c364736f6c63430007010033",
  "linkReferences": {},
  "deployedLinkReferences": {}
}