{
  "_format": "hh-sol-artifact-1",
  "contractName": "MockInterestRateModel",
  "sourceName": "src/helpers/contracts/MockInterestRateModel.sol",
  "abi": [
    {
      "inputs": [
        {
          "internalType": "uint256",
          "name": "comp",
          "type": "uint256"
        },
        {
          "internalType": "uint256",
          "name": "cur",
          "type": "uint256"
        }
      ],
      "stateMutability": "nonpayable",
      "type": "constructor"
    },
    {
      "inputs": [
        {
          "internalType": "address",
          "name": "",
          "type": "address"
        },
        {
          "internalType": "address",
          "name": "",
          "type": "address"
        },
        {
          "internalType": "uint256",
          "name": "",
          "type": "uint256"
        }
      ],
      "name": "getCompoundInterestRate",
      "outputs": [
        {
          "internalType": "uint256",
          "name": "rcomp",
          "type": "uint256"
        }
      ],
      "stateMutability": "view",
      "type": "function"
    },
    {
      "inputs": [
        {
          "internalType": "address",
          "name": "",
          "type": "address"
        },
        {
          "internalType": "address",
          "name": "",
          "type": "address"
        },
        {
          "internalType": "uint256",
          "name": "",
          "type": "uint256"
        }
      ],
      "name": "getCurrentInterestRate",
      "outputs": [
        {
          "internalType": "uint256",
          "name": "rcur",
          "type": "uint256"
        }
      ],
      "stateMutability": "view",
      "type": "function"
    },
    {
      "inputs": [],
      "name": "maybeRevertMaliciously",
      "outputs": [],
      "stateMutability": "view",
      "type": "function"
    },
    {
      "inputs": [],
      "name": "revertType",
      "outputs": [
        {
          "internalType": "enum MaliciousQueryReverter.RevertType",
          "name": "",
          "type": "uint8"
        }
      ],
      "stateMutability": "view",
      "type": "function"
    },
    {
      "inputs": [
        {
          "internalType": "uint256",
          "name": "rate",
          "type": "uint256"
        }
      ],
      "name": "setCompoundInterestRate",
      "outputs": [],
      "stateMutability": "nonpayable",
      "type": "function"
    },
    {
      "inputs": [
        {
          "internalType": "uint256",
          "name": "rate",
          "type": "uint256"
        }
      ],
      "name": "setCurrentInterestRate",
      "outputs": [],
      "stateMutability": "nonpayable",
      "type": "function"
    },
    {
      "inputs": [
        {
          "internalType": "enum MaliciousQueryReverter.RevertType",
          "name": "newRevertType",
          "type": "uint8"
        }
      ],
      "name": "setRevertType",
      "outputs": [],
      "stateMutability": "nonpayable",
      "type": "function"
    },
    {
      "inputs": [],
      "name": "spoofJoinExitQueryRevert",
      "outputs": [],
      "stateMutability": "pure",
      "type": "function"
    },
    {
      "inputs": [],
      "name": "spoofSwapQueryRevert",
      "outputs": [],
      "stateMutability": "pure",
      "type": "function"
    }
  ],
  "bytecode": "0x60806040526000805460ff1916905534801561001a57600080fd5b5060405161055b38038061055b83398101604081905261003991610047565b60019190915560025561006a565b60008060408385031215610059578182fd5b505080516020909101519092909150565b6104e2806100796000396000f3fe608060405234801561001057600080fd5b50600436106100a35760003560e01c80632b38a573116100765780637ce3ee481161005b5780637ce3ee481461011c578063b1e0176514610124578063d652e8c614610137576100a3565b80632b38a573146100f65780632cd1033914610109576100a3565b8063071962ff146100a85780630d50690b146100d1578063146d4eee146100e657806329478cb4146100ee575b600080fd5b6100bb6100b63660046103dd565b61014c565b6040516100c891906104a3565b60405180910390f35b6100e46100df366004610440565b610156565b005b6100e4610163565b6100e46101d3565b6100e4610104366004610440565b610270565b6100e461011736600461041a565b61027d565b6100e46102bc565b6100bb6101323660046103dd565b610395565b61013f6103aa565b6040516100c89190610458565b6002549392505050565b61015e6101d3565b600155565b604080516002808252606080830184529260208301908036833701905050905060018160008151811061019257fe5b6020026020010181815250506002816001815181106101ad57fe5b602002602001018181525050602081510263fa61cc126020830352600482036024820181fd5b600160005460ff1660038111156101e657fe5b1415610227576040517f08c379a000000000000000000000000000000000000000000000000000000000815260040161021e9061046c565b60405180910390fd5b600260005460ff16600381111561023a57fe5b141561024d57610248610163565b61026e565b600360005460ff16600381111561026057fe5b141561026e5761026e6102bc565b565b6102786101d3565b600255565b600080548291907fffffffffffffffffffffffffffffffffffffffffffffffffffffffffffffff001660018360038111156102b457fe5b021790555050565b60408051600280825260608083018452926020830190803683370190505090506001816000815181106102eb57fe5b60200260200101818152505060028160018151811061030657fe5b60209081029190910181019190915281516101a47fffffffffffffffffffffffffffffffffffffffffffffffffffffffffffffffe084018190526343adbafb7fffffffffffffffffffffffffffffffffffffffffffffffffffffffffffffffc085015291027fffffffffffffffffffffffffffffffffffffffffffffffffffffffffffffffdc83016044820181fd5b600061039f6101d3565b506001549392505050565b60005460ff1681565b803573ffffffffffffffffffffffffffffffffffffffff811681146103d757600080fd5b92915050565b6000806000606084860312156103f1578283fd5b6103fb85856103b3565b925061040a85602086016103b3565b9150604084013590509250925092565b60006020828403121561042b578081fd5b813560048110610439578182fd5b9392505050565b600060208284031215610451578081fd5b5035919050565b602081016004831061046657fe5b91905290565b60208082526014908201527f4e4f4e5f4d414c4943494f55535f524556455254000000000000000000000000604082015260600190565b9081526020019056fea2646970667358221220c10132ceba7c9587195babe51ce4e22e5a9399826c24864bc8e0141605493a5164736f6c63430007010033",
  "linkReferences": {},
  "deployedLinkReferences": {}
}