{"src/helpers/contracts/MockYearnTokenVault.sol":{"MockYearnTokenVault":{"abi":[{"inputs":[{"internalType":"string","name":"name","type":"string"},{"internalType":"string","name":"symbol","type":"string"},{"internalType":"uint8","name":"decimals","type":"uint8"},{"internalType":"address","name":"underlyingAsset","type":"address"}],"stateMutability":"nonpayable","type":"constructor"},{"anonymous":false,"inputs":[{"indexed":true,"internalType":"address","name":"owner","type":"address"},{"indexed":true,"internalType":"address","name":"spender","type":"address"},{"indexed":false,"internalType":"uint256","name":"value","type":"uint256"}],"name":"Approval","type":"event"},{"anonymous":false,"inputs":[{"indexed":true,"internalType":"address","name":"from","type":"address"},{"indexed":true,"internalType":"address","name":"to","type":"address"},{"indexed":false,"internalType":"uint256","name":"value","type":"uint256"}],"name":"Transfer","type":"event"},{"inputs":[],"name":"DOMAIN_SEPARATOR","outputs":[{"internalType":"bytes32","name":"","type":"bytes32"}],"stateMutability":"view","type":"function"},{"inputs":[{"internalType":"address","name":"owner","type":"address"},{"internalType":"address","name":"spender","type":"address"}],"name":"allowance","outputs":[{"internalType":"uint256","name":"","type":"uint256"}],"stateMutability":"view","type":"function"},{"inputs":[{"internalType":"address","name":"spender","type":"address"},{"internalType":"uint256","name":"amount","type":"uint256"}],"name":"approve","outputs":[{"internalType":"bool","name":"","type":"bool"}],"stateMutability":"nonpayable","type":"function"},{"inputs":[{"internalType":"address","name":"account","type":"address"}],"name":"balanceOf","outputs":[{"internalType":"uint256","name":"","type":"uint256"}],"stateMutability":"view","type":"function"},{"inputs":[{"internalType":"uint256","name":"amount","type":"uint256"}],"name":"burn","outputs":[],"stateMutability":"nonpayable","type":"function"},{"inputs":[{"internalType":"address","name":"account","type":"address"},{"internalType":"uint256","name":"amount","type":"uint256"}],"name":"burnFrom","outputs":[],"stateMutability":"nonpayable","type":"function"},{"inputs":[{"internalType":"address","name":"sender","type":"address"},{"internalType":"uint256","name":"amount","type":"uint256"}],"name":"burnWithoutAllowance","outputs":[],"stateMutability":"nonpayable","type":"function"},{"inputs":[],"name":"decimals","outputs":[{"internalType":"uint8","name":"","type":"uint8"}],"stateMutability":"view","type":"function"},{"inputs":[{"internalType":"address","name":"spender","type":"address"},{"internalType":"uint256","name":"subtractedValue","type":"uint256"}],"name":"decreaseAllowance","outputs":[{"internalType":"bool","name":"","type":"bool"}],"stateMutability":"nonpayable","type":"function"},{"inputs":[{"internalType":"uint256","name":"_amount","type":"uint256"},{"internalType":"address","name":"recipient","type":"address"}],"name":"deposit","outputs":[{"internalType":"uint256","name":"","type":"uint256"}],"stateMutability":"nonpayable","type":"function"},{"inputs":[],"name":"getDomainSeparator","outputs":[{"internalType":"bytes32","name":"","type":"bytes32"}],"stateMutability":"view","type":"function"},{"inputs":[{"internalType":"address","name":"account","type":"address"}],"name":"getNextNonce","outputs":[{"internalType":"uint256","name":"","type":"uint256"}],"stateMutability":"view","type":"function"},{"inputs":[{"internalType":"address","name":"spender","type":"address"},{"internalType":"uint256","name":"addedValue","type":"uint256"}],"name":"increaseAllowance","outputs":[{"internalType":"bool","name":"","type":"bool"}],"stateMutability":"nonpayable","type":"function"},{"inputs":[],"name":"lastReport","outputs":[{"internalType":"uint256","name":"","type":"uint256"}],"stateMutability":"view","type":"function"},{"inputs":[],"name":"lockedProfit","outputs":[{"internalType":"uint256","name":"","type":"uint256"}],"stateMutability":"view","type":"function"},{"inputs":[],"name":"lockedProfitDegradation","outputs":[{"internalType":"uint256","name":"","type":"uint256"}],"stateMutability":"view","type":"function"},{"inputs":[],"name":"maybeRevertMaliciously","outputs":[],"stateMutability":"view","type":"function"},{"inputs":[{"internalType":"address","name":"recipient","type":"address"},{"internalType":"uint256","name":"amount","type":"uint256"}],"name":"mint","outputs":[],"stateMutability":"nonpayable","type":"function"},{"inputs":[],"name":"name","outputs":[{"internalType":"string","name":"","type":"string"}],"stateMutability":"view","type":"function"},{"inputs":[{"internalType":"address","name":"owner","type":"address"}],"name":"nonces","outputs":[{"internalType":"uint256","name":"","type":"uint256"}],"stateMutability":"view","type":"function"},{"inputs":[{"internalType":"address","name":"owner","type":"address"},{"internalType":"address","name":"spender","type":"address"},{"internalType":"uint256","name":"value","type":"uint256"},{"internalType":"uint256","name":"deadline","type":"uint256"},{"internalType":"uint8","name":"v","type":"uint8"},{"internalType":"bytes32","name":"r","type":"bytes32"},{"internalType":"bytes32","name":"s","type":"bytes32"}],"name":"permit","outputs":[],"stateMutability":"nonpayable","type":"function"},{"inputs":[],"name":"pricePerShare","outputs":[{"internalType":"uint256","name":"","type":"uint256"}],"stateMutability":"view","type":"function"},{"inputs":[],"name":"revertType","outputs":[{"internalType":"enum MaliciousQueryReverter.RevertType","name":"","type":"uint8"}],"stateMutability":"view","type":"function"},{"inputs":[{"internalType":"enum MaliciousQueryReverter.RevertType","name":"newRevertType","type":"uint8"}],"name":"setRevertType","outputs":[],"stateMutability":"nonpayable","type":"function"},{"inputs":[{"internalType":"uint256","name":"_newTotalAssets","type":"uint256"}],"name":"setTotalAssets","outputs":[],"stateMutability":"nonpayable","type":"function"},{"inputs":[],"name":"spoofJoinExitQueryRevert","outputs":[],"stateMutability":"pure","type":"function"},{"inputs":[],"name":"spoofSwapQueryRevert","outputs":[],"stateMutability":"pure","type":"function"},{"inputs":[],"name":"symbol","outputs":[{"internalType":"string","name":"","type":"string"}],"stateMutability":"view","type":"function"},{"inputs":[],"name":"token","outputs":[{"internalType":"address","name":"","type":"address"}],"stateMutability":"view","type":"function"},{"inputs":[],"name":"totalAssets","outputs":[{"internalType":"uint256","name":"","type":"uint256"}],"stateMutability":"view","type":"function"},{"inputs":[],"name":"totalSupply","outputs":[{"internalType":"uint256","name":"","type":"uint256"}],"stateMutability":"view","type":"function"},{"inputs":[{"internalType":"address","name":"recipient","type":"address"},{"internalType":"uint256","name":"amount","type":"uint256"}],"name":"transfer","outputs":[{"internalType":"bool","name":"","type":"bool"}],"stateMutability":"nonpayable","type":"function"},{"inputs":[{"internalType":"address","name":"sender","type":"address"},{"internalType":"address","name":"recipient","type":"address"},{"internalType":"uint256","name":"amount","type":"uint256"}],"name":"transferFrom","outputs":[{"internalType":"bool","name":"","type":"bool"}],"stateMutability":"nonpayable","type":"function"},{"inputs":[{"internalType":"uint256","name":"maxShares","type":"uint256"},{"internalType":"address","name":"recipient","type":"address"}],"name":"withdraw","outputs":[{"internalType":"uint256","name":"","type":"uint256"}],"stateMutability":"nonpayable","type":"function"}],"evm":{"bytecode":{"linkReferences":{},"object":"6101006040526007805460ff191690553480156200001c57600080fd5b5060405162001b7938038062001b79833981810160405260808110156200004257600080fd5b81019080805160405193929190846401000000008211156200006357600080fd5b9083019060208201858111156200007957600080fd5b82516401000000008111828201881017156200009457600080fd5b82525081516020918201929091019080838360005b83811015620000c3578181015183820152602001620000a9565b50505050905090810190601f168015620000f15780820380516001836020036101000a031916815260200191505b50604052602001805160405193929190846401000000008211156200011557600080fd5b9083019060208201858111156200012b57600080fd5b82516401000000008111828201881017156200014657600080fd5b82525081516020918201929091019080838360005b83811015620001755781810151838201526020016200015b565b50505050905090810190601f168015620001a35780820380516001836020036101000a031916815260200191505b5060408181526020838101519382015183830190925260018352603160f81b818401528751939550909350869286928692859283929183918791620001ee9160039185019062000295565b5080516200020490600490602084019062000295565b50506005805460ff19166012179055508151602092830120608052805191012060a052507f8b73c3c69bb8fe3d512ecc4cf759cc79239f7b179b0ffacaa9a75d522b39400f60c05262000257816200027f565b50505060601b6001600160601b03191660e0525050670de0b6b3a7640000600a555062000331565b6005805460ff191660ff92909216919091179055565b828054600181600116156101000203166002900490600052602060002090601f016020900481019282601f10620002d857805160ff191683800117855562000308565b8280016001018555821562000308579182015b8281111562000308578251825591602001919060010190620002eb565b50620003169291506200031a565b5090565b5b808211156200031657600081556001016200031b565b60805160a05160c05160e05160601c61180562000374600039806107a95280610c2652806110a35250806114db52508061151d5250806114fc52506118056000f3fe608060405234801561001057600080fd5b50600436106102255760003560e01c80636e553f651161012a57806399530b06116100bd578063d505accf1161008c578063dd62ed3e11610071578063dd62ed3e14610703578063ed24911d1461073e578063fc0c546a1461074657610225565b8063d505accf1461067c578063d652e8c6146106da57610225565b806399530b06146105fa578063a457c2d714610602578063a9059cbb1461063b578063c3535b521461067457610225565b80637ce3ee48116100f95780637ce3ee48146105845780637ecebe001461058c57806390193b7c146105bf57806395d89b41146105f257610225565b80636e553f65146104a657806370a08231146104df57806379cc6790146105125780637c602bc21461054b57610225565b806329478cb4116101bd578063395093511161018c5780634223271611610171578063422327161461047957806342966c681461048157806344b813961461049e57610225565b8063395093511461040757806340c10f191461044057610225565b806329478cb4146103b95780632cd10339146103c1578063313ce567146103e15780633644e515146103ff57610225565b8063146d4eee116101f9578063146d4eee146103475780631765b3131461035157806318160ddd1461036e57806323b872dd1461037657610225565b8062f714ce1461022a57806301e1d1141461027557806306fdde031461027d578063095ea7b3146102fa575b600080fd5b6102636004803603604081101561024057600080fd5b508035906020013573ffffffffffffffffffffffffffffffffffffffff16610777565b60408051918252519081900360200190f35b61026361086c565b61028561087e565b6040805160208082528351818301528351919283929083019185019080838360005b838110156102bf5781810151838201526020016102a7565b50505050905090810190601f1680156102ec5780820380516001836020036101000a031916815260200191505b509250505060405180910390f35b6103336004803603604081101561031057600080fd5b5073ffffffffffffffffffffffffffffffffffffffff8135169060200135610932565b604080519115158252519081900360200190f35b61034f610948565b005b61034f6004803603602081101561036757600080fd5b50356109b8565b6102636109bd565b6103336004803603606081101561038c57600080fd5b5073ffffffffffffffffffffffffffffffffffffffff8135811691602081013590911690604001356109d4565b61034f610a35565b61034f600480360360208110156103d757600080fd5b503560ff16610afe565b6103e9610b3d565b6040805160ff9092168252519081900360200190f35b610263610b46565b6103336004803603604081101561041d57600080fd5b5073ffffffffffffffffffffffffffffffffffffffff8135169060200135610b50565b61034f6004803603604081101561045657600080fd5b5073ffffffffffffffffffffffffffffffffffffffff8135169060200135610b93565b610263610ba1565b61034f6004803603602081101561049757600080fd5b5035610bb2565b610263610bbf565b610263600480360360408110156104bc57600080fd5b508035906020013573ffffffffffffffffffffffffffffffffffffffff16610bd0565b610263600480360360208110156104f557600080fd5b503573ffffffffffffffffffffffffffffffffffffffff16610cd0565b61034f6004803603604081101561052857600080fd5b5073ffffffffffffffffffffffffffffffffffffffff8135169060200135610cf8565b61034f6004803603604081101561056157600080fd5b5073ffffffffffffffffffffffffffffffffffffffff8135169060200135610d2e565b61034f610d38565b610263600480360360208110156105a257600080fd5b503573ffffffffffffffffffffffffffffffffffffffff16610e11565b610263600480360360208110156105d557600080fd5b503573ffffffffffffffffffffffffffffffffffffffff16610e22565b610285610e4a565b610263610ec9565b6103336004803603604081101561061857600080fd5b5073ffffffffffffffffffffffffffffffffffffffff8135169060200135610f1d565b6103336004803603604081101561065157600080fd5b5073ffffffffffffffffffffffffffffffffffffffff8135169060200135610f63565b610263610f70565b61034f600480360360e081101561069257600080fd5b5073ffffffffffffffffffffffffffffffffffffffff813581169160208101359091169060408101359060608101359060ff6080820135169060a08101359060c00135610f81565b6106e2611056565b604051808260038111156106f257fe5b815260200191505060405180910390f35b6102636004803603604081101561071957600080fd5b5073ffffffffffffffffffffffffffffffffffffffff8135811691602001351661105f565b610263611097565b61074e6110a1565b6040805173ffffffffffffffffffffffffffffffffffffffff9092168252519081900360200190f35b600061078333846110c5565b600061078d610b3d565b60ff16600a0a61079b610ec9565b8502816107a457fe5b0490507f000000000000000000000000000000000000000000000000000000000000000073ffffffffffffffffffffffffffffffffffffffff1663a9059cbb84836040518363ffffffff1660e01b8152600401808373ffffffffffffffffffffffffffffffffffffffff16815260200182815260200192505050602060405180830381600087803b15801561083857600080fd5b505af115801561084c573d6000803e3d6000fd5b505050506040513d602081101561086257600080fd5b5090949350505050565b6000610876610a35565b50600b545b90565b60038054604080516020601f60027fffffffffffffffffffffffffffffffffffffffffffffffffffffffffffffffff6101006001881615020190951694909404938401819004810282018101909252828152606093909290918301828280156109285780601f106108fd57610100808354040283529160200191610928565b820191906000526020600020905b81548152906001019060200180831161090b57829003601f168201915b5050505050905090565b600061093f3384846111ba565b50600192915050565b604080516002808252606080830184529260208301908036833701905050905060018160008151811061097757fe5b60200260200101818152505060028160018151811061099257fe5b602002602001018181525050602081510263fa61cc126020830352600482036024820181fd5b600b55565b60006109c7610a35565b6109cf611229565b905090565b60006109e184848461122f565b73ffffffffffffffffffffffffffffffffffffffff8416600090815260016020908152604080832033808552925290912054610a2b918691610a26908661019e611358565b6111ba565b5060019392505050565b600160075460ff166003811115610a4857fe5b1415610ab557604080517f08c379a000000000000000000000000000000000000000000000000000000000815260206004820152601460248201527f4e4f4e5f4d414c4943494f55535f524556455254000000000000000000000000604482015290519081900360640190fd5b600260075460ff166003811115610ac857fe5b1415610adb57610ad6610948565b610afc565b600360075460ff166003811115610aee57fe5b1415610afc57610afc610d38565b565b600780548291907fffffffffffffffffffffffffffffffffffffffffffffffffffffffffffffff00166001836003811115610b3557fe5b021790555050565b60055460ff1690565b60006109cf611097565b33600081815260016020908152604080832073ffffffffffffffffffffffffffffffffffffffff87168452909152812054909161093f918590610a26908661136e565b610b9d8282611380565b5050565b6000610bab610a35565b50600a5490565b610bbc33826110c5565b50565b6000610bc9610a35565b5060095490565b604080517f23b872dd00000000000000000000000000000000000000000000000000000000815233600482015230602482015260448101849052905160009173ffffffffffffffffffffffffffffffffffffffff7f000000000000000000000000000000000000000000000000000000000000000016916323b872dd9160648082019260209290919082900301818787803b158015610c6e57600080fd5b505af1158015610c82573d6000803e3d6000fd5b505050506040513d6020811015610c9857600080fd5b5060009050610ca5610ec9565b610cad610b3d565b60ff16600a0a850281610cbc57fe5b049050610cc98382611380565b9392505050565b73ffffffffffffffffffffffffffffffffffffffff1660009081526020819052604090205490565b6000610d12826101a1610d0b863361105f565b9190611358565b9050610d1f8333836111ba565b610d2983836110c5565b505050565b610b9d82826110c5565b6040805160028082526060808301845292602083019080368337019050509050600181600081518110610d6757fe5b602002602001018181525050600281600181518110610d8257fe5b60209081029190910181019190915281516101a47fffffffffffffffffffffffffffffffffffffffffffffffffffffffffffffffe084018190526343adbafb7fffffffffffffffffffffffffffffffffffffffffffffffffffffffffffffffc085015291027fffffffffffffffffffffffffffffffffffffffffffffffffffffffffffffffdc83016044820181fd5b6000610e1c82610e22565b92915050565b73ffffffffffffffffffffffffffffffffffffffff1660009081526006602052604090205490565b60048054604080516020601f60027fffffffffffffffffffffffffffffffffffffffffffffffffffffffffffffffff6101006001881615020190951694909404938401819004810282018101909252828152606093909290918301828280156109285780601f106108fd57610100808354040283529160200191610928565b6000610ed3610a35565b6000610edd6109bd565b905080610efa57610eec610b3d565b60ff16600a0a91505061087b565b80600b54610f06610b3d565b60ff16600a0a0281610f1457fe5b0491505061087b565b33600081815260016020908152604080832073ffffffffffffffffffffffffffffffffffffffff87168452909152812054909161093f918590610a26908661019f611358565b600061093f33848461122f565b6000610f7a610a35565b5060085490565b60007f6e71edae12b1b97f4d1f60370fef10105fa2faae0126114a169c64845d6126c9888888610fb08c610e22565b89604051602001808781526020018673ffffffffffffffffffffffffffffffffffffffff1681526020018573ffffffffffffffffffffffffffffffffffffffff16815260200184815260200183815260200182815260200196505050505050506040516020818303038152906040528051906020012090506110418882611038878787611434565b886101f8611473565b61104c8888886111ba565b5050505050505050565b60075460ff1681565b73ffffffffffffffffffffffffffffffffffffffff918216600090815260016020908152604080832093909416825291909152205490565b60006109cf6114d7565b7f000000000000000000000000000000000000000000000000000000000000000090565b6110e973ffffffffffffffffffffffffffffffffffffffff8316151561019b6115a2565b6110f582600083610d29565b73ffffffffffffffffffffffffffffffffffffffff821660009081526020819052604090205461112890826101b2611358565b73ffffffffffffffffffffffffffffffffffffffff83166000908152602081905260409020556111686111638261115d6109bd565b906115b0565b6115be565b60408051828152905160009173ffffffffffffffffffffffffffffffffffffffff8516917fddf252ad1be2c89b69c2b068fc378daa952ba7f163c4a11628f55a4df523b3ef9181900360200190a35050565b73ffffffffffffffffffffffffffffffffffffffff808416600081815260016020908152604080832094871680845294825291829020859055815185815291517f8c5be1e5ebec7d5bd14f71427d1e84f3dd0314c0f7b2291e5b200ac8c7c3b9259281900390910190a3505050565b60025490565b61125373ffffffffffffffffffffffffffffffffffffffff841615156101986115a2565b61127773ffffffffffffffffffffffffffffffffffffffff831615156101996115a2565b611282838383610d29565b73ffffffffffffffffffffffffffffffffffffffff83166000908152602081905260409020546112b590826101a0611358565b73ffffffffffffffffffffffffffffffffffffffff80851660009081526020819052604080822093909355908416815220546112f1908261136e565b73ffffffffffffffffffffffffffffffffffffffff8084166000818152602081815260409182902094909455805185815290519193928716927fddf252ad1be2c89b69c2b068fc378daa952ba7f163c4a11628f55a4df523b3ef92918290030190a3505050565b600061136784841115836115a2565b5050900390565b6000828201610cc984821015836115a2565b61138c60008383610d29565b6113a16111638261139b6109bd565b9061136e565b73ffffffffffffffffffffffffffffffffffffffff82166000908152602081905260409020546113d1908261136e565b73ffffffffffffffffffffffffffffffffffffffff83166000818152602081815260408083209490945583518581529351929391927fddf252ad1be2c89b69c2b068fc378daa952ba7f163c4a11628f55a4df523b3ef9281900390910190a35050565b60408051604180825260808201909252606091829190602082018180368337019050509050836020820152826040820152846060820153949350505050565b600061147e856115c3565b905061149461148e87838761162a565b836115a2565b6114a3428410156101b86115a2565b50505073ffffffffffffffffffffffffffffffffffffffff9092166000908152600660205260409020805460010190555050565b60007f00000000000000000000000000000000000000000000000000000000000000007f00000000000000000000000000000000000000000000000000000000000000007f000000000000000000000000000000000000000000000000000000000000000061154461173c565b30604051602001808681526020018581526020018481526020018381526020018273ffffffffffffffffffffffffffffffffffffffff1681526020019550505050505060405160208183030381529060405280519060200120905090565b81610b9d57610b9d81611740565b6000610cc983836001611358565b600255565b60006115cd6114d7565b8260405160200180807f190100000000000000000000000000000000000000000000000000000000000081525060020183815260200182815260200192505050604051602081830303815290604052805190602001209050919050565b600061163c82516041146101b96115a2565b60008060006020850151925060408501519150606085015160001a9050600060018783868660405160008152602001604052604051808581526020018460ff1681526020018381526020018281526020019450505050506020604051602081039080840390855afa1580156116b5573d6000803e3d6000fd5b50506040517fffffffffffffffffffffffffffffffffffffffffffffffffffffffffffffffe0015191505073ffffffffffffffffffffffffffffffffffffffff81161580159061173057508773ffffffffffffffffffffffffffffffffffffffff168173ffffffffffffffffffffffffffffffffffffffff16145b98975050505050505050565b4690565b7f08c379a000000000000000000000000000000000000000000000000000000000600090815260206004526007602452600a808304818106603090810160081b83860601918390049283060160101b016642414c230000300160c81b604452610bbc917f42414c0000000000000000000000000000000000000000000000000000000000906242414c90606490fdfea26469706673582212208e90d80da63fd44461a6806f33f01812bce1f1083b62b617ec6489a6cf7ccfcf64736f6c63430007010033","opcodes":"PUSH2 0x100 PUSH1 0x40 MSTORE PUSH1 0x7 DUP1 SLOAD PUSH1 0xFF NOT AND SWAP1 SSTORE CALLVALUE DUP1 ISZERO PUSH3 0x1C JUMPI PUSH1 0x0 DUP1 REVERT JUMPDEST POP PUSH1 0x40 MLOAD PUSH3 0x1B79 CODESIZE SUB DUP1 PUSH3 0x1B79 DUP4 CODECOPY DUP2 DUP2 ADD PUSH1 0x40 MSTORE PUSH1 0x80 DUP2 LT ISZERO PUSH3 0x42 JUMPI PUSH1 0x0 DUP1 REVERT JUMPDEST DUP2 ADD SWAP1 DUP1 DUP1 MLOAD PUSH1 0x40 MLOAD SWAP4 SWAP3 SWAP2 SWAP1 DUP5 PUSH5 0x100000000 DUP3 GT ISZERO PUSH3 0x63 JUMPI PUSH1 0x0 DUP1 REVERT JUMPDEST SWAP1 DUP4 ADD SWAP1 PUSH1 0x20 DUP3 ADD DUP6 DUP2 GT ISZERO PUSH3 0x79 JUMPI PUSH1 0x0 DUP1 REVERT JUMPDEST DUP3 MLOAD PUSH5 0x100000000 DUP2 GT DUP3 DUP3 ADD DUP9 LT OR ISZERO PUSH3 0x94 JUMPI PUSH1 0x0 DUP1 REVERT JUMPDEST DUP3 MSTORE POP DUP2 MLOAD PUSH1 0x20 SWAP2 DUP3 ADD SWAP3 SWAP1 SWAP2 ADD SWAP1 DUP1 DUP4 DUP4 PUSH1 0x0 JUMPDEST DUP4 DUP2 LT ISZERO PUSH3 0xC3 JUMPI DUP2 DUP2 ADD MLOAD DUP4 DUP3 ADD MSTORE PUSH1 0x20 ADD PUSH3 0xA9 JUMP JUMPDEST POP POP POP POP SWAP1 POP SWAP1 DUP2 ADD SWAP1 PUSH1 0x1F AND DUP1 ISZERO PUSH3 0xF1 JUMPI DUP1 DUP3 SUB DUP1 MLOAD PUSH1 0x1 DUP4 PUSH1 0x20 SUB PUSH2 0x100 EXP SUB NOT AND DUP2 MSTORE PUSH1 0x20 ADD SWAP2 POP JUMPDEST POP PUSH1 0x40 MSTORE PUSH1 0x20 ADD DUP1 MLOAD PUSH1 0x40 MLOAD SWAP4 SWAP3 SWAP2 SWAP1 DUP5 PUSH5 0x100000000 DUP3 GT ISZERO PUSH3 0x115 JUMPI PUSH1 0x0 DUP1 REVERT JUMPDEST SWAP1 DUP4 ADD SWAP1 PUSH1 0x20 DUP3 ADD DUP6 DUP2 GT ISZERO PUSH3 0x12B JUMPI PUSH1 0x0 DUP1 REVERT JUMPDEST DUP3 MLOAD PUSH5 0x100000000 DUP2 GT DUP3 DUP3 ADD DUP9 LT OR ISZERO PUSH3 0x146 JUMPI PUSH1 0x0 DUP1 REVERT JUMPDEST DUP3 MSTORE POP DUP2 MLOAD PUSH1 0x20 SWAP2 DUP3 ADD SWAP3 SWAP1 SWAP2 ADD SWAP1 DUP1 DUP4 DUP4 PUSH1 0x0 JUMPDEST DUP4 DUP2 LT ISZERO PUSH3 0x175 JUMPI DUP2 DUP2 ADD MLOAD DUP4 DUP3 ADD MSTORE PUSH1 0x20 ADD PUSH3 0x15B JUMP JUMPDEST POP POP POP POP SWAP1 POP SWAP1 DUP2 ADD SWAP1 PUSH1 0x1F AND DUP1 ISZERO PUSH3 0x1A3 JUMPI DUP1 DUP3 SUB DUP1 MLOAD PUSH1 0x1 DUP4 PUSH1 0x20 SUB PUSH2 0x100 EXP SUB NOT AND DUP2 MSTORE PUSH1 0x20 ADD SWAP2 POP JUMPDEST POP PUSH1 0x40 DUP2 DUP2 MSTORE PUSH1 0x20 DUP4 DUP2 ADD MLOAD SWAP4 DUP3 ADD MLOAD DUP4 DUP4 ADD SWAP1 SWAP3 MSTORE PUSH1 0x1 DUP4 MSTORE PUSH1 0x31 PUSH1 0xF8 SHL DUP2 DUP5 ADD MSTORE DUP8 MLOAD SWAP4 SWAP6 POP SWAP1 SWAP4 POP DUP7 SWAP3 DUP7 SWAP3 DUP7 SWAP3 DUP6 SWAP3 DUP4 SWAP3 SWAP2 DUP4 SWAP2 DUP8 SWAP2 PUSH3 0x1EE SWAP2 PUSH1 0x3 SWAP2 DUP6 ADD SWAP1 PUSH3 0x295 JUMP JUMPDEST POP DUP1 MLOAD PUSH3 0x204 SWAP1 PUSH1 0x4 SWAP1 PUSH1 0x20 DUP5 ADD SWAP1 PUSH3 0x295 JUMP JUMPDEST POP POP PUSH1 0x5 DUP1 SLOAD PUSH1 0xFF NOT AND PUSH1 0x12 OR SWAP1 SSTORE POP DUP2 MLOAD PUSH1 0x20 SWAP3 DUP4 ADD KECCAK256 PUSH1 0x80 MSTORE DUP1 MLOAD SWAP2 ADD KECCAK256 PUSH1 0xA0 MSTORE POP PUSH32 0x8B73C3C69BB8FE3D512ECC4CF759CC79239F7B179B0FFACAA9A75D522B39400F PUSH1 0xC0 MSTORE PUSH3 0x257 DUP2 PUSH3 0x27F JUMP JUMPDEST POP POP POP PUSH1 0x60 SHL PUSH1 0x1 PUSH1 0x1 PUSH1 0x60 SHL SUB NOT AND PUSH1 0xE0 MSTORE POP POP PUSH8 0xDE0B6B3A7640000 PUSH1 0xA SSTORE POP PUSH3 0x331 JUMP JUMPDEST PUSH1 0x5 DUP1 SLOAD PUSH1 0xFF NOT AND PUSH1 0xFF SWAP3 SWAP1 SWAP3 AND SWAP2 SWAP1 SWAP2 OR SWAP1 SSTORE JUMP JUMPDEST DUP3 DUP1 SLOAD PUSH1 0x1 DUP2 PUSH1 0x1 AND ISZERO PUSH2 0x100 MUL SUB AND PUSH1 0x2 SWAP1 DIV SWAP1 PUSH1 0x0 MSTORE PUSH1 0x20 PUSH1 0x0 KECCAK256 SWAP1 PUSH1 0x1F ADD PUSH1 0x20 SWAP1 DIV DUP2 ADD SWAP3 DUP3 PUSH1 0x1F LT PUSH3 0x2D8 JUMPI DUP1 MLOAD PUSH1 0xFF NOT AND DUP4 DUP1 ADD OR DUP6 SSTORE PUSH3 0x308 JUMP JUMPDEST DUP3 DUP1 ADD PUSH1 0x1 ADD DUP6 SSTORE DUP3 ISZERO PUSH3 0x308 JUMPI SWAP2 DUP3 ADD JUMPDEST DUP3 DUP2 GT ISZERO PUSH3 0x308 JUMPI DUP3 MLOAD DUP3 SSTORE SWAP2 PUSH1 0x20 ADD SWAP2 SWAP1 PUSH1 0x1 ADD SWAP1 PUSH3 0x2EB JUMP JUMPDEST POP PUSH3 0x316 SWAP3 SWAP2 POP PUSH3 0x31A JUMP JUMPDEST POP SWAP1 JUMP JUMPDEST JUMPDEST DUP1 DUP3 GT ISZERO PUSH3 0x316 JUMPI PUSH1 0x0 DUP2 SSTORE PUSH1 0x1 ADD PUSH3 0x31B JUMP JUMPDEST PUSH1 0x80 MLOAD PUSH1 0xA0 MLOAD PUSH1 0xC0 MLOAD PUSH1 0xE0 MLOAD PUSH1 0x60 SHR PUSH2 0x1805 PUSH3 0x374 PUSH1 0x0 CODECOPY DUP1 PUSH2 0x7A9 MSTORE DUP1 PUSH2 0xC26 MSTORE DUP1 PUSH2 0x10A3 MSTORE POP DUP1 PUSH2 0x14DB MSTORE POP DUP1 PUSH2 0x151D MSTORE POP DUP1 PUSH2 0x14FC MSTORE POP PUSH2 0x1805 PUSH1 0x0 RETURN INVALID PUSH1 0x80 PUSH1 0x40 MSTORE CALLVALUE DUP1 ISZERO PUSH2 0x10 JUMPI PUSH1 0x0 DUP1 REVERT JUMPDEST POP PUSH1 0x4 CALLDATASIZE LT PUSH2 0x225 JUMPI PUSH1 0x0 CALLDATALOAD PUSH1 0xE0 SHR DUP1 PUSH4 0x6E553F65 GT PUSH2 0x12A JUMPI DUP1 PUSH4 0x99530B06 GT PUSH2 0xBD JUMPI DUP1 PUSH4 0xD505ACCF GT PUSH2 0x8C JUMPI DUP1 PUSH4 0xDD62ED3E GT PUSH2 0x71 JUMPI DUP1 PUSH4 0xDD62ED3E EQ PUSH2 0x703 JUMPI DUP1 PUSH4 0xED24911D EQ PUSH2 0x73E JUMPI DUP1 PUSH4 0xFC0C546A EQ PUSH2 0x746 JUMPI PUSH2 0x225 JUMP JUMPDEST DUP1 PUSH4 0xD505ACCF EQ PUSH2 0x67C JUMPI DUP1 PUSH4 0xD652E8C6 EQ PUSH2 0x6DA JUMPI PUSH2 0x225 JUMP JUMPDEST DUP1 PUSH4 0x99530B06 EQ PUSH2 0x5FA JUMPI DUP1 PUSH4 0xA457C2D7 EQ PUSH2 0x602 JUMPI DUP1 PUSH4 0xA9059CBB EQ PUSH2 0x63B JUMPI DUP1 PUSH4 0xC3535B52 EQ PUSH2 0x674 JUMPI PUSH2 0x225 JUMP JUMPDEST DUP1 PUSH4 0x7CE3EE48 GT PUSH2 0xF9 JUMPI DUP1 PUSH4 0x7CE3EE48 EQ PUSH2 0x584 JUMPI DUP1 PUSH4 0x7ECEBE00 EQ PUSH2 0x58C JUMPI DUP1 PUSH4 0x90193B7C EQ PUSH2 0x5BF JUMPI DUP1 PUSH4 0x95D89B41 EQ PUSH2 0x5F2 JUMPI PUSH2 0x225 JUMP JUMPDEST DUP1 PUSH4 0x6E553F65 EQ PUSH2 0x4A6 JUMPI DUP1 PUSH4 0x70A08231 EQ PUSH2 0x4DF JUMPI DUP1 PUSH4 0x79CC6790 EQ PUSH2 0x512 JUMPI DUP1 PUSH4 0x7C602BC2 EQ PUSH2 0x54B JUMPI PUSH2 0x225 JUMP JUMPDEST DUP1 PUSH4 0x29478CB4 GT PUSH2 0x1BD JUMPI DUP1 PUSH4 0x39509351 GT PUSH2 0x18C JUMPI DUP1 PUSH4 0x42232716 GT PUSH2 0x171 JUMPI DUP1 PUSH4 0x42232716 EQ PUSH2 0x479 JUMPI DUP1 PUSH4 0x42966C68 EQ PUSH2 0x481 JUMPI DUP1 PUSH4 0x44B81396 EQ PUSH2 0x49E JUMPI PUSH2 0x225 JUMP JUMPDEST DUP1 PUSH4 0x39509351 EQ PUSH2 0x407 JUMPI DUP1 PUSH4 0x40C10F19 EQ PUSH2 0x440 JUMPI PUSH2 0x225 JUMP JUMPDEST DUP1 PUSH4 0x29478CB4 EQ PUSH2 0x3B9 JUMPI DUP1 PUSH4 0x2CD10339 EQ PUSH2 0x3C1 JUMPI DUP1 PUSH4 0x313CE567 EQ PUSH2 0x3E1 JUMPI DUP1 PUSH4 0x3644E515 EQ PUSH2 0x3FF JUMPI PUSH2 0x225 JUMP JUMPDEST DUP1 PUSH4 0x146D4EEE GT PUSH2 0x1F9 JUMPI DUP1 PUSH4 0x146D4EEE EQ PUSH2 0x347 JUMPI DUP1 PUSH4 0x1765B313 EQ PUSH2 0x351 JUMPI DUP1 PUSH4 0x18160DDD EQ PUSH2 0x36E JUMPI DUP1 PUSH4 0x23B872DD EQ PUSH2 0x376 JUMPI PUSH2 0x225 JUMP JUMPDEST DUP1 PUSH3 0xF714CE EQ PUSH2 0x22A JUMPI DUP1 PUSH4 0x1E1D114 EQ PUSH2 0x275 JUMPI DUP1 PUSH4 0x6FDDE03 EQ PUSH2 0x27D JUMPI DUP1 PUSH4 0x95EA7B3 EQ PUSH2 0x2FA JUMPI JUMPDEST PUSH1 0x0 DUP1 REVERT JUMPDEST PUSH2 0x263 PUSH1 0x4 DUP1 CALLDATASIZE SUB PUSH1 0x40 DUP2 LT ISZERO PUSH2 0x240 JUMPI PUSH1 0x0 DUP1 REVERT JUMPDEST POP DUP1 CALLDATALOAD SWAP1 PUSH1 0x20 ADD CALLDATALOAD PUSH20 0xFFFFFFFFFFFFFFFFFFFFFFFFFFFFFFFFFFFFFFFF AND PUSH2 0x777 JUMP JUMPDEST PUSH1 0x40 DUP1 MLOAD SWAP2 DUP3 MSTORE MLOAD SWAP1 DUP2 SWAP1 SUB PUSH1 0x20 ADD SWAP1 RETURN JUMPDEST PUSH2 0x263 PUSH2 0x86C JUMP JUMPDEST PUSH2 0x285 PUSH2 0x87E JUMP JUMPDEST PUSH1 0x40 DUP1 MLOAD PUSH1 0x20 DUP1 DUP3 MSTORE DUP4 MLOAD DUP2 DUP4 ADD MSTORE DUP4 MLOAD SWAP2 SWAP3 DUP4 SWAP3 SWAP1 DUP4 ADD SWAP2 DUP6 ADD SWAP1 DUP1 DUP4 DUP4 PUSH1 0x0 JUMPDEST DUP4 DUP2 LT ISZERO PUSH2 0x2BF JUMPI DUP2 DUP2 ADD MLOAD DUP4 DUP3 ADD MSTORE PUSH1 0x20 ADD PUSH2 0x2A7 JUMP JUMPDEST POP POP POP POP SWAP1 POP SWAP1 DUP2 ADD SWAP1 PUSH1 0x1F AND DUP1 ISZERO PUSH2 0x2EC JUMPI DUP1 DUP3 SUB DUP1 MLOAD PUSH1 0x1 DUP4 PUSH1 0x20 SUB PUSH2 0x100 EXP SUB NOT AND DUP2 MSTORE PUSH1 0x20 ADD SWAP2 POP JUMPDEST POP SWAP3 POP POP POP PUSH1 0x40 MLOAD DUP1 SWAP2 SUB SWAP1 RETURN JUMPDEST PUSH2 0x333 PUSH1 0x4 DUP1 CALLDATASIZE SUB PUSH1 0x40 DUP2 LT ISZERO PUSH2 0x310 JUMPI PUSH1 0x0 DUP1 REVERT JUMPDEST POP PUSH20 0xFFFFFFFFFFFFFFFFFFFFFFFFFFFFFFFFFFFFFFFF DUP2 CALLDATALOAD AND SWAP1 PUSH1 0x20 ADD CALLDATALOAD PUSH2 0x932 JUMP JUMPDEST PUSH1 0x40 DUP1 MLOAD SWAP2 ISZERO ISZERO DUP3 MSTORE MLOAD SWAP1 DUP2 SWAP1 SUB PUSH1 0x20 ADD SWAP1 RETURN JUMPDEST PUSH2 0x34F PUSH2 0x948 JUMP JUMPDEST STOP JUMPDEST PUSH2 0x34F PUSH1 0x4 DUP1 CALLDATASIZE SUB PUSH1 0x20 DUP2 LT ISZERO PUSH2 0x367 JUMPI PUSH1 0x0 DUP1 REVERT JUMPDEST POP CALLDATALOAD PUSH2 0x9B8 JUMP JUMPDEST PUSH2 0x263 PUSH2 0x9BD JUMP JUMPDEST PUSH2 0x333 PUSH1 0x4 DUP1 CALLDATASIZE SUB PUSH1 0x60 DUP2 LT ISZERO PUSH2 0x38C JUMPI PUSH1 0x0 DUP1 REVERT JUMPDEST POP PUSH20 0xFFFFFFFFFFFFFFFFFFFFFFFFFFFFFFFFFFFFFFFF DUP2 CALLDATALOAD DUP2 AND SWAP2 PUSH1 0x20 DUP2 ADD CALLDATALOAD SWAP1 SWAP2 AND SWAP1 PUSH1 0x40 ADD CALLDATALOAD PUSH2 0x9D4 JUMP JUMPDEST PUSH2 0x34F PUSH2 0xA35 JUMP JUMPDEST PUSH2 0x34F PUSH1 0x4 DUP1 CALLDATASIZE SUB PUSH1 0x20 DUP2 LT ISZERO PUSH2 0x3D7 JUMPI PUSH1 0x0 DUP1 REVERT JUMPDEST POP CALLDATALOAD PUSH1 0xFF AND PUSH2 0xAFE JUMP JUMPDEST PUSH2 0x3E9 PUSH2 0xB3D JUMP JUMPDEST PUSH1 0x40 DUP1 MLOAD PUSH1 0xFF SWAP1 SWAP3 AND DUP3 MSTORE MLOAD SWAP1 DUP2 SWAP1 SUB PUSH1 0x20 ADD SWAP1 RETURN JUMPDEST PUSH2 0x263 PUSH2 0xB46 JUMP JUMPDEST PUSH2 0x333 PUSH1 0x4 DUP1 CALLDATASIZE SUB PUSH1 0x40 DUP2 LT ISZERO PUSH2 0x41D JUMPI PUSH1 0x0 DUP1 REVERT JUMPDEST POP PUSH20 0xFFFFFFFFFFFFFFFFFFFFFFFFFFFFFFFFFFFFFFFF DUP2 CALLDATALOAD AND SWAP1 PUSH1 0x20 ADD CALLDATALOAD PUSH2 0xB50 JUMP JUMPDEST PUSH2 0x34F PUSH1 0x4 DUP1 CALLDATASIZE SUB PUSH1 0x40 DUP2 LT ISZERO PUSH2 0x456 JUMPI PUSH1 0x0 DUP1 REVERT JUMPDEST POP PUSH20 0xFFFFFFFFFFFFFFFFFFFFFFFFFFFFFFFFFFFFFFFF DUP2 CALLDATALOAD AND SWAP1 PUSH1 0x20 ADD CALLDATALOAD PUSH2 0xB93 JUMP JUMPDEST PUSH2 0x263 PUSH2 0xBA1 JUMP JUMPDEST PUSH2 0x34F PUSH1 0x4 DUP1 CALLDATASIZE SUB PUSH1 0x20 DUP2 LT ISZERO PUSH2 0x497 JUMPI PUSH1 0x0 DUP1 REVERT JUMPDEST POP CALLDATALOAD PUSH2 0xBB2 JUMP JUMPDEST PUSH2 0x263 PUSH2 0xBBF JUMP JUMPDEST PUSH2 0x263 PUSH1 0x4 DUP1 CALLDATASIZE SUB PUSH1 0x40 DUP2 LT ISZERO PUSH2 0x4BC JUMPI PUSH1 0x0 DUP1 REVERT JUMPDEST POP DUP1 CALLDATALOAD SWAP1 PUSH1 0x20 ADD CALLDATALOAD PUSH20 0xFFFFFFFFFFFFFFFFFFFFFFFFFFFFFFFFFFFFFFFF AND PUSH2 0xBD0 JUMP JUMPDEST PUSH2 0x263 PUSH1 0x4 DUP1 CALLDATASIZE SUB PUSH1 0x20 DUP2 LT ISZERO PUSH2 0x4F5 JUMPI PUSH1 0x0 DUP1 REVERT JUMPDEST POP CALLDATALOAD PUSH20 0xFFFFFFFFFFFFFFFFFFFFFFFFFFFFFFFFFFFFFFFF AND PUSH2 0xCD0 JUMP JUMPDEST PUSH2 0x34F PUSH1 0x4 DUP1 CALLDATASIZE SUB PUSH1 0x40 DUP2 LT ISZERO PUSH2 0x528 JUMPI PUSH1 0x0 DUP1 REVERT JUMPDEST POP PUSH20 0xFFFFFFFFFFFFFFFFFFFFFFFFFFFFFFFFFFFFFFFF DUP2 CALLDATALOAD AND SWAP1 PUSH1 0x20 ADD CALLDATALOAD PUSH2 0xCF8 JUMP JUMPDEST PUSH2 0x34F PUSH1 0x4 DUP1 CALLDATASIZE SUB PUSH1 0x40 DUP2 LT ISZERO PUSH2 0x561 JUMPI PUSH1 0x0 DUP1 REVERT JUMPDEST POP PUSH20 0xFFFFFFFFFFFFFFFFFFFFFFFFFFFFFFFFFFFFFFFF DUP2 CALLDATALOAD AND SWAP1 PUSH1 0x20 ADD CALLDATALOAD PUSH2 0xD2E JUMP JUMPDEST PUSH2 0x34F PUSH2 0xD38 JUMP JUMPDEST PUSH2 0x263 PUSH1 0x4 DUP1 CALLDATASIZE SUB PUSH1 0x20 DUP2 LT ISZERO PUSH2 0x5A2 JUMPI PUSH1 0x0 DUP1 REVERT JUMPDEST POP CALLDATALOAD PUSH20 0xFFFFFFFFFFFFFFFFFFFFFFFFFFFFFFFFFFFFFFFF AND PUSH2 0xE11 JUMP JUMPDEST PUSH2 0x263 PUSH1 0x4 DUP1 CALLDATASIZE SUB PUSH1 0x20 DUP2 LT ISZERO PUSH2 0x5D5 JUMPI PUSH1 0x0 DUP1 REVERT JUMPDEST POP CALLDATALOAD PUSH20 0xFFFFFFFFFFFFFFFFFFFFFFFFFFFFFFFFFFFFFFFF AND PUSH2 0xE22 JUMP JUMPDEST PUSH2 0x285 PUSH2 0xE4A JUMP JUMPDEST PUSH2 0x263 PUSH2 0xEC9 JUMP JUMPDEST PUSH2 0x333 PUSH1 0x4 DUP1 CALLDATASIZE SUB PUSH1 0x40 DUP2 LT ISZERO PUSH2 0x618 JUMPI PUSH1 0x0 DUP1 REVERT JUMPDEST POP PUSH20 0xFFFFFFFFFFFFFFFFFFFFFFFFFFFFFFFFFFFFFFFF DUP2 CALLDATALOAD AND SWAP1 PUSH1 0x20 ADD CALLDATALOAD PUSH2 0xF1D JUMP JUMPDEST PUSH2 0x333 PUSH1 0x4 DUP1 CALLDATASIZE SUB PUSH1 0x40 DUP2 LT ISZERO PUSH2 0x651 JUMPI PUSH1 0x0 DUP1 REVERT JUMPDEST POP PUSH20 0xFFFFFFFFFFFFFFFFFFFFFFFFFFFFFFFFFFFFFFFF DUP2 CALLDATALOAD AND SWAP1 PUSH1 0x20 ADD CALLDATALOAD PUSH2 0xF63 JUMP JUMPDEST PUSH2 0x263 PUSH2 0xF70 JUMP JUMPDEST PUSH2 0x34F PUSH1 0x4 DUP1 CALLDATASIZE SUB PUSH1 0xE0 DUP2 LT ISZERO PUSH2 0x692 JUMPI PUSH1 0x0 DUP1 REVERT JUMPDEST POP PUSH20 0xFFFFFFFFFFFFFFFFFFFFFFFFFFFFFFFFFFFFFFFF DUP2 CALLDATALOAD DUP2 AND SWAP2 PUSH1 0x20 DUP2 ADD CALLDATALOAD SWAP1 SWAP2 AND SWAP1 PUSH1 0x40 DUP2 ADD CALLDATALOAD SWAP1 PUSH1 0x60 DUP2 ADD CALLDATALOAD SWAP1 PUSH1 0xFF PUSH1 0x80 DUP3 ADD CALLDATALOAD AND SWAP1 PUSH1 0xA0 DUP2 ADD CALLDATALOAD SWAP1 PUSH1 0xC0 ADD CALLDATALOAD PUSH2 0xF81 JUMP JUMPDEST PUSH2 0x6E2 PUSH2 0x1056 JUMP JUMPDEST PUSH1 0x40 MLOAD DUP1 DUP3 PUSH1 0x3 DUP2 GT ISZERO PUSH2 0x6F2 JUMPI INVALID JUMPDEST DUP2 MSTORE PUSH1 0x20 ADD SWAP2 POP POP PUSH1 0x40 MLOAD DUP1 SWAP2 SUB SWAP1 RETURN JUMPDEST PUSH2 0x263 PUSH1 0x4 DUP1 CALLDATASIZE SUB PUSH1 0x40 DUP2 LT ISZERO PUSH2 0x719 JUMPI PUSH1 0x0 DUP1 REVERT JUMPDEST POP PUSH20 0xFFFFFFFFFFFFFFFFFFFFFFFFFFFFFFFFFFFFFFFF DUP2 CALLDATALOAD DUP2 AND SWAP2 PUSH1 0x20 ADD CALLDATALOAD AND PUSH2 0x105F JUMP JUMPDEST PUSH2 0x263 PUSH2 0x1097 JUMP JUMPDEST PUSH2 0x74E PUSH2 0x10A1 JUMP JUMPDEST PUSH1 0x40 DUP1 MLOAD PUSH20 0xFFFFFFFFFFFFFFFFFFFFFFFFFFFFFFFFFFFFFFFF SWAP1 SWAP3 AND DUP3 MSTORE MLOAD SWAP1 DUP2 SWAP1 SUB PUSH1 0x20 ADD SWAP1 RETURN JUMPDEST PUSH1 0x0 PUSH2 0x783 CALLER DUP5 PUSH2 0x10C5 JUMP JUMPDEST PUSH1 0x0 PUSH2 0x78D PUSH2 0xB3D JUMP JUMPDEST PUSH1 0xFF AND PUSH1 0xA EXP PUSH2 0x79B PUSH2 0xEC9 JUMP JUMPDEST DUP6 MUL DUP2 PUSH2 0x7A4 JUMPI INVALID JUMPDEST DIV SWAP1 POP PUSH32 0x0 PUSH20 0xFFFFFFFFFFFFFFFFFFFFFFFFFFFFFFFFFFFFFFFF AND PUSH4 0xA9059CBB DUP5 DUP4 PUSH1 0x40 MLOAD DUP4 PUSH4 0xFFFFFFFF AND PUSH1 0xE0 SHL DUP2 MSTORE PUSH1 0x4 ADD DUP1 DUP4 PUSH20 0xFFFFFFFFFFFFFFFFFFFFFFFFFFFFFFFFFFFFFFFF AND DUP2 MSTORE PUSH1 0x20 ADD DUP3 DUP2 MSTORE PUSH1 0x20 ADD SWAP3 POP POP POP PUSH1 0x20 PUSH1 0x40 MLOAD DUP1 DUP4 SUB DUP2 PUSH1 0x0 DUP8 DUP1 EXTCODESIZE ISZERO DUP1 ISZERO PUSH2 0x838 JUMPI PUSH1 0x0 DUP1 REVERT JUMPDEST POP GAS CALL ISZERO DUP1 ISZERO PUSH2 0x84C JUMPI RETURNDATASIZE PUSH1 0x0 DUP1 RETURNDATACOPY RETURNDATASIZE PUSH1 0x0 REVERT JUMPDEST POP POP POP POP PUSH1 0x40 MLOAD RETURNDATASIZE PUSH1 0x20 DUP2 LT ISZERO PUSH2 0x862 JUMPI PUSH1 0x0 DUP1 REVERT JUMPDEST POP SWAP1 SWAP5 SWAP4 POP POP POP POP JUMP JUMPDEST PUSH1 0x0 PUSH2 0x876 PUSH2 0xA35 JUMP JUMPDEST POP PUSH1 0xB SLOAD JUMPDEST SWAP1 JUMP JUMPDEST PUSH1 0x3 DUP1 SLOAD PUSH1 0x40 DUP1 MLOAD PUSH1 0x20 PUSH1 0x1F PUSH1 0x2 PUSH32 0xFFFFFFFFFFFFFFFFFFFFFFFFFFFFFFFFFFFFFFFFFFFFFFFFFFFFFFFFFFFFFFFF PUSH2 0x100 PUSH1 0x1 DUP9 AND ISZERO MUL ADD SWAP1 SWAP6 AND SWAP5 SWAP1 SWAP5 DIV SWAP4 DUP5 ADD DUP2 SWAP1 DIV DUP2 MUL DUP3 ADD DUP2 ADD SWAP1 SWAP3 MSTORE DUP3 DUP2 MSTORE PUSH1 0x60 SWAP4 SWAP1 SWAP3 SWAP1 SWAP2 DUP4 ADD DUP3 DUP3 DUP1 ISZERO PUSH2 0x928 JUMPI DUP1 PUSH1 0x1F LT PUSH2 0x8FD JUMPI PUSH2 0x100 DUP1 DUP4 SLOAD DIV MUL DUP4 MSTORE SWAP2 PUSH1 0x20 ADD SWAP2 PUSH2 0x928 JUMP JUMPDEST DUP3 ADD SWAP2 SWAP1 PUSH1 0x0 MSTORE PUSH1 0x20 PUSH1 0x0 KECCAK256 SWAP1 JUMPDEST DUP2 SLOAD DUP2 MSTORE SWAP1 PUSH1 0x1 ADD SWAP1 PUSH1 0x20 ADD DUP1 DUP4 GT PUSH2 0x90B JUMPI DUP3 SWAP1 SUB PUSH1 0x1F AND DUP3 ADD SWAP2 JUMPDEST POP POP POP POP POP SWAP1 POP SWAP1 JUMP JUMPDEST PUSH1 0x0 PUSH2 0x93F CALLER DUP5 DUP5 PUSH2 0x11BA JUMP JUMPDEST POP PUSH1 0x1 SWAP3 SWAP2 POP POP JUMP JUMPDEST PUSH1 0x40 DUP1 MLOAD PUSH1 0x2 DUP1 DUP3 MSTORE PUSH1 0x60 DUP1 DUP4 ADD DUP5 MSTORE SWAP3 PUSH1 0x20 DUP4 ADD SWAP1 DUP1 CALLDATASIZE DUP4 CALLDATACOPY ADD SWAP1 POP POP SWAP1 POP PUSH1 0x1 DUP2 PUSH1 0x0 DUP2 MLOAD DUP2 LT PUSH2 0x977 JUMPI INVALID JUMPDEST PUSH1 0x20 MUL PUSH1 0x20 ADD ADD DUP2 DUP2 MSTORE POP POP PUSH1 0x2 DUP2 PUSH1 0x1 DUP2 MLOAD DUP2 LT PUSH2 0x992 JUMPI INVALID JUMPDEST PUSH1 0x20 MUL PUSH1 0x20 ADD ADD DUP2 DUP2 MSTORE POP POP PUSH1 0x20 DUP2 MLOAD MUL PUSH4 0xFA61CC12 PUSH1 0x20 DUP4 SUB MSTORE PUSH1 0x4 DUP3 SUB PUSH1 0x24 DUP3 ADD DUP2 REVERT JUMPDEST PUSH1 0xB SSTORE JUMP JUMPDEST PUSH1 0x0 PUSH2 0x9C7 PUSH2 0xA35 JUMP JUMPDEST PUSH2 0x9CF PUSH2 0x1229 JUMP JUMPDEST SWAP1 POP SWAP1 JUMP JUMPDEST PUSH1 0x0 PUSH2 0x9E1 DUP5 DUP5 DUP5 PUSH2 0x122F JUMP JUMPDEST PUSH20 0xFFFFFFFFFFFFFFFFFFFFFFFFFFFFFFFFFFFFFFFF DUP5 AND PUSH1 0x0 SWAP1 DUP2 MSTORE PUSH1 0x1 PUSH1 0x20 SWAP1 DUP2 MSTORE PUSH1 0x40 DUP1 DUP4 KECCAK256 CALLER DUP1 DUP6 MSTORE SWAP3 MSTORE SWAP1 SWAP2 KECCAK256 SLOAD PUSH2 0xA2B SWAP2 DUP7 SWAP2 PUSH2 0xA26 SWAP1 DUP7 PUSH2 0x19E PUSH2 0x1358 JUMP JUMPDEST PUSH2 0x11BA JUMP JUMPDEST POP PUSH1 0x1 SWAP4 SWAP3 POP POP POP JUMP JUMPDEST PUSH1 0x1 PUSH1 0x7 SLOAD PUSH1 0xFF AND PUSH1 0x3 DUP2 GT ISZERO PUSH2 0xA48 JUMPI INVALID JUMPDEST EQ ISZERO PUSH2 0xAB5 JUMPI PUSH1 0x40 DUP1 MLOAD PUSH32 0x8C379A000000000000000000000000000000000000000000000000000000000 DUP2 MSTORE PUSH1 0x20 PUSH1 0x4 DUP3 ADD MSTORE PUSH1 0x14 PUSH1 0x24 DUP3 ADD MSTORE PUSH32 0x4E4F4E5F4D414C4943494F55535F524556455254000000000000000000000000 PUSH1 0x44 DUP3 ADD MSTORE SWAP1 MLOAD SWAP1 DUP2 SWAP1 SUB PUSH1 0x64 ADD SWAP1 REVERT JUMPDEST PUSH1 0x2 PUSH1 0x7 SLOAD PUSH1 0xFF AND PUSH1 0x3 DUP2 GT ISZERO PUSH2 0xAC8 JUMPI INVALID JUMPDEST EQ ISZERO PUSH2 0xADB JUMPI PUSH2 0xAD6 PUSH2 0x948 JUMP JUMPDEST PUSH2 0xAFC JUMP JUMPDEST PUSH1 0x3 PUSH1 0x7 SLOAD PUSH1 0xFF AND PUSH1 0x3 DUP2 GT ISZERO PUSH2 0xAEE JUMPI INVALID JUMPDEST EQ ISZERO PUSH2 0xAFC JUMPI PUSH2 0xAFC PUSH2 0xD38 JUMP JUMPDEST JUMP JUMPDEST PUSH1 0x7 DUP1 SLOAD DUP3 SWAP2 SWAP1 PUSH32 0xFFFFFFFFFFFFFFFFFFFFFFFFFFFFFFFFFFFFFFFFFFFFFFFFFFFFFFFFFFFFFF00 AND PUSH1 0x1 DUP4 PUSH1 0x3 DUP2 GT ISZERO PUSH2 0xB35 JUMPI INVALID JUMPDEST MUL OR SWAP1 SSTORE POP POP JUMP JUMPDEST PUSH1 0x5 SLOAD PUSH1 0xFF AND SWAP1 JUMP JUMPDEST PUSH1 0x0 PUSH2 0x9CF PUSH2 0x1097 JUMP JUMPDEST CALLER PUSH1 0x0 DUP2 DUP2 MSTORE PUSH1 0x1 PUSH1 0x20 SWAP1 DUP2 MSTORE PUSH1 0x40 DUP1 DUP4 KECCAK256 PUSH20 0xFFFFFFFFFFFFFFFFFFFFFFFFFFFFFFFFFFFFFFFF DUP8 AND DUP5 MSTORE SWAP1 SWAP2 MSTORE DUP2 KECCAK256 SLOAD SWAP1 SWAP2 PUSH2 0x93F SWAP2 DUP6 SWAP1 PUSH2 0xA26 SWAP1 DUP7 PUSH2 0x136E JUMP JUMPDEST PUSH2 0xB9D DUP3 DUP3 PUSH2 0x1380 JUMP JUMPDEST POP POP JUMP JUMPDEST PUSH1 0x0 PUSH2 0xBAB PUSH2 0xA35 JUMP JUMPDEST POP PUSH1 0xA SLOAD SWAP1 JUMP JUMPDEST PUSH2 0xBBC CALLER DUP3 PUSH2 0x10C5 JUMP JUMPDEST POP JUMP JUMPDEST PUSH1 0x0 PUSH2 0xBC9 PUSH2 0xA35 JUMP JUMPDEST POP PUSH1 0x9 SLOAD SWAP1 JUMP JUMPDEST PUSH1 0x40 DUP1 MLOAD PUSH32 0x23B872DD00000000000000000000000000000000000000000000000000000000 DUP2 MSTORE CALLER PUSH1 0x4 DUP3 ADD MSTORE ADDRESS PUSH1 0x24 DUP3 ADD MSTORE PUSH1 0x44 DUP2 ADD DUP5 SWAP1 MSTORE SWAP1 MLOAD PUSH1 0x0 SWAP2 PUSH20 0xFFFFFFFFFFFFFFFFFFFFFFFFFFFFFFFFFFFFFFFF PUSH32 0x0 AND SWAP2 PUSH4 0x23B872DD SWAP2 PUSH1 0x64 DUP1 DUP3 ADD SWAP3 PUSH1 0x20 SWAP3 SWAP1 SWAP2 SWAP1 DUP3 SWAP1 SUB ADD DUP2 DUP8 DUP8 DUP1 EXTCODESIZE ISZERO DUP1 ISZERO PUSH2 0xC6E JUMPI PUSH1 0x0 DUP1 REVERT JUMPDEST POP GAS CALL ISZERO DUP1 ISZERO PUSH2 0xC82 JUMPI RETURNDATASIZE PUSH1 0x0 DUP1 RETURNDATACOPY RETURNDATASIZE PUSH1 0x0 REVERT JUMPDEST POP POP POP POP PUSH1 0x40 MLOAD RETURNDATASIZE PUSH1 0x20 DUP2 LT ISZERO PUSH2 0xC98 JUMPI PUSH1 0x0 DUP1 REVERT JUMPDEST POP PUSH1 0x0 SWAP1 POP PUSH2 0xCA5 PUSH2 0xEC9 JUMP JUMPDEST PUSH2 0xCAD PUSH2 0xB3D JUMP JUMPDEST PUSH1 0xFF AND PUSH1 0xA EXP DUP6 MUL DUP2 PUSH2 0xCBC JUMPI INVALID JUMPDEST DIV SWAP1 POP PUSH2 0xCC9 DUP4 DUP3 PUSH2 0x1380 JUMP JUMPDEST SWAP4 SWAP3 POP POP POP JUMP JUMPDEST PUSH20 0xFFFFFFFFFFFFFFFFFFFFFFFFFFFFFFFFFFFFFFFF AND PUSH1 0x0 SWAP1 DUP2 MSTORE PUSH1 0x20 DUP2 SWAP1 MSTORE PUSH1 0x40 SWAP1 KECCAK256 SLOAD SWAP1 JUMP JUMPDEST PUSH1 0x0 PUSH2 0xD12 DUP3 PUSH2 0x1A1 PUSH2 0xD0B DUP7 CALLER PUSH2 0x105F JUMP JUMPDEST SWAP2 SWAP1 PUSH2 0x1358 JUMP JUMPDEST SWAP1 POP PUSH2 0xD1F DUP4 CALLER DUP4 PUSH2 0x11BA JUMP JUMPDEST PUSH2 0xD29 DUP4 DUP4 PUSH2 0x10C5 JUMP JUMPDEST POP POP POP JUMP JUMPDEST PUSH2 0xB9D DUP3 DUP3 PUSH2 0x10C5 JUMP JUMPDEST PUSH1 0x40 DUP1 MLOAD PUSH1 0x2 DUP1 DUP3 MSTORE PUSH1 0x60 DUP1 DUP4 ADD DUP5 MSTORE SWAP3 PUSH1 0x20 DUP4 ADD SWAP1 DUP1 CALLDATASIZE DUP4 CALLDATACOPY ADD SWAP1 POP POP SWAP1 POP PUSH1 0x1 DUP2 PUSH1 0x0 DUP2 MLOAD DUP2 LT PUSH2 0xD67 JUMPI INVALID JUMPDEST PUSH1 0x20 MUL PUSH1 0x20 ADD ADD DUP2 DUP2 MSTORE POP POP PUSH1 0x2 DUP2 PUSH1 0x1 DUP2 MLOAD DUP2 LT PUSH2 0xD82 JUMPI INVALID JUMPDEST PUSH1 0x20 SWAP1 DUP2 MUL SWAP2 SWAP1 SWAP2 ADD DUP2 ADD SWAP2 SWAP1 SWAP2 MSTORE DUP2 MLOAD PUSH2 0x1A4 PUSH32 0xFFFFFFFFFFFFFFFFFFFFFFFFFFFFFFFFFFFFFFFFFFFFFFFFFFFFFFFFFFFFFFE0 DUP5 ADD DUP2 SWAP1 MSTORE PUSH4 0x43ADBAFB PUSH32 0xFFFFFFFFFFFFFFFFFFFFFFFFFFFFFFFFFFFFFFFFFFFFFFFFFFFFFFFFFFFFFFC0 DUP6 ADD MSTORE SWAP2 MUL PUSH32 0xFFFFFFFFFFFFFFFFFFFFFFFFFFFFFFFFFFFFFFFFFFFFFFFFFFFFFFFFFFFFFFDC DUP4 ADD PUSH1 0x44 DUP3 ADD DUP2 REVERT JUMPDEST PUSH1 0x0 PUSH2 0xE1C DUP3 PUSH2 0xE22 JUMP JUMPDEST SWAP3 SWAP2 POP POP JUMP JUMPDEST PUSH20 0xFFFFFFFFFFFFFFFFFFFFFFFFFFFFFFFFFFFFFFFF AND PUSH1 0x0 SWAP1 DUP2 MSTORE PUSH1 0x6 PUSH1 0x20 MSTORE PUSH1 0x40 SWAP1 KECCAK256 SLOAD SWAP1 JUMP JUMPDEST PUSH1 0x4 DUP1 SLOAD PUSH1 0x40 DUP1 MLOAD PUSH1 0x20 PUSH1 0x1F PUSH1 0x2 PUSH32 0xFFFFFFFFFFFFFFFFFFFFFFFFFFFFFFFFFFFFFFFFFFFFFFFFFFFFFFFFFFFFFFFF PUSH2 0x100 PUSH1 0x1 DUP9 AND ISZERO MUL ADD SWAP1 SWAP6 AND SWAP5 SWAP1 SWAP5 DIV SWAP4 DUP5 ADD DUP2 SWAP1 DIV DUP2 MUL DUP3 ADD DUP2 ADD SWAP1 SWAP3 MSTORE DUP3 DUP2 MSTORE PUSH1 0x60 SWAP4 SWAP1 SWAP3 SWAP1 SWAP2 DUP4 ADD DUP3 DUP3 DUP1 ISZERO PUSH2 0x928 JUMPI DUP1 PUSH1 0x1F LT PUSH2 0x8FD JUMPI PUSH2 0x100 DUP1 DUP4 SLOAD DIV MUL DUP4 MSTORE SWAP2 PUSH1 0x20 ADD SWAP2 PUSH2 0x928 JUMP JUMPDEST PUSH1 0x0 PUSH2 0xED3 PUSH2 0xA35 JUMP JUMPDEST PUSH1 0x0 PUSH2 0xEDD PUSH2 0x9BD JUMP JUMPDEST SWAP1 POP DUP1 PUSH2 0xEFA JUMPI PUSH2 0xEEC PUSH2 0xB3D JUMP JUMPDEST PUSH1 0xFF AND PUSH1 0xA EXP SWAP2 POP POP PUSH2 0x87B JUMP JUMPDEST DUP1 PUSH1 0xB SLOAD PUSH2 0xF06 PUSH2 0xB3D JUMP JUMPDEST PUSH1 0xFF AND PUSH1 0xA EXP MUL DUP2 PUSH2 0xF14 JUMPI INVALID JUMPDEST DIV SWAP2 POP POP PUSH2 0x87B JUMP JUMPDEST CALLER PUSH1 0x0 DUP2 DUP2 MSTORE PUSH1 0x1 PUSH1 0x20 SWAP1 DUP2 MSTORE PUSH1 0x40 DUP1 DUP4 KECCAK256 PUSH20 0xFFFFFFFFFFFFFFFFFFFFFFFFFFFFFFFFFFFFFFFF DUP8 AND DUP5 MSTORE SWAP1 SWAP2 MSTORE DUP2 KECCAK256 SLOAD SWAP1 SWAP2 PUSH2 0x93F SWAP2 DUP6 SWAP1 PUSH2 0xA26 SWAP1 DUP7 PUSH2 0x19F PUSH2 0x1358 JUMP JUMPDEST PUSH1 0x0 PUSH2 0x93F CALLER DUP5 DUP5 PUSH2 0x122F JUMP JUMPDEST PUSH1 0x0 PUSH2 0xF7A PUSH2 0xA35 JUMP JUMPDEST POP PUSH1 0x8 SLOAD SWAP1 JUMP JUMPDEST PUSH1 0x0 PUSH32 0x6E71EDAE12B1B97F4D1F60370FEF10105FA2FAAE0126114A169C64845D6126C9 DUP9 DUP9 DUP9 PUSH2 0xFB0 DUP13 PUSH2 0xE22 JUMP JUMPDEST DUP10 PUSH1 0x40 MLOAD PUSH1 0x20 ADD DUP1 DUP8 DUP2 MSTORE PUSH1 0x20 ADD DUP7 PUSH20 0xFFFFFFFFFFFFFFFFFFFFFFFFFFFFFFFFFFFFFFFF AND DUP2 MSTORE PUSH1 0x20 ADD DUP6 PUSH20 0xFFFFFFFFFFFFFFFFFFFFFFFFFFFFFFFFFFFFFFFF AND DUP2 MSTORE PUSH1 0x20 ADD DUP5 DUP2 MSTORE PUSH1 0x20 ADD DUP4 DUP2 MSTORE PUSH1 0x20 ADD DUP3 DUP2 MSTORE PUSH1 0x20 ADD SWAP7 POP POP POP POP POP POP POP PUSH1 0x40 MLOAD PUSH1 0x20 DUP2 DUP4 SUB SUB DUP2 MSTORE SWAP1 PUSH1 0x40 MSTORE DUP1 MLOAD SWAP1 PUSH1 0x20 ADD KECCAK256 SWAP1 POP PUSH2 0x1041 DUP9 DUP3 PUSH2 0x1038 DUP8 DUP8 DUP8 PUSH2 0x1434 JUMP JUMPDEST DUP9 PUSH2 0x1F8 PUSH2 0x1473 JUMP JUMPDEST PUSH2 0x104C DUP9 DUP9 DUP9 PUSH2 0x11BA JUMP JUMPDEST POP POP POP POP POP POP POP POP JUMP JUMPDEST PUSH1 0x7 SLOAD PUSH1 0xFF AND DUP2 JUMP JUMPDEST PUSH20 0xFFFFFFFFFFFFFFFFFFFFFFFFFFFFFFFFFFFFFFFF SWAP2 DUP3 AND PUSH1 0x0 SWAP1 DUP2 MSTORE PUSH1 0x1 PUSH1 0x20 SWAP1 DUP2 MSTORE PUSH1 0x40 DUP1 DUP4 KECCAK256 SWAP4 SWAP1 SWAP5 AND DUP3 MSTORE SWAP2 SWAP1 SWAP2 MSTORE KECCAK256 SLOAD SWAP1 JUMP JUMPDEST PUSH1 0x0 PUSH2 0x9CF PUSH2 0x14D7 JUMP JUMPDEST PUSH32 0x0 SWAP1 JUMP JUMPDEST PUSH2 0x10E9 PUSH20 0xFFFFFFFFFFFFFFFFFFFFFFFFFFFFFFFFFFFFFFFF DUP4 AND ISZERO ISZERO PUSH2 0x19B PUSH2 0x15A2 JUMP JUMPDEST PUSH2 0x10F5 DUP3 PUSH1 0x0 DUP4 PUSH2 0xD29 JUMP JUMPDEST PUSH20 0xFFFFFFFFFFFFFFFFFFFFFFFFFFFFFFFFFFFFFFFF DUP3 AND PUSH1 0x0 SWAP1 DUP2 MSTORE PUSH1 0x20 DUP2 SWAP1 MSTORE PUSH1 0x40 SWAP1 KECCAK256 SLOAD PUSH2 0x1128 SWAP1 DUP3 PUSH2 0x1B2 PUSH2 0x1358 JUMP JUMPDEST PUSH20 0xFFFFFFFFFFFFFFFFFFFFFFFFFFFFFFFFFFFFFFFF DUP4 AND PUSH1 0x0 SWAP1 DUP2 MSTORE PUSH1 0x20 DUP2 SWAP1 MSTORE PUSH1 0x40 SWAP1 KECCAK256 SSTORE PUSH2 0x1168 PUSH2 0x1163 DUP3 PUSH2 0x115D PUSH2 0x9BD JUMP JUMPDEST SWAP1 PUSH2 0x15B0 JUMP JUMPDEST PUSH2 0x15BE JUMP JUMPDEST PUSH1 0x40 DUP1 MLOAD DUP3 DUP2 MSTORE SWAP1 MLOAD PUSH1 0x0 SWAP2 PUSH20 0xFFFFFFFFFFFFFFFFFFFFFFFFFFFFFFFFFFFFFFFF DUP6 AND SWAP2 PUSH32 0xDDF252AD1BE2C89B69C2B068FC378DAA952BA7F163C4A11628F55A4DF523B3EF SWAP2 DUP2 SWAP1 SUB PUSH1 0x20 ADD SWAP1 LOG3 POP POP JUMP JUMPDEST PUSH20 0xFFFFFFFFFFFFFFFFFFFFFFFFFFFFFFFFFFFFFFFF DUP1 DUP5 AND PUSH1 0x0 DUP2 DUP2 MSTORE PUSH1 0x1 PUSH1 0x20 SWAP1 DUP2 MSTORE PUSH1 0x40 DUP1 DUP4 KECCAK256 SWAP5 DUP8 AND DUP1 DUP5 MSTORE SWAP5 DUP3 MSTORE SWAP2 DUP3 SWAP1 KECCAK256 DUP6 SWAP1 SSTORE DUP2 MLOAD DUP6 DUP2 MSTORE SWAP2 MLOAD PUSH32 0x8C5BE1E5EBEC7D5BD14F71427D1E84F3DD0314C0F7B2291E5B200AC8C7C3B925 SWAP3 DUP2 SWAP1 SUB SWAP1 SWAP2 ADD SWAP1 LOG3 POP POP POP JUMP JUMPDEST PUSH1 0x2 SLOAD SWAP1 JUMP JUMPDEST PUSH2 0x1253 PUSH20 0xFFFFFFFFFFFFFFFFFFFFFFFFFFFFFFFFFFFFFFFF DUP5 AND ISZERO ISZERO PUSH2 0x198 PUSH2 0x15A2 JUMP JUMPDEST PUSH2 0x1277 PUSH20 0xFFFFFFFFFFFFFFFFFFFFFFFFFFFFFFFFFFFFFFFF DUP4 AND ISZERO ISZERO PUSH2 0x199 PUSH2 0x15A2 JUMP JUMPDEST PUSH2 0x1282 DUP4 DUP4 DUP4 PUSH2 0xD29 JUMP JUMPDEST PUSH20 0xFFFFFFFFFFFFFFFFFFFFFFFFFFFFFFFFFFFFFFFF DUP4 AND PUSH1 0x0 SWAP1 DUP2 MSTORE PUSH1 0x20 DUP2 SWAP1 MSTORE PUSH1 0x40 SWAP1 KECCAK256 SLOAD PUSH2 0x12B5 SWAP1 DUP3 PUSH2 0x1A0 PUSH2 0x1358 JUMP JUMPDEST PUSH20 0xFFFFFFFFFFFFFFFFFFFFFFFFFFFFFFFFFFFFFFFF DUP1 DUP6 AND PUSH1 0x0 SWAP1 DUP2 MSTORE PUSH1 0x20 DUP2 SWAP1 MSTORE PUSH1 0x40 DUP1 DUP3 KECCAK256 SWAP4 SWAP1 SWAP4 SSTORE SWAP1 DUP5 AND DUP2 MSTORE KECCAK256 SLOAD PUSH2 0x12F1 SWAP1 DUP3 PUSH2 0x136E JUMP JUMPDEST PUSH20 0xFFFFFFFFFFFFFFFFFFFFFFFFFFFFFFFFFFFFFFFF DUP1 DUP5 AND PUSH1 0x0 DUP2 DUP2 MSTORE PUSH1 0x20 DUP2 DUP2 MSTORE PUSH1 0x40 SWAP2 DUP3 SWAP1 KECCAK256 SWAP5 SWAP1 SWAP5 SSTORE DUP1 MLOAD DUP6 DUP2 MSTORE SWAP1 MLOAD SWAP2 SWAP4 SWAP3 DUP8 AND SWAP3 PUSH32 0xDDF252AD1BE2C89B69C2B068FC378DAA952BA7F163C4A11628F55A4DF523B3EF SWAP3 SWAP2 DUP3 SWAP1 SUB ADD SWAP1 LOG3 POP POP POP JUMP JUMPDEST PUSH1 0x0 PUSH2 0x1367 DUP5 DUP5 GT ISZERO DUP4 PUSH2 0x15A2 JUMP JUMPDEST POP POP SWAP1 SUB SWAP1 JUMP JUMPDEST PUSH1 0x0 DUP3 DUP3 ADD PUSH2 0xCC9 DUP5 DUP3 LT ISZERO DUP4 PUSH2 0x15A2 JUMP JUMPDEST PUSH2 0x138C PUSH1 0x0 DUP4 DUP4 PUSH2 0xD29 JUMP JUMPDEST PUSH2 0x13A1 PUSH2 0x1163 DUP3 PUSH2 0x139B PUSH2 0x9BD JUMP JUMPDEST SWAP1 PUSH2 0x136E JUMP JUMPDEST PUSH20 0xFFFFFFFFFFFFFFFFFFFFFFFFFFFFFFFFFFFFFFFF DUP3 AND PUSH1 0x0 SWAP1 DUP2 MSTORE PUSH1 0x20 DUP2 SWAP1 MSTORE PUSH1 0x40 SWAP1 KECCAK256 SLOAD PUSH2 0x13D1 SWAP1 DUP3 PUSH2 0x136E JUMP JUMPDEST PUSH20 0xFFFFFFFFFFFFFFFFFFFFFFFFFFFFFFFFFFFFFFFF DUP4 AND PUSH1 0x0 DUP2 DUP2 MSTORE PUSH1 0x20 DUP2 DUP2 MSTORE PUSH1 0x40 DUP1 DUP4 KECCAK256 SWAP5 SWAP1 SWAP5 SSTORE DUP4 MLOAD DUP6 DUP2 MSTORE SWAP4 MLOAD SWAP3 SWAP4 SWAP2 SWAP3 PUSH32 0xDDF252AD1BE2C89B69C2B068FC378DAA952BA7F163C4A11628F55A4DF523B3EF SWAP3 DUP2 SWAP1 SUB SWAP1 SWAP2 ADD SWAP1 LOG3 POP POP JUMP JUMPDEST PUSH1 0x40 DUP1 MLOAD PUSH1 0x41 DUP1 DUP3 MSTORE PUSH1 0x80 DUP3 ADD SWAP1 SWAP3 MSTORE PUSH1 0x60 SWAP2 DUP3 SWAP2 SWAP1 PUSH1 0x20 DUP3 ADD DUP2 DUP1 CALLDATASIZE DUP4 CALLDATACOPY ADD SWAP1 POP POP SWAP1 POP DUP4 PUSH1 0x20 DUP3 ADD MSTORE DUP3 PUSH1 0x40 DUP3 ADD MSTORE DUP5 PUSH1 0x60 DUP3 ADD MSTORE8 SWAP5 SWAP4 POP POP POP POP JUMP JUMPDEST PUSH1 0x0 PUSH2 0x147E DUP6 PUSH2 0x15C3 JUMP JUMPDEST SWAP1 POP PUSH2 0x1494 PUSH2 0x148E DUP8 DUP4 DUP8 PUSH2 0x162A JUMP JUMPDEST DUP4 PUSH2 0x15A2 JUMP JUMPDEST PUSH2 0x14A3 TIMESTAMP DUP5 LT ISZERO PUSH2 0x1B8 PUSH2 0x15A2 JUMP JUMPDEST POP POP POP PUSH20 0xFFFFFFFFFFFFFFFFFFFFFFFFFFFFFFFFFFFFFFFF SWAP1 SWAP3 AND PUSH1 0x0 SWAP1 DUP2 MSTORE PUSH1 0x6 PUSH1 0x20 MSTORE PUSH1 0x40 SWAP1 KECCAK256 DUP1 SLOAD PUSH1 0x1 ADD SWAP1 SSTORE POP POP JUMP JUMPDEST PUSH1 0x0 PUSH32 0x0 PUSH32 0x0 PUSH32 0x0 PUSH2 0x1544 PUSH2 0x173C JUMP JUMPDEST ADDRESS PUSH1 0x40 MLOAD PUSH1 0x20 ADD DUP1 DUP7 DUP2 MSTORE PUSH1 0x20 ADD DUP6 DUP2 MSTORE PUSH1 0x20 ADD DUP5 DUP2 MSTORE PUSH1 0x20 ADD DUP4 DUP2 MSTORE PUSH1 0x20 ADD DUP3 PUSH20 0xFFFFFFFFFFFFFFFFFFFFFFFFFFFFFFFFFFFFFFFF AND DUP2 MSTORE PUSH1 0x20 ADD SWAP6 POP POP POP POP POP POP PUSH1 0x40 MLOAD PUSH1 0x20 DUP2 DUP4 SUB SUB DUP2 MSTORE SWAP1 PUSH1 0x40 MSTORE DUP1 MLOAD SWAP1 PUSH1 0x20 ADD KECCAK256 SWAP1 POP SWAP1 JUMP JUMPDEST DUP2 PUSH2 0xB9D JUMPI PUSH2 0xB9D DUP2 PUSH2 0x1740 JUMP JUMPDEST PUSH1 0x0 PUSH2 0xCC9 DUP4 DUP4 PUSH1 0x1 PUSH2 0x1358 JUMP JUMPDEST PUSH1 0x2 SSTORE JUMP JUMPDEST PUSH1 0x0 PUSH2 0x15CD PUSH2 0x14D7 JUMP JUMPDEST DUP3 PUSH1 0x40 MLOAD PUSH1 0x20 ADD DUP1 DUP1 PUSH32 0x1901000000000000000000000000000000000000000000000000000000000000 DUP2 MSTORE POP PUSH1 0x2 ADD DUP4 DUP2 MSTORE PUSH1 0x20 ADD DUP3 DUP2 MSTORE PUSH1 0x20 ADD SWAP3 POP POP POP PUSH1 0x40 MLOAD PUSH1 0x20 DUP2 DUP4 SUB SUB DUP2 MSTORE SWAP1 PUSH1 0x40 MSTORE DUP1 MLOAD SWAP1 PUSH1 0x20 ADD KECCAK256 SWAP1 POP SWAP2 SWAP1 POP JUMP JUMPDEST PUSH1 0x0 PUSH2 0x163C DUP3 MLOAD PUSH1 0x41 EQ PUSH2 0x1B9 PUSH2 0x15A2 JUMP JUMPDEST PUSH1 0x0 DUP1 PUSH1 0x0 PUSH1 0x20 DUP6 ADD MLOAD SWAP3 POP PUSH1 0x40 DUP6 ADD MLOAD SWAP2 POP PUSH1 0x60 DUP6 ADD MLOAD PUSH1 0x0 BYTE SWAP1 POP PUSH1 0x0 PUSH1 0x1 DUP8 DUP4 DUP7 DUP7 PUSH1 0x40 MLOAD PUSH1 0x0 DUP2 MSTORE PUSH1 0x20 ADD PUSH1 0x40 MSTORE PUSH1 0x40 MLOAD DUP1 DUP6 DUP2 MSTORE PUSH1 0x20 ADD DUP5 PUSH1 0xFF AND DUP2 MSTORE PUSH1 0x20 ADD DUP4 DUP2 MSTORE PUSH1 0x20 ADD DUP3 DUP2 MSTORE PUSH1 0x20 ADD SWAP5 POP POP POP POP POP PUSH1 0x20 PUSH1 0x40 MLOAD PUSH1 0x20 DUP2 SUB SWAP1 DUP1 DUP5 SUB SWAP1 DUP6 GAS STATICCALL ISZERO DUP1 ISZERO PUSH2 0x16B5 JUMPI RETURNDATASIZE PUSH1 0x0 DUP1 RETURNDATACOPY RETURNDATASIZE PUSH1 0x0 REVERT JUMPDEST POP POP PUSH1 0x40 MLOAD PUSH32 0xFFFFFFFFFFFFFFFFFFFFFFFFFFFFFFFFFFFFFFFFFFFFFFFFFFFFFFFFFFFFFFE0 ADD MLOAD SWAP2 POP POP PUSH20 0xFFFFFFFFFFFFFFFFFFFFFFFFFFFFFFFFFFFFFFFF DUP2 AND ISZERO DUP1 ISZERO SWAP1 PUSH2 0x1730 JUMPI POP DUP8 PUSH20 0xFFFFFFFFFFFFFFFFFFFFFFFFFFFFFFFFFFFFFFFF AND DUP2 PUSH20 0xFFFFFFFFFFFFFFFFFFFFFFFFFFFFFFFFFFFFFFFF AND EQ JUMPDEST SWAP9 SWAP8 POP POP POP POP POP POP POP POP JUMP JUMPDEST CHAINID SWAP1 JUMP JUMPDEST PUSH32 0x8C379A000000000000000000000000000000000000000000000000000000000 PUSH1 0x0 SWAP1 DUP2 MSTORE PUSH1 0x20 PUSH1 0x4 MSTORE PUSH1 0x7 PUSH1 0x24 MSTORE PUSH1 0xA DUP1 DUP4 DIV DUP2 DUP2 MOD PUSH1 0x30 SWAP1 DUP2 ADD PUSH1 0x8 SHL DUP4 DUP7 MOD ADD SWAP2 DUP4 SWAP1 DIV SWAP3 DUP4 MOD ADD PUSH1 0x10 SHL ADD PUSH7 0x42414C23000030 ADD PUSH1 0xC8 SHL PUSH1 0x44 MSTORE PUSH2 0xBBC SWAP2 PUSH32 0x42414C0000000000000000000000000000000000000000000000000000000000 SWAP1 PUSH3 0x42414C SWAP1 PUSH1 0x64 SWAP1 REVERT INVALID LOG2 PUSH5 0x6970667358 0x22 SLT KECCAK256 DUP15 SWAP1 0xD8 0xD 0xA6 EXTCODEHASH 0xD4 DIFFICULTY PUSH2 0xA680 PUSH16 0x33F01812BCE1F1083B62B617EC6489A6 0xCF PUSH29 0xCFCF64736F6C6343000701003300000000000000000000000000000000 "},"methodIdentifiers":{"DOMAIN_SEPARATOR()":"3644e515","allowance(address,address)":"dd62ed3e","approve(address,uint256)":"095ea7b3","balanceOf(address)":"70a08231","burn(uint256)":"42966c68","burnFrom(address,uint256)":"79cc6790","burnWithoutAllowance(address,uint256)":"7c602bc2","decimals()":"313ce567","decreaseAllowance(address,uint256)":"a457c2d7","deposit(uint256,address)":"6e553f65","getDomainSeparator()":"ed24911d","getNextNonce(address)":"90193b7c","increaseAllowance(address,uint256)":"39509351","lastReport()":"c3535b52","lockedProfit()":"44b81396","lockedProfitDegradation()":"42232716","maybeRevertMaliciously()":"29478cb4","mint(address,uint256)":"40c10f19","name()":"06fdde03","nonces(address)":"7ecebe00","permit(address,address,uint256,uint256,uint8,bytes32,bytes32)":"d505accf","pricePerShare()":"99530b06","revertType()":"d652e8c6","setRevertType(uint8)":"2cd10339","setTotalAssets(uint256)":"1765b313","spoofJoinExitQueryRevert()":"7ce3ee48","spoofSwapQueryRevert()":"146d4eee","symbol()":"95d89b41","token()":"fc0c546a","totalAssets()":"01e1d114","totalSupply()":"18160ddd","transfer(address,uint256)":"a9059cbb","transferFrom(address,address,uint256)":"23b872dd","withdraw(uint256,address)":"00f714ce"}}}}}