{"src/helpers/contracts/MockGearboxVault.sol":{"MockGearboxVault":{"abi":[{"inputs":[{"internalType":"address","name":"underlyingAsset","type":"address"}],"stateMutability":"nonpayable","type":"constructor"},{"inputs":[{"internalType":"uint256","name":"","type":"uint256"},{"internalType":"address","name":"","type":"address"},{"internalType":"uint256","name":"","type":"uint256"}],"name":"addLiquidity","outputs":[],"stateMutability":"pure","type":"function"},{"inputs":[{"internalType":"uint256","name":"amountDiesel","type":"uint256"}],"name":"fromDiesel","outputs":[{"internalType":"uint256","name":"","type":"uint256"}],"stateMutability":"view","type":"function"},{"inputs":[],"name":"getDieselRate_RAY","outputs":[{"internalType":"uint256","name":"","type":"uint256"}],"stateMutability":"view","type":"function"},{"inputs":[],"name":"maybeRevertMaliciously","outputs":[],"stateMutability":"view","type":"function"},{"inputs":[{"internalType":"uint256","name":"","type":"uint256"},{"internalType":"address","name":"","type":"address"}],"name":"removeLiquidity","outputs":[],"stateMutability":"pure","type":"function"},{"inputs":[],"name":"revertType","outputs":[{"internalType":"enum MaliciousQueryReverter.RevertType","name":"","type":"uint8"}],"stateMutability":"view","type":"function"},{"inputs":[{"internalType":"uint256","name":"rate","type":"uint256"}],"name":"setRate","outputs":[],"stateMutability":"nonpayable","type":"function"},{"inputs":[{"internalType":"enum MaliciousQueryReverter.RevertType","name":"newRevertType","type":"uint8"}],"name":"setRevertType","outputs":[],"stateMutability":"nonpayable","type":"function"},{"inputs":[],"name":"spoofJoinExitQueryRevert","outputs":[],"stateMutability":"pure","type":"function"},{"inputs":[],"name":"spoofSwapQueryRevert","outputs":[],"stateMutability":"pure","type":"function"},{"inputs":[],"name":"underlyingToken","outputs":[{"internalType":"address","name":"","type":"address"}],"stateMutability":"view","type":"function"}],"evm":{"bytecode":{"linkReferences":{},"object":"60a06040526000805460ff191690556b033b2e3c9fd0803ce800000060015534801561002a57600080fd5b506040516106933803806106938339818101604052602081101561004d57600080fd5b5051606081901b6001600160601b0319166080526001600160a01b0316610612610081600039806102a452506106126000f3fe608060405234801561001057600080fd5b50600436106100c95760003560e01c806334fcf437116100815780637ce3ee481161005b5780637ce3ee48146101be5780639aa5d462146101c6578063d652e8c614610205576100c9565b806334fcf4371461016a5780635427c93814610187578063788c6bfe146101b6576100c9565b80632495a599116100b25780632495a5991461011157806329478cb4146101425780632cd103391461014a576100c9565b806305fe138b146100ce578063146d4eee14610109575b600080fd5b610107600480360360408110156100e457600080fd5b508035906020013573ffffffffffffffffffffffffffffffffffffffff1661022e565b005b610107610232565b6101196102a2565b6040805173ffffffffffffffffffffffffffffffffffffffff9092168252519081900360200190f35b6101076102c6565b6101076004803603602081101561016057600080fd5b503560ff1661038f565b6101076004803603602081101561018057600080fd5b50356103ce565b6101a46004803603602081101561019d57600080fd5b50356103d3565b60408051918252519081900360200190f35b6101a46103fd565b61010761040e565b610107600480360360608110156101dc57600080fd5b5080359073ffffffffffffffffffffffffffffffffffffffff60208201351690604001356104e7565b61020d6104ec565b6040518082600381111561021d57fe5b815260200191505060405180910390f35b5050565b604080516002808252606080830184529260208301908036833701905050905060018160008151811061026157fe5b60200260200101818152505060028160018151811061027c57fe5b602002602001018181525050602081510263fa61cc126020830352600482036024820181fd5b7f000000000000000000000000000000000000000000000000000000000000000090565b600160005460ff1660038111156102d957fe5b141561034657604080517f08c379a000000000000000000000000000000000000000000000000000000000815260206004820152601460248201527f4e4f4e5f4d414c4943494f55535f524556455254000000000000000000000000604482015290519081900360640190fd5b600260005460ff16600381111561035957fe5b141561036c57610367610232565b61038d565b600360005460ff16600381111561037f57fe5b141561038d5761038d61040e565b565b600080548291907fffffffffffffffffffffffffffffffffffffffffffffffffffffffffffffff001660018360038111156103c657fe5b021790555050565b600155565b6000633b9aca006103ef600154846104f590919063ffffffff16565b816103f657fe5b0492915050565b60006104076102c6565b5060015490565b604080516002808252606080830184529260208301908036833701905050905060018160008151811061043d57fe5b60200260200101818152505060028160018151811061045857fe5b60209081029190910181019190915281516101a47fffffffffffffffffffffffffffffffffffffffffffffffffffffffffffffffe084018190526343adbafb7fffffffffffffffffffffffffffffffffffffffffffffffffffffffffffffffc085015291027fffffffffffffffffffffffffffffffffffffffffffffffffffffffffffffffdc83016044820181fd5b505050565b60005460ff1681565b600082820261051984158061051257508385838161050f57fe5b04145b600361052b565b670de0b6b3a764000090049392505050565b8161022e5761022e8161055e817f42414c0000000000000000000000000000000000000000000000000000000000610561565b50565b7f08c379a000000000000000000000000000000000000000000000000000000000600090815260206004526007602452600a808404818106603090810160081b958390069590950190829004918206850160101b01602363ffffff0060e086901c160160181b0190930160c81b60445260e882901c90606490fdfea26469706673582212204857fd7880d4ea475c59573acffd708a32d7d99ca3cddc77c0ecb73d110f633764736f6c63430007010033","opcodes":"PUSH1 0xA0 PUSH1 0x40 MSTORE PUSH1 0x0 DUP1 SLOAD PUSH1 0xFF NOT AND SWAP1 SSTORE PUSH12 0x33B2E3C9FD0803CE8000000 PUSH1 0x1 SSTORE CALLVALUE DUP1 ISZERO PUSH2 0x2A JUMPI PUSH1 0x0 DUP1 REVERT JUMPDEST POP PUSH1 0x40 MLOAD PUSH2 0x693 CODESIZE SUB DUP1 PUSH2 0x693 DUP4 CODECOPY DUP2 DUP2 ADD PUSH1 0x40 MSTORE PUSH1 0x20 DUP2 LT ISZERO PUSH2 0x4D JUMPI PUSH1 0x0 DUP1 REVERT JUMPDEST POP MLOAD PUSH1 0x60 DUP2 SWAP1 SHL PUSH1 0x1 PUSH1 0x1 PUSH1 0x60 SHL SUB NOT AND PUSH1 0x80 MSTORE PUSH1 0x1 PUSH1 0x1 PUSH1 0xA0 SHL SUB AND PUSH2 0x612 PUSH2 0x81 PUSH1 0x0 CODECOPY DUP1 PUSH2 0x2A4 MSTORE POP PUSH2 0x612 PUSH1 0x0 RETURN INVALID PUSH1 0x80 PUSH1 0x40 MSTORE CALLVALUE DUP1 ISZERO PUSH2 0x10 JUMPI PUSH1 0x0 DUP1 REVERT JUMPDEST POP PUSH1 0x4 CALLDATASIZE LT PUSH2 0xC9 JUMPI PUSH1 0x0 CALLDATALOAD PUSH1 0xE0 SHR DUP1 PUSH4 0x34FCF437 GT PUSH2 0x81 JUMPI DUP1 PUSH4 0x7CE3EE48 GT PUSH2 0x5B JUMPI DUP1 PUSH4 0x7CE3EE48 EQ PUSH2 0x1BE JUMPI DUP1 PUSH4 0x9AA5D462 EQ PUSH2 0x1C6 JUMPI DUP1 PUSH4 0xD652E8C6 EQ PUSH2 0x205 JUMPI PUSH2 0xC9 JUMP JUMPDEST DUP1 PUSH4 0x34FCF437 EQ PUSH2 0x16A JUMPI DUP1 PUSH4 0x5427C938 EQ PUSH2 0x187 JUMPI DUP1 PUSH4 0x788C6BFE EQ PUSH2 0x1B6 JUMPI PUSH2 0xC9 JUMP JUMPDEST DUP1 PUSH4 0x2495A599 GT PUSH2 0xB2 JUMPI DUP1 PUSH4 0x2495A599 EQ PUSH2 0x111 JUMPI DUP1 PUSH4 0x29478CB4 EQ PUSH2 0x142 JUMPI DUP1 PUSH4 0x2CD10339 EQ PUSH2 0x14A JUMPI PUSH2 0xC9 JUMP JUMPDEST DUP1 PUSH4 0x5FE138B EQ PUSH2 0xCE JUMPI DUP1 PUSH4 0x146D4EEE EQ PUSH2 0x109 JUMPI JUMPDEST PUSH1 0x0 DUP1 REVERT JUMPDEST PUSH2 0x107 PUSH1 0x4 DUP1 CALLDATASIZE SUB PUSH1 0x40 DUP2 LT ISZERO PUSH2 0xE4 JUMPI PUSH1 0x0 DUP1 REVERT JUMPDEST POP DUP1 CALLDATALOAD SWAP1 PUSH1 0x20 ADD CALLDATALOAD PUSH20 0xFFFFFFFFFFFFFFFFFFFFFFFFFFFFFFFFFFFFFFFF AND PUSH2 0x22E JUMP JUMPDEST STOP JUMPDEST PUSH2 0x107 PUSH2 0x232 JUMP JUMPDEST PUSH2 0x119 PUSH2 0x2A2 JUMP JUMPDEST PUSH1 0x40 DUP1 MLOAD PUSH20 0xFFFFFFFFFFFFFFFFFFFFFFFFFFFFFFFFFFFFFFFF SWAP1 SWAP3 AND DUP3 MSTORE MLOAD SWAP1 DUP2 SWAP1 SUB PUSH1 0x20 ADD SWAP1 RETURN JUMPDEST PUSH2 0x107 PUSH2 0x2C6 JUMP JUMPDEST PUSH2 0x107 PUSH1 0x4 DUP1 CALLDATASIZE SUB PUSH1 0x20 DUP2 LT ISZERO PUSH2 0x160 JUMPI PUSH1 0x0 DUP1 REVERT JUMPDEST POP CALLDATALOAD PUSH1 0xFF AND PUSH2 0x38F JUMP JUMPDEST PUSH2 0x107 PUSH1 0x4 DUP1 CALLDATASIZE SUB PUSH1 0x20 DUP2 LT ISZERO PUSH2 0x180 JUMPI PUSH1 0x0 DUP1 REVERT JUMPDEST POP CALLDATALOAD PUSH2 0x3CE JUMP JUMPDEST PUSH2 0x1A4 PUSH1 0x4 DUP1 CALLDATASIZE SUB PUSH1 0x20 DUP2 LT ISZERO PUSH2 0x19D JUMPI PUSH1 0x0 DUP1 REVERT JUMPDEST POP CALLDATALOAD PUSH2 0x3D3 JUMP JUMPDEST PUSH1 0x40 DUP1 MLOAD SWAP2 DUP3 MSTORE MLOAD SWAP1 DUP2 SWAP1 SUB PUSH1 0x20 ADD SWAP1 RETURN JUMPDEST PUSH2 0x1A4 PUSH2 0x3FD JUMP JUMPDEST PUSH2 0x107 PUSH2 0x40E JUMP JUMPDEST PUSH2 0x107 PUSH1 0x4 DUP1 CALLDATASIZE SUB PUSH1 0x60 DUP2 LT ISZERO PUSH2 0x1DC JUMPI PUSH1 0x0 DUP1 REVERT JUMPDEST POP DUP1 CALLDATALOAD SWAP1 PUSH20 0xFFFFFFFFFFFFFFFFFFFFFFFFFFFFFFFFFFFFFFFF PUSH1 0x20 DUP3 ADD CALLDATALOAD AND SWAP1 PUSH1 0x40 ADD CALLDATALOAD PUSH2 0x4E7 JUMP JUMPDEST PUSH2 0x20D PUSH2 0x4EC JUMP JUMPDEST PUSH1 0x40 MLOAD DUP1 DUP3 PUSH1 0x3 DUP2 GT ISZERO PUSH2 0x21D JUMPI INVALID JUMPDEST DUP2 MSTORE PUSH1 0x20 ADD SWAP2 POP POP PUSH1 0x40 MLOAD DUP1 SWAP2 SUB SWAP1 RETURN JUMPDEST POP POP JUMP JUMPDEST PUSH1 0x40 DUP1 MLOAD PUSH1 0x2 DUP1 DUP3 MSTORE PUSH1 0x60 DUP1 DUP4 ADD DUP5 MSTORE SWAP3 PUSH1 0x20 DUP4 ADD SWAP1 DUP1 CALLDATASIZE DUP4 CALLDATACOPY ADD SWAP1 POP POP SWAP1 POP PUSH1 0x1 DUP2 PUSH1 0x0 DUP2 MLOAD DUP2 LT PUSH2 0x261 JUMPI INVALID JUMPDEST PUSH1 0x20 MUL PUSH1 0x20 ADD ADD DUP2 DUP2 MSTORE POP POP PUSH1 0x2 DUP2 PUSH1 0x1 DUP2 MLOAD DUP2 LT PUSH2 0x27C JUMPI INVALID JUMPDEST PUSH1 0x20 MUL PUSH1 0x20 ADD ADD DUP2 DUP2 MSTORE POP POP PUSH1 0x20 DUP2 MLOAD MUL PUSH4 0xFA61CC12 PUSH1 0x20 DUP4 SUB MSTORE PUSH1 0x4 DUP3 SUB PUSH1 0x24 DUP3 ADD DUP2 REVERT JUMPDEST PUSH32 0x0 SWAP1 JUMP JUMPDEST PUSH1 0x1 PUSH1 0x0 SLOAD PUSH1 0xFF AND PUSH1 0x3 DUP2 GT ISZERO PUSH2 0x2D9 JUMPI INVALID JUMPDEST EQ ISZERO PUSH2 0x346 JUMPI PUSH1 0x40 DUP1 MLOAD PUSH32 0x8C379A000000000000000000000000000000000000000000000000000000000 DUP2 MSTORE PUSH1 0x20 PUSH1 0x4 DUP3 ADD MSTORE PUSH1 0x14 PUSH1 0x24 DUP3 ADD MSTORE PUSH32 0x4E4F4E5F4D414C4943494F55535F524556455254000000000000000000000000 PUSH1 0x44 DUP3 ADD MSTORE SWAP1 MLOAD SWAP1 DUP2 SWAP1 SUB PUSH1 0x64 ADD SWAP1 REVERT JUMPDEST PUSH1 0x2 PUSH1 0x0 SLOAD PUSH1 0xFF AND PUSH1 0x3 DUP2 GT ISZERO PUSH2 0x359 JUMPI INVALID JUMPDEST EQ ISZERO PUSH2 0x36C JUMPI PUSH2 0x367 PUSH2 0x232 JUMP JUMPDEST PUSH2 0x38D JUMP JUMPDEST PUSH1 0x3 PUSH1 0x0 SLOAD PUSH1 0xFF AND PUSH1 0x3 DUP2 GT ISZERO PUSH2 0x37F JUMPI INVALID JUMPDEST EQ ISZERO PUSH2 0x38D JUMPI PUSH2 0x38D PUSH2 0x40E JUMP JUMPDEST JUMP JUMPDEST PUSH1 0x0 DUP1 SLOAD DUP3 SWAP2 SWAP1 PUSH32 0xFFFFFFFFFFFFFFFFFFFFFFFFFFFFFFFFFFFFFFFFFFFFFFFFFFFFFFFFFFFFFF00 AND PUSH1 0x1 DUP4 PUSH1 0x3 DUP2 GT ISZERO PUSH2 0x3C6 JUMPI INVALID JUMPDEST MUL OR SWAP1 SSTORE POP POP JUMP JUMPDEST PUSH1 0x1 SSTORE JUMP JUMPDEST PUSH1 0x0 PUSH4 0x3B9ACA00 PUSH2 0x3EF PUSH1 0x1 SLOAD DUP5 PUSH2 0x4F5 SWAP1 SWAP2 SWAP1 PUSH4 0xFFFFFFFF AND JUMP JUMPDEST DUP2 PUSH2 0x3F6 JUMPI INVALID JUMPDEST DIV SWAP3 SWAP2 POP POP JUMP JUMPDEST PUSH1 0x0 PUSH2 0x407 PUSH2 0x2C6 JUMP JUMPDEST POP PUSH1 0x1 SLOAD SWAP1 JUMP JUMPDEST PUSH1 0x40 DUP1 MLOAD PUSH1 0x2 DUP1 DUP3 MSTORE PUSH1 0x60 DUP1 DUP4 ADD DUP5 MSTORE SWAP3 PUSH1 0x20 DUP4 ADD SWAP1 DUP1 CALLDATASIZE DUP4 CALLDATACOPY ADD SWAP1 POP POP SWAP1 POP PUSH1 0x1 DUP2 PUSH1 0x0 DUP2 MLOAD DUP2 LT PUSH2 0x43D JUMPI INVALID JUMPDEST PUSH1 0x20 MUL PUSH1 0x20 ADD ADD DUP2 DUP2 MSTORE POP POP PUSH1 0x2 DUP2 PUSH1 0x1 DUP2 MLOAD DUP2 LT PUSH2 0x458 JUMPI INVALID JUMPDEST PUSH1 0x20 SWAP1 DUP2 MUL SWAP2 SWAP1 SWAP2 ADD DUP2 ADD SWAP2 SWAP1 SWAP2 MSTORE DUP2 MLOAD PUSH2 0x1A4 PUSH32 0xFFFFFFFFFFFFFFFFFFFFFFFFFFFFFFFFFFFFFFFFFFFFFFFFFFFFFFFFFFFFFFE0 DUP5 ADD DUP2 SWAP1 MSTORE PUSH4 0x43ADBAFB PUSH32 0xFFFFFFFFFFFFFFFFFFFFFFFFFFFFFFFFFFFFFFFFFFFFFFFFFFFFFFFFFFFFFFC0 DUP6 ADD MSTORE SWAP2 MUL PUSH32 0xFFFFFFFFFFFFFFFFFFFFFFFFFFFFFFFFFFFFFFFFFFFFFFFFFFFFFFFFFFFFFFDC DUP4 ADD PUSH1 0x44 DUP3 ADD DUP2 REVERT JUMPDEST POP POP POP JUMP JUMPDEST PUSH1 0x0 SLOAD PUSH1 0xFF AND DUP2 JUMP JUMPDEST PUSH1 0x0 DUP3 DUP3 MUL PUSH2 0x519 DUP5 ISZERO DUP1 PUSH2 0x512 JUMPI POP DUP4 DUP6 DUP4 DUP2 PUSH2 0x50F JUMPI INVALID JUMPDEST DIV EQ JUMPDEST PUSH1 0x3 PUSH2 0x52B JUMP JUMPDEST PUSH8 0xDE0B6B3A7640000 SWAP1 DIV SWAP4 SWAP3 POP POP POP JUMP JUMPDEST DUP2 PUSH2 0x22E JUMPI PUSH2 0x22E DUP2 PUSH2 0x55E DUP2 PUSH32 0x42414C0000000000000000000000000000000000000000000000000000000000 PUSH2 0x561 JUMP JUMPDEST POP JUMP JUMPDEST PUSH32 0x8C379A000000000000000000000000000000000000000000000000000000000 PUSH1 0x0 SWAP1 DUP2 MSTORE PUSH1 0x20 PUSH1 0x4 MSTORE PUSH1 0x7 PUSH1 0x24 MSTORE PUSH1 0xA DUP1 DUP5 DIV DUP2 DUP2 MOD PUSH1 0x30 SWAP1 DUP2 ADD PUSH1 0x8 SHL SWAP6 DUP4 SWAP1 MOD SWAP6 SWAP1 SWAP6 ADD SWAP1 DUP3 SWAP1 DIV SWAP2 DUP3 MOD DUP6 ADD PUSH1 0x10 SHL ADD PUSH1 0x23 PUSH4 0xFFFFFF00 PUSH1 0xE0 DUP7 SWAP1 SHR AND ADD PUSH1 0x18 SHL ADD SWAP1 SWAP4 ADD PUSH1 0xC8 SHL PUSH1 0x44 MSTORE PUSH1 0xE8 DUP3 SWAP1 SHR SWAP1 PUSH1 0x64 SWAP1 REVERT INVALID LOG2 PUSH5 0x6970667358 0x22 SLT KECCAK256 0x48 JUMPI REVERT PUSH25 0x80D4EA475C59573ACFFD708A32D7D99CA3CDDC77C0ECB73D11 0xF PUSH4 0x3764736F PUSH13 0x63430007010033000000000000 "},"methodIdentifiers":{"addLiquidity(uint256,address,uint256)":"9aa5d462","fromDiesel(uint256)":"5427c938","getDieselRate_RAY()":"788c6bfe","maybeRevertMaliciously()":"29478cb4","removeLiquidity(uint256,address)":"05fe138b","revertType()":"d652e8c6","setRate(uint256)":"34fcf437","setRevertType(uint8)":"2cd10339","spoofJoinExitQueryRevert()":"7ce3ee48","spoofSwapQueryRevert()":"146d4eee","underlyingToken()":"2495a599"}}}}}