{"src/helpers/contracts/MockRateProvider.sol":{"MockRateProvider":{"abi":[{"inputs":[],"name":"getRate","outputs":[{"internalType":"uint256","name":"","type":"uint256"}],"stateMutability":"pure","type":"function"}],"evm":{"bytecode":{"linkReferences":{},"object":"6080604052348015600f57600080fd5b5060878061001e6000396000f3fe6080604052348015600f57600080fd5b506004361060285760003560e01c8063679aefce14602d575b600080fd5b60336045565b60408051918252519081900360200190f35b670de0b6b3a76400009056fea2646970667358221220bbaa6c6d0dcf3d4bea407313c499d0a19e91f90d101f7f72dcccf9a8eb217def64736f6c63430007010033","opcodes":"PUSH1 0x80 PUSH1 0x40 MSTORE CALLVALUE DUP1 ISZERO PUSH1 0xF JUMPI PUSH1 0x0 DUP1 REVERT JUMPDEST POP PUSH1 0x87 DUP1 PUSH2 0x1E PUSH1 0x0 CODECOPY PUSH1 0x0 RETURN INVALID PUSH1 0x80 PUSH1 0x40 MSTORE CALLVALUE DUP1 ISZERO PUSH1 0xF JUMPI PUSH1 0x0 DUP1 REVERT JUMPDEST POP PUSH1 0x4 CALLDATASIZE LT PUSH1 0x28 JUMPI PUSH1 0x0 CALLDATALOAD PUSH1 0xE0 SHR DUP1 PUSH4 0x679AEFCE EQ PUSH1 0x2D JUMPI JUMPDEST PUSH1 0x0 DUP1 REVERT JUMPDEST PUSH1 0x33 PUSH1 0x45 JUMP JUMPDEST PUSH1 0x40 DUP1 MLOAD SWAP2 DUP3 MSTORE MLOAD SWAP1 DUP2 SWAP1 SUB PUSH1 0x20 ADD SWAP1 RETURN JUMPDEST PUSH8 0xDE0B6B3A7640000 SWAP1 JUMP INVALID LOG2 PUSH5 0x6970667358 0x22 SLT KECCAK256 0xBB 0xAA PUSH13 0x6D0DCF3D4BEA407313C499D0A1 SWAP15 SWAP2 0xF9 0xD LT 0x1F PUSH32 0x72DCCCF9A8EB217DEF64736F6C63430007010033000000000000000000000000 "},"methodIdentifiers":{"getRate()":"679aefce"}}}}}