{"src/helpers/contracts/MockSiloRepository.sol":{"MockSiloRepository":{"abi":[{"inputs":[{"internalType":"uint256","name":"compoundRate","type":"uint256"},{"internalType":"uint256","name":"currentRate","type":"uint256"}],"stateMutability":"nonpayable","type":"constructor"},{"inputs":[{"internalType":"address","name":"","type":"address"},{"internalType":"address","name":"","type":"address"}],"name":"getInterestRateModel","outputs":[{"internalType":"address","name":"","type":"address"}],"stateMutability":"view","type":"function"},{"inputs":[],"name":"maybeRevertMaliciously","outputs":[],"stateMutability":"view","type":"function"},{"inputs":[],"name":"protocolShareFee","outputs":[{"internalType":"uint256","name":"","type":"uint256"}],"stateMutability":"view","type":"function"},{"inputs":[],"name":"revertType","outputs":[{"internalType":"enum MaliciousQueryReverter.RevertType","name":"","type":"uint8"}],"stateMutability":"view","type":"function"},{"inputs":[{"internalType":"uint256","name":"shareFee","type":"uint256"}],"name":"setProtocolShareFee","outputs":[],"stateMutability":"nonpayable","type":"function"},{"inputs":[{"internalType":"enum MaliciousQueryReverter.RevertType","name":"newRevertType","type":"uint8"}],"name":"setRevertType","outputs":[],"stateMutability":"nonpayable","type":"function"},{"inputs":[],"name":"spoofJoinExitQueryRevert","outputs":[],"stateMutability":"pure","type":"function"},{"inputs":[],"name":"spoofSwapQueryRevert","outputs":[],"stateMutability":"pure","type":"function"}],"evm":{"bytecode":{"linkReferences":{},"object":"60a06040526000805460ff1916905534801561001a57600080fd5b50604051610b15380380610b1583398101604081905261003991610094565b818160405161004790610087565b6100529291906100b7565b604051809103906000f08015801561006e573d6000803e3d6000fd5b5060601b6001600160601b031916608052506100c59050565b61055b806105ba83390190565b600080604083850312156100a6578182fd5b505080516020909101519092909150565b918252602082015260400190565b60805160601c6104d86100e26000398061028a52506104d86000f3fe608060405234801561001057600080fd5b50600436106100885760003560e01c806348b3eabc1161005b57806348b3eabc146100d05780637ce3ee48146100f05780639ab1e6b3146100f8578063d652e8c61461010b57610088565b8063146d4eee1461008d57806325ed3d441461009757806329478cb4146100b55780632cd10339146100bd575b600080fd5b610095610120565b005b61009f610190565b6040516100ac9190610499565b60405180910390f35b6100956101a1565b6100956100cb3660046103ef565b61023e565b6100e36100de3660046103bb565b61027d565b6040516100ac919061042d565b6100956102b0565b610095610106366004610415565b610389565b61011361038e565b6040516100ac919061044e565b604080516002808252606080830184529260208301908036833701905050905060018160008151811061014f57fe5b60200260200101818152505060028160018151811061016a57fe5b602002602001018181525050602081510263fa61cc126020830352600482036024820181fd5b600061019a6101a1565b5060015490565b600160005460ff1660038111156101b457fe5b14156101f5576040517f08c379a00000000000000000000000000000000000000000000000000000000081526004016101ec90610462565b60405180910390fd5b600260005460ff16600381111561020857fe5b141561021b57610216610120565b61023c565b600360005460ff16600381111561022e57fe5b141561023c5761023c6102b0565b565b600080548291907fffffffffffffffffffffffffffffffffffffffffffffffffffffffffffffff0016600183600381111561027557fe5b021790555050565b60006102876101a1565b507f00000000000000000000000000000000000000000000000000000000000000005b92915050565b60408051600280825260608083018452926020830190803683370190505090506001816000815181106102df57fe5b6020026020010181815250506002816001815181106102fa57fe5b60209081029190910181019190915281516101a47fffffffffffffffffffffffffffffffffffffffffffffffffffffffffffffffe084018190526343adbafb7fffffffffffffffffffffffffffffffffffffffffffffffffffffffffffffffc085015291027fffffffffffffffffffffffffffffffffffffffffffffffffffffffffffffffdc83016044820181fd5b600155565b60005460ff1681565b803573ffffffffffffffffffffffffffffffffffffffff811681146102aa57600080fd5b600080604083850312156103cd578182fd5b6103d78484610397565b91506103e68460208501610397565b90509250929050565b600060208284031215610400578081fd5b81356004811061040e578182fd5b9392505050565b600060208284031215610426578081fd5b5035919050565b73ffffffffffffffffffffffffffffffffffffffff91909116815260200190565b602081016004831061045c57fe5b91905290565b60208082526014908201527f4e4f4e5f4d414c4943494f55535f524556455254000000000000000000000000604082015260600190565b9081526020019056fea2646970667358221220fb5d41ca4e59ec4b7598d2ac7903c50604eae40c3914c89bb6050dbe7b46f09164736f6c6343000701003360806040526000805460ff1916905534801561001a57600080fd5b5060405161055b38038061055b83398101604081905261003991610047565b60019190915560025561006a565b60008060408385031215610059578182fd5b505080516020909101519092909150565b6104e2806100796000396000f3fe608060405234801561001057600080fd5b50600436106100a35760003560e01c80632b38a573116100765780637ce3ee481161005b5780637ce3ee481461011c578063b1e0176514610124578063d652e8c614610137576100a3565b80632b38a573146100f65780632cd1033914610109576100a3565b8063071962ff146100a85780630d50690b146100d1578063146d4eee146100e657806329478cb4146100ee575b600080fd5b6100bb6100b63660046103dd565b61014c565b6040516100c891906104a3565b60405180910390f35b6100e46100df366004610440565b610156565b005b6100e4610163565b6100e46101d3565b6100e4610104366004610440565b610270565b6100e461011736600461041a565b61027d565b6100e46102bc565b6100bb6101323660046103dd565b610395565b61013f6103aa565b6040516100c89190610458565b6002549392505050565b61015e6101d3565b600155565b604080516002808252606080830184529260208301908036833701905050905060018160008151811061019257fe5b6020026020010181815250506002816001815181106101ad57fe5b602002602001018181525050602081510263fa61cc126020830352600482036024820181fd5b600160005460ff1660038111156101e657fe5b1415610227576040517f08c379a000000000000000000000000000000000000000000000000000000000815260040161021e9061046c565b60405180910390fd5b600260005460ff16600381111561023a57fe5b141561024d57610248610163565b61026e565b600360005460ff16600381111561026057fe5b141561026e5761026e6102bc565b565b6102786101d3565b600255565b600080548291907fffffffffffffffffffffffffffffffffffffffffffffffffffffffffffffff001660018360038111156102b457fe5b021790555050565b60408051600280825260608083018452926020830190803683370190505090506001816000815181106102eb57fe5b60200260200101818152505060028160018151811061030657fe5b60209081029190910181019190915281516101a47fffffffffffffffffffffffffffffffffffffffffffffffffffffffffffffffe084018190526343adbafb7fffffffffffffffffffffffffffffffffffffffffffffffffffffffffffffffc085015291027fffffffffffffffffffffffffffffffffffffffffffffffffffffffffffffffdc83016044820181fd5b600061039f6101d3565b506001549392505050565b60005460ff1681565b803573ffffffffffffffffffffffffffffffffffffffff811681146103d757600080fd5b92915050565b6000806000606084860312156103f1578283fd5b6103fb85856103b3565b925061040a85602086016103b3565b9150604084013590509250925092565b60006020828403121561042b578081fd5b813560048110610439578182fd5b9392505050565b600060208284031215610451578081fd5b5035919050565b602081016004831061046657fe5b91905290565b60208082526014908201527f4e4f4e5f4d414c4943494f55535f524556455254000000000000000000000000604082015260600190565b9081526020019056fea2646970667358221220c10132ceba7c9587195babe51ce4e22e5a9399826c24864bc8e0141605493a5164736f6c63430007010033","opcodes":"PUSH1 0xA0 PUSH1 0x40 MSTORE PUSH1 0x0 DUP1 SLOAD PUSH1 0xFF NOT AND SWAP1 SSTORE CALLVALUE DUP1 ISZERO PUSH2 0x1A JUMPI PUSH1 0x0 DUP1 REVERT JUMPDEST POP PUSH1 0x40 MLOAD PUSH2 0xB15 CODESIZE SUB DUP1 PUSH2 0xB15 DUP4 CODECOPY DUP2 ADD PUSH1 0x40 DUP2 SWAP1 MSTORE PUSH2 0x39 SWAP2 PUSH2 0x94 JUMP JUMPDEST DUP2 DUP2 PUSH1 0x40 MLOAD PUSH2 0x47 SWAP1 PUSH2 0x87 JUMP JUMPDEST PUSH2 0x52 SWAP3 SWAP2 SWAP1 PUSH2 0xB7 JUMP JUMPDEST PUSH1 0x40 MLOAD DUP1 SWAP2 SUB SWAP1 PUSH1 0x0 CREATE DUP1 ISZERO DUP1 ISZERO PUSH2 0x6E JUMPI RETURNDATASIZE PUSH1 0x0 DUP1 RETURNDATACOPY RETURNDATASIZE PUSH1 0x0 REVERT JUMPDEST POP PUSH1 0x60 SHL PUSH1 0x1 PUSH1 0x1 PUSH1 0x60 SHL SUB NOT AND PUSH1 0x80 MSTORE POP PUSH2 0xC5 SWAP1 POP JUMP JUMPDEST PUSH2 0x55B DUP1 PUSH2 0x5BA DUP4 CODECOPY ADD SWAP1 JUMP JUMPDEST PUSH1 0x0 DUP1 PUSH1 0x40 DUP4 DUP6 SUB SLT ISZERO PUSH2 0xA6 JUMPI DUP2 DUP3 REVERT JUMPDEST POP POP DUP1 MLOAD PUSH1 0x20 SWAP1 SWAP2 ADD MLOAD SWAP1 SWAP3 SWAP1 SWAP2 POP JUMP JUMPDEST SWAP2 DUP3 MSTORE PUSH1 0x20 DUP3 ADD MSTORE PUSH1 0x40 ADD SWAP1 JUMP JUMPDEST PUSH1 0x80 MLOAD PUSH1 0x60 SHR PUSH2 0x4D8 PUSH2 0xE2 PUSH1 0x0 CODECOPY DUP1 PUSH2 0x28A MSTORE POP PUSH2 0x4D8 PUSH1 0x0 RETURN INVALID PUSH1 0x80 PUSH1 0x40 MSTORE CALLVALUE DUP1 ISZERO PUSH2 0x10 JUMPI PUSH1 0x0 DUP1 REVERT JUMPDEST POP PUSH1 0x4 CALLDATASIZE LT PUSH2 0x88 JUMPI PUSH1 0x0 CALLDATALOAD PUSH1 0xE0 SHR DUP1 PUSH4 0x48B3EABC GT PUSH2 0x5B JUMPI DUP1 PUSH4 0x48B3EABC EQ PUSH2 0xD0 JUMPI DUP1 PUSH4 0x7CE3EE48 EQ PUSH2 0xF0 JUMPI DUP1 PUSH4 0x9AB1E6B3 EQ PUSH2 0xF8 JUMPI DUP1 PUSH4 0xD652E8C6 EQ PUSH2 0x10B JUMPI PUSH2 0x88 JUMP JUMPDEST DUP1 PUSH4 0x146D4EEE EQ PUSH2 0x8D JUMPI DUP1 PUSH4 0x25ED3D44 EQ PUSH2 0x97 JUMPI DUP1 PUSH4 0x29478CB4 EQ PUSH2 0xB5 JUMPI DUP1 PUSH4 0x2CD10339 EQ PUSH2 0xBD JUMPI JUMPDEST PUSH1 0x0 DUP1 REVERT JUMPDEST PUSH2 0x95 PUSH2 0x120 JUMP JUMPDEST STOP JUMPDEST PUSH2 0x9F PUSH2 0x190 JUMP JUMPDEST PUSH1 0x40 MLOAD PUSH2 0xAC SWAP2 SWAP1 PUSH2 0x499 JUMP JUMPDEST PUSH1 0x40 MLOAD DUP1 SWAP2 SUB SWAP1 RETURN JUMPDEST PUSH2 0x95 PUSH2 0x1A1 JUMP JUMPDEST PUSH2 0x95 PUSH2 0xCB CALLDATASIZE PUSH1 0x4 PUSH2 0x3EF JUMP JUMPDEST PUSH2 0x23E JUMP JUMPDEST PUSH2 0xE3 PUSH2 0xDE CALLDATASIZE PUSH1 0x4 PUSH2 0x3BB JUMP JUMPDEST PUSH2 0x27D JUMP JUMPDEST PUSH1 0x40 MLOAD PUSH2 0xAC SWAP2 SWAP1 PUSH2 0x42D JUMP JUMPDEST PUSH2 0x95 PUSH2 0x2B0 JUMP JUMPDEST PUSH2 0x95 PUSH2 0x106 CALLDATASIZE PUSH1 0x4 PUSH2 0x415 JUMP JUMPDEST PUSH2 0x389 JUMP JUMPDEST PUSH2 0x113 PUSH2 0x38E JUMP JUMPDEST PUSH1 0x40 MLOAD PUSH2 0xAC SWAP2 SWAP1 PUSH2 0x44E JUMP JUMPDEST PUSH1 0x40 DUP1 MLOAD PUSH1 0x2 DUP1 DUP3 MSTORE PUSH1 0x60 DUP1 DUP4 ADD DUP5 MSTORE SWAP3 PUSH1 0x20 DUP4 ADD SWAP1 DUP1 CALLDATASIZE DUP4 CALLDATACOPY ADD SWAP1 POP POP SWAP1 POP PUSH1 0x1 DUP2 PUSH1 0x0 DUP2 MLOAD DUP2 LT PUSH2 0x14F JUMPI INVALID JUMPDEST PUSH1 0x20 MUL PUSH1 0x20 ADD ADD DUP2 DUP2 MSTORE POP POP PUSH1 0x2 DUP2 PUSH1 0x1 DUP2 MLOAD DUP2 LT PUSH2 0x16A JUMPI INVALID JUMPDEST PUSH1 0x20 MUL PUSH1 0x20 ADD ADD DUP2 DUP2 MSTORE POP POP PUSH1 0x20 DUP2 MLOAD MUL PUSH4 0xFA61CC12 PUSH1 0x20 DUP4 SUB MSTORE PUSH1 0x4 DUP3 SUB PUSH1 0x24 DUP3 ADD DUP2 REVERT JUMPDEST PUSH1 0x0 PUSH2 0x19A PUSH2 0x1A1 JUMP JUMPDEST POP PUSH1 0x1 SLOAD SWAP1 JUMP JUMPDEST PUSH1 0x1 PUSH1 0x0 SLOAD PUSH1 0xFF AND PUSH1 0x3 DUP2 GT ISZERO PUSH2 0x1B4 JUMPI INVALID JUMPDEST EQ ISZERO PUSH2 0x1F5 JUMPI PUSH1 0x40 MLOAD PUSH32 0x8C379A000000000000000000000000000000000000000000000000000000000 DUP2 MSTORE PUSH1 0x4 ADD PUSH2 0x1EC SWAP1 PUSH2 0x462 JUMP JUMPDEST PUSH1 0x40 MLOAD DUP1 SWAP2 SUB SWAP1 REVERT JUMPDEST PUSH1 0x2 PUSH1 0x0 SLOAD PUSH1 0xFF AND PUSH1 0x3 DUP2 GT ISZERO PUSH2 0x208 JUMPI INVALID JUMPDEST EQ ISZERO PUSH2 0x21B JUMPI PUSH2 0x216 PUSH2 0x120 JUMP JUMPDEST PUSH2 0x23C JUMP JUMPDEST PUSH1 0x3 PUSH1 0x0 SLOAD PUSH1 0xFF AND PUSH1 0x3 DUP2 GT ISZERO PUSH2 0x22E JUMPI INVALID JUMPDEST EQ ISZERO PUSH2 0x23C JUMPI PUSH2 0x23C PUSH2 0x2B0 JUMP JUMPDEST JUMP JUMPDEST PUSH1 0x0 DUP1 SLOAD DUP3 SWAP2 SWAP1 PUSH32 0xFFFFFFFFFFFFFFFFFFFFFFFFFFFFFFFFFFFFFFFFFFFFFFFFFFFFFFFFFFFFFF00 AND PUSH1 0x1 DUP4 PUSH1 0x3 DUP2 GT ISZERO PUSH2 0x275 JUMPI INVALID JUMPDEST MUL OR SWAP1 SSTORE POP POP JUMP JUMPDEST PUSH1 0x0 PUSH2 0x287 PUSH2 0x1A1 JUMP JUMPDEST POP PUSH32 0x0 JUMPDEST SWAP3 SWAP2 POP POP JUMP JUMPDEST PUSH1 0x40 DUP1 MLOAD PUSH1 0x2 DUP1 DUP3 MSTORE PUSH1 0x60 DUP1 DUP4 ADD DUP5 MSTORE SWAP3 PUSH1 0x20 DUP4 ADD SWAP1 DUP1 CALLDATASIZE DUP4 CALLDATACOPY ADD SWAP1 POP POP SWAP1 POP PUSH1 0x1 DUP2 PUSH1 0x0 DUP2 MLOAD DUP2 LT PUSH2 0x2DF JUMPI INVALID JUMPDEST PUSH1 0x20 MUL PUSH1 0x20 ADD ADD DUP2 DUP2 MSTORE POP POP PUSH1 0x2 DUP2 PUSH1 0x1 DUP2 MLOAD DUP2 LT PUSH2 0x2FA JUMPI INVALID JUMPDEST PUSH1 0x20 SWAP1 DUP2 MUL SWAP2 SWAP1 SWAP2 ADD DUP2 ADD SWAP2 SWAP1 SWAP2 MSTORE DUP2 MLOAD PUSH2 0x1A4 PUSH32 0xFFFFFFFFFFFFFFFFFFFFFFFFFFFFFFFFFFFFFFFFFFFFFFFFFFFFFFFFFFFFFFE0 DUP5 ADD DUP2 SWAP1 MSTORE PUSH4 0x43ADBAFB PUSH32 0xFFFFFFFFFFFFFFFFFFFFFFFFFFFFFFFFFFFFFFFFFFFFFFFFFFFFFFFFFFFFFFC0 DUP6 ADD MSTORE SWAP2 MUL PUSH32 0xFFFFFFFFFFFFFFFFFFFFFFFFFFFFFFFFFFFFFFFFFFFFFFFFFFFFFFFFFFFFFFDC DUP4 ADD PUSH1 0x44 DUP3 ADD DUP2 REVERT JUMPDEST PUSH1 0x1 SSTORE JUMP JUMPDEST PUSH1 0x0 SLOAD PUSH1 0xFF AND DUP2 JUMP JUMPDEST DUP1 CALLDATALOAD PUSH20 0xFFFFFFFFFFFFFFFFFFFFFFFFFFFFFFFFFFFFFFFF DUP2 AND DUP2 EQ PUSH2 0x2AA JUMPI PUSH1 0x0 DUP1 REVERT JUMPDEST PUSH1 0x0 DUP1 PUSH1 0x40 DUP4 DUP6 SUB SLT ISZERO PUSH2 0x3CD JUMPI DUP2 DUP3 REVERT JUMPDEST PUSH2 0x3D7 DUP5 DUP5 PUSH2 0x397 JUMP JUMPDEST SWAP2 POP PUSH2 0x3E6 DUP5 PUSH1 0x20 DUP6 ADD PUSH2 0x397 JUMP JUMPDEST SWAP1 POP SWAP3 POP SWAP3 SWAP1 POP JUMP JUMPDEST PUSH1 0x0 PUSH1 0x20 DUP3 DUP5 SUB SLT ISZERO PUSH2 0x400 JUMPI DUP1 DUP2 REVERT JUMPDEST DUP2 CALLDATALOAD PUSH1 0x4 DUP2 LT PUSH2 0x40E JUMPI DUP2 DUP3 REVERT JUMPDEST SWAP4 SWAP3 POP POP POP JUMP JUMPDEST PUSH1 0x0 PUSH1 0x20 DUP3 DUP5 SUB SLT ISZERO PUSH2 0x426 JUMPI DUP1 DUP2 REVERT JUMPDEST POP CALLDATALOAD SWAP2 SWAP1 POP JUMP JUMPDEST PUSH20 0xFFFFFFFFFFFFFFFFFFFFFFFFFFFFFFFFFFFFFFFF SWAP2 SWAP1 SWAP2 AND DUP2 MSTORE PUSH1 0x20 ADD SWAP1 JUMP JUMPDEST PUSH1 0x20 DUP2 ADD PUSH1 0x4 DUP4 LT PUSH2 0x45C JUMPI INVALID JUMPDEST SWAP2 SWAP1 MSTORE SWAP1 JUMP JUMPDEST PUSH1 0x20 DUP1 DUP3 MSTORE PUSH1 0x14 SWAP1 DUP3 ADD MSTORE PUSH32 0x4E4F4E5F4D414C4943494F55535F524556455254000000000000000000000000 PUSH1 0x40 DUP3 ADD MSTORE PUSH1 0x60 ADD SWAP1 JUMP JUMPDEST SWAP1 DUP2 MSTORE PUSH1 0x20 ADD SWAP1 JUMP INVALID LOG2 PUSH5 0x6970667358 0x22 SLT KECCAK256 0xFB 0x5D COINBASE 0xCA 0x4E MSIZE 0xEC 0x4B PUSH22 0x98D2AC7903C50604EAE40C3914C89BB6050DBE7B46F0 SWAP2 PUSH5 0x736F6C6343 STOP SMOD ADD STOP CALLER PUSH1 0x80 PUSH1 0x40 MSTORE PUSH1 0x0 DUP1 SLOAD PUSH1 0xFF NOT AND SWAP1 SSTORE CALLVALUE DUP1 ISZERO PUSH2 0x1A JUMPI PUSH1 0x0 DUP1 REVERT JUMPDEST POP PUSH1 0x40 MLOAD PUSH2 0x55B CODESIZE SUB DUP1 PUSH2 0x55B DUP4 CODECOPY DUP2 ADD PUSH1 0x40 DUP2 SWAP1 MSTORE PUSH2 0x39 SWAP2 PUSH2 0x47 JUMP JUMPDEST PUSH1 0x1 SWAP2 SWAP1 SWAP2 SSTORE PUSH1 0x2 SSTORE PUSH2 0x6A JUMP JUMPDEST PUSH1 0x0 DUP1 PUSH1 0x40 DUP4 DUP6 SUB SLT ISZERO PUSH2 0x59 JUMPI DUP2 DUP3 REVERT JUMPDEST POP POP DUP1 MLOAD PUSH1 0x20 SWAP1 SWAP2 ADD MLOAD SWAP1 SWAP3 SWAP1 SWAP2 POP JUMP JUMPDEST PUSH2 0x4E2 DUP1 PUSH2 0x79 PUSH1 0x0 CODECOPY PUSH1 0x0 RETURN INVALID PUSH1 0x80 PUSH1 0x40 MSTORE CALLVALUE DUP1 ISZERO PUSH2 0x10 JUMPI PUSH1 0x0 DUP1 REVERT JUMPDEST POP PUSH1 0x4 CALLDATASIZE LT PUSH2 0xA3 JUMPI PUSH1 0x0 CALLDATALOAD PUSH1 0xE0 SHR DUP1 PUSH4 0x2B38A573 GT PUSH2 0x76 JUMPI DUP1 PUSH4 0x7CE3EE48 GT PUSH2 0x5B JUMPI DUP1 PUSH4 0x7CE3EE48 EQ PUSH2 0x11C JUMPI DUP1 PUSH4 0xB1E01765 EQ PUSH2 0x124 JUMPI DUP1 PUSH4 0xD652E8C6 EQ PUSH2 0x137 JUMPI PUSH2 0xA3 JUMP JUMPDEST DUP1 PUSH4 0x2B38A573 EQ PUSH2 0xF6 JUMPI DUP1 PUSH4 0x2CD10339 EQ PUSH2 0x109 JUMPI PUSH2 0xA3 JUMP JUMPDEST DUP1 PUSH4 0x71962FF EQ PUSH2 0xA8 JUMPI DUP1 PUSH4 0xD50690B EQ PUSH2 0xD1 JUMPI DUP1 PUSH4 0x146D4EEE EQ PUSH2 0xE6 JUMPI DUP1 PUSH4 0x29478CB4 EQ PUSH2 0xEE JUMPI JUMPDEST PUSH1 0x0 DUP1 REVERT JUMPDEST PUSH2 0xBB PUSH2 0xB6 CALLDATASIZE PUSH1 0x4 PUSH2 0x3DD JUMP JUMPDEST PUSH2 0x14C JUMP JUMPDEST PUSH1 0x40 MLOAD PUSH2 0xC8 SWAP2 SWAP1 PUSH2 0x4A3 JUMP JUMPDEST PUSH1 0x40 MLOAD DUP1 SWAP2 SUB SWAP1 RETURN JUMPDEST PUSH2 0xE4 PUSH2 0xDF CALLDATASIZE PUSH1 0x4 PUSH2 0x440 JUMP JUMPDEST PUSH2 0x156 JUMP JUMPDEST STOP JUMPDEST PUSH2 0xE4 PUSH2 0x163 JUMP JUMPDEST PUSH2 0xE4 PUSH2 0x1D3 JUMP JUMPDEST PUSH2 0xE4 PUSH2 0x104 CALLDATASIZE PUSH1 0x4 PUSH2 0x440 JUMP JUMPDEST PUSH2 0x270 JUMP JUMPDEST PUSH2 0xE4 PUSH2 0x117 CALLDATASIZE PUSH1 0x4 PUSH2 0x41A JUMP JUMPDEST PUSH2 0x27D JUMP JUMPDEST PUSH2 0xE4 PUSH2 0x2BC JUMP JUMPDEST PUSH2 0xBB PUSH2 0x132 CALLDATASIZE PUSH1 0x4 PUSH2 0x3DD JUMP JUMPDEST PUSH2 0x395 JUMP JUMPDEST PUSH2 0x13F PUSH2 0x3AA JUMP JUMPDEST PUSH1 0x40 MLOAD PUSH2 0xC8 SWAP2 SWAP1 PUSH2 0x458 JUMP JUMPDEST PUSH1 0x2 SLOAD SWAP4 SWAP3 POP POP POP JUMP JUMPDEST PUSH2 0x15E PUSH2 0x1D3 JUMP JUMPDEST PUSH1 0x1 SSTORE JUMP JUMPDEST PUSH1 0x40 DUP1 MLOAD PUSH1 0x2 DUP1 DUP3 MSTORE PUSH1 0x60 DUP1 DUP4 ADD DUP5 MSTORE SWAP3 PUSH1 0x20 DUP4 ADD SWAP1 DUP1 CALLDATASIZE DUP4 CALLDATACOPY ADD SWAP1 POP POP SWAP1 POP PUSH1 0x1 DUP2 PUSH1 0x0 DUP2 MLOAD DUP2 LT PUSH2 0x192 JUMPI INVALID JUMPDEST PUSH1 0x20 MUL PUSH1 0x20 ADD ADD DUP2 DUP2 MSTORE POP POP PUSH1 0x2 DUP2 PUSH1 0x1 DUP2 MLOAD DUP2 LT PUSH2 0x1AD JUMPI INVALID JUMPDEST PUSH1 0x20 MUL PUSH1 0x20 ADD ADD DUP2 DUP2 MSTORE POP POP PUSH1 0x20 DUP2 MLOAD MUL PUSH4 0xFA61CC12 PUSH1 0x20 DUP4 SUB MSTORE PUSH1 0x4 DUP3 SUB PUSH1 0x24 DUP3 ADD DUP2 REVERT JUMPDEST PUSH1 0x1 PUSH1 0x0 SLOAD PUSH1 0xFF AND PUSH1 0x3 DUP2 GT ISZERO PUSH2 0x1E6 JUMPI INVALID JUMPDEST EQ ISZERO PUSH2 0x227 JUMPI PUSH1 0x40 MLOAD PUSH32 0x8C379A000000000000000000000000000000000000000000000000000000000 DUP2 MSTORE PUSH1 0x4 ADD PUSH2 0x21E SWAP1 PUSH2 0x46C JUMP JUMPDEST PUSH1 0x40 MLOAD DUP1 SWAP2 SUB SWAP1 REVERT JUMPDEST PUSH1 0x2 PUSH1 0x0 SLOAD PUSH1 0xFF AND PUSH1 0x3 DUP2 GT ISZERO PUSH2 0x23A JUMPI INVALID JUMPDEST EQ ISZERO PUSH2 0x24D JUMPI PUSH2 0x248 PUSH2 0x163 JUMP JUMPDEST PUSH2 0x26E JUMP JUMPDEST PUSH1 0x3 PUSH1 0x0 SLOAD PUSH1 0xFF AND PUSH1 0x3 DUP2 GT ISZERO PUSH2 0x260 JUMPI INVALID JUMPDEST EQ ISZERO PUSH2 0x26E JUMPI PUSH2 0x26E PUSH2 0x2BC JUMP JUMPDEST JUMP JUMPDEST PUSH2 0x278 PUSH2 0x1D3 JUMP JUMPDEST PUSH1 0x2 SSTORE JUMP JUMPDEST PUSH1 0x0 DUP1 SLOAD DUP3 SWAP2 SWAP1 PUSH32 0xFFFFFFFFFFFFFFFFFFFFFFFFFFFFFFFFFFFFFFFFFFFFFFFFFFFFFFFFFFFFFF00 AND PUSH1 0x1 DUP4 PUSH1 0x3 DUP2 GT ISZERO PUSH2 0x2B4 JUMPI INVALID JUMPDEST MUL OR SWAP1 SSTORE POP POP JUMP JUMPDEST PUSH1 0x40 DUP1 MLOAD PUSH1 0x2 DUP1 DUP3 MSTORE PUSH1 0x60 DUP1 DUP4 ADD DUP5 MSTORE SWAP3 PUSH1 0x20 DUP4 ADD SWAP1 DUP1 CALLDATASIZE DUP4 CALLDATACOPY ADD SWAP1 POP POP SWAP1 POP PUSH1 0x1 DUP2 PUSH1 0x0 DUP2 MLOAD DUP2 LT PUSH2 0x2EB JUMPI INVALID JUMPDEST PUSH1 0x20 MUL PUSH1 0x20 ADD ADD DUP2 DUP2 MSTORE POP POP PUSH1 0x2 DUP2 PUSH1 0x1 DUP2 MLOAD DUP2 LT PUSH2 0x306 JUMPI INVALID JUMPDEST PUSH1 0x20 SWAP1 DUP2 MUL SWAP2 SWAP1 SWAP2 ADD DUP2 ADD SWAP2 SWAP1 SWAP2 MSTORE DUP2 MLOAD PUSH2 0x1A4 PUSH32 0xFFFFFFFFFFFFFFFFFFFFFFFFFFFFFFFFFFFFFFFFFFFFFFFFFFFFFFFFFFFFFFE0 DUP5 ADD DUP2 SWAP1 MSTORE PUSH4 0x43ADBAFB PUSH32 0xFFFFFFFFFFFFFFFFFFFFFFFFFFFFFFFFFFFFFFFFFFFFFFFFFFFFFFFFFFFFFFC0 DUP6 ADD MSTORE SWAP2 MUL PUSH32 0xFFFFFFFFFFFFFFFFFFFFFFFFFFFFFFFFFFFFFFFFFFFFFFFFFFFFFFFFFFFFFFDC DUP4 ADD PUSH1 0x44 DUP3 ADD DUP2 REVERT JUMPDEST PUSH1 0x0 PUSH2 0x39F PUSH2 0x1D3 JUMP JUMPDEST POP PUSH1 0x1 SLOAD SWAP4 SWAP3 POP POP POP JUMP JUMPDEST PUSH1 0x0 SLOAD PUSH1 0xFF AND DUP2 JUMP JUMPDEST DUP1 CALLDATALOAD PUSH20 0xFFFFFFFFFFFFFFFFFFFFFFFFFFFFFFFFFFFFFFFF DUP2 AND DUP2 EQ PUSH2 0x3D7 JUMPI PUSH1 0x0 DUP1 REVERT JUMPDEST SWAP3 SWAP2 POP POP JUMP JUMPDEST PUSH1 0x0 DUP1 PUSH1 0x0 PUSH1 0x60 DUP5 DUP7 SUB SLT ISZERO PUSH2 0x3F1 JUMPI DUP3 DUP4 REVERT JUMPDEST PUSH2 0x3FB DUP6 DUP6 PUSH2 0x3B3 JUMP JUMPDEST SWAP3 POP PUSH2 0x40A DUP6 PUSH1 0x20 DUP7 ADD PUSH2 0x3B3 JUMP JUMPDEST SWAP2 POP PUSH1 0x40 DUP5 ADD CALLDATALOAD SWAP1 POP SWAP3 POP SWAP3 POP SWAP3 JUMP JUMPDEST PUSH1 0x0 PUSH1 0x20 DUP3 DUP5 SUB SLT ISZERO PUSH2 0x42B JUMPI DUP1 DUP2 REVERT JUMPDEST DUP2 CALLDATALOAD PUSH1 0x4 DUP2 LT PUSH2 0x439 JUMPI DUP2 DUP3 REVERT JUMPDEST SWAP4 SWAP3 POP POP POP JUMP JUMPDEST PUSH1 0x0 PUSH1 0x20 DUP3 DUP5 SUB SLT ISZERO PUSH2 0x451 JUMPI DUP1 DUP2 REVERT JUMPDEST POP CALLDATALOAD SWAP2 SWAP1 POP JUMP JUMPDEST PUSH1 0x20 DUP2 ADD PUSH1 0x4 DUP4 LT PUSH2 0x466 JUMPI INVALID JUMPDEST SWAP2 SWAP1 MSTORE SWAP1 JUMP JUMPDEST PUSH1 0x20 DUP1 DUP3 MSTORE PUSH1 0x14 SWAP1 DUP3 ADD MSTORE PUSH32 0x4E4F4E5F4D414C4943494F55535F524556455254000000000000000000000000 PUSH1 0x40 DUP3 ADD MSTORE PUSH1 0x60 ADD SWAP1 JUMP JUMPDEST SWAP1 DUP2 MSTORE PUSH1 0x20 ADD SWAP1 JUMP INVALID LOG2 PUSH5 0x6970667358 0x22 SLT KECCAK256 0xC1 ADD ORIGIN 0xCE 0xBA PUSH29 0x9587195BABE51CE4E22E5A9399826C24864BC8E0141605493A5164736F PUSH13 0x63430007010033000000000000 "},"methodIdentifiers":{"getInterestRateModel(address,address)":"48b3eabc","maybeRevertMaliciously()":"29478cb4","protocolShareFee()":"25ed3d44","revertType()":"d652e8c6","setProtocolShareFee(uint256)":"9ab1e6b3","setRevertType(uint8)":"2cd10339","spoofJoinExitQueryRevert()":"7ce3ee48","spoofSwapQueryRevert()":"146d4eee"}}}}}