{"src/helpers/contracts/ReadOnlyReentrancyAttackerAaveLP.sol":{"ReadOnlyReentrancyAttackerAaveLP":{"abi":[{"inputs":[{"internalType":"contract IVault","name":"vault","type":"address"}],"stateMutability":"nonpayable","type":"constructor"},{"inputs":[],"name":"RECOVERY_MODE_EXIT_KIND","outputs":[{"internalType":"uint8","name":"","type":"uint8"}],"stateMutability":"view","type":"function"},{"inputs":[{"internalType":"contract ILinearPool","name":"pool","type":"address"},{"internalType":"enum ReadOnlyReentrancyAttackerAaveLP.AttackType","name":"attackType","type":"uint8"},{"internalType":"uint256","name":"ethAmount","type":"uint256"}],"name":"startAttack","outputs":[],"stateMutability":"payable","type":"function"},{"stateMutability":"payable","type":"receive"}],"evm":{"bytecode":{"linkReferences":{},"object":"60a060405234801561001057600080fd5b5060405161065538038061065583398101604081905261002f91610044565b60601b6001600160601b031916608052610072565b600060208284031215610055578081fd5b81516001600160a01b038116811461006b578182fd5b9392505050565b60805160601c6105c661008f6000398061039f52506105c66000f3fe60806040526004361061002d5760003560e01c806309564cb114610041578063a1c7cc0f1461006c5761003c565b3661003c5761003a61007f565b005b600080fd5b34801561004d57600080fd5b506100566101f8565b6040516100639190610582565b60405180910390f35b61003a61007a36600461045f565b6101fd565b6000805460ff81169161010090910473ffffffffffffffffffffffffffffffffffffffff16908260018111156100b157fe5b1415610154576040517f9f11080e00000000000000000000000000000000000000000000000000000000815273ffffffffffffffffffffffffffffffffffffffff821690639f11080e9061011d906801158e460913d0000090681b1ae4d6e2ef50000090600401610574565b600060405180830381600087803b15801561013757600080fd5b505af115801561014b573d6000803e3d6000fd5b505050506101f4565b600182600181111561016257fe5b14156101f4576040517f38e9922e00000000000000000000000000000000000000000000000000000000815273ffffffffffffffffffffffffffffffffffffffff8216906338e9922e906101c190662386f26fc100009060040161056b565b600060405180830381600087803b1580156101db57600080fd5b505af11580156101ef573d6000803e3d6000fd5b505050505b5050565b60ff81565b600080548391907fffffffffffffffffffffffffffffffffffffffffffffffffffffffffffffff00166001838181111561023357fe5b0217905550600080547fffffffffffffffffffffff0000000000000000000000000000000000000000ff1661010073ffffffffffffffffffffffffffffffffffffffff861602179055604080516001808252818301909252606091602082015b61029b61042f565b8152602001906001900390816102935790505090506000816000815181106102bf57fe5b60200260200101516000019060038111156102d657fe5b908160038111156102e357fe5b8152505081816000815181106102f557fe5b60200260200101516040018181525050308160008151811061031357fe5b60200260200101516060019073ffffffffffffffffffffffffffffffffffffffff16908173ffffffffffffffffffffffffffffffffffffffff1681525050308160008151811061035f57fe5b60200260200101516080019073ffffffffffffffffffffffffffffffffffffffff16908173ffffffffffffffffffffffffffffffffffffffff16815250507f000000000000000000000000000000000000000000000000000000000000000073ffffffffffffffffffffffffffffffffffffffff16630e8e3e8434836040518363ffffffff1660e01b81526004016103f791906104d4565b6000604051808303818588803b15801561041057600080fd5b505af1158015610424573d6000803e3d6000fd5b505050505050505050565b6040805160a081019091528060008152600060208201819052604082018190526060820181905260809091015290565b600080600060608486031215610473578283fd5b833573ffffffffffffffffffffffffffffffffffffffff81168114610496578384fd5b92506020840135600281106104a9578283fd5b929592945050506040919091013590565b73ffffffffffffffffffffffffffffffffffffffff169052565b602080825282518282018190526000919060409081850190868401855b8281101561055e57815180516004811061050757fe5b855280870151610519888701826104ba565b508581015186860152606080820151610534828801826104ba565b505060809081015190610549868201836104ba565b505060a09390930192908501906001016104f1565b5091979650505050505050565b90815260200190565b918252602082015260400190565b60ff9190911681526020019056fea2646970667358221220b37ce65aa56d433c457636f69e69b6ec14d08d52add57f5b22989c8bbe00606964736f6c63430007010033","opcodes":"PUSH1 0xA0 PUSH1 0x40 MSTORE CALLVALUE DUP1 ISZERO PUSH2 0x10 JUMPI PUSH1 0x0 DUP1 REVERT JUMPDEST POP PUSH1 0x40 MLOAD PUSH2 0x655 CODESIZE SUB DUP1 PUSH2 0x655 DUP4 CODECOPY DUP2 ADD PUSH1 0x40 DUP2 SWAP1 MSTORE PUSH2 0x2F SWAP2 PUSH2 0x44 JUMP JUMPDEST PUSH1 0x60 SHL PUSH1 0x1 PUSH1 0x1 PUSH1 0x60 SHL SUB NOT AND PUSH1 0x80 MSTORE PUSH2 0x72 JUMP JUMPDEST PUSH1 0x0 PUSH1 0x20 DUP3 DUP5 SUB SLT ISZERO PUSH2 0x55 JUMPI DUP1 DUP2 REVERT JUMPDEST DUP2 MLOAD PUSH1 0x1 PUSH1 0x1 PUSH1 0xA0 SHL SUB DUP2 AND DUP2 EQ PUSH2 0x6B JUMPI DUP2 DUP3 REVERT JUMPDEST SWAP4 SWAP3 POP POP POP JUMP JUMPDEST PUSH1 0x80 MLOAD PUSH1 0x60 SHR PUSH2 0x5C6 PUSH2 0x8F PUSH1 0x0 CODECOPY DUP1 PUSH2 0x39F MSTORE POP PUSH2 0x5C6 PUSH1 0x0 RETURN INVALID PUSH1 0x80 PUSH1 0x40 MSTORE PUSH1 0x4 CALLDATASIZE LT PUSH2 0x2D JUMPI PUSH1 0x0 CALLDATALOAD PUSH1 0xE0 SHR DUP1 PUSH4 0x9564CB1 EQ PUSH2 0x41 JUMPI DUP1 PUSH4 0xA1C7CC0F EQ PUSH2 0x6C JUMPI PUSH2 0x3C JUMP JUMPDEST CALLDATASIZE PUSH2 0x3C JUMPI PUSH2 0x3A PUSH2 0x7F JUMP JUMPDEST STOP JUMPDEST PUSH1 0x0 DUP1 REVERT JUMPDEST CALLVALUE DUP1 ISZERO PUSH2 0x4D JUMPI PUSH1 0x0 DUP1 REVERT JUMPDEST POP PUSH2 0x56 PUSH2 0x1F8 JUMP JUMPDEST PUSH1 0x40 MLOAD PUSH2 0x63 SWAP2 SWAP1 PUSH2 0x582 JUMP JUMPDEST PUSH1 0x40 MLOAD DUP1 SWAP2 SUB SWAP1 RETURN JUMPDEST PUSH2 0x3A PUSH2 0x7A CALLDATASIZE PUSH1 0x4 PUSH2 0x45F JUMP JUMPDEST PUSH2 0x1FD JUMP JUMPDEST PUSH1 0x0 DUP1 SLOAD PUSH1 0xFF DUP2 AND SWAP2 PUSH2 0x100 SWAP1 SWAP2 DIV PUSH20 0xFFFFFFFFFFFFFFFFFFFFFFFFFFFFFFFFFFFFFFFF AND SWAP1 DUP3 PUSH1 0x1 DUP2 GT ISZERO PUSH2 0xB1 JUMPI INVALID JUMPDEST EQ ISZERO PUSH2 0x154 JUMPI PUSH1 0x40 MLOAD PUSH32 0x9F11080E00000000000000000000000000000000000000000000000000000000 DUP2 MSTORE PUSH20 0xFFFFFFFFFFFFFFFFFFFFFFFFFFFFFFFFFFFFFFFF DUP3 AND SWAP1 PUSH4 0x9F11080E SWAP1 PUSH2 0x11D SWAP1 PUSH9 0x1158E460913D00000 SWAP1 PUSH9 0x1B1AE4D6E2EF500000 SWAP1 PUSH1 0x4 ADD PUSH2 0x574 JUMP JUMPDEST PUSH1 0x0 PUSH1 0x40 MLOAD DUP1 DUP4 SUB DUP2 PUSH1 0x0 DUP8 DUP1 EXTCODESIZE ISZERO DUP1 ISZERO PUSH2 0x137 JUMPI PUSH1 0x0 DUP1 REVERT JUMPDEST POP GAS CALL ISZERO DUP1 ISZERO PUSH2 0x14B JUMPI RETURNDATASIZE PUSH1 0x0 DUP1 RETURNDATACOPY RETURNDATASIZE PUSH1 0x0 REVERT JUMPDEST POP POP POP POP PUSH2 0x1F4 JUMP JUMPDEST PUSH1 0x1 DUP3 PUSH1 0x1 DUP2 GT ISZERO PUSH2 0x162 JUMPI INVALID JUMPDEST EQ ISZERO PUSH2 0x1F4 JUMPI PUSH1 0x40 MLOAD PUSH32 0x38E9922E00000000000000000000000000000000000000000000000000000000 DUP2 MSTORE PUSH20 0xFFFFFFFFFFFFFFFFFFFFFFFFFFFFFFFFFFFFFFFF DUP3 AND SWAP1 PUSH4 0x38E9922E SWAP1 PUSH2 0x1C1 SWAP1 PUSH7 0x2386F26FC10000 SWAP1 PUSH1 0x4 ADD PUSH2 0x56B JUMP JUMPDEST PUSH1 0x0 PUSH1 0x40 MLOAD DUP1 DUP4 SUB DUP2 PUSH1 0x0 DUP8 DUP1 EXTCODESIZE ISZERO DUP1 ISZERO PUSH2 0x1DB JUMPI PUSH1 0x0 DUP1 REVERT JUMPDEST POP GAS CALL ISZERO DUP1 ISZERO PUSH2 0x1EF JUMPI RETURNDATASIZE PUSH1 0x0 DUP1 RETURNDATACOPY RETURNDATASIZE PUSH1 0x0 REVERT JUMPDEST POP POP POP POP JUMPDEST POP POP JUMP JUMPDEST PUSH1 0xFF DUP2 JUMP JUMPDEST PUSH1 0x0 DUP1 SLOAD DUP4 SWAP2 SWAP1 PUSH32 0xFFFFFFFFFFFFFFFFFFFFFFFFFFFFFFFFFFFFFFFFFFFFFFFFFFFFFFFFFFFFFF00 AND PUSH1 0x1 DUP4 DUP2 DUP2 GT ISZERO PUSH2 0x233 JUMPI INVALID JUMPDEST MUL OR SWAP1 SSTORE POP PUSH1 0x0 DUP1 SLOAD PUSH32 0xFFFFFFFFFFFFFFFFFFFFFF0000000000000000000000000000000000000000FF AND PUSH2 0x100 PUSH20 0xFFFFFFFFFFFFFFFFFFFFFFFFFFFFFFFFFFFFFFFF DUP7 AND MUL OR SWAP1 SSTORE PUSH1 0x40 DUP1 MLOAD PUSH1 0x1 DUP1 DUP3 MSTORE DUP2 DUP4 ADD SWAP1 SWAP3 MSTORE PUSH1 0x60 SWAP2 PUSH1 0x20 DUP3 ADD JUMPDEST PUSH2 0x29B PUSH2 0x42F JUMP JUMPDEST DUP2 MSTORE PUSH1 0x20 ADD SWAP1 PUSH1 0x1 SWAP1 SUB SWAP1 DUP2 PUSH2 0x293 JUMPI SWAP1 POP POP SWAP1 POP PUSH1 0x0 DUP2 PUSH1 0x0 DUP2 MLOAD DUP2 LT PUSH2 0x2BF JUMPI INVALID JUMPDEST PUSH1 0x20 MUL PUSH1 0x20 ADD ADD MLOAD PUSH1 0x0 ADD SWAP1 PUSH1 0x3 DUP2 GT ISZERO PUSH2 0x2D6 JUMPI INVALID JUMPDEST SWAP1 DUP2 PUSH1 0x3 DUP2 GT ISZERO PUSH2 0x2E3 JUMPI INVALID JUMPDEST DUP2 MSTORE POP POP DUP2 DUP2 PUSH1 0x0 DUP2 MLOAD DUP2 LT PUSH2 0x2F5 JUMPI INVALID JUMPDEST PUSH1 0x20 MUL PUSH1 0x20 ADD ADD MLOAD PUSH1 0x40 ADD DUP2 DUP2 MSTORE POP POP ADDRESS DUP2 PUSH1 0x0 DUP2 MLOAD DUP2 LT PUSH2 0x313 JUMPI INVALID JUMPDEST PUSH1 0x20 MUL PUSH1 0x20 ADD ADD MLOAD PUSH1 0x60 ADD SWAP1 PUSH20 0xFFFFFFFFFFFFFFFFFFFFFFFFFFFFFFFFFFFFFFFF AND SWAP1 DUP2 PUSH20 0xFFFFFFFFFFFFFFFFFFFFFFFFFFFFFFFFFFFFFFFF AND DUP2 MSTORE POP POP ADDRESS DUP2 PUSH1 0x0 DUP2 MLOAD DUP2 LT PUSH2 0x35F JUMPI INVALID JUMPDEST PUSH1 0x20 MUL PUSH1 0x20 ADD ADD MLOAD PUSH1 0x80 ADD SWAP1 PUSH20 0xFFFFFFFFFFFFFFFFFFFFFFFFFFFFFFFFFFFFFFFF AND SWAP1 DUP2 PUSH20 0xFFFFFFFFFFFFFFFFFFFFFFFFFFFFFFFFFFFFFFFF AND DUP2 MSTORE POP POP PUSH32 0x0 PUSH20 0xFFFFFFFFFFFFFFFFFFFFFFFFFFFFFFFFFFFFFFFF AND PUSH4 0xE8E3E84 CALLVALUE DUP4 PUSH1 0x40 MLOAD DUP4 PUSH4 0xFFFFFFFF AND PUSH1 0xE0 SHL DUP2 MSTORE PUSH1 0x4 ADD PUSH2 0x3F7 SWAP2 SWAP1 PUSH2 0x4D4 JUMP JUMPDEST PUSH1 0x0 PUSH1 0x40 MLOAD DUP1 DUP4 SUB DUP2 DUP6 DUP9 DUP1 EXTCODESIZE ISZERO DUP1 ISZERO PUSH2 0x410 JUMPI PUSH1 0x0 DUP1 REVERT JUMPDEST POP GAS CALL ISZERO DUP1 ISZERO PUSH2 0x424 JUMPI RETURNDATASIZE PUSH1 0x0 DUP1 RETURNDATACOPY RETURNDATASIZE PUSH1 0x0 REVERT JUMPDEST POP POP POP POP POP POP POP POP POP JUMP JUMPDEST PUSH1 0x40 DUP1 MLOAD PUSH1 0xA0 DUP2 ADD SWAP1 SWAP2 MSTORE DUP1 PUSH1 0x0 DUP2 MSTORE PUSH1 0x0 PUSH1 0x20 DUP3 ADD DUP2 SWAP1 MSTORE PUSH1 0x40 DUP3 ADD DUP2 SWAP1 MSTORE PUSH1 0x60 DUP3 ADD DUP2 SWAP1 MSTORE PUSH1 0x80 SWAP1 SWAP2 ADD MSTORE SWAP1 JUMP JUMPDEST PUSH1 0x0 DUP1 PUSH1 0x0 PUSH1 0x60 DUP5 DUP7 SUB SLT ISZERO PUSH2 0x473 JUMPI DUP3 DUP4 REVERT JUMPDEST DUP4 CALLDATALOAD PUSH20 0xFFFFFFFFFFFFFFFFFFFFFFFFFFFFFFFFFFFFFFFF DUP2 AND DUP2 EQ PUSH2 0x496 JUMPI DUP4 DUP5 REVERT JUMPDEST SWAP3 POP PUSH1 0x20 DUP5 ADD CALLDATALOAD PUSH1 0x2 DUP2 LT PUSH2 0x4A9 JUMPI DUP3 DUP4 REVERT JUMPDEST SWAP3 SWAP6 SWAP3 SWAP5 POP POP POP PUSH1 0x40 SWAP2 SWAP1 SWAP2 ADD CALLDATALOAD SWAP1 JUMP JUMPDEST PUSH20 0xFFFFFFFFFFFFFFFFFFFFFFFFFFFFFFFFFFFFFFFF AND SWAP1 MSTORE JUMP JUMPDEST PUSH1 0x20 DUP1 DUP3 MSTORE DUP3 MLOAD DUP3 DUP3 ADD DUP2 SWAP1 MSTORE PUSH1 0x0 SWAP2 SWAP1 PUSH1 0x40 SWAP1 DUP2 DUP6 ADD SWAP1 DUP7 DUP5 ADD DUP6 JUMPDEST DUP3 DUP2 LT ISZERO PUSH2 0x55E JUMPI DUP2 MLOAD DUP1 MLOAD PUSH1 0x4 DUP2 LT PUSH2 0x507 JUMPI INVALID JUMPDEST DUP6 MSTORE DUP1 DUP8 ADD MLOAD PUSH2 0x519 DUP9 DUP8 ADD DUP3 PUSH2 0x4BA JUMP JUMPDEST POP DUP6 DUP2 ADD MLOAD DUP7 DUP7 ADD MSTORE PUSH1 0x60 DUP1 DUP3 ADD MLOAD PUSH2 0x534 DUP3 DUP9 ADD DUP3 PUSH2 0x4BA JUMP JUMPDEST POP POP PUSH1 0x80 SWAP1 DUP2 ADD MLOAD SWAP1 PUSH2 0x549 DUP7 DUP3 ADD DUP4 PUSH2 0x4BA JUMP JUMPDEST POP POP PUSH1 0xA0 SWAP4 SWAP1 SWAP4 ADD SWAP3 SWAP1 DUP6 ADD SWAP1 PUSH1 0x1 ADD PUSH2 0x4F1 JUMP JUMPDEST POP SWAP2 SWAP8 SWAP7 POP POP POP POP POP POP POP JUMP JUMPDEST SWAP1 DUP2 MSTORE PUSH1 0x20 ADD SWAP1 JUMP JUMPDEST SWAP2 DUP3 MSTORE PUSH1 0x20 DUP3 ADD MSTORE PUSH1 0x40 ADD SWAP1 JUMP JUMPDEST PUSH1 0xFF SWAP2 SWAP1 SWAP2 AND DUP2 MSTORE PUSH1 0x20 ADD SWAP1 JUMP INVALID LOG2 PUSH5 0x6970667358 0x22 SLT KECCAK256 0xB3 PUSH29 0xE65AA56D433C457636F69E69B6EC14D08D52ADD57F5B22989C8BBE0060 PUSH10 0x64736F6C634300070100 CALLER "},"methodIdentifiers":{"RECOVERY_MODE_EXIT_KIND()":"09564cb1","startAttack(address,uint8,uint256)":"a1c7cc0f"}}}}}