{"src/helpers/contracts/ReadOnlyReentrancyAttackerCSP.sol":{"ReadOnlyReentrancyAttackerCSP":{"abi":[{"inputs":[{"internalType":"contract IVault","name":"vault","type":"address"}],"stateMutability":"nonpayable","type":"constructor"},{"inputs":[{"internalType":"bytes32","name":"poolId","type":"bytes32"},{"components":[{"internalType":"contract IAsset[]","name":"assets","type":"address[]"},{"internalType":"uint256[]","name":"maxAmountsIn","type":"uint256[]"},{"internalType":"bytes","name":"userData","type":"bytes"},{"internalType":"bool","name":"fromInternalBalance","type":"bool"}],"internalType":"struct IVault.JoinPoolRequest","name":"joinPoolRequest","type":"tuple"},{"internalType":"enum ReadOnlyReentrancyAttackerCSP.AttackType","name":"attackType","type":"uint8"}],"name":"startAttack","outputs":[],"stateMutability":"payable","type":"function"},{"stateMutability":"payable","type":"receive"}],"evm":{"bytecode":{"linkReferences":{},"object":"60a060405234801561001057600080fd5b50604051610fa5380380610fa583398101604081905261002f91610044565b60601b6001600160601b031916608052610072565b600060208284031215610055578081fd5b81516001600160a01b038116811461006b578182fd5b9392505050565b60805160601c610f0d610098600039806094528061043052806105765250610f0d6000f3fe6080604052600436106100225760003560e01c80637abf63a01461003657610031565b366100315761002f610049565b005b600080fd5b61002f610044366004610add565b6103c2565b600080546001546040517ff6c0092700000000000000000000000000000000000000000000000000000000815260ff909216929173ffffffffffffffffffffffffffffffffffffffff7f0000000000000000000000000000000000000000000000000000000000000000169163f6c00927916100c89190600401610c8c565b604080518083038186803b1580156100df57600080fd5b505afa1580156100f3573d6000803e3d6000fd5b505050506040513d601f19601f8201168201806040525081019061011791906109e5565b509050600082600381111561012857fe5b1415610193578073ffffffffffffffffffffffffffffffffffffffff1663b7b814fc6040518163ffffffff1660e01b8152600401600060405180830381600087803b15801561017657600080fd5b505af115801561018a573d6000803e3d6000fd5b505050506103be565b60018260038111156101a157fe5b14156101ef578073ffffffffffffffffffffffffffffffffffffffff16630da0669c6040518163ffffffff1660e01b8152600401600060405180830381600087803b15801561017657600080fd5b60028260038111156101fd57fe5b14156102cd5760025473ffffffffffffffffffffffffffffffffffffffff1661025b576040517f08c379a000000000000000000000000000000000000000000000000000000000815260040161025290610db0565b60405180910390fd5b6002546040517f2df2c7c000000000000000000000000000000000000000000000000000000000815273ffffffffffffffffffffffffffffffffffffffff83811692632df2c7c0926102b39290911690600401610d8f565b600060405180830381600087803b15801561017657600080fd5b60038260038111156102db57fe5b14156103be5760025473ffffffffffffffffffffffffffffffffffffffff16610330576040517f08c379a000000000000000000000000000000000000000000000000000000000815260040161025290610db0565b6002546040517ff4b7964d00000000000000000000000000000000000000000000000000000000815273ffffffffffffffffffffffffffffffffffffffff8381169263f4b7964d9261038b9290911690600190600401610c66565b600060405180830381600087803b1580156103a557600080fd5b505af11580156103b9573d6000803e3d6000fd5b505050505b5050565b600080548291907fffffffffffffffffffffffffffffffffffffffffffffffffffffffffffffff001660018360038111156103f957fe5b02179055506001839055600280547fffffffffffffffffffffffff00000000000000000000000000000000000000001690558151517f000000000000000000000000000000000000000000000000000000000000000060005b828110156105245760008560000151828151811061046c57fe5b602002602001015190508073ffffffffffffffffffffffffffffffffffffffff1663095ea7b384886020015185815181106104a357fe5b60200260200101516040518363ffffffff1660e01b81526004016104c8929190610c66565b602060405180830381600087803b1580156104e257600080fd5b505af11580156104f6573d6000803e3d6000fd5b505050506040513d601f19601f8201168201806040525081019061051a9190610aba565b5050600101610452565b5061052e83610842565b156107af576001546040517ff6c0092700000000000000000000000000000000000000000000000000000000815260009173ffffffffffffffffffffffffffffffffffffffff7f0000000000000000000000000000000000000000000000000000000000000000169163f6c00927916105a991600401610c8c565b604080518083038186803b1580156105c057600080fd5b505afa1580156105d4573d6000803e3d6000fd5b505050506040513d601f19601f820116820180604052508101906105f891906109e5565b50905060608173ffffffffffffffffffffffffffffffffffffffff1663238a2d596040518163ffffffff1660e01b815260040160006040518083038186803b15801561064357600080fd5b505afa158015610657573d6000803e3d6000fd5b505050506040513d6000823e601f3d9081017fffffffffffffffffffffffffffffffffffffffffffffffffffffffffffffffe016820160405261069d9190810190610a21565b905060005b815181101561075c5760008282815181106106b957fe5b60200260200101519050600073ffffffffffffffffffffffffffffffffffffffff168173ffffffffffffffffffffffffffffffffffffffff161461075357875180518390811061070557fe5b6020026020010151600260006101000a81548173ffffffffffffffffffffffffffffffffffffffff021916908373ffffffffffffffffffffffffffffffffffffffff1602179055505061075c565b506001016106a2565b5060025473ffffffffffffffffffffffffffffffffffffffff166107ac576040517f08c379a000000000000000000000000000000000000000000000000000000000815260040161025290610de7565b50505b6040517fb95cac2800000000000000000000000000000000000000000000000000000000815273ffffffffffffffffffffffffffffffffffffffff82169063b95cac28903490610809908990309081908b90600401610c95565b6000604051808303818588803b15801561082257600080fd5b505af1158015610836573d6000803e3d6000fd5b50505050505050505050565b6000600282600381111561085257fe5b14806108695750600382600381111561086757fe5b145b92915050565b600082601f83011261087f578081fd5b813561089261088d82610e6b565b610e44565b8181529150602080830190848101818402860182018710156108b357600080fd5b60005b848110156108db5781356108c981610ea4565b845292820192908201906001016108b6565b505050505092915050565b600082601f8301126108f6578081fd5b813561090461088d82610e6b565b81815291506020808301908481018184028601820187101561092557600080fd5b60005b848110156108db57813584529282019290820190600101610928565b803561086981610ec9565b600082601f83011261095f578081fd5b813567ffffffffffffffff811115610975578182fd5b6109a660207fffffffffffffffffffffffffffffffffffffffffffffffffffffffffffffffe0601f84011601610e44565b91508082528360208285010111156109bd57600080fd5b8060208401602084013760009082016020015292915050565b80356004811061086957600080fd5b600080604083850312156109f7578182fd5b8251610a0281610ea4565b602084015190925060038110610a16578182fd5b809150509250929050565b60006020808385031215610a33578182fd5b825167ffffffffffffffff811115610a49578283fd5b8301601f81018513610a59578283fd5b8051610a6761088d82610e6b565b8181528381019083850185840285018601891015610a83578687fd5b8694505b83851015610aae578051610a9a81610ea4565b835260019490940193918501918501610a87565b50979650505050505050565b600060208284031215610acb578081fd5b8151610ad681610ec9565b9392505050565b600080600060608486031215610af1578081fd5b83359250602084013567ffffffffffffffff80821115610b0f578283fd5b9085019060808288031215610b22578283fd5b610b2c6080610e44565b823582811115610b3a578485fd5b610b468982860161086f565b825250602083013582811115610b5a578485fd5b610b66898286016108e6565b602083015250604083013582811115610b7d578485fd5b610b898982860161094f565b604083015250610b9c8860608501610944565b6060820152809450505050610bb485604086016109d6565b90509250925092565b6000815180845260208085019450808401835b83811015610bec57815187529582019590820190600101610bd0565b509495945050505050565b15159052565b60008151808452815b81811015610c2257602081850181015186830182015201610c06565b81811115610c335782602083870101525b50601f017fffffffffffffffffffffffffffffffffffffffffffffffffffffffffffffffe0169290920160200192915050565b73ffffffffffffffffffffffffffffffffffffffff929092168252602082015260400190565b90815260200190565b6000858252602073ffffffffffffffffffffffffffffffffffffffff8087168285015280861660408501525060806060840152610100830184516080808601528181518084526101208701915084830193508592505b80831015610d1357610cfd8451610e8b565b8252928401926001929092019190840190610ceb565b508387015193507fffffffffffffffffffffffffffffffffffffffffffffffffffffffffffffff809250828682030160a0870152610d518185610bbd565b935050506040850151818584030160c0860152610d6e8382610bfd565b925050506060840151610d8460e0850182610bf7565b509695505050505050565b73ffffffffffffffffffffffffffffffffffffffff91909116815260200190565b60208082526017908201527f546f6b656e20746f20757064617465206e6f7420736574000000000000000000604082015260600190565b6020808252602b908201527f4e6f6e65206f662074686520706f6f6c20746f6b656e7320686173206120726160408201527f74652070726f7669646572000000000000000000000000000000000000000000606082015260800190565b60405181810167ffffffffffffffff81118282101715610e6357600080fd5b604052919050565b600067ffffffffffffffff821115610e81578081fd5b5060209081020190565b73ffffffffffffffffffffffffffffffffffffffff1690565b73ffffffffffffffffffffffffffffffffffffffff81168114610ec657600080fd5b50565b8015158114610ec657600080fdfea26469706673582212209e97172c8492e0123ec0530b9d59677d052aad58d0810afa936a363a7090dded64736f6c63430007010033","opcodes":"PUSH1 0xA0 PUSH1 0x40 MSTORE CALLVALUE DUP1 ISZERO PUSH2 0x10 JUMPI PUSH1 0x0 DUP1 REVERT JUMPDEST POP PUSH1 0x40 MLOAD PUSH2 0xFA5 CODESIZE SUB DUP1 PUSH2 0xFA5 DUP4 CODECOPY DUP2 ADD PUSH1 0x40 DUP2 SWAP1 MSTORE PUSH2 0x2F SWAP2 PUSH2 0x44 JUMP JUMPDEST PUSH1 0x60 SHL PUSH1 0x1 PUSH1 0x1 PUSH1 0x60 SHL SUB NOT AND PUSH1 0x80 MSTORE PUSH2 0x72 JUMP JUMPDEST PUSH1 0x0 PUSH1 0x20 DUP3 DUP5 SUB SLT ISZERO PUSH2 0x55 JUMPI DUP1 DUP2 REVERT JUMPDEST DUP2 MLOAD PUSH1 0x1 PUSH1 0x1 PUSH1 0xA0 SHL SUB DUP2 AND DUP2 EQ PUSH2 0x6B JUMPI DUP2 DUP3 REVERT JUMPDEST SWAP4 SWAP3 POP POP POP JUMP JUMPDEST PUSH1 0x80 MLOAD PUSH1 0x60 SHR PUSH2 0xF0D PUSH2 0x98 PUSH1 0x0 CODECOPY DUP1 PUSH1 0x94 MSTORE DUP1 PUSH2 0x430 MSTORE DUP1 PUSH2 0x576 MSTORE POP PUSH2 0xF0D PUSH1 0x0 RETURN INVALID PUSH1 0x80 PUSH1 0x40 MSTORE PUSH1 0x4 CALLDATASIZE LT PUSH2 0x22 JUMPI PUSH1 0x0 CALLDATALOAD PUSH1 0xE0 SHR DUP1 PUSH4 0x7ABF63A0 EQ PUSH2 0x36 JUMPI PUSH2 0x31 JUMP JUMPDEST CALLDATASIZE PUSH2 0x31 JUMPI PUSH2 0x2F PUSH2 0x49 JUMP JUMPDEST STOP JUMPDEST PUSH1 0x0 DUP1 REVERT JUMPDEST PUSH2 0x2F PUSH2 0x44 CALLDATASIZE PUSH1 0x4 PUSH2 0xADD JUMP JUMPDEST PUSH2 0x3C2 JUMP JUMPDEST PUSH1 0x0 DUP1 SLOAD PUSH1 0x1 SLOAD PUSH1 0x40 MLOAD PUSH32 0xF6C0092700000000000000000000000000000000000000000000000000000000 DUP2 MSTORE PUSH1 0xFF SWAP1 SWAP3 AND SWAP3 SWAP2 PUSH20 0xFFFFFFFFFFFFFFFFFFFFFFFFFFFFFFFFFFFFFFFF PUSH32 0x0 AND SWAP2 PUSH4 0xF6C00927 SWAP2 PUSH2 0xC8 SWAP2 SWAP1 PUSH1 0x4 ADD PUSH2 0xC8C JUMP JUMPDEST PUSH1 0x40 DUP1 MLOAD DUP1 DUP4 SUB DUP2 DUP7 DUP1 EXTCODESIZE ISZERO DUP1 ISZERO PUSH2 0xDF JUMPI PUSH1 0x0 DUP1 REVERT JUMPDEST POP GAS STATICCALL ISZERO DUP1 ISZERO PUSH2 0xF3 JUMPI RETURNDATASIZE PUSH1 0x0 DUP1 RETURNDATACOPY RETURNDATASIZE PUSH1 0x0 REVERT JUMPDEST POP POP POP POP PUSH1 0x40 MLOAD RETURNDATASIZE PUSH1 0x1F NOT PUSH1 0x1F DUP3 ADD AND DUP3 ADD DUP1 PUSH1 0x40 MSTORE POP DUP2 ADD SWAP1 PUSH2 0x117 SWAP2 SWAP1 PUSH2 0x9E5 JUMP JUMPDEST POP SWAP1 POP PUSH1 0x0 DUP3 PUSH1 0x3 DUP2 GT ISZERO PUSH2 0x128 JUMPI INVALID JUMPDEST EQ ISZERO PUSH2 0x193 JUMPI DUP1 PUSH20 0xFFFFFFFFFFFFFFFFFFFFFFFFFFFFFFFFFFFFFFFF AND PUSH4 0xB7B814FC PUSH1 0x40 MLOAD DUP2 PUSH4 0xFFFFFFFF AND PUSH1 0xE0 SHL DUP2 MSTORE PUSH1 0x4 ADD PUSH1 0x0 PUSH1 0x40 MLOAD DUP1 DUP4 SUB DUP2 PUSH1 0x0 DUP8 DUP1 EXTCODESIZE ISZERO DUP1 ISZERO PUSH2 0x176 JUMPI PUSH1 0x0 DUP1 REVERT JUMPDEST POP GAS CALL ISZERO DUP1 ISZERO PUSH2 0x18A JUMPI RETURNDATASIZE PUSH1 0x0 DUP1 RETURNDATACOPY RETURNDATASIZE PUSH1 0x0 REVERT JUMPDEST POP POP POP POP PUSH2 0x3BE JUMP JUMPDEST PUSH1 0x1 DUP3 PUSH1 0x3 DUP2 GT ISZERO PUSH2 0x1A1 JUMPI INVALID JUMPDEST EQ ISZERO PUSH2 0x1EF JUMPI DUP1 PUSH20 0xFFFFFFFFFFFFFFFFFFFFFFFFFFFFFFFFFFFFFFFF AND PUSH4 0xDA0669C PUSH1 0x40 MLOAD DUP2 PUSH4 0xFFFFFFFF AND PUSH1 0xE0 SHL DUP2 MSTORE PUSH1 0x4 ADD PUSH1 0x0 PUSH1 0x40 MLOAD DUP1 DUP4 SUB DUP2 PUSH1 0x0 DUP8 DUP1 EXTCODESIZE ISZERO DUP1 ISZERO PUSH2 0x176 JUMPI PUSH1 0x0 DUP1 REVERT JUMPDEST PUSH1 0x2 DUP3 PUSH1 0x3 DUP2 GT ISZERO PUSH2 0x1FD JUMPI INVALID JUMPDEST EQ ISZERO PUSH2 0x2CD JUMPI PUSH1 0x2 SLOAD PUSH20 0xFFFFFFFFFFFFFFFFFFFFFFFFFFFFFFFFFFFFFFFF AND PUSH2 0x25B JUMPI PUSH1 0x40 MLOAD PUSH32 0x8C379A000000000000000000000000000000000000000000000000000000000 DUP2 MSTORE PUSH1 0x4 ADD PUSH2 0x252 SWAP1 PUSH2 0xDB0 JUMP JUMPDEST PUSH1 0x40 MLOAD DUP1 SWAP2 SUB SWAP1 REVERT JUMPDEST PUSH1 0x2 SLOAD PUSH1 0x40 MLOAD PUSH32 0x2DF2C7C000000000000000000000000000000000000000000000000000000000 DUP2 MSTORE PUSH20 0xFFFFFFFFFFFFFFFFFFFFFFFFFFFFFFFFFFFFFFFF DUP4 DUP2 AND SWAP3 PUSH4 0x2DF2C7C0 SWAP3 PUSH2 0x2B3 SWAP3 SWAP1 SWAP2 AND SWAP1 PUSH1 0x4 ADD PUSH2 0xD8F JUMP JUMPDEST PUSH1 0x0 PUSH1 0x40 MLOAD DUP1 DUP4 SUB DUP2 PUSH1 0x0 DUP8 DUP1 EXTCODESIZE ISZERO DUP1 ISZERO PUSH2 0x176 JUMPI PUSH1 0x0 DUP1 REVERT JUMPDEST PUSH1 0x3 DUP3 PUSH1 0x3 DUP2 GT ISZERO PUSH2 0x2DB JUMPI INVALID JUMPDEST EQ ISZERO PUSH2 0x3BE JUMPI PUSH1 0x2 SLOAD PUSH20 0xFFFFFFFFFFFFFFFFFFFFFFFFFFFFFFFFFFFFFFFF AND PUSH2 0x330 JUMPI PUSH1 0x40 MLOAD PUSH32 0x8C379A000000000000000000000000000000000000000000000000000000000 DUP2 MSTORE PUSH1 0x4 ADD PUSH2 0x252 SWAP1 PUSH2 0xDB0 JUMP JUMPDEST PUSH1 0x2 SLOAD PUSH1 0x40 MLOAD PUSH32 0xF4B7964D00000000000000000000000000000000000000000000000000000000 DUP2 MSTORE PUSH20 0xFFFFFFFFFFFFFFFFFFFFFFFFFFFFFFFFFFFFFFFF DUP4 DUP2 AND SWAP3 PUSH4 0xF4B7964D SWAP3 PUSH2 0x38B SWAP3 SWAP1 SWAP2 AND SWAP1 PUSH1 0x1 SWAP1 PUSH1 0x4 ADD PUSH2 0xC66 JUMP JUMPDEST PUSH1 0x0 PUSH1 0x40 MLOAD DUP1 DUP4 SUB DUP2 PUSH1 0x0 DUP8 DUP1 EXTCODESIZE ISZERO DUP1 ISZERO PUSH2 0x3A5 JUMPI PUSH1 0x0 DUP1 REVERT JUMPDEST POP GAS CALL ISZERO DUP1 ISZERO PUSH2 0x3B9 JUMPI RETURNDATASIZE PUSH1 0x0 DUP1 RETURNDATACOPY RETURNDATASIZE PUSH1 0x0 REVERT JUMPDEST POP POP POP POP JUMPDEST POP POP JUMP JUMPDEST PUSH1 0x0 DUP1 SLOAD DUP3 SWAP2 SWAP1 PUSH32 0xFFFFFFFFFFFFFFFFFFFFFFFFFFFFFFFFFFFFFFFFFFFFFFFFFFFFFFFFFFFFFF00 AND PUSH1 0x1 DUP4 PUSH1 0x3 DUP2 GT ISZERO PUSH2 0x3F9 JUMPI INVALID JUMPDEST MUL OR SWAP1 SSTORE POP PUSH1 0x1 DUP4 SWAP1 SSTORE PUSH1 0x2 DUP1 SLOAD PUSH32 0xFFFFFFFFFFFFFFFFFFFFFFFF0000000000000000000000000000000000000000 AND SWAP1 SSTORE DUP2 MLOAD MLOAD PUSH32 0x0 PUSH1 0x0 JUMPDEST DUP3 DUP2 LT ISZERO PUSH2 0x524 JUMPI PUSH1 0x0 DUP6 PUSH1 0x0 ADD MLOAD DUP3 DUP2 MLOAD DUP2 LT PUSH2 0x46C JUMPI INVALID JUMPDEST PUSH1 0x20 MUL PUSH1 0x20 ADD ADD MLOAD SWAP1 POP DUP1 PUSH20 0xFFFFFFFFFFFFFFFFFFFFFFFFFFFFFFFFFFFFFFFF AND PUSH4 0x95EA7B3 DUP5 DUP9 PUSH1 0x20 ADD MLOAD DUP6 DUP2 MLOAD DUP2 LT PUSH2 0x4A3 JUMPI INVALID JUMPDEST PUSH1 0x20 MUL PUSH1 0x20 ADD ADD MLOAD PUSH1 0x40 MLOAD DUP4 PUSH4 0xFFFFFFFF AND PUSH1 0xE0 SHL DUP2 MSTORE PUSH1 0x4 ADD PUSH2 0x4C8 SWAP3 SWAP2 SWAP1 PUSH2 0xC66 JUMP JUMPDEST PUSH1 0x20 PUSH1 0x40 MLOAD DUP1 DUP4 SUB DUP2 PUSH1 0x0 DUP8 DUP1 EXTCODESIZE ISZERO DUP1 ISZERO PUSH2 0x4E2 JUMPI PUSH1 0x0 DUP1 REVERT JUMPDEST POP GAS CALL ISZERO DUP1 ISZERO PUSH2 0x4F6 JUMPI RETURNDATASIZE PUSH1 0x0 DUP1 RETURNDATACOPY RETURNDATASIZE PUSH1 0x0 REVERT JUMPDEST POP POP POP POP PUSH1 0x40 MLOAD RETURNDATASIZE PUSH1 0x1F NOT PUSH1 0x1F DUP3 ADD AND DUP3 ADD DUP1 PUSH1 0x40 MSTORE POP DUP2 ADD SWAP1 PUSH2 0x51A SWAP2 SWAP1 PUSH2 0xABA JUMP JUMPDEST POP POP PUSH1 0x1 ADD PUSH2 0x452 JUMP JUMPDEST POP PUSH2 0x52E DUP4 PUSH2 0x842 JUMP JUMPDEST ISZERO PUSH2 0x7AF JUMPI PUSH1 0x1 SLOAD PUSH1 0x40 MLOAD PUSH32 0xF6C0092700000000000000000000000000000000000000000000000000000000 DUP2 MSTORE PUSH1 0x0 SWAP2 PUSH20 0xFFFFFFFFFFFFFFFFFFFFFFFFFFFFFFFFFFFFFFFF PUSH32 0x0 AND SWAP2 PUSH4 0xF6C00927 SWAP2 PUSH2 0x5A9 SWAP2 PUSH1 0x4 ADD PUSH2 0xC8C JUMP JUMPDEST PUSH1 0x40 DUP1 MLOAD DUP1 DUP4 SUB DUP2 DUP7 DUP1 EXTCODESIZE ISZERO DUP1 ISZERO PUSH2 0x5C0 JUMPI PUSH1 0x0 DUP1 REVERT JUMPDEST POP GAS STATICCALL ISZERO DUP1 ISZERO PUSH2 0x5D4 JUMPI RETURNDATASIZE PUSH1 0x0 DUP1 RETURNDATACOPY RETURNDATASIZE PUSH1 0x0 REVERT JUMPDEST POP POP POP POP PUSH1 0x40 MLOAD RETURNDATASIZE PUSH1 0x1F NOT PUSH1 0x1F DUP3 ADD AND DUP3 ADD DUP1 PUSH1 0x40 MSTORE POP DUP2 ADD SWAP1 PUSH2 0x5F8 SWAP2 SWAP1 PUSH2 0x9E5 JUMP JUMPDEST POP SWAP1 POP PUSH1 0x60 DUP2 PUSH20 0xFFFFFFFFFFFFFFFFFFFFFFFFFFFFFFFFFFFFFFFF AND PUSH4 0x238A2D59 PUSH1 0x40 MLOAD DUP2 PUSH4 0xFFFFFFFF AND PUSH1 0xE0 SHL DUP2 MSTORE PUSH1 0x4 ADD PUSH1 0x0 PUSH1 0x40 MLOAD DUP1 DUP4 SUB DUP2 DUP7 DUP1 EXTCODESIZE ISZERO DUP1 ISZERO PUSH2 0x643 JUMPI PUSH1 0x0 DUP1 REVERT JUMPDEST POP GAS STATICCALL ISZERO DUP1 ISZERO PUSH2 0x657 JUMPI RETURNDATASIZE PUSH1 0x0 DUP1 RETURNDATACOPY RETURNDATASIZE PUSH1 0x0 REVERT JUMPDEST POP POP POP POP PUSH1 0x40 MLOAD RETURNDATASIZE PUSH1 0x0 DUP3 RETURNDATACOPY PUSH1 0x1F RETURNDATASIZE SWAP1 DUP2 ADD PUSH32 0xFFFFFFFFFFFFFFFFFFFFFFFFFFFFFFFFFFFFFFFFFFFFFFFFFFFFFFFFFFFFFFE0 AND DUP3 ADD PUSH1 0x40 MSTORE PUSH2 0x69D SWAP2 SWAP1 DUP2 ADD SWAP1 PUSH2 0xA21 JUMP JUMPDEST SWAP1 POP PUSH1 0x0 JUMPDEST DUP2 MLOAD DUP2 LT ISZERO PUSH2 0x75C JUMPI PUSH1 0x0 DUP3 DUP3 DUP2 MLOAD DUP2 LT PUSH2 0x6B9 JUMPI INVALID JUMPDEST PUSH1 0x20 MUL PUSH1 0x20 ADD ADD MLOAD SWAP1 POP PUSH1 0x0 PUSH20 0xFFFFFFFFFFFFFFFFFFFFFFFFFFFFFFFFFFFFFFFF AND DUP2 PUSH20 0xFFFFFFFFFFFFFFFFFFFFFFFFFFFFFFFFFFFFFFFF AND EQ PUSH2 0x753 JUMPI DUP8 MLOAD DUP1 MLOAD DUP4 SWAP1 DUP2 LT PUSH2 0x705 JUMPI INVALID JUMPDEST PUSH1 0x20 MUL PUSH1 0x20 ADD ADD MLOAD PUSH1 0x2 PUSH1 0x0 PUSH2 0x100 EXP DUP2 SLOAD DUP2 PUSH20 0xFFFFFFFFFFFFFFFFFFFFFFFFFFFFFFFFFFFFFFFF MUL NOT AND SWAP1 DUP4 PUSH20 0xFFFFFFFFFFFFFFFFFFFFFFFFFFFFFFFFFFFFFFFF AND MUL OR SWAP1 SSTORE POP POP PUSH2 0x75C JUMP JUMPDEST POP PUSH1 0x1 ADD PUSH2 0x6A2 JUMP JUMPDEST POP PUSH1 0x2 SLOAD PUSH20 0xFFFFFFFFFFFFFFFFFFFFFFFFFFFFFFFFFFFFFFFF AND PUSH2 0x7AC JUMPI PUSH1 0x40 MLOAD PUSH32 0x8C379A000000000000000000000000000000000000000000000000000000000 DUP2 MSTORE PUSH1 0x4 ADD PUSH2 0x252 SWAP1 PUSH2 0xDE7 JUMP JUMPDEST POP POP JUMPDEST PUSH1 0x40 MLOAD PUSH32 0xB95CAC2800000000000000000000000000000000000000000000000000000000 DUP2 MSTORE PUSH20 0xFFFFFFFFFFFFFFFFFFFFFFFFFFFFFFFFFFFFFFFF DUP3 AND SWAP1 PUSH4 0xB95CAC28 SWAP1 CALLVALUE SWAP1 PUSH2 0x809 SWAP1 DUP10 SWAP1 ADDRESS SWAP1 DUP2 SWAP1 DUP12 SWAP1 PUSH1 0x4 ADD PUSH2 0xC95 JUMP JUMPDEST PUSH1 0x0 PUSH1 0x40 MLOAD DUP1 DUP4 SUB DUP2 DUP6 DUP9 DUP1 EXTCODESIZE ISZERO DUP1 ISZERO PUSH2 0x822 JUMPI PUSH1 0x0 DUP1 REVERT JUMPDEST POP GAS CALL ISZERO DUP1 ISZERO PUSH2 0x836 JUMPI RETURNDATASIZE PUSH1 0x0 DUP1 RETURNDATACOPY RETURNDATASIZE PUSH1 0x0 REVERT JUMPDEST POP POP POP POP POP POP POP POP POP POP JUMP JUMPDEST PUSH1 0x0 PUSH1 0x2 DUP3 PUSH1 0x3 DUP2 GT ISZERO PUSH2 0x852 JUMPI INVALID JUMPDEST EQ DUP1 PUSH2 0x869 JUMPI POP PUSH1 0x3 DUP3 PUSH1 0x3 DUP2 GT ISZERO PUSH2 0x867 JUMPI INVALID JUMPDEST EQ JUMPDEST SWAP3 SWAP2 POP POP JUMP JUMPDEST PUSH1 0x0 DUP3 PUSH1 0x1F DUP4 ADD SLT PUSH2 0x87F JUMPI DUP1 DUP2 REVERT JUMPDEST DUP2 CALLDATALOAD PUSH2 0x892 PUSH2 0x88D DUP3 PUSH2 0xE6B JUMP JUMPDEST PUSH2 0xE44 JUMP JUMPDEST DUP2 DUP2 MSTORE SWAP2 POP PUSH1 0x20 DUP1 DUP4 ADD SWAP1 DUP5 DUP2 ADD DUP2 DUP5 MUL DUP7 ADD DUP3 ADD DUP8 LT ISZERO PUSH2 0x8B3 JUMPI PUSH1 0x0 DUP1 REVERT JUMPDEST PUSH1 0x0 JUMPDEST DUP5 DUP2 LT ISZERO PUSH2 0x8DB JUMPI DUP2 CALLDATALOAD PUSH2 0x8C9 DUP2 PUSH2 0xEA4 JUMP JUMPDEST DUP5 MSTORE SWAP3 DUP3 ADD SWAP3 SWAP1 DUP3 ADD SWAP1 PUSH1 0x1 ADD PUSH2 0x8B6 JUMP JUMPDEST POP POP POP POP POP SWAP3 SWAP2 POP POP JUMP JUMPDEST PUSH1 0x0 DUP3 PUSH1 0x1F DUP4 ADD SLT PUSH2 0x8F6 JUMPI DUP1 DUP2 REVERT JUMPDEST DUP2 CALLDATALOAD PUSH2 0x904 PUSH2 0x88D DUP3 PUSH2 0xE6B JUMP JUMPDEST DUP2 DUP2 MSTORE SWAP2 POP PUSH1 0x20 DUP1 DUP4 ADD SWAP1 DUP5 DUP2 ADD DUP2 DUP5 MUL DUP7 ADD DUP3 ADD DUP8 LT ISZERO PUSH2 0x925 JUMPI PUSH1 0x0 DUP1 REVERT JUMPDEST PUSH1 0x0 JUMPDEST DUP5 DUP2 LT ISZERO PUSH2 0x8DB JUMPI DUP2 CALLDATALOAD DUP5 MSTORE SWAP3 DUP3 ADD SWAP3 SWAP1 DUP3 ADD SWAP1 PUSH1 0x1 ADD PUSH2 0x928 JUMP JUMPDEST DUP1 CALLDATALOAD PUSH2 0x869 DUP2 PUSH2 0xEC9 JUMP JUMPDEST PUSH1 0x0 DUP3 PUSH1 0x1F DUP4 ADD SLT PUSH2 0x95F JUMPI DUP1 DUP2 REVERT JUMPDEST DUP2 CALLDATALOAD PUSH8 0xFFFFFFFFFFFFFFFF DUP2 GT ISZERO PUSH2 0x975 JUMPI DUP2 DUP3 REVERT JUMPDEST PUSH2 0x9A6 PUSH1 0x20 PUSH32 0xFFFFFFFFFFFFFFFFFFFFFFFFFFFFFFFFFFFFFFFFFFFFFFFFFFFFFFFFFFFFFFE0 PUSH1 0x1F DUP5 ADD AND ADD PUSH2 0xE44 JUMP JUMPDEST SWAP2 POP DUP1 DUP3 MSTORE DUP4 PUSH1 0x20 DUP3 DUP6 ADD ADD GT ISZERO PUSH2 0x9BD JUMPI PUSH1 0x0 DUP1 REVERT JUMPDEST DUP1 PUSH1 0x20 DUP5 ADD PUSH1 0x20 DUP5 ADD CALLDATACOPY PUSH1 0x0 SWAP1 DUP3 ADD PUSH1 0x20 ADD MSTORE SWAP3 SWAP2 POP POP JUMP JUMPDEST DUP1 CALLDATALOAD PUSH1 0x4 DUP2 LT PUSH2 0x869 JUMPI PUSH1 0x0 DUP1 REVERT JUMPDEST PUSH1 0x0 DUP1 PUSH1 0x40 DUP4 DUP6 SUB SLT ISZERO PUSH2 0x9F7 JUMPI DUP2 DUP3 REVERT JUMPDEST DUP3 MLOAD PUSH2 0xA02 DUP2 PUSH2 0xEA4 JUMP JUMPDEST PUSH1 0x20 DUP5 ADD MLOAD SWAP1 SWAP3 POP PUSH1 0x3 DUP2 LT PUSH2 0xA16 JUMPI DUP2 DUP3 REVERT JUMPDEST DUP1 SWAP2 POP POP SWAP3 POP SWAP3 SWAP1 POP JUMP JUMPDEST PUSH1 0x0 PUSH1 0x20 DUP1 DUP4 DUP6 SUB SLT ISZERO PUSH2 0xA33 JUMPI DUP2 DUP3 REVERT JUMPDEST DUP3 MLOAD PUSH8 0xFFFFFFFFFFFFFFFF DUP2 GT ISZERO PUSH2 0xA49 JUMPI DUP3 DUP4 REVERT JUMPDEST DUP4 ADD PUSH1 0x1F DUP2 ADD DUP6 SGT PUSH2 0xA59 JUMPI DUP3 DUP4 REVERT JUMPDEST DUP1 MLOAD PUSH2 0xA67 PUSH2 0x88D DUP3 PUSH2 0xE6B JUMP JUMPDEST DUP2 DUP2 MSTORE DUP4 DUP2 ADD SWAP1 DUP4 DUP6 ADD DUP6 DUP5 MUL DUP6 ADD DUP7 ADD DUP10 LT ISZERO PUSH2 0xA83 JUMPI DUP7 DUP8 REVERT JUMPDEST DUP7 SWAP5 POP JUMPDEST DUP4 DUP6 LT ISZERO PUSH2 0xAAE JUMPI DUP1 MLOAD PUSH2 0xA9A DUP2 PUSH2 0xEA4 JUMP JUMPDEST DUP4 MSTORE PUSH1 0x1 SWAP5 SWAP1 SWAP5 ADD SWAP4 SWAP2 DUP6 ADD SWAP2 DUP6 ADD PUSH2 0xA87 JUMP JUMPDEST POP SWAP8 SWAP7 POP POP POP POP POP POP POP JUMP JUMPDEST PUSH1 0x0 PUSH1 0x20 DUP3 DUP5 SUB SLT ISZERO PUSH2 0xACB JUMPI DUP1 DUP2 REVERT JUMPDEST DUP2 MLOAD PUSH2 0xAD6 DUP2 PUSH2 0xEC9 JUMP JUMPDEST SWAP4 SWAP3 POP POP POP JUMP JUMPDEST PUSH1 0x0 DUP1 PUSH1 0x0 PUSH1 0x60 DUP5 DUP7 SUB SLT ISZERO PUSH2 0xAF1 JUMPI DUP1 DUP2 REVERT JUMPDEST DUP4 CALLDATALOAD SWAP3 POP PUSH1 0x20 DUP5 ADD CALLDATALOAD PUSH8 0xFFFFFFFFFFFFFFFF DUP1 DUP3 GT ISZERO PUSH2 0xB0F JUMPI DUP3 DUP4 REVERT JUMPDEST SWAP1 DUP6 ADD SWAP1 PUSH1 0x80 DUP3 DUP9 SUB SLT ISZERO PUSH2 0xB22 JUMPI DUP3 DUP4 REVERT JUMPDEST PUSH2 0xB2C PUSH1 0x80 PUSH2 0xE44 JUMP JUMPDEST DUP3 CALLDATALOAD DUP3 DUP2 GT ISZERO PUSH2 0xB3A JUMPI DUP5 DUP6 REVERT JUMPDEST PUSH2 0xB46 DUP10 DUP3 DUP7 ADD PUSH2 0x86F JUMP JUMPDEST DUP3 MSTORE POP PUSH1 0x20 DUP4 ADD CALLDATALOAD DUP3 DUP2 GT ISZERO PUSH2 0xB5A JUMPI DUP5 DUP6 REVERT JUMPDEST PUSH2 0xB66 DUP10 DUP3 DUP7 ADD PUSH2 0x8E6 JUMP JUMPDEST PUSH1 0x20 DUP4 ADD MSTORE POP PUSH1 0x40 DUP4 ADD CALLDATALOAD DUP3 DUP2 GT ISZERO PUSH2 0xB7D JUMPI DUP5 DUP6 REVERT JUMPDEST PUSH2 0xB89 DUP10 DUP3 DUP7 ADD PUSH2 0x94F JUMP JUMPDEST PUSH1 0x40 DUP4 ADD MSTORE POP PUSH2 0xB9C DUP9 PUSH1 0x60 DUP6 ADD PUSH2 0x944 JUMP JUMPDEST PUSH1 0x60 DUP3 ADD MSTORE DUP1 SWAP5 POP POP POP POP PUSH2 0xBB4 DUP6 PUSH1 0x40 DUP7 ADD PUSH2 0x9D6 JUMP JUMPDEST SWAP1 POP SWAP3 POP SWAP3 POP SWAP3 JUMP JUMPDEST PUSH1 0x0 DUP2 MLOAD DUP1 DUP5 MSTORE PUSH1 0x20 DUP1 DUP6 ADD SWAP5 POP DUP1 DUP5 ADD DUP4 JUMPDEST DUP4 DUP2 LT ISZERO PUSH2 0xBEC JUMPI DUP2 MLOAD DUP8 MSTORE SWAP6 DUP3 ADD SWAP6 SWAP1 DUP3 ADD SWAP1 PUSH1 0x1 ADD PUSH2 0xBD0 JUMP JUMPDEST POP SWAP5 SWAP6 SWAP5 POP POP POP POP POP JUMP JUMPDEST ISZERO ISZERO SWAP1 MSTORE JUMP JUMPDEST PUSH1 0x0 DUP2 MLOAD DUP1 DUP5 MSTORE DUP2 JUMPDEST DUP2 DUP2 LT ISZERO PUSH2 0xC22 JUMPI PUSH1 0x20 DUP2 DUP6 ADD DUP2 ADD MLOAD DUP7 DUP4 ADD DUP3 ADD MSTORE ADD PUSH2 0xC06 JUMP JUMPDEST DUP2 DUP2 GT ISZERO PUSH2 0xC33 JUMPI DUP3 PUSH1 0x20 DUP4 DUP8 ADD ADD MSTORE JUMPDEST POP PUSH1 0x1F ADD PUSH32 0xFFFFFFFFFFFFFFFFFFFFFFFFFFFFFFFFFFFFFFFFFFFFFFFFFFFFFFFFFFFFFFE0 AND SWAP3 SWAP1 SWAP3 ADD PUSH1 0x20 ADD SWAP3 SWAP2 POP POP JUMP JUMPDEST PUSH20 0xFFFFFFFFFFFFFFFFFFFFFFFFFFFFFFFFFFFFFFFF SWAP3 SWAP1 SWAP3 AND DUP3 MSTORE PUSH1 0x20 DUP3 ADD MSTORE PUSH1 0x40 ADD SWAP1 JUMP JUMPDEST SWAP1 DUP2 MSTORE PUSH1 0x20 ADD SWAP1 JUMP JUMPDEST PUSH1 0x0 DUP6 DUP3 MSTORE PUSH1 0x20 PUSH20 0xFFFFFFFFFFFFFFFFFFFFFFFFFFFFFFFFFFFFFFFF DUP1 DUP8 AND DUP3 DUP6 ADD MSTORE DUP1 DUP7 AND PUSH1 0x40 DUP6 ADD MSTORE POP PUSH1 0x80 PUSH1 0x60 DUP5 ADD MSTORE PUSH2 0x100 DUP4 ADD DUP5 MLOAD PUSH1 0x80 DUP1 DUP7 ADD MSTORE DUP2 DUP2 MLOAD DUP1 DUP5 MSTORE PUSH2 0x120 DUP8 ADD SWAP2 POP DUP5 DUP4 ADD SWAP4 POP DUP6 SWAP3 POP JUMPDEST DUP1 DUP4 LT ISZERO PUSH2 0xD13 JUMPI PUSH2 0xCFD DUP5 MLOAD PUSH2 0xE8B JUMP JUMPDEST DUP3 MSTORE SWAP3 DUP5 ADD SWAP3 PUSH1 0x1 SWAP3 SWAP1 SWAP3 ADD SWAP2 SWAP1 DUP5 ADD SWAP1 PUSH2 0xCEB JUMP JUMPDEST POP DUP4 DUP8 ADD MLOAD SWAP4 POP PUSH32 0xFFFFFFFFFFFFFFFFFFFFFFFFFFFFFFFFFFFFFFFFFFFFFFFFFFFFFFFFFFFFFF80 SWAP3 POP DUP3 DUP7 DUP3 SUB ADD PUSH1 0xA0 DUP8 ADD MSTORE PUSH2 0xD51 DUP2 DUP6 PUSH2 0xBBD JUMP JUMPDEST SWAP4 POP POP POP PUSH1 0x40 DUP6 ADD MLOAD DUP2 DUP6 DUP5 SUB ADD PUSH1 0xC0 DUP7 ADD MSTORE PUSH2 0xD6E DUP4 DUP3 PUSH2 0xBFD JUMP JUMPDEST SWAP3 POP POP POP PUSH1 0x60 DUP5 ADD MLOAD PUSH2 0xD84 PUSH1 0xE0 DUP6 ADD DUP3 PUSH2 0xBF7 JUMP JUMPDEST POP SWAP7 SWAP6 POP POP POP POP POP POP JUMP JUMPDEST PUSH20 0xFFFFFFFFFFFFFFFFFFFFFFFFFFFFFFFFFFFFFFFF SWAP2 SWAP1 SWAP2 AND DUP2 MSTORE PUSH1 0x20 ADD SWAP1 JUMP JUMPDEST PUSH1 0x20 DUP1 DUP3 MSTORE PUSH1 0x17 SWAP1 DUP3 ADD MSTORE PUSH32 0x546F6B656E20746F20757064617465206E6F7420736574000000000000000000 PUSH1 0x40 DUP3 ADD MSTORE PUSH1 0x60 ADD SWAP1 JUMP JUMPDEST PUSH1 0x20 DUP1 DUP3 MSTORE PUSH1 0x2B SWAP1 DUP3 ADD MSTORE PUSH32 0x4E6F6E65206F662074686520706F6F6C20746F6B656E73206861732061207261 PUSH1 0x40 DUP3 ADD MSTORE PUSH32 0x74652070726F7669646572000000000000000000000000000000000000000000 PUSH1 0x60 DUP3 ADD MSTORE PUSH1 0x80 ADD SWAP1 JUMP JUMPDEST PUSH1 0x40 MLOAD DUP2 DUP2 ADD PUSH8 0xFFFFFFFFFFFFFFFF DUP2 GT DUP3 DUP3 LT OR ISZERO PUSH2 0xE63 JUMPI PUSH1 0x0 DUP1 REVERT JUMPDEST PUSH1 0x40 MSTORE SWAP2 SWAP1 POP JUMP JUMPDEST PUSH1 0x0 PUSH8 0xFFFFFFFFFFFFFFFF DUP3 GT ISZERO PUSH2 0xE81 JUMPI DUP1 DUP2 REVERT JUMPDEST POP PUSH1 0x20 SWAP1 DUP2 MUL ADD SWAP1 JUMP JUMPDEST PUSH20 0xFFFFFFFFFFFFFFFFFFFFFFFFFFFFFFFFFFFFFFFF AND SWAP1 JUMP JUMPDEST PUSH20 0xFFFFFFFFFFFFFFFFFFFFFFFFFFFFFFFFFFFFFFFF DUP2 AND DUP2 EQ PUSH2 0xEC6 JUMPI PUSH1 0x0 DUP1 REVERT JUMPDEST POP JUMP JUMPDEST DUP1 ISZERO ISZERO DUP2 EQ PUSH2 0xEC6 JUMPI PUSH1 0x0 DUP1 REVERT INVALID LOG2 PUSH5 0x6970667358 0x22 SLT KECCAK256 SWAP15 SWAP8 OR 0x2C DUP5 SWAP3 0xE0 SLT RETURNDATACOPY 0xC0 MSTORE8 SIGNEXTEND SWAP14 MSIZE PUSH8 0x7D052AAD58D0810A STATICCALL SWAP4 PUSH11 0x363A7090DDED64736F6C63 NUMBER STOP SMOD ADD STOP CALLER "},"methodIdentifiers":{"startAttack(bytes32,(address[],uint256[],bytes,bool),uint8)":"7abf63a0"}}}}}