{"src/helpers/contracts/MockBaseSilo.sol":{"MockBaseSilo":{"abi":[{"inputs":[{"internalType":"address","name":"siloRepository","type":"address"},{"internalType":"address","name":"siloAsset","type":"address"}],"stateMutability":"nonpayable","type":"constructor"},{"inputs":[{"internalType":"address","name":"_asset","type":"address"}],"name":"assetStorage","outputs":[{"components":[{"internalType":"address","name":"collateralToken","type":"address"},{"internalType":"address","name":"collateralOnlyToken","type":"address"},{"internalType":"address","name":"debtToken","type":"address"},{"internalType":"uint256","name":"totalDeposits","type":"uint256"},{"internalType":"uint256","name":"collateralOnlyDeposits","type":"uint256"},{"internalType":"uint256","name":"totalBorrowAmount","type":"uint256"}],"internalType":"struct IBaseSilo.AssetStorage","name":"","type":"tuple"}],"stateMutability":"view","type":"function"},{"inputs":[{"internalType":"address","name":"_asset","type":"address"}],"name":"interestData","outputs":[{"components":[{"internalType":"uint256","name":"harvestedProtocolFees","type":"uint256"},{"internalType":"uint256","name":"protocolFees","type":"uint256"},{"internalType":"uint64","name":"interestRateTimestamp","type":"uint64"},{"internalType":"enum IBaseSilo.AssetStatus","name":"status","type":"uint8"}],"internalType":"struct IBaseSilo.AssetInterestData","name":"","type":"tuple"}],"stateMutability":"view","type":"function"},{"inputs":[],"name":"maybeRevertMaliciously","outputs":[],"stateMutability":"view","type":"function"},{"inputs":[],"name":"revertType","outputs":[{"internalType":"enum MaliciousQueryReverter.RevertType","name":"","type":"uint8"}],"stateMutability":"view","type":"function"},{"inputs":[{"internalType":"address","name":"interestBearingAsset","type":"address"},{"internalType":"address","name":"collateralToken","type":"address"},{"internalType":"address","name":"collateralOnlyToken","type":"address"},{"internalType":"address","name":"debtToken","type":"address"},{"internalType":"uint256","name":"totalDeposits","type":"uint256"},{"internalType":"uint256","name":"collateralOnlyDeposits","type":"uint256"},{"internalType":"uint256","name":"totalBorrowAmount","type":"uint256"}],"name":"setAssetStorage","outputs":[],"stateMutability":"nonpayable","type":"function"},{"inputs":[{"internalType":"address","name":"interestBearingAsset","type":"address"},{"internalType":"uint256","name":"harvestedProtocolFees","type":"uint256"},{"internalType":"uint256","name":"protocolFees","type":"uint256"},{"internalType":"uint64","name":"interestRateTimestamp","type":"uint64"},{"internalType":"enum IBaseSilo.AssetStatus","name":"status","type":"uint8"}],"name":"setInterestData","outputs":[],"stateMutability":"nonpayable","type":"function"},{"inputs":[{"internalType":"enum MaliciousQueryReverter.RevertType","name":"newRevertType","type":"uint8"}],"name":"setRevertType","outputs":[],"stateMutability":"nonpayable","type":"function"},{"inputs":[],"name":"siloAsset","outputs":[{"internalType":"address","name":"","type":"address"}],"stateMutability":"view","type":"function"},{"inputs":[],"name":"siloRepository","outputs":[{"internalType":"address","name":"","type":"address"}],"stateMutability":"view","type":"function"},{"inputs":[],"name":"spoofJoinExitQueryRevert","outputs":[],"stateMutability":"pure","type":"function"},{"inputs":[],"name":"spoofSwapQueryRevert","outputs":[],"stateMutability":"pure","type":"function"}],"evm":{"bytecode":{"linkReferences":{},"object":"60c06040526000805460ff1916905534801561001a57600080fd5b50604051610b41380380610b4183398101604081905261003991610074565b6001600160601b0319606092831b811660a052911b166080526100a8565b80516001600160a01b038116811461006e57600080fd5b92915050565b60008060408385031215610086578182fd5b6100908484610057565b915061009f8460208501610057565b90509250929050565b60805160601c60a05160601c610a706100d1600039806105ea5250806102f55250610a706000f3fe608060405234801561001057600080fd5b50600436106100c95760003560e01c80637ce3ee4811610081578063bf2730411161005b578063bf27304114610147578063d652e8c614610167578063fb2557031461017c576100c9565b80637ce3ee4814610124578063ace49cd71461012c578063bde127181461013f576100c9565b80632cd10339116100b25780632cd10339146100e05780634521c019146100f3578063686196d014610111576100c9565b8063146d4eee146100ce57806329478cb4146100d8575b600080fd5b6100d661019c565b005b6100d661020c565b6100d66100ee366004610909565b6102a9565b6100fb6102e8565b6040516101089190610928565b60405180910390f35b6100d661011f36600461082b565b610317565b6100d66103f6565b6100d661013a36600461089d565b6104cf565b6100fb6105dd565b61015a610155366004610809565b61060c565b60405161010891906109da565b61016f61069c565b6040516101089190610949565b61018f61018a366004610809565b6106a5565b6040516101089190610994565b60408051600280825260608083018452926020830190803683370190505090506001816000815181106101cb57fe5b6020026020010181815250506002816001815181106101e657fe5b602002602001018181525050602081510263fa61cc126020830352600482036024820181fd5b600160005460ff16600381111561021f57fe5b1415610260576040517f08c379a00000000000000000000000000000000000000000000000000000000081526004016102579061095d565b60405180910390fd5b600260005460ff16600381111561027357fe5b14156102865761028161019c565b6102a7565b600360005460ff16600381111561029957fe5b14156102a7576102a76103f6565b565b600080548291907fffffffffffffffffffffffffffffffffffffffffffffffffffffffffffffff001660018360038111156102e057fe5b021790555050565b60006102f261020c565b507f000000000000000000000000000000000000000000000000000000000000000090565b61031f61020c565b610327610742565b506040805160c08101825273ffffffffffffffffffffffffffffffffffffffff97881681529587166020808801918252958816878301908152606088019586526080880194855260a08801938452988816600090815260019687905291909120955186549088167fffffffffffffffffffffffff0000000000000000000000000000000000000000918216178755905194860180549588169582169590951790945595516002850180549190961693169290921790935591516003820155905160048201559051600590910155565b604080516002808252606080830184529260208301908036833701905050905060018160008151811061042557fe5b60200260200101818152505060028160018151811061044057fe5b60209081029190910181019190915281516101a47fffffffffffffffffffffffffffffffffffffffffffffffffffffffffffffffe084018190526343adbafb7fffffffffffffffffffffffffffffffffffffffffffffffffffffffffffffffc085015291027fffffffffffffffffffffffffffffffffffffffffffffffffffffffffffffffdc83016044820181fd5b6104d761020c565b6104df6107ba565b60405180608001604052808681526020018581526020018467ffffffffffffffff16815260200183600281111561051257fe5b905273ffffffffffffffffffffffffffffffffffffffff8716600090815260026020818152604092839020845181559084015160018201559183015182820180547fffffffffffffffffffffffffffffffffffffffffffffffff00000000000000001667ffffffffffffffff9092169190911780825560608501519495508594927fffffffffffffffffffffffffffffffffffffffffffffff00ffffffffffffffff90911690680100000000000000009084908111156105ce57fe5b02179055505050505050505050565b60006105e761020c565b507f000000000000000000000000000000000000000000000000000000000000000090565b610614610742565b61061c61020c565b610624610742565b505073ffffffffffffffffffffffffffffffffffffffff908116600090815260016020818152604092839020835160c08101855281548616815292810154851691830191909152600281015490931691810191909152600382015460608201526004820154608082015260059091015460a082015290565b60005460ff1681565b6106ad6107ba565b6106b561020c565b73ffffffffffffffffffffffffffffffffffffffff82166000908152600260208181526040928390208351608081018552815481526001820154928101929092528083015467ffffffffffffffff81169483019490945290929091606084019168010000000000000000900460ff169081111561072e57fe5b600281111561073957fe5b90525092915050565b6040518060c00160405280600073ffffffffffffffffffffffffffffffffffffffff168152602001600073ffffffffffffffffffffffffffffffffffffffff168152602001600073ffffffffffffffffffffffffffffffffffffffff1681526020016000815260200160008152602001600081525090565b6040805160808101825260008082526020820181905291810182905290606082015290565b803573ffffffffffffffffffffffffffffffffffffffff8116811461080357600080fd5b92915050565b60006020828403121561081a578081fd5b61082483836107df565b9392505050565b600080600080600080600060e0888a031215610845578283fd5b61084f89896107df565b965061085e8960208a016107df565b955061086d8960408a016107df565b945061087c8960608a016107df565b9699959850939660808101359560a0820135955060c0909101359350915050565b600080600080600060a086880312156108b4578081fd5b6108be87876107df565b94506020860135935060408601359250606086013567ffffffffffffffff811681146108e8578182fd5b91506080860135600381106108fb578182fd5b809150509295509295909350565b60006020828403121561091a578081fd5b813560048110610824578182fd5b73ffffffffffffffffffffffffffffffffffffffff91909116815260200190565b602081016004831061095757fe5b91905290565b60208082526014908201527f4e4f4e5f4d414c4943494f55535f524556455254000000000000000000000000604082015260600190565b6000608082019050825182526020830151602083015267ffffffffffffffff60408401511660408301526060830151600381106109cd57fe5b8060608401525092915050565b600060c08201905073ffffffffffffffffffffffffffffffffffffffff80845116835280602085015116602084015280604085015116604084015250606083015160608301526080830151608083015260a083015160a08301529291505056fea26469706673582212206444a4ae91417154f62cccf6728fdaa97e7b6f9188b9ac89f7e15968603315d964736f6c63430007010033","opcodes":"PUSH1 0xC0 PUSH1 0x40 MSTORE PUSH1 0x0 DUP1 SLOAD PUSH1 0xFF NOT AND SWAP1 SSTORE CALLVALUE DUP1 ISZERO PUSH2 0x1A JUMPI PUSH1 0x0 DUP1 REVERT JUMPDEST POP PUSH1 0x40 MLOAD PUSH2 0xB41 CODESIZE SUB DUP1 PUSH2 0xB41 DUP4 CODECOPY DUP2 ADD PUSH1 0x40 DUP2 SWAP1 MSTORE PUSH2 0x39 SWAP2 PUSH2 0x74 JUMP JUMPDEST PUSH1 0x1 PUSH1 0x1 PUSH1 0x60 SHL SUB NOT PUSH1 0x60 SWAP3 DUP4 SHL DUP2 AND PUSH1 0xA0 MSTORE SWAP2 SHL AND PUSH1 0x80 MSTORE PUSH2 0xA8 JUMP JUMPDEST DUP1 MLOAD PUSH1 0x1 PUSH1 0x1 PUSH1 0xA0 SHL SUB DUP2 AND DUP2 EQ PUSH2 0x6E JUMPI PUSH1 0x0 DUP1 REVERT JUMPDEST SWAP3 SWAP2 POP POP JUMP JUMPDEST PUSH1 0x0 DUP1 PUSH1 0x40 DUP4 DUP6 SUB SLT ISZERO PUSH2 0x86 JUMPI DUP2 DUP3 REVERT JUMPDEST PUSH2 0x90 DUP5 DUP5 PUSH2 0x57 JUMP JUMPDEST SWAP2 POP PUSH2 0x9F DUP5 PUSH1 0x20 DUP6 ADD PUSH2 0x57 JUMP JUMPDEST SWAP1 POP SWAP3 POP SWAP3 SWAP1 POP JUMP JUMPDEST PUSH1 0x80 MLOAD PUSH1 0x60 SHR PUSH1 0xA0 MLOAD PUSH1 0x60 SHR PUSH2 0xA70 PUSH2 0xD1 PUSH1 0x0 CODECOPY DUP1 PUSH2 0x5EA MSTORE POP DUP1 PUSH2 0x2F5 MSTORE POP PUSH2 0xA70 PUSH1 0x0 RETURN INVALID PUSH1 0x80 PUSH1 0x40 MSTORE CALLVALUE DUP1 ISZERO PUSH2 0x10 JUMPI PUSH1 0x0 DUP1 REVERT JUMPDEST POP PUSH1 0x4 CALLDATASIZE LT PUSH2 0xC9 JUMPI PUSH1 0x0 CALLDATALOAD PUSH1 0xE0 SHR DUP1 PUSH4 0x7CE3EE48 GT PUSH2 0x81 JUMPI DUP1 PUSH4 0xBF273041 GT PUSH2 0x5B JUMPI DUP1 PUSH4 0xBF273041 EQ PUSH2 0x147 JUMPI DUP1 PUSH4 0xD652E8C6 EQ PUSH2 0x167 JUMPI DUP1 PUSH4 0xFB255703 EQ PUSH2 0x17C JUMPI PUSH2 0xC9 JUMP JUMPDEST DUP1 PUSH4 0x7CE3EE48 EQ PUSH2 0x124 JUMPI DUP1 PUSH4 0xACE49CD7 EQ PUSH2 0x12C JUMPI DUP1 PUSH4 0xBDE12718 EQ PUSH2 0x13F JUMPI PUSH2 0xC9 JUMP JUMPDEST DUP1 PUSH4 0x2CD10339 GT PUSH2 0xB2 JUMPI DUP1 PUSH4 0x2CD10339 EQ PUSH2 0xE0 JUMPI DUP1 PUSH4 0x4521C019 EQ PUSH2 0xF3 JUMPI DUP1 PUSH4 0x686196D0 EQ PUSH2 0x111 JUMPI PUSH2 0xC9 JUMP JUMPDEST DUP1 PUSH4 0x146D4EEE EQ PUSH2 0xCE JUMPI DUP1 PUSH4 0x29478CB4 EQ PUSH2 0xD8 JUMPI JUMPDEST PUSH1 0x0 DUP1 REVERT JUMPDEST PUSH2 0xD6 PUSH2 0x19C JUMP JUMPDEST STOP JUMPDEST PUSH2 0xD6 PUSH2 0x20C JUMP JUMPDEST PUSH2 0xD6 PUSH2 0xEE CALLDATASIZE PUSH1 0x4 PUSH2 0x909 JUMP JUMPDEST PUSH2 0x2A9 JUMP JUMPDEST PUSH2 0xFB PUSH2 0x2E8 JUMP JUMPDEST PUSH1 0x40 MLOAD PUSH2 0x108 SWAP2 SWAP1 PUSH2 0x928 JUMP JUMPDEST PUSH1 0x40 MLOAD DUP1 SWAP2 SUB SWAP1 RETURN JUMPDEST PUSH2 0xD6 PUSH2 0x11F CALLDATASIZE PUSH1 0x4 PUSH2 0x82B JUMP JUMPDEST PUSH2 0x317 JUMP JUMPDEST PUSH2 0xD6 PUSH2 0x3F6 JUMP JUMPDEST PUSH2 0xD6 PUSH2 0x13A CALLDATASIZE PUSH1 0x4 PUSH2 0x89D JUMP JUMPDEST PUSH2 0x4CF JUMP JUMPDEST PUSH2 0xFB PUSH2 0x5DD JUMP JUMPDEST PUSH2 0x15A PUSH2 0x155 CALLDATASIZE PUSH1 0x4 PUSH2 0x809 JUMP JUMPDEST PUSH2 0x60C JUMP JUMPDEST PUSH1 0x40 MLOAD PUSH2 0x108 SWAP2 SWAP1 PUSH2 0x9DA JUMP JUMPDEST PUSH2 0x16F PUSH2 0x69C JUMP JUMPDEST PUSH1 0x40 MLOAD PUSH2 0x108 SWAP2 SWAP1 PUSH2 0x949 JUMP JUMPDEST PUSH2 0x18F PUSH2 0x18A CALLDATASIZE PUSH1 0x4 PUSH2 0x809 JUMP JUMPDEST PUSH2 0x6A5 JUMP JUMPDEST PUSH1 0x40 MLOAD PUSH2 0x108 SWAP2 SWAP1 PUSH2 0x994 JUMP JUMPDEST PUSH1 0x40 DUP1 MLOAD PUSH1 0x2 DUP1 DUP3 MSTORE PUSH1 0x60 DUP1 DUP4 ADD DUP5 MSTORE SWAP3 PUSH1 0x20 DUP4 ADD SWAP1 DUP1 CALLDATASIZE DUP4 CALLDATACOPY ADD SWAP1 POP POP SWAP1 POP PUSH1 0x1 DUP2 PUSH1 0x0 DUP2 MLOAD DUP2 LT PUSH2 0x1CB JUMPI INVALID JUMPDEST PUSH1 0x20 MUL PUSH1 0x20 ADD ADD DUP2 DUP2 MSTORE POP POP PUSH1 0x2 DUP2 PUSH1 0x1 DUP2 MLOAD DUP2 LT PUSH2 0x1E6 JUMPI INVALID JUMPDEST PUSH1 0x20 MUL PUSH1 0x20 ADD ADD DUP2 DUP2 MSTORE POP POP PUSH1 0x20 DUP2 MLOAD MUL PUSH4 0xFA61CC12 PUSH1 0x20 DUP4 SUB MSTORE PUSH1 0x4 DUP3 SUB PUSH1 0x24 DUP3 ADD DUP2 REVERT JUMPDEST PUSH1 0x1 PUSH1 0x0 SLOAD PUSH1 0xFF AND PUSH1 0x3 DUP2 GT ISZERO PUSH2 0x21F JUMPI INVALID JUMPDEST EQ ISZERO PUSH2 0x260 JUMPI PUSH1 0x40 MLOAD PUSH32 0x8C379A000000000000000000000000000000000000000000000000000000000 DUP2 MSTORE PUSH1 0x4 ADD PUSH2 0x257 SWAP1 PUSH2 0x95D JUMP JUMPDEST PUSH1 0x40 MLOAD DUP1 SWAP2 SUB SWAP1 REVERT JUMPDEST PUSH1 0x2 PUSH1 0x0 SLOAD PUSH1 0xFF AND PUSH1 0x3 DUP2 GT ISZERO PUSH2 0x273 JUMPI INVALID JUMPDEST EQ ISZERO PUSH2 0x286 JUMPI PUSH2 0x281 PUSH2 0x19C JUMP JUMPDEST PUSH2 0x2A7 JUMP JUMPDEST PUSH1 0x3 PUSH1 0x0 SLOAD PUSH1 0xFF AND PUSH1 0x3 DUP2 GT ISZERO PUSH2 0x299 JUMPI INVALID JUMPDEST EQ ISZERO PUSH2 0x2A7 JUMPI PUSH2 0x2A7 PUSH2 0x3F6 JUMP JUMPDEST JUMP JUMPDEST PUSH1 0x0 DUP1 SLOAD DUP3 SWAP2 SWAP1 PUSH32 0xFFFFFFFFFFFFFFFFFFFFFFFFFFFFFFFFFFFFFFFFFFFFFFFFFFFFFFFFFFFFFF00 AND PUSH1 0x1 DUP4 PUSH1 0x3 DUP2 GT ISZERO PUSH2 0x2E0 JUMPI INVALID JUMPDEST MUL OR SWAP1 SSTORE POP POP JUMP JUMPDEST PUSH1 0x0 PUSH2 0x2F2 PUSH2 0x20C JUMP JUMPDEST POP PUSH32 0x0 SWAP1 JUMP JUMPDEST PUSH2 0x31F PUSH2 0x20C JUMP JUMPDEST PUSH2 0x327 PUSH2 0x742 JUMP JUMPDEST POP PUSH1 0x40 DUP1 MLOAD PUSH1 0xC0 DUP2 ADD DUP3 MSTORE PUSH20 0xFFFFFFFFFFFFFFFFFFFFFFFFFFFFFFFFFFFFFFFF SWAP8 DUP9 AND DUP2 MSTORE SWAP6 DUP8 AND PUSH1 0x20 DUP1 DUP9 ADD SWAP2 DUP3 MSTORE SWAP6 DUP9 AND DUP8 DUP4 ADD SWAP1 DUP2 MSTORE PUSH1 0x60 DUP9 ADD SWAP6 DUP7 MSTORE PUSH1 0x80 DUP9 ADD SWAP5 DUP6 MSTORE PUSH1 0xA0 DUP9 ADD SWAP4 DUP5 MSTORE SWAP9 DUP9 AND PUSH1 0x0 SWAP1 DUP2 MSTORE PUSH1 0x1 SWAP7 DUP8 SWAP1 MSTORE SWAP2 SWAP1 SWAP2 KECCAK256 SWAP6 MLOAD DUP7 SLOAD SWAP1 DUP9 AND PUSH32 0xFFFFFFFFFFFFFFFFFFFFFFFF0000000000000000000000000000000000000000 SWAP2 DUP3 AND OR DUP8 SSTORE SWAP1 MLOAD SWAP5 DUP7 ADD DUP1 SLOAD SWAP6 DUP9 AND SWAP6 DUP3 AND SWAP6 SWAP1 SWAP6 OR SWAP1 SWAP5 SSTORE SWAP6 MLOAD PUSH1 0x2 DUP6 ADD DUP1 SLOAD SWAP2 SWAP1 SWAP7 AND SWAP4 AND SWAP3 SWAP1 SWAP3 OR SWAP1 SWAP4 SSTORE SWAP2 MLOAD PUSH1 0x3 DUP3 ADD SSTORE SWAP1 MLOAD PUSH1 0x4 DUP3 ADD SSTORE SWAP1 MLOAD PUSH1 0x5 SWAP1 SWAP2 ADD SSTORE JUMP JUMPDEST PUSH1 0x40 DUP1 MLOAD PUSH1 0x2 DUP1 DUP3 MSTORE PUSH1 0x60 DUP1 DUP4 ADD DUP5 MSTORE SWAP3 PUSH1 0x20 DUP4 ADD SWAP1 DUP1 CALLDATASIZE DUP4 CALLDATACOPY ADD SWAP1 POP POP SWAP1 POP PUSH1 0x1 DUP2 PUSH1 0x0 DUP2 MLOAD DUP2 LT PUSH2 0x425 JUMPI INVALID JUMPDEST PUSH1 0x20 MUL PUSH1 0x20 ADD ADD DUP2 DUP2 MSTORE POP POP PUSH1 0x2 DUP2 PUSH1 0x1 DUP2 MLOAD DUP2 LT PUSH2 0x440 JUMPI INVALID JUMPDEST PUSH1 0x20 SWAP1 DUP2 MUL SWAP2 SWAP1 SWAP2 ADD DUP2 ADD SWAP2 SWAP1 SWAP2 MSTORE DUP2 MLOAD PUSH2 0x1A4 PUSH32 0xFFFFFFFFFFFFFFFFFFFFFFFFFFFFFFFFFFFFFFFFFFFFFFFFFFFFFFFFFFFFFFE0 DUP5 ADD DUP2 SWAP1 MSTORE PUSH4 0x43ADBAFB PUSH32 0xFFFFFFFFFFFFFFFFFFFFFFFFFFFFFFFFFFFFFFFFFFFFFFFFFFFFFFFFFFFFFFC0 DUP6 ADD MSTORE SWAP2 MUL PUSH32 0xFFFFFFFFFFFFFFFFFFFFFFFFFFFFFFFFFFFFFFFFFFFFFFFFFFFFFFFFFFFFFFDC DUP4 ADD PUSH1 0x44 DUP3 ADD DUP2 REVERT JUMPDEST PUSH2 0x4D7 PUSH2 0x20C JUMP JUMPDEST PUSH2 0x4DF PUSH2 0x7BA JUMP JUMPDEST PUSH1 0x40 MLOAD DUP1 PUSH1 0x80 ADD PUSH1 0x40 MSTORE DUP1 DUP7 DUP2 MSTORE PUSH1 0x20 ADD DUP6 DUP2 MSTORE PUSH1 0x20 ADD DUP5 PUSH8 0xFFFFFFFFFFFFFFFF AND DUP2 MSTORE PUSH1 0x20 ADD DUP4 PUSH1 0x2 DUP2 GT ISZERO PUSH2 0x512 JUMPI INVALID JUMPDEST SWAP1 MSTORE PUSH20 0xFFFFFFFFFFFFFFFFFFFFFFFFFFFFFFFFFFFFFFFF DUP8 AND PUSH1 0x0 SWAP1 DUP2 MSTORE PUSH1 0x2 PUSH1 0x20 DUP2 DUP2 MSTORE PUSH1 0x40 SWAP3 DUP4 SWAP1 KECCAK256 DUP5 MLOAD DUP2 SSTORE SWAP1 DUP5 ADD MLOAD PUSH1 0x1 DUP3 ADD SSTORE SWAP2 DUP4 ADD MLOAD DUP3 DUP3 ADD DUP1 SLOAD PUSH32 0xFFFFFFFFFFFFFFFFFFFFFFFFFFFFFFFFFFFFFFFFFFFFFFFF0000000000000000 AND PUSH8 0xFFFFFFFFFFFFFFFF SWAP1 SWAP3 AND SWAP2 SWAP1 SWAP2 OR DUP1 DUP3 SSTORE PUSH1 0x60 DUP6 ADD MLOAD SWAP5 SWAP6 POP DUP6 SWAP5 SWAP3 PUSH32 0xFFFFFFFFFFFFFFFFFFFFFFFFFFFFFFFFFFFFFFFFFFFFFF00FFFFFFFFFFFFFFFF SWAP1 SWAP2 AND SWAP1 PUSH9 0x10000000000000000 SWAP1 DUP5 SWAP1 DUP2 GT ISZERO PUSH2 0x5CE JUMPI INVALID JUMPDEST MUL OR SWAP1 SSTORE POP POP POP POP POP POP POP POP POP JUMP JUMPDEST PUSH1 0x0 PUSH2 0x5E7 PUSH2 0x20C JUMP JUMPDEST POP PUSH32 0x0 SWAP1 JUMP JUMPDEST PUSH2 0x614 PUSH2 0x742 JUMP JUMPDEST PUSH2 0x61C PUSH2 0x20C JUMP JUMPDEST PUSH2 0x624 PUSH2 0x742 JUMP JUMPDEST POP POP PUSH20 0xFFFFFFFFFFFFFFFFFFFFFFFFFFFFFFFFFFFFFFFF SWAP1 DUP2 AND PUSH1 0x0 SWAP1 DUP2 MSTORE PUSH1 0x1 PUSH1 0x20 DUP2 DUP2 MSTORE PUSH1 0x40 SWAP3 DUP4 SWAP1 KECCAK256 DUP4 MLOAD PUSH1 0xC0 DUP2 ADD DUP6 MSTORE DUP2 SLOAD DUP7 AND DUP2 MSTORE SWAP3 DUP2 ADD SLOAD DUP6 AND SWAP2 DUP4 ADD SWAP2 SWAP1 SWAP2 MSTORE PUSH1 0x2 DUP2 ADD SLOAD SWAP1 SWAP4 AND SWAP2 DUP2 ADD SWAP2 SWAP1 SWAP2 MSTORE PUSH1 0x3 DUP3 ADD SLOAD PUSH1 0x60 DUP3 ADD MSTORE PUSH1 0x4 DUP3 ADD SLOAD PUSH1 0x80 DUP3 ADD MSTORE PUSH1 0x5 SWAP1 SWAP2 ADD SLOAD PUSH1 0xA0 DUP3 ADD MSTORE SWAP1 JUMP JUMPDEST PUSH1 0x0 SLOAD PUSH1 0xFF AND DUP2 JUMP JUMPDEST PUSH2 0x6AD PUSH2 0x7BA JUMP JUMPDEST PUSH2 0x6B5 PUSH2 0x20C JUMP JUMPDEST PUSH20 0xFFFFFFFFFFFFFFFFFFFFFFFFFFFFFFFFFFFFFFFF DUP3 AND PUSH1 0x0 SWAP1 DUP2 MSTORE PUSH1 0x2 PUSH1 0x20 DUP2 DUP2 MSTORE PUSH1 0x40 SWAP3 DUP4 SWAP1 KECCAK256 DUP4 MLOAD PUSH1 0x80 DUP2 ADD DUP6 MSTORE DUP2 SLOAD DUP2 MSTORE PUSH1 0x1 DUP3 ADD SLOAD SWAP3 DUP2 ADD SWAP3 SWAP1 SWAP3 MSTORE DUP1 DUP4 ADD SLOAD PUSH8 0xFFFFFFFFFFFFFFFF DUP2 AND SWAP5 DUP4 ADD SWAP5 SWAP1 SWAP5 MSTORE SWAP1 SWAP3 SWAP1 SWAP2 PUSH1 0x60 DUP5 ADD SWAP2 PUSH9 0x10000000000000000 SWAP1 DIV PUSH1 0xFF AND SWAP1 DUP2 GT ISZERO PUSH2 0x72E JUMPI INVALID JUMPDEST PUSH1 0x2 DUP2 GT ISZERO PUSH2 0x739 JUMPI INVALID JUMPDEST SWAP1 MSTORE POP SWAP3 SWAP2 POP POP JUMP JUMPDEST PUSH1 0x40 MLOAD DUP1 PUSH1 0xC0 ADD PUSH1 0x40 MSTORE DUP1 PUSH1 0x0 PUSH20 0xFFFFFFFFFFFFFFFFFFFFFFFFFFFFFFFFFFFFFFFF AND DUP2 MSTORE PUSH1 0x20 ADD PUSH1 0x0 PUSH20 0xFFFFFFFFFFFFFFFFFFFFFFFFFFFFFFFFFFFFFFFF AND DUP2 MSTORE PUSH1 0x20 ADD PUSH1 0x0 PUSH20 0xFFFFFFFFFFFFFFFFFFFFFFFFFFFFFFFFFFFFFFFF AND DUP2 MSTORE PUSH1 0x20 ADD PUSH1 0x0 DUP2 MSTORE PUSH1 0x20 ADD PUSH1 0x0 DUP2 MSTORE PUSH1 0x20 ADD PUSH1 0x0 DUP2 MSTORE POP SWAP1 JUMP JUMPDEST PUSH1 0x40 DUP1 MLOAD PUSH1 0x80 DUP2 ADD DUP3 MSTORE PUSH1 0x0 DUP1 DUP3 MSTORE PUSH1 0x20 DUP3 ADD DUP2 SWAP1 MSTORE SWAP2 DUP2 ADD DUP3 SWAP1 MSTORE SWAP1 PUSH1 0x60 DUP3 ADD MSTORE SWAP1 JUMP JUMPDEST DUP1 CALLDATALOAD PUSH20 0xFFFFFFFFFFFFFFFFFFFFFFFFFFFFFFFFFFFFFFFF DUP2 AND DUP2 EQ PUSH2 0x803 JUMPI PUSH1 0x0 DUP1 REVERT JUMPDEST SWAP3 SWAP2 POP POP JUMP JUMPDEST PUSH1 0x0 PUSH1 0x20 DUP3 DUP5 SUB SLT ISZERO PUSH2 0x81A JUMPI DUP1 DUP2 REVERT JUMPDEST PUSH2 0x824 DUP4 DUP4 PUSH2 0x7DF JUMP JUMPDEST SWAP4 SWAP3 POP POP POP JUMP JUMPDEST PUSH1 0x0 DUP1 PUSH1 0x0 DUP1 PUSH1 0x0 DUP1 PUSH1 0x0 PUSH1 0xE0 DUP9 DUP11 SUB SLT ISZERO PUSH2 0x845 JUMPI DUP3 DUP4 REVERT JUMPDEST PUSH2 0x84F DUP10 DUP10 PUSH2 0x7DF JUMP JUMPDEST SWAP7 POP PUSH2 0x85E DUP10 PUSH1 0x20 DUP11 ADD PUSH2 0x7DF JUMP JUMPDEST SWAP6 POP PUSH2 0x86D DUP10 PUSH1 0x40 DUP11 ADD PUSH2 0x7DF JUMP JUMPDEST SWAP5 POP PUSH2 0x87C DUP10 PUSH1 0x60 DUP11 ADD PUSH2 0x7DF JUMP JUMPDEST SWAP7 SWAP10 SWAP6 SWAP9 POP SWAP4 SWAP7 PUSH1 0x80 DUP2 ADD CALLDATALOAD SWAP6 PUSH1 0xA0 DUP3 ADD CALLDATALOAD SWAP6 POP PUSH1 0xC0 SWAP1 SWAP2 ADD CALLDATALOAD SWAP4 POP SWAP2 POP POP JUMP JUMPDEST PUSH1 0x0 DUP1 PUSH1 0x0 DUP1 PUSH1 0x0 PUSH1 0xA0 DUP7 DUP9 SUB SLT ISZERO PUSH2 0x8B4 JUMPI DUP1 DUP2 REVERT JUMPDEST PUSH2 0x8BE DUP8 DUP8 PUSH2 0x7DF JUMP JUMPDEST SWAP5 POP PUSH1 0x20 DUP7 ADD CALLDATALOAD SWAP4 POP PUSH1 0x40 DUP7 ADD CALLDATALOAD SWAP3 POP PUSH1 0x60 DUP7 ADD CALLDATALOAD PUSH8 0xFFFFFFFFFFFFFFFF DUP2 AND DUP2 EQ PUSH2 0x8E8 JUMPI DUP2 DUP3 REVERT JUMPDEST SWAP2 POP PUSH1 0x80 DUP7 ADD CALLDATALOAD PUSH1 0x3 DUP2 LT PUSH2 0x8FB JUMPI DUP2 DUP3 REVERT JUMPDEST DUP1 SWAP2 POP POP SWAP3 SWAP6 POP SWAP3 SWAP6 SWAP1 SWAP4 POP JUMP JUMPDEST PUSH1 0x0 PUSH1 0x20 DUP3 DUP5 SUB SLT ISZERO PUSH2 0x91A JUMPI DUP1 DUP2 REVERT JUMPDEST DUP2 CALLDATALOAD PUSH1 0x4 DUP2 LT PUSH2 0x824 JUMPI DUP2 DUP3 REVERT JUMPDEST PUSH20 0xFFFFFFFFFFFFFFFFFFFFFFFFFFFFFFFFFFFFFFFF SWAP2 SWAP1 SWAP2 AND DUP2 MSTORE PUSH1 0x20 ADD SWAP1 JUMP JUMPDEST PUSH1 0x20 DUP2 ADD PUSH1 0x4 DUP4 LT PUSH2 0x957 JUMPI INVALID JUMPDEST SWAP2 SWAP1 MSTORE SWAP1 JUMP JUMPDEST PUSH1 0x20 DUP1 DUP3 MSTORE PUSH1 0x14 SWAP1 DUP3 ADD MSTORE PUSH32 0x4E4F4E5F4D414C4943494F55535F524556455254000000000000000000000000 PUSH1 0x40 DUP3 ADD MSTORE PUSH1 0x60 ADD SWAP1 JUMP JUMPDEST PUSH1 0x0 PUSH1 0x80 DUP3 ADD SWAP1 POP DUP3 MLOAD DUP3 MSTORE PUSH1 0x20 DUP4 ADD MLOAD PUSH1 0x20 DUP4 ADD MSTORE PUSH8 0xFFFFFFFFFFFFFFFF PUSH1 0x40 DUP5 ADD MLOAD AND PUSH1 0x40 DUP4 ADD MSTORE PUSH1 0x60 DUP4 ADD MLOAD PUSH1 0x3 DUP2 LT PUSH2 0x9CD JUMPI INVALID JUMPDEST DUP1 PUSH1 0x60 DUP5 ADD MSTORE POP SWAP3 SWAP2 POP POP JUMP JUMPDEST PUSH1 0x0 PUSH1 0xC0 DUP3 ADD SWAP1 POP PUSH20 0xFFFFFFFFFFFFFFFFFFFFFFFFFFFFFFFFFFFFFFFF DUP1 DUP5 MLOAD AND DUP4 MSTORE DUP1 PUSH1 0x20 DUP6 ADD MLOAD AND PUSH1 0x20 DUP5 ADD MSTORE DUP1 PUSH1 0x40 DUP6 ADD MLOAD AND PUSH1 0x40 DUP5 ADD MSTORE POP PUSH1 0x60 DUP4 ADD MLOAD PUSH1 0x60 DUP4 ADD MSTORE PUSH1 0x80 DUP4 ADD MLOAD PUSH1 0x80 DUP4 ADD MSTORE PUSH1 0xA0 DUP4 ADD MLOAD PUSH1 0xA0 DUP4 ADD MSTORE SWAP3 SWAP2 POP POP JUMP INVALID LOG2 PUSH5 0x6970667358 0x22 SLT KECCAK256 PUSH5 0x44A4AE9141 PUSH18 0x54F62CCCF6728FDAA97E7B6F9188B9AC89F7 0xE1 MSIZE PUSH9 0x603315D964736F6C63 NUMBER STOP SMOD ADD STOP CALLER "},"methodIdentifiers":{"assetStorage(address)":"bf273041","interestData(address)":"fb255703","maybeRevertMaliciously()":"29478cb4","revertType()":"d652e8c6","setAssetStorage(address,address,address,address,uint256,uint256,uint256)":"686196d0","setInterestData(address,uint256,uint256,uint64,uint8)":"ace49cd7","setRevertType(uint8)":"2cd10339","siloAsset()":"4521c019","siloRepository()":"bde12718","spoofJoinExitQueryRevert()":"7ce3ee48","spoofSwapQueryRevert()":"146d4eee"}}}}}