{"src/helpers/contracts/MockSilo.sol":{"MockSilo":{"abi":[{"inputs":[{"internalType":"address","name":"_siloRepository","type":"address"},{"internalType":"address","name":"_siloAsset","type":"address"}],"stateMutability":"nonpayable","type":"constructor"},{"inputs":[{"internalType":"address","name":"_asset","type":"address"}],"name":"assetStorage","outputs":[{"components":[{"internalType":"address","name":"collateralToken","type":"address"},{"internalType":"address","name":"collateralOnlyToken","type":"address"},{"internalType":"address","name":"debtToken","type":"address"},{"internalType":"uint256","name":"totalDeposits","type":"uint256"},{"internalType":"uint256","name":"collateralOnlyDeposits","type":"uint256"},{"internalType":"uint256","name":"totalBorrowAmount","type":"uint256"}],"internalType":"struct IBaseSilo.AssetStorage","name":"","type":"tuple"}],"stateMutability":"view","type":"function"},{"inputs":[{"internalType":"address","name":"","type":"address"},{"internalType":"uint256","name":"","type":"uint256"},{"internalType":"bool","name":"","type":"bool"}],"name":"deposit","outputs":[{"internalType":"uint256","name":"collateralAmount","type":"uint256"},{"internalType":"uint256","name":"collateralShare","type":"uint256"}],"stateMutability":"pure","type":"function"},{"inputs":[{"internalType":"address","name":"_asset","type":"address"}],"name":"interestData","outputs":[{"components":[{"internalType":"uint256","name":"harvestedProtocolFees","type":"uint256"},{"internalType":"uint256","name":"protocolFees","type":"uint256"},{"internalType":"uint64","name":"interestRateTimestamp","type":"uint64"},{"internalType":"enum IBaseSilo.AssetStatus","name":"status","type":"uint8"}],"internalType":"struct IBaseSilo.AssetInterestData","name":"","type":"tuple"}],"stateMutability":"view","type":"function"},{"inputs":[],"name":"maybeRevertMaliciously","outputs":[],"stateMutability":"view","type":"function"},{"inputs":[],"name":"revertType","outputs":[{"internalType":"enum MaliciousQueryReverter.RevertType","name":"","type":"uint8"}],"stateMutability":"view","type":"function"},{"inputs":[{"internalType":"address","name":"interestBearingAsset","type":"address"},{"internalType":"address","name":"collateralToken","type":"address"},{"internalType":"address","name":"collateralOnlyToken","type":"address"},{"internalType":"address","name":"debtToken","type":"address"},{"internalType":"uint256","name":"totalDeposits","type":"uint256"},{"internalType":"uint256","name":"collateralOnlyDeposits","type":"uint256"},{"internalType":"uint256","name":"totalBorrowAmount","type":"uint256"}],"name":"setAssetStorage","outputs":[],"stateMutability":"nonpayable","type":"function"},{"inputs":[{"internalType":"address","name":"interestBearingAsset","type":"address"},{"internalType":"uint256","name":"harvestedProtocolFees","type":"uint256"},{"internalType":"uint256","name":"protocolFees","type":"uint256"},{"internalType":"uint64","name":"interestRateTimestamp","type":"uint64"},{"internalType":"enum IBaseSilo.AssetStatus","name":"status","type":"uint8"}],"name":"setInterestData","outputs":[],"stateMutability":"nonpayable","type":"function"},{"inputs":[{"internalType":"enum MaliciousQueryReverter.RevertType","name":"newRevertType","type":"uint8"}],"name":"setRevertType","outputs":[],"stateMutability":"nonpayable","type":"function"},{"inputs":[],"name":"siloAsset","outputs":[{"internalType":"address","name":"","type":"address"}],"stateMutability":"view","type":"function"},{"inputs":[],"name":"siloRepository","outputs":[{"internalType":"address","name":"","type":"address"}],"stateMutability":"view","type":"function"},{"inputs":[],"name":"spoofJoinExitQueryRevert","outputs":[],"stateMutability":"pure","type":"function"},{"inputs":[],"name":"spoofSwapQueryRevert","outputs":[],"stateMutability":"pure","type":"function"},{"inputs":[{"internalType":"address","name":"","type":"address"},{"internalType":"uint256","name":"","type":"uint256"},{"internalType":"bool","name":"","type":"bool"}],"name":"withdraw","outputs":[{"internalType":"uint256","name":"withdrawnAmount","type":"uint256"},{"internalType":"uint256","name":"withdrawnShare","type":"uint256"}],"stateMutability":"pure","type":"function"}],"evm":{"bytecode":{"linkReferences":{},"object":"60c06040526000805460ff1916905534801561001a57600080fd5b50604051610bd5380380610bd583398101604081905261003991610074565b6001600160601b0319606092831b811660a052911b166080526100a8565b80516001600160a01b038116811461006e57600080fd5b92915050565b60008060408385031215610086578182fd5b6100908484610057565b915061009f8460208501610057565b90509250929050565b60805160601c60a05160601c610b046100d16000398061062c5250806103375250610b046000f3fe608060405234801561001057600080fd5b50600436106100df5760003560e01c80637ce3ee481161008c578063bf27304111610066578063bf2730411461017e578063d652e8c61461019e578063ead5d35914610109578063fb255703146101b3576100df565b80637ce3ee481461015b578063ace49cd714610163578063bde1271814610176576100df565b80633edd1128116100bd5780633edd1128146101095780634521c01914610133578063686196d014610148576100df565b8063146d4eee146100e457806329478cb4146100ee5780632cd10339146100f6575b600080fd5b6100ec6101d3565b005b6100ec610243565b6100ec61010436600461098f565b6102e0565b61011c6101173660046108df565b61031f565b60405161012a929190610ac0565b60405180910390f35b61013b61032a565b60405161012a91906109ae565b6100ec61015636600461086d565b610359565b6100ec610438565b6100ec610171366004610923565b610511565b61013b61061f565b61019161018c36600461084b565b61064e565b60405161012a9190610a60565b6101a66106de565b60405161012a91906109cf565b6101c66101c136600461084b565b6106e7565b60405161012a9190610a1a565b604080516002808252606080830184529260208301908036833701905050905060018160008151811061020257fe5b60200260200101818152505060028160018151811061021d57fe5b602002602001018181525050602081510263fa61cc126020830352600482036024820181fd5b600160005460ff16600381111561025657fe5b1415610297576040517f08c379a000000000000000000000000000000000000000000000000000000000815260040161028e906109e3565b60405180910390fd5b600260005460ff1660038111156102aa57fe5b14156102bd576102b86101d3565b6102de565b600360005460ff1660038111156102d057fe5b14156102de576102de610438565b565b600080548291907fffffffffffffffffffffffffffffffffffffffffffffffffffffffffffffff0016600183600381111561031757fe5b021790555050565b600080935093915050565b6000610334610243565b507f000000000000000000000000000000000000000000000000000000000000000090565b610361610243565b610369610784565b506040805160c08101825273ffffffffffffffffffffffffffffffffffffffff97881681529587166020808801918252958816878301908152606088019586526080880194855260a08801938452988816600090815260019687905291909120955186549088167fffffffffffffffffffffffff0000000000000000000000000000000000000000918216178755905194860180549588169582169590951790945595516002850180549190961693169290921790935591516003820155905160048201559051600590910155565b604080516002808252606080830184529260208301908036833701905050905060018160008151811061046757fe5b60200260200101818152505060028160018151811061048257fe5b60209081029190910181019190915281516101a47fffffffffffffffffffffffffffffffffffffffffffffffffffffffffffffffe084018190526343adbafb7fffffffffffffffffffffffffffffffffffffffffffffffffffffffffffffffc085015291027fffffffffffffffffffffffffffffffffffffffffffffffffffffffffffffffdc83016044820181fd5b610519610243565b6105216107fc565b60405180608001604052808681526020018581526020018467ffffffffffffffff16815260200183600281111561055457fe5b905273ffffffffffffffffffffffffffffffffffffffff8716600090815260026020818152604092839020845181559084015160018201559183015182820180547fffffffffffffffffffffffffffffffffffffffffffffffff00000000000000001667ffffffffffffffff9092169190911780825560608501519495508594927fffffffffffffffffffffffffffffffffffffffffffffff00ffffffffffffffff909116906801000000000000000090849081111561061057fe5b02179055505050505050505050565b6000610629610243565b507f000000000000000000000000000000000000000000000000000000000000000090565b610656610784565b61065e610243565b610666610784565b505073ffffffffffffffffffffffffffffffffffffffff908116600090815260016020818152604092839020835160c08101855281548616815292810154851691830191909152600281015490931691810191909152600382015460608201526004820154608082015260059091015460a082015290565b60005460ff1681565b6106ef6107fc565b6106f7610243565b73ffffffffffffffffffffffffffffffffffffffff82166000908152600260208181526040928390208351608081018552815481526001820154928101929092528083015467ffffffffffffffff81169483019490945290929091606084019168010000000000000000900460ff169081111561077057fe5b600281111561077b57fe5b90525092915050565b6040518060c00160405280600073ffffffffffffffffffffffffffffffffffffffff168152602001600073ffffffffffffffffffffffffffffffffffffffff168152602001600073ffffffffffffffffffffffffffffffffffffffff1681526020016000815260200160008152602001600081525090565b6040805160808101825260008082526020820181905291810182905290606082015290565b803573ffffffffffffffffffffffffffffffffffffffff8116811461084557600080fd5b92915050565b60006020828403121561085c578081fd5b6108668383610821565b9392505050565b600080600080600080600060e0888a031215610887578283fd5b6108918989610821565b96506108a08960208a01610821565b95506108af8960408a01610821565b94506108be8960608a01610821565b9699959850939660808101359560a0820135955060c0909101359350915050565b6000806000606084860312156108f3578283fd5b6108fd8585610821565b92506020840135915060408401358015158114610918578182fd5b809150509250925092565b600080600080600060a0868803121561093a578081fd5b6109448787610821565b94506020860135935060408601359250606086013567ffffffffffffffff8116811461096e578182fd5b9150608086013560038110610981578182fd5b809150509295509295909350565b6000602082840312156109a0578081fd5b813560048110610866578182fd5b73ffffffffffffffffffffffffffffffffffffffff91909116815260200190565b60208101600483106109dd57fe5b91905290565b60208082526014908201527f4e4f4e5f4d414c4943494f55535f524556455254000000000000000000000000604082015260600190565b6000608082019050825182526020830151602083015267ffffffffffffffff6040840151166040830152606083015160038110610a5357fe5b8060608401525092915050565b600060c08201905073ffffffffffffffffffffffffffffffffffffffff80845116835280602085015116602084015280604085015116604084015250606083015160608301526080830151608083015260a083015160a083015292915050565b91825260208201526040019056fea2646970667358221220e62337ba493c09a2582d38c4abe9971e00fc67741b449f45168d026d68e6487764736f6c63430007010033","opcodes":"PUSH1 0xC0 PUSH1 0x40 MSTORE PUSH1 0x0 DUP1 SLOAD PUSH1 0xFF NOT AND SWAP1 SSTORE CALLVALUE DUP1 ISZERO PUSH2 0x1A JUMPI PUSH1 0x0 DUP1 REVERT JUMPDEST POP PUSH1 0x40 MLOAD PUSH2 0xBD5 CODESIZE SUB DUP1 PUSH2 0xBD5 DUP4 CODECOPY DUP2 ADD PUSH1 0x40 DUP2 SWAP1 MSTORE PUSH2 0x39 SWAP2 PUSH2 0x74 JUMP JUMPDEST PUSH1 0x1 PUSH1 0x1 PUSH1 0x60 SHL SUB NOT PUSH1 0x60 SWAP3 DUP4 SHL DUP2 AND PUSH1 0xA0 MSTORE SWAP2 SHL AND PUSH1 0x80 MSTORE PUSH2 0xA8 JUMP JUMPDEST DUP1 MLOAD PUSH1 0x1 PUSH1 0x1 PUSH1 0xA0 SHL SUB DUP2 AND DUP2 EQ PUSH2 0x6E JUMPI PUSH1 0x0 DUP1 REVERT JUMPDEST SWAP3 SWAP2 POP POP JUMP JUMPDEST PUSH1 0x0 DUP1 PUSH1 0x40 DUP4 DUP6 SUB SLT ISZERO PUSH2 0x86 JUMPI DUP2 DUP3 REVERT JUMPDEST PUSH2 0x90 DUP5 DUP5 PUSH2 0x57 JUMP JUMPDEST SWAP2 POP PUSH2 0x9F DUP5 PUSH1 0x20 DUP6 ADD PUSH2 0x57 JUMP JUMPDEST SWAP1 POP SWAP3 POP SWAP3 SWAP1 POP JUMP JUMPDEST PUSH1 0x80 MLOAD PUSH1 0x60 SHR PUSH1 0xA0 MLOAD PUSH1 0x60 SHR PUSH2 0xB04 PUSH2 0xD1 PUSH1 0x0 CODECOPY DUP1 PUSH2 0x62C MSTORE POP DUP1 PUSH2 0x337 MSTORE POP PUSH2 0xB04 PUSH1 0x0 RETURN INVALID PUSH1 0x80 PUSH1 0x40 MSTORE CALLVALUE DUP1 ISZERO PUSH2 0x10 JUMPI PUSH1 0x0 DUP1 REVERT JUMPDEST POP PUSH1 0x4 CALLDATASIZE LT PUSH2 0xDF JUMPI PUSH1 0x0 CALLDATALOAD PUSH1 0xE0 SHR DUP1 PUSH4 0x7CE3EE48 GT PUSH2 0x8C JUMPI DUP1 PUSH4 0xBF273041 GT PUSH2 0x66 JUMPI DUP1 PUSH4 0xBF273041 EQ PUSH2 0x17E JUMPI DUP1 PUSH4 0xD652E8C6 EQ PUSH2 0x19E JUMPI DUP1 PUSH4 0xEAD5D359 EQ PUSH2 0x109 JUMPI DUP1 PUSH4 0xFB255703 EQ PUSH2 0x1B3 JUMPI PUSH2 0xDF JUMP JUMPDEST DUP1 PUSH4 0x7CE3EE48 EQ PUSH2 0x15B JUMPI DUP1 PUSH4 0xACE49CD7 EQ PUSH2 0x163 JUMPI DUP1 PUSH4 0xBDE12718 EQ PUSH2 0x176 JUMPI PUSH2 0xDF JUMP JUMPDEST DUP1 PUSH4 0x3EDD1128 GT PUSH2 0xBD JUMPI DUP1 PUSH4 0x3EDD1128 EQ PUSH2 0x109 JUMPI DUP1 PUSH4 0x4521C019 EQ PUSH2 0x133 JUMPI DUP1 PUSH4 0x686196D0 EQ PUSH2 0x148 JUMPI PUSH2 0xDF JUMP JUMPDEST DUP1 PUSH4 0x146D4EEE EQ PUSH2 0xE4 JUMPI DUP1 PUSH4 0x29478CB4 EQ PUSH2 0xEE JUMPI DUP1 PUSH4 0x2CD10339 EQ PUSH2 0xF6 JUMPI JUMPDEST PUSH1 0x0 DUP1 REVERT JUMPDEST PUSH2 0xEC PUSH2 0x1D3 JUMP JUMPDEST STOP JUMPDEST PUSH2 0xEC PUSH2 0x243 JUMP JUMPDEST PUSH2 0xEC PUSH2 0x104 CALLDATASIZE PUSH1 0x4 PUSH2 0x98F JUMP JUMPDEST PUSH2 0x2E0 JUMP JUMPDEST PUSH2 0x11C PUSH2 0x117 CALLDATASIZE PUSH1 0x4 PUSH2 0x8DF JUMP JUMPDEST PUSH2 0x31F JUMP JUMPDEST PUSH1 0x40 MLOAD PUSH2 0x12A SWAP3 SWAP2 SWAP1 PUSH2 0xAC0 JUMP JUMPDEST PUSH1 0x40 MLOAD DUP1 SWAP2 SUB SWAP1 RETURN JUMPDEST PUSH2 0x13B PUSH2 0x32A JUMP JUMPDEST PUSH1 0x40 MLOAD PUSH2 0x12A SWAP2 SWAP1 PUSH2 0x9AE JUMP JUMPDEST PUSH2 0xEC PUSH2 0x156 CALLDATASIZE PUSH1 0x4 PUSH2 0x86D JUMP JUMPDEST PUSH2 0x359 JUMP JUMPDEST PUSH2 0xEC PUSH2 0x438 JUMP JUMPDEST PUSH2 0xEC PUSH2 0x171 CALLDATASIZE PUSH1 0x4 PUSH2 0x923 JUMP JUMPDEST PUSH2 0x511 JUMP JUMPDEST PUSH2 0x13B PUSH2 0x61F JUMP JUMPDEST PUSH2 0x191 PUSH2 0x18C CALLDATASIZE PUSH1 0x4 PUSH2 0x84B JUMP JUMPDEST PUSH2 0x64E JUMP JUMPDEST PUSH1 0x40 MLOAD PUSH2 0x12A SWAP2 SWAP1 PUSH2 0xA60 JUMP JUMPDEST PUSH2 0x1A6 PUSH2 0x6DE JUMP JUMPDEST PUSH1 0x40 MLOAD PUSH2 0x12A SWAP2 SWAP1 PUSH2 0x9CF JUMP JUMPDEST PUSH2 0x1C6 PUSH2 0x1C1 CALLDATASIZE PUSH1 0x4 PUSH2 0x84B JUMP JUMPDEST PUSH2 0x6E7 JUMP JUMPDEST PUSH1 0x40 MLOAD PUSH2 0x12A SWAP2 SWAP1 PUSH2 0xA1A JUMP JUMPDEST PUSH1 0x40 DUP1 MLOAD PUSH1 0x2 DUP1 DUP3 MSTORE PUSH1 0x60 DUP1 DUP4 ADD DUP5 MSTORE SWAP3 PUSH1 0x20 DUP4 ADD SWAP1 DUP1 CALLDATASIZE DUP4 CALLDATACOPY ADD SWAP1 POP POP SWAP1 POP PUSH1 0x1 DUP2 PUSH1 0x0 DUP2 MLOAD DUP2 LT PUSH2 0x202 JUMPI INVALID JUMPDEST PUSH1 0x20 MUL PUSH1 0x20 ADD ADD DUP2 DUP2 MSTORE POP POP PUSH1 0x2 DUP2 PUSH1 0x1 DUP2 MLOAD DUP2 LT PUSH2 0x21D JUMPI INVALID JUMPDEST PUSH1 0x20 MUL PUSH1 0x20 ADD ADD DUP2 DUP2 MSTORE POP POP PUSH1 0x20 DUP2 MLOAD MUL PUSH4 0xFA61CC12 PUSH1 0x20 DUP4 SUB MSTORE PUSH1 0x4 DUP3 SUB PUSH1 0x24 DUP3 ADD DUP2 REVERT JUMPDEST PUSH1 0x1 PUSH1 0x0 SLOAD PUSH1 0xFF AND PUSH1 0x3 DUP2 GT ISZERO PUSH2 0x256 JUMPI INVALID JUMPDEST EQ ISZERO PUSH2 0x297 JUMPI PUSH1 0x40 MLOAD PUSH32 0x8C379A000000000000000000000000000000000000000000000000000000000 DUP2 MSTORE PUSH1 0x4 ADD PUSH2 0x28E SWAP1 PUSH2 0x9E3 JUMP JUMPDEST PUSH1 0x40 MLOAD DUP1 SWAP2 SUB SWAP1 REVERT JUMPDEST PUSH1 0x2 PUSH1 0x0 SLOAD PUSH1 0xFF AND PUSH1 0x3 DUP2 GT ISZERO PUSH2 0x2AA JUMPI INVALID JUMPDEST EQ ISZERO PUSH2 0x2BD JUMPI PUSH2 0x2B8 PUSH2 0x1D3 JUMP JUMPDEST PUSH2 0x2DE JUMP JUMPDEST PUSH1 0x3 PUSH1 0x0 SLOAD PUSH1 0xFF AND PUSH1 0x3 DUP2 GT ISZERO PUSH2 0x2D0 JUMPI INVALID JUMPDEST EQ ISZERO PUSH2 0x2DE JUMPI PUSH2 0x2DE PUSH2 0x438 JUMP JUMPDEST JUMP JUMPDEST PUSH1 0x0 DUP1 SLOAD DUP3 SWAP2 SWAP1 PUSH32 0xFFFFFFFFFFFFFFFFFFFFFFFFFFFFFFFFFFFFFFFFFFFFFFFFFFFFFFFFFFFFFF00 AND PUSH1 0x1 DUP4 PUSH1 0x3 DUP2 GT ISZERO PUSH2 0x317 JUMPI INVALID JUMPDEST MUL OR SWAP1 SSTORE POP POP JUMP JUMPDEST PUSH1 0x0 DUP1 SWAP4 POP SWAP4 SWAP2 POP POP JUMP JUMPDEST PUSH1 0x0 PUSH2 0x334 PUSH2 0x243 JUMP JUMPDEST POP PUSH32 0x0 SWAP1 JUMP JUMPDEST PUSH2 0x361 PUSH2 0x243 JUMP JUMPDEST PUSH2 0x369 PUSH2 0x784 JUMP JUMPDEST POP PUSH1 0x40 DUP1 MLOAD PUSH1 0xC0 DUP2 ADD DUP3 MSTORE PUSH20 0xFFFFFFFFFFFFFFFFFFFFFFFFFFFFFFFFFFFFFFFF SWAP8 DUP9 AND DUP2 MSTORE SWAP6 DUP8 AND PUSH1 0x20 DUP1 DUP9 ADD SWAP2 DUP3 MSTORE SWAP6 DUP9 AND DUP8 DUP4 ADD SWAP1 DUP2 MSTORE PUSH1 0x60 DUP9 ADD SWAP6 DUP7 MSTORE PUSH1 0x80 DUP9 ADD SWAP5 DUP6 MSTORE PUSH1 0xA0 DUP9 ADD SWAP4 DUP5 MSTORE SWAP9 DUP9 AND PUSH1 0x0 SWAP1 DUP2 MSTORE PUSH1 0x1 SWAP7 DUP8 SWAP1 MSTORE SWAP2 SWAP1 SWAP2 KECCAK256 SWAP6 MLOAD DUP7 SLOAD SWAP1 DUP9 AND PUSH32 0xFFFFFFFFFFFFFFFFFFFFFFFF0000000000000000000000000000000000000000 SWAP2 DUP3 AND OR DUP8 SSTORE SWAP1 MLOAD SWAP5 DUP7 ADD DUP1 SLOAD SWAP6 DUP9 AND SWAP6 DUP3 AND SWAP6 SWAP1 SWAP6 OR SWAP1 SWAP5 SSTORE SWAP6 MLOAD PUSH1 0x2 DUP6 ADD DUP1 SLOAD SWAP2 SWAP1 SWAP7 AND SWAP4 AND SWAP3 SWAP1 SWAP3 OR SWAP1 SWAP4 SSTORE SWAP2 MLOAD PUSH1 0x3 DUP3 ADD SSTORE SWAP1 MLOAD PUSH1 0x4 DUP3 ADD SSTORE SWAP1 MLOAD PUSH1 0x5 SWAP1 SWAP2 ADD SSTORE JUMP JUMPDEST PUSH1 0x40 DUP1 MLOAD PUSH1 0x2 DUP1 DUP3 MSTORE PUSH1 0x60 DUP1 DUP4 ADD DUP5 MSTORE SWAP3 PUSH1 0x20 DUP4 ADD SWAP1 DUP1 CALLDATASIZE DUP4 CALLDATACOPY ADD SWAP1 POP POP SWAP1 POP PUSH1 0x1 DUP2 PUSH1 0x0 DUP2 MLOAD DUP2 LT PUSH2 0x467 JUMPI INVALID JUMPDEST PUSH1 0x20 MUL PUSH1 0x20 ADD ADD DUP2 DUP2 MSTORE POP POP PUSH1 0x2 DUP2 PUSH1 0x1 DUP2 MLOAD DUP2 LT PUSH2 0x482 JUMPI INVALID JUMPDEST PUSH1 0x20 SWAP1 DUP2 MUL SWAP2 SWAP1 SWAP2 ADD DUP2 ADD SWAP2 SWAP1 SWAP2 MSTORE DUP2 MLOAD PUSH2 0x1A4 PUSH32 0xFFFFFFFFFFFFFFFFFFFFFFFFFFFFFFFFFFFFFFFFFFFFFFFFFFFFFFFFFFFFFFE0 DUP5 ADD DUP2 SWAP1 MSTORE PUSH4 0x43ADBAFB PUSH32 0xFFFFFFFFFFFFFFFFFFFFFFFFFFFFFFFFFFFFFFFFFFFFFFFFFFFFFFFFFFFFFFC0 DUP6 ADD MSTORE SWAP2 MUL PUSH32 0xFFFFFFFFFFFFFFFFFFFFFFFFFFFFFFFFFFFFFFFFFFFFFFFFFFFFFFFFFFFFFFDC DUP4 ADD PUSH1 0x44 DUP3 ADD DUP2 REVERT JUMPDEST PUSH2 0x519 PUSH2 0x243 JUMP JUMPDEST PUSH2 0x521 PUSH2 0x7FC JUMP JUMPDEST PUSH1 0x40 MLOAD DUP1 PUSH1 0x80 ADD PUSH1 0x40 MSTORE DUP1 DUP7 DUP2 MSTORE PUSH1 0x20 ADD DUP6 DUP2 MSTORE PUSH1 0x20 ADD DUP5 PUSH8 0xFFFFFFFFFFFFFFFF AND DUP2 MSTORE PUSH1 0x20 ADD DUP4 PUSH1 0x2 DUP2 GT ISZERO PUSH2 0x554 JUMPI INVALID JUMPDEST SWAP1 MSTORE PUSH20 0xFFFFFFFFFFFFFFFFFFFFFFFFFFFFFFFFFFFFFFFF DUP8 AND PUSH1 0x0 SWAP1 DUP2 MSTORE PUSH1 0x2 PUSH1 0x20 DUP2 DUP2 MSTORE PUSH1 0x40 SWAP3 DUP4 SWAP1 KECCAK256 DUP5 MLOAD DUP2 SSTORE SWAP1 DUP5 ADD MLOAD PUSH1 0x1 DUP3 ADD SSTORE SWAP2 DUP4 ADD MLOAD DUP3 DUP3 ADD DUP1 SLOAD PUSH32 0xFFFFFFFFFFFFFFFFFFFFFFFFFFFFFFFFFFFFFFFFFFFFFFFF0000000000000000 AND PUSH8 0xFFFFFFFFFFFFFFFF SWAP1 SWAP3 AND SWAP2 SWAP1 SWAP2 OR DUP1 DUP3 SSTORE PUSH1 0x60 DUP6 ADD MLOAD SWAP5 SWAP6 POP DUP6 SWAP5 SWAP3 PUSH32 0xFFFFFFFFFFFFFFFFFFFFFFFFFFFFFFFFFFFFFFFFFFFFFF00FFFFFFFFFFFFFFFF SWAP1 SWAP2 AND SWAP1 PUSH9 0x10000000000000000 SWAP1 DUP5 SWAP1 DUP2 GT ISZERO PUSH2 0x610 JUMPI INVALID JUMPDEST MUL OR SWAP1 SSTORE POP POP POP POP POP POP POP POP POP JUMP JUMPDEST PUSH1 0x0 PUSH2 0x629 PUSH2 0x243 JUMP JUMPDEST POP PUSH32 0x0 SWAP1 JUMP JUMPDEST PUSH2 0x656 PUSH2 0x784 JUMP JUMPDEST PUSH2 0x65E PUSH2 0x243 JUMP JUMPDEST PUSH2 0x666 PUSH2 0x784 JUMP JUMPDEST POP POP PUSH20 0xFFFFFFFFFFFFFFFFFFFFFFFFFFFFFFFFFFFFFFFF SWAP1 DUP2 AND PUSH1 0x0 SWAP1 DUP2 MSTORE PUSH1 0x1 PUSH1 0x20 DUP2 DUP2 MSTORE PUSH1 0x40 SWAP3 DUP4 SWAP1 KECCAK256 DUP4 MLOAD PUSH1 0xC0 DUP2 ADD DUP6 MSTORE DUP2 SLOAD DUP7 AND DUP2 MSTORE SWAP3 DUP2 ADD SLOAD DUP6 AND SWAP2 DUP4 ADD SWAP2 SWAP1 SWAP2 MSTORE PUSH1 0x2 DUP2 ADD SLOAD SWAP1 SWAP4 AND SWAP2 DUP2 ADD SWAP2 SWAP1 SWAP2 MSTORE PUSH1 0x3 DUP3 ADD SLOAD PUSH1 0x60 DUP3 ADD MSTORE PUSH1 0x4 DUP3 ADD SLOAD PUSH1 0x80 DUP3 ADD MSTORE PUSH1 0x5 SWAP1 SWAP2 ADD SLOAD PUSH1 0xA0 DUP3 ADD MSTORE SWAP1 JUMP JUMPDEST PUSH1 0x0 SLOAD PUSH1 0xFF AND DUP2 JUMP JUMPDEST PUSH2 0x6EF PUSH2 0x7FC JUMP JUMPDEST PUSH2 0x6F7 PUSH2 0x243 JUMP JUMPDEST PUSH20 0xFFFFFFFFFFFFFFFFFFFFFFFFFFFFFFFFFFFFFFFF DUP3 AND PUSH1 0x0 SWAP1 DUP2 MSTORE PUSH1 0x2 PUSH1 0x20 DUP2 DUP2 MSTORE PUSH1 0x40 SWAP3 DUP4 SWAP1 KECCAK256 DUP4 MLOAD PUSH1 0x80 DUP2 ADD DUP6 MSTORE DUP2 SLOAD DUP2 MSTORE PUSH1 0x1 DUP3 ADD SLOAD SWAP3 DUP2 ADD SWAP3 SWAP1 SWAP3 MSTORE DUP1 DUP4 ADD SLOAD PUSH8 0xFFFFFFFFFFFFFFFF DUP2 AND SWAP5 DUP4 ADD SWAP5 SWAP1 SWAP5 MSTORE SWAP1 SWAP3 SWAP1 SWAP2 PUSH1 0x60 DUP5 ADD SWAP2 PUSH9 0x10000000000000000 SWAP1 DIV PUSH1 0xFF AND SWAP1 DUP2 GT ISZERO PUSH2 0x770 JUMPI INVALID JUMPDEST PUSH1 0x2 DUP2 GT ISZERO PUSH2 0x77B JUMPI INVALID JUMPDEST SWAP1 MSTORE POP SWAP3 SWAP2 POP POP JUMP JUMPDEST PUSH1 0x40 MLOAD DUP1 PUSH1 0xC0 ADD PUSH1 0x40 MSTORE DUP1 PUSH1 0x0 PUSH20 0xFFFFFFFFFFFFFFFFFFFFFFFFFFFFFFFFFFFFFFFF AND DUP2 MSTORE PUSH1 0x20 ADD PUSH1 0x0 PUSH20 0xFFFFFFFFFFFFFFFFFFFFFFFFFFFFFFFFFFFFFFFF AND DUP2 MSTORE PUSH1 0x20 ADD PUSH1 0x0 PUSH20 0xFFFFFFFFFFFFFFFFFFFFFFFFFFFFFFFFFFFFFFFF AND DUP2 MSTORE PUSH1 0x20 ADD PUSH1 0x0 DUP2 MSTORE PUSH1 0x20 ADD PUSH1 0x0 DUP2 MSTORE PUSH1 0x20 ADD PUSH1 0x0 DUP2 MSTORE POP SWAP1 JUMP JUMPDEST PUSH1 0x40 DUP1 MLOAD PUSH1 0x80 DUP2 ADD DUP3 MSTORE PUSH1 0x0 DUP1 DUP3 MSTORE PUSH1 0x20 DUP3 ADD DUP2 SWAP1 MSTORE SWAP2 DUP2 ADD DUP3 SWAP1 MSTORE SWAP1 PUSH1 0x60 DUP3 ADD MSTORE SWAP1 JUMP JUMPDEST DUP1 CALLDATALOAD PUSH20 0xFFFFFFFFFFFFFFFFFFFFFFFFFFFFFFFFFFFFFFFF DUP2 AND DUP2 EQ PUSH2 0x845 JUMPI PUSH1 0x0 DUP1 REVERT JUMPDEST SWAP3 SWAP2 POP POP JUMP JUMPDEST PUSH1 0x0 PUSH1 0x20 DUP3 DUP5 SUB SLT ISZERO PUSH2 0x85C JUMPI DUP1 DUP2 REVERT JUMPDEST PUSH2 0x866 DUP4 DUP4 PUSH2 0x821 JUMP JUMPDEST SWAP4 SWAP3 POP POP POP JUMP JUMPDEST PUSH1 0x0 DUP1 PUSH1 0x0 DUP1 PUSH1 0x0 DUP1 PUSH1 0x0 PUSH1 0xE0 DUP9 DUP11 SUB SLT ISZERO PUSH2 0x887 JUMPI DUP3 DUP4 REVERT JUMPDEST PUSH2 0x891 DUP10 DUP10 PUSH2 0x821 JUMP JUMPDEST SWAP7 POP PUSH2 0x8A0 DUP10 PUSH1 0x20 DUP11 ADD PUSH2 0x821 JUMP JUMPDEST SWAP6 POP PUSH2 0x8AF DUP10 PUSH1 0x40 DUP11 ADD PUSH2 0x821 JUMP JUMPDEST SWAP5 POP PUSH2 0x8BE DUP10 PUSH1 0x60 DUP11 ADD PUSH2 0x821 JUMP JUMPDEST SWAP7 SWAP10 SWAP6 SWAP9 POP SWAP4 SWAP7 PUSH1 0x80 DUP2 ADD CALLDATALOAD SWAP6 PUSH1 0xA0 DUP3 ADD CALLDATALOAD SWAP6 POP PUSH1 0xC0 SWAP1 SWAP2 ADD CALLDATALOAD SWAP4 POP SWAP2 POP POP JUMP JUMPDEST PUSH1 0x0 DUP1 PUSH1 0x0 PUSH1 0x60 DUP5 DUP7 SUB SLT ISZERO PUSH2 0x8F3 JUMPI DUP3 DUP4 REVERT JUMPDEST PUSH2 0x8FD DUP6 DUP6 PUSH2 0x821 JUMP JUMPDEST SWAP3 POP PUSH1 0x20 DUP5 ADD CALLDATALOAD SWAP2 POP PUSH1 0x40 DUP5 ADD CALLDATALOAD DUP1 ISZERO ISZERO DUP2 EQ PUSH2 0x918 JUMPI DUP2 DUP3 REVERT JUMPDEST DUP1 SWAP2 POP POP SWAP3 POP SWAP3 POP SWAP3 JUMP JUMPDEST PUSH1 0x0 DUP1 PUSH1 0x0 DUP1 PUSH1 0x0 PUSH1 0xA0 DUP7 DUP9 SUB SLT ISZERO PUSH2 0x93A JUMPI DUP1 DUP2 REVERT JUMPDEST PUSH2 0x944 DUP8 DUP8 PUSH2 0x821 JUMP JUMPDEST SWAP5 POP PUSH1 0x20 DUP7 ADD CALLDATALOAD SWAP4 POP PUSH1 0x40 DUP7 ADD CALLDATALOAD SWAP3 POP PUSH1 0x60 DUP7 ADD CALLDATALOAD PUSH8 0xFFFFFFFFFFFFFFFF DUP2 AND DUP2 EQ PUSH2 0x96E JUMPI DUP2 DUP3 REVERT JUMPDEST SWAP2 POP PUSH1 0x80 DUP7 ADD CALLDATALOAD PUSH1 0x3 DUP2 LT PUSH2 0x981 JUMPI DUP2 DUP3 REVERT JUMPDEST DUP1 SWAP2 POP POP SWAP3 SWAP6 POP SWAP3 SWAP6 SWAP1 SWAP4 POP JUMP JUMPDEST PUSH1 0x0 PUSH1 0x20 DUP3 DUP5 SUB SLT ISZERO PUSH2 0x9A0 JUMPI DUP1 DUP2 REVERT JUMPDEST DUP2 CALLDATALOAD PUSH1 0x4 DUP2 LT PUSH2 0x866 JUMPI DUP2 DUP3 REVERT JUMPDEST PUSH20 0xFFFFFFFFFFFFFFFFFFFFFFFFFFFFFFFFFFFFFFFF SWAP2 SWAP1 SWAP2 AND DUP2 MSTORE PUSH1 0x20 ADD SWAP1 JUMP JUMPDEST PUSH1 0x20 DUP2 ADD PUSH1 0x4 DUP4 LT PUSH2 0x9DD JUMPI INVALID JUMPDEST SWAP2 SWAP1 MSTORE SWAP1 JUMP JUMPDEST PUSH1 0x20 DUP1 DUP3 MSTORE PUSH1 0x14 SWAP1 DUP3 ADD MSTORE PUSH32 0x4E4F4E5F4D414C4943494F55535F524556455254000000000000000000000000 PUSH1 0x40 DUP3 ADD MSTORE PUSH1 0x60 ADD SWAP1 JUMP JUMPDEST PUSH1 0x0 PUSH1 0x80 DUP3 ADD SWAP1 POP DUP3 MLOAD DUP3 MSTORE PUSH1 0x20 DUP4 ADD MLOAD PUSH1 0x20 DUP4 ADD MSTORE PUSH8 0xFFFFFFFFFFFFFFFF PUSH1 0x40 DUP5 ADD MLOAD AND PUSH1 0x40 DUP4 ADD MSTORE PUSH1 0x60 DUP4 ADD MLOAD PUSH1 0x3 DUP2 LT PUSH2 0xA53 JUMPI INVALID JUMPDEST DUP1 PUSH1 0x60 DUP5 ADD MSTORE POP SWAP3 SWAP2 POP POP JUMP JUMPDEST PUSH1 0x0 PUSH1 0xC0 DUP3 ADD SWAP1 POP PUSH20 0xFFFFFFFFFFFFFFFFFFFFFFFFFFFFFFFFFFFFFFFF DUP1 DUP5 MLOAD AND DUP4 MSTORE DUP1 PUSH1 0x20 DUP6 ADD MLOAD AND PUSH1 0x20 DUP5 ADD MSTORE DUP1 PUSH1 0x40 DUP6 ADD MLOAD AND PUSH1 0x40 DUP5 ADD MSTORE POP PUSH1 0x60 DUP4 ADD MLOAD PUSH1 0x60 DUP4 ADD MSTORE PUSH1 0x80 DUP4 ADD MLOAD PUSH1 0x80 DUP4 ADD MSTORE PUSH1 0xA0 DUP4 ADD MLOAD PUSH1 0xA0 DUP4 ADD MSTORE SWAP3 SWAP2 POP POP JUMP JUMPDEST SWAP2 DUP3 MSTORE PUSH1 0x20 DUP3 ADD MSTORE PUSH1 0x40 ADD SWAP1 JUMP INVALID LOG2 PUSH5 0x6970667358 0x22 SLT KECCAK256 0xE6 0x23 CALLDATACOPY 0xBA 0x49 EXTCODECOPY MULMOD LOG2 PC 0x2D CODESIZE 0xC4 0xAB 0xE9 SWAP8 0x1E STOP 0xFC PUSH8 0x741B449F45168D02 PUSH14 0x68E6487764736F6C634300070100 CALLER "},"methodIdentifiers":{"assetStorage(address)":"bf273041","deposit(address,uint256,bool)":"3edd1128","interestData(address)":"fb255703","maybeRevertMaliciously()":"29478cb4","revertType()":"d652e8c6","setAssetStorage(address,address,address,address,uint256,uint256,uint256)":"686196d0","setInterestData(address,uint256,uint256,uint64,uint8)":"ace49cd7","setRevertType(uint8)":"2cd10339","siloAsset()":"4521c019","siloRepository()":"bde12718","spoofJoinExitQueryRevert()":"7ce3ee48","spoofSwapQueryRevert()":"146d4eee","withdraw(address,uint256,bool)":"ead5d359"}}}}}