{"src/helpers/contracts/MockERC4626Token.sol":{"MockERC4626Token":{"abi":[{"inputs":[{"internalType":"string","name":"name","type":"string"},{"internalType":"string","name":"symbol","type":"string"},{"internalType":"uint8","name":"decimals","type":"uint8"},{"internalType":"address","name":"asset","type":"address"}],"stateMutability":"nonpayable","type":"constructor"},{"anonymous":false,"inputs":[{"indexed":true,"internalType":"address","name":"owner","type":"address"},{"indexed":true,"internalType":"address","name":"spender","type":"address"},{"indexed":false,"internalType":"uint256","name":"value","type":"uint256"}],"name":"Approval","type":"event"},{"anonymous":false,"inputs":[{"indexed":true,"internalType":"address","name":"from","type":"address"},{"indexed":true,"internalType":"address","name":"to","type":"address"},{"indexed":false,"internalType":"uint256","name":"value","type":"uint256"}],"name":"Transfer","type":"event"},{"inputs":[],"name":"DOMAIN_SEPARATOR","outputs":[{"internalType":"bytes32","name":"","type":"bytes32"}],"stateMutability":"view","type":"function"},{"inputs":[{"internalType":"address","name":"owner","type":"address"},{"internalType":"address","name":"spender","type":"address"}],"name":"allowance","outputs":[{"internalType":"uint256","name":"","type":"uint256"}],"stateMutability":"view","type":"function"},{"inputs":[{"internalType":"address","name":"spender","type":"address"},{"internalType":"uint256","name":"amount","type":"uint256"}],"name":"approve","outputs":[{"internalType":"bool","name":"","type":"bool"}],"stateMutability":"nonpayable","type":"function"},{"inputs":[],"name":"asset","outputs":[{"internalType":"address","name":"","type":"address"}],"stateMutability":"view","type":"function"},{"inputs":[{"internalType":"address","name":"account","type":"address"}],"name":"balanceOf","outputs":[{"internalType":"uint256","name":"","type":"uint256"}],"stateMutability":"view","type":"function"},{"inputs":[{"internalType":"uint256","name":"amount","type":"uint256"}],"name":"burn","outputs":[],"stateMutability":"nonpayable","type":"function"},{"inputs":[{"internalType":"address","name":"account","type":"address"},{"internalType":"uint256","name":"amount","type":"uint256"}],"name":"burnFrom","outputs":[],"stateMutability":"nonpayable","type":"function"},{"inputs":[{"internalType":"address","name":"sender","type":"address"},{"internalType":"uint256","name":"amount","type":"uint256"}],"name":"burnWithoutAllowance","outputs":[],"stateMutability":"nonpayable","type":"function"},{"inputs":[{"internalType":"uint256","name":"shares","type":"uint256"}],"name":"convertToAssets","outputs":[{"internalType":"uint256","name":"","type":"uint256"}],"stateMutability":"view","type":"function"},{"inputs":[{"internalType":"uint256","name":"assets","type":"uint256"}],"name":"convertToShares","outputs":[{"internalType":"uint256","name":"","type":"uint256"}],"stateMutability":"view","type":"function"},{"inputs":[],"name":"decimals","outputs":[{"internalType":"uint8","name":"","type":"uint8"}],"stateMutability":"view","type":"function"},{"inputs":[{"internalType":"address","name":"spender","type":"address"},{"internalType":"uint256","name":"subtractedValue","type":"uint256"}],"name":"decreaseAllowance","outputs":[{"internalType":"bool","name":"","type":"bool"}],"stateMutability":"nonpayable","type":"function"},{"inputs":[{"internalType":"uint256","name":"assets","type":"uint256"},{"internalType":"address","name":"receiver","type":"address"}],"name":"deposit","outputs":[{"internalType":"uint256","name":"","type":"uint256"}],"stateMutability":"nonpayable","type":"function"},{"inputs":[],"name":"getDomainSeparator","outputs":[{"internalType":"bytes32","name":"","type":"bytes32"}],"stateMutability":"view","type":"function"},{"inputs":[{"internalType":"address","name":"account","type":"address"}],"name":"getNextNonce","outputs":[{"internalType":"uint256","name":"","type":"uint256"}],"stateMutability":"view","type":"function"},{"inputs":[{"internalType":"address","name":"spender","type":"address"},{"internalType":"uint256","name":"addedValue","type":"uint256"}],"name":"increaseAllowance","outputs":[{"internalType":"bool","name":"","type":"bool"}],"stateMutability":"nonpayable","type":"function"},{"inputs":[],"name":"maybeRevertMaliciously","outputs":[],"stateMutability":"view","type":"function"},{"inputs":[{"internalType":"address","name":"recipient","type":"address"},{"internalType":"uint256","name":"amount","type":"uint256"}],"name":"mint","outputs":[],"stateMutability":"nonpayable","type":"function"},{"inputs":[],"name":"name","outputs":[{"internalType":"string","name":"","type":"string"}],"stateMutability":"view","type":"function"},{"inputs":[{"internalType":"address","name":"owner","type":"address"}],"name":"nonces","outputs":[{"internalType":"uint256","name":"","type":"uint256"}],"stateMutability":"view","type":"function"},{"inputs":[{"internalType":"address","name":"owner","type":"address"},{"internalType":"address","name":"spender","type":"address"},{"internalType":"uint256","name":"value","type":"uint256"},{"internalType":"uint256","name":"deadline","type":"uint256"},{"internalType":"uint8","name":"v","type":"uint8"},{"internalType":"bytes32","name":"r","type":"bytes32"},{"internalType":"bytes32","name":"s","type":"bytes32"}],"name":"permit","outputs":[],"stateMutability":"nonpayable","type":"function"},{"inputs":[{"internalType":"uint256","name":"shares","type":"uint256"}],"name":"previewMint","outputs":[{"internalType":"uint256","name":"","type":"uint256"}],"stateMutability":"view","type":"function"},{"inputs":[{"internalType":"uint256","name":"shares","type":"uint256"},{"internalType":"address","name":"","type":"address"},{"internalType":"address","name":"owner","type":"address"}],"name":"redeem","outputs":[{"internalType":"uint256","name":"","type":"uint256"}],"stateMutability":"nonpayable","type":"function"},{"inputs":[],"name":"revertType","outputs":[{"internalType":"enum MaliciousQueryReverter.RevertType","name":"","type":"uint8"}],"stateMutability":"view","type":"function"},{"inputs":[{"internalType":"uint256","name":"newRate","type":"uint256"}],"name":"setRate","outputs":[],"stateMutability":"nonpayable","type":"function"},{"inputs":[{"internalType":"enum MaliciousQueryReverter.RevertType","name":"newRevertType","type":"uint8"}],"name":"setRevertType","outputs":[],"stateMutability":"nonpayable","type":"function"},{"inputs":[],"name":"spoofJoinExitQueryRevert","outputs":[],"stateMutability":"pure","type":"function"},{"inputs":[],"name":"spoofSwapQueryRevert","outputs":[],"stateMutability":"pure","type":"function"},{"inputs":[],"name":"symbol","outputs":[{"internalType":"string","name":"","type":"string"}],"stateMutability":"view","type":"function"},{"inputs":[],"name":"totalAssets","outputs":[{"internalType":"uint256","name":"","type":"uint256"}],"stateMutability":"view","type":"function"},{"inputs":[],"name":"totalSupply","outputs":[{"internalType":"uint256","name":"","type":"uint256"}],"stateMutability":"view","type":"function"},{"inputs":[{"internalType":"address","name":"recipient","type":"address"},{"internalType":"uint256","name":"amount","type":"uint256"}],"name":"transfer","outputs":[{"internalType":"bool","name":"","type":"bool"}],"stateMutability":"nonpayable","type":"function"},{"inputs":[{"internalType":"address","name":"sender","type":"address"},{"internalType":"address","name":"recipient","type":"address"},{"internalType":"uint256","name":"amount","type":"uint256"}],"name":"transferFrom","outputs":[{"internalType":"bool","name":"","type":"bool"}],"stateMutability":"nonpayable","type":"function"}],"evm":{"bytecode":{"linkReferences":{},"object":"6101006040526007805460ff19169055670de0b6b3a76400006008553480156200002857600080fd5b5060405162001cb238038062001cb2833981810160405260808110156200004e57600080fd5b81019080805160405193929190846401000000008211156200006f57600080fd5b9083019060208201858111156200008557600080fd5b8251640100000000811182820188101715620000a057600080fd5b82525081516020918201929091019080838360005b83811015620000cf578181015183820152602001620000b5565b50505050905090810190601f168015620000fd5780820380516001836020036101000a031916815260200191505b50604052602001805160405193929190846401000000008211156200012157600080fd5b9083019060208201858111156200013757600080fd5b82516401000000008111828201881017156200015257600080fd5b82525081516020918201929091019080838360005b838110156200018157818101518382015260200162000167565b50505050905090810190601f168015620001af5780820380516001836020036101000a031916815260200191505b5060408181526020838101519382015183830190925260018352603160f81b818401528751939550909350869286928692859283929183918791620001fa9160039185019062000418565b5080516200021090600490602084019062000418565b50506005805460ff19166012179055508151602092830120608052805191012060a052507f8b73c3c69bb8fe3d512ecc4cf759cc79239f7b179b0ffacaa9a75d522b39400f60c05262000263816200035f565b505050806001600160a01b031660e0816001600160a01b031660601b815250506000816001600160a01b031663313ce5676040518163ffffffff1660e01b815260040160206040518083038186803b158015620002bf57600080fd5b505afa158015620002d4573d6000803e3d6000fd5b505050506040513d6020811015620002eb57600080fd5b505160ff16905060006200030d60128362000375602090811b62000f1517901c565b905080600a0a670de0b6b3a76400000260098190555060006200034060128660ff166200037560201b62000f151760201c565b670de0b6b3a7640000600a91820a02905550620004b495505050505050565b6005805460ff191660ff92909216919091179055565b6000620003878383111560016200038d565b50900390565b816200039e576200039e81620003a2565b5050565b620003b4816210905360ea1b620003b7565b50565b62461bcd60e51b600090815260206004526007602452600a808404818106603090810160081b958390069590950190829004918206850160101b01602363ffffff0060e086901c160160181b0190930160c81b60445260e882901c90606490fd5b828054600181600116156101000203166002900490600052602060002090601f016020900481019282601f106200045b57805160ff19168380011785556200048b565b828001600101855582156200048b579182015b828111156200048b5782518255916020019190600101906200046e565b50620004999291506200049d565b5090565b5b808211156200049957600081556001016200049e565b60805160a05160c05160e05160601c6117c5620004ed60003980610a7b52508061149b5250806114dd5250806114bc52506117c56000f3fe608060405234801561001057600080fd5b506004361061020b5760003560e01c80636e553f651161012a578063a457c2d7116100bd578063c6e6f5921161008c578063d652e8c611610071578063d652e8c614610730578063dd62ed3e14610759578063ed24911d146107945761020b565b8063c6e6f592146106b5578063d505accf146106d25761020b565b8063a457c2d7146105e5578063a9059cbb1461061e578063b3d7f6b914610657578063ba087652146106745761020b565b80637ce3ee48116100f95780637ce3ee481461056f5780637ecebe001461057757806390193b7c146105aa57806395d89b41146105dd5761020b565b80636e553f651461049157806370a08231146104ca57806379cc6790146104fd5780637c602bc2146105365761020b565b80632cd10339116101a257806338d52e0f1161017157806338d52e0f146103d1578063395093511461040257806340c10f191461043b57806342966c68146104745761020b565b80632cd103391461036e578063313ce5671461038e57806334fcf437146103ac5780633644e515146103c95761020b565b8063146d4eee116101de578063146d4eee1461031157806318160ddd1461031b57806323b872dd1461032357806329478cb4146103665761020b565b806301e1d1141461021057806306fdde031461022a57806307a2d13a146102a7578063095ea7b3146102c4575b600080fd5b61021861079c565b60408051918252519081900360200190f35b6102326107a2565b6040805160208082528351818301528351919283929083019185019080838360005b8381101561026c578181015183820152602001610254565b50505050905090810190601f1680156102995780820380516001836020036101000a031916815260200191505b509250505060405180910390f35b610218600480360360208110156102bd57600080fd5b5035610856565b6102fd600480360360408110156102da57600080fd5b5073ffffffffffffffffffffffffffffffffffffffff8135169060200135610867565b604080519115158252519081900360200190f35b61031961087d565b005b6102186108ed565b6102fd6004803603606081101561033957600080fd5b5073ffffffffffffffffffffffffffffffffffffffff8135811691602081013590911690604001356108f3565b610319610954565b6103196004803603602081101561038457600080fd5b503560ff16610a1d565b610396610a5c565b6040805160ff9092168252519081900360200190f35b610319600480360360208110156103c257600080fd5b5035610a65565b610218610a6a565b6103d9610a79565b6040805173ffffffffffffffffffffffffffffffffffffffff9092168252519081900360200190f35b6102fd6004803603604081101561041857600080fd5b5073ffffffffffffffffffffffffffffffffffffffff8135169060200135610a9d565b6103196004803603604081101561045157600080fd5b5073ffffffffffffffffffffffffffffffffffffffff8135169060200135610ae0565b6103196004803603602081101561048a57600080fd5b5035610aee565b610218600480360360408110156104a757600080fd5b508035906020013573ffffffffffffffffffffffffffffffffffffffff16610afb565b610218600480360360208110156104e057600080fd5b503573ffffffffffffffffffffffffffffffffffffffff16610b2a565b6103196004803603604081101561051357600080fd5b5073ffffffffffffffffffffffffffffffffffffffff8135169060200135610b52565b6103196004803603604081101561054c57600080fd5b5073ffffffffffffffffffffffffffffffffffffffff8135169060200135610b88565b610319610b92565b6102186004803603602081101561058d57600080fd5b503573ffffffffffffffffffffffffffffffffffffffff16610c6b565b610218600480360360208110156105c057600080fd5b503573ffffffffffffffffffffffffffffffffffffffff16610c72565b610232610c9a565b6102fd600480360360408110156105fb57600080fd5b5073ffffffffffffffffffffffffffffffffffffffff8135169060200135610d19565b6102fd6004803603604081101561063457600080fd5b5073ffffffffffffffffffffffffffffffffffffffff8135169060200135610d5f565b6102186004803603602081101561066d57600080fd5b5035610d6c565b6102186004803603606081101561068a57600080fd5b5080359073ffffffffffffffffffffffffffffffffffffffff60208201358116916040013516610dba565b610218600480360360208110156106cb57600080fd5b5035610dea565b610319600480360360e08110156106e857600080fd5b5073ffffffffffffffffffffffffffffffffffffffff813581169160208101359091169060408101359060608101359060ff6080820135169060a08101359060c00135610df5565b610738610eca565b6040518082600381111561074857fe5b815260200191505060405180910390f35b6102186004803603604081101561076f57600080fd5b5073ffffffffffffffffffffffffffffffffffffffff81358116916020013516610ed3565b610218610f0b565b600b5490565b60038054604080516020601f60027fffffffffffffffffffffffffffffffffffffffffffffffffffffffffffffffff61010060018816150201909516949094049384018190048102820181019092528281526060939092909183018282801561084c5780601f106108215761010080835404028352916020019161084c565b820191906000526020600020905b81548152906001019060200180831161082f57829003601f168201915b5050505050905090565b600061086182610f2b565b92915050565b6000610874338484610f71565b50600192915050565b60408051600280825260608083018452926020830190803683370190505090506001816000815181106108ac57fe5b6020026020010181815250506002816001815181106108c757fe5b602002602001018181525050602081510263fa61cc126020830352600482036024820181fd5b60025490565b6000610900848484610fe0565b73ffffffffffffffffffffffffffffffffffffffff841660009081526001602090815260408083203380855292529091205461094a918691610945908661019e611109565b610f71565b5060019392505050565b600160075460ff16600381111561096757fe5b14156109d457604080517f08c379a000000000000000000000000000000000000000000000000000000000815260206004820152601460248201527f4e4f4e5f4d414c4943494f55535f524556455254000000000000000000000000604482015290519081900360640190fd5b600260075460ff1660038111156109e757fe5b14156109fa576109f561087d565b610a1b565b600360075460ff166003811115610a0d57fe5b1415610a1b57610a1b610b92565b565b600780548291907fffffffffffffffffffffffffffffffffffffffffffffffffffffffffffffff00166001836003811115610a5457fe5b021790555050565b60055460ff1690565b600855565b6000610a74610f0b565b905090565b7f000000000000000000000000000000000000000000000000000000000000000090565b33600081815260016020908152604080832073ffffffffffffffffffffffffffffffffffffffff871684529091528120549091610874918590610945908661111f565b610aea8282611138565b5050565b610af833826111f1565b50565b600080610b07846112e1565b9050610b138382611138565b600b54610b20908561111f565b600b559392505050565b73ffffffffffffffffffffffffffffffffffffffff1660009081526020819052604090205490565b6000610b6c826101a1610b658633610ed3565b9190611109565b9050610b79833383610f71565b610b8383836111f1565b505050565b610aea82826111f1565b6040805160028082526060808301845292602083019080368337019050509050600181600081518110610bc157fe5b602002602001018181525050600281600181518110610bdc57fe5b60209081029190910181019190915281516101a47fffffffffffffffffffffffffffffffffffffffffffffffffffffffffffffffe084018190526343adbafb7fffffffffffffffffffffffffffffffffffffffffffffffffffffffffffffffc085015291027fffffffffffffffffffffffffffffffffffffffffffffffffffffffffffffffdc83016044820181fd5b6000610861825b73ffffffffffffffffffffffffffffffffffffffff1660009081526006602052604090205490565b60048054604080516020601f60027fffffffffffffffffffffffffffffffffffffffffffffffffffffffffffffffff61010060018816150201909516949094049384018190048102820181019092528281526060939092909183018282801561084c5780601f106108215761010080835404028352916020019161084c565b33600081815260016020908152604080832073ffffffffffffffffffffffffffffffffffffffff871684529091528120549091610874918590610945908661019f611109565b6000610874338484610fe0565b6000610d76610954565b6000610d8d6008548461132190919063ffffffff16565b90506000610db2600954610dac600a548561137490919063ffffffff16565b906113a7565b949350505050565b600080610dc685610f2b565b9050610dd283866111f1565b600b54610ddf9082610f15565b600b55949350505050565b6000610861826112e1565b60007f6e71edae12b1b97f4d1f60370fef10105fa2faae0126114a169c64845d6126c9888888610e248c610c72565b89604051602001808781526020018673ffffffffffffffffffffffffffffffffffffffff1681526020018573ffffffffffffffffffffffffffffffffffffffff1681526020018481526020018381526020018281526020019650505050505050604051602081830303815290604052805190602001209050610eb58882610eac8787876113f4565b886101f8611433565b610ec0888888610f71565b5050505050505050565b60075460ff1681565b73ffffffffffffffffffffffffffffffffffffffff918216600090815260016020908152604080832093909416825291909152205490565b6000610a74611497565b6000610f25838311156001611562565b50900390565b6000610f35610954565b6000610f4c6008548461137490919063ffffffff16565b90506000610db2600954610f6b600a548561137490919063ffffffff16565b90611321565b73ffffffffffffffffffffffffffffffffffffffff808416600081815260016020908152604080832094871680845294825291829020859055815185815291517f8c5be1e5ebec7d5bd14f71427d1e84f3dd0314c0f7b2291e5b200ac8c7c3b9259281900390910190a3505050565b61100473ffffffffffffffffffffffffffffffffffffffff84161515610198611562565b61102873ffffffffffffffffffffffffffffffffffffffff83161515610199611562565b611033838383610b83565b73ffffffffffffffffffffffffffffffffffffffff831660009081526020819052604090205461106690826101a0611109565b73ffffffffffffffffffffffffffffffffffffffff80851660009081526020819052604080822093909355908416815220546110a2908261111f565b73ffffffffffffffffffffffffffffffffffffffff8084166000818152602081815260409182902094909455805185815290519193928716927fddf252ad1be2c89b69c2b068fc378daa952ba7f163c4a11628f55a4df523b3ef92918290030190a3505050565b60006111188484111583611562565b5050900390565b60008282016111318482101583611562565b9392505050565b61114460008383610b83565b61115e611159826111536108ed565b9061111f565b611570565b73ffffffffffffffffffffffffffffffffffffffff821660009081526020819052604090205461118e908261111f565b73ffffffffffffffffffffffffffffffffffffffff83166000818152602081815260408083209490945583518581529351929391927fddf252ad1be2c89b69c2b068fc378daa952ba7f163c4a11628f55a4df523b3ef9281900390910190a35050565b61121573ffffffffffffffffffffffffffffffffffffffff8316151561019b611562565b61122182600083610b83565b73ffffffffffffffffffffffffffffffffffffffff821660009081526020819052604090205461125490826101b2611109565b73ffffffffffffffffffffffffffffffffffffffff831660009081526020819052604090205561128f611159826112896108ed565b90611575565b60408051828152905160009173ffffffffffffffffffffffffffffffffffffffff8516917fddf252ad1be2c89b69c2b068fc378daa952ba7f163c4a11628f55a4df523b3ef9181900360200190a35050565b60006112eb610954565b60006113026008548461132190919063ffffffff16565b90506000610db2600a54610f6b6009548561137490919063ffffffff16565b60006113308215156004611562565b670de0b6b3a7640000830261136284158061135b5750670de0b6b3a764000085838161135857fe5b04145b6005611562565b82818161136b57fe5b04949350505050565b600082820261139884158061139157508385838161138e57fe5b04145b6003611562565b670de0b6b3a76400008161136b565b60006113b68215156004611562565b670de0b6b3a764000083026113de84158061135b5750670de0b6b3a764000085838161135857fe5b6001836001830304018115150291505092915050565b60408051604180825260808201909252606091829190602082018180368337019050509050836020820152826040820152846060820153949350505050565b600061143e85611583565b905061145461144e8783876115ea565b83611562565b611463428410156101b8611562565b50505073ffffffffffffffffffffffffffffffffffffffff9092166000908152600660205260409020805460010190555050565b60007f00000000000000000000000000000000000000000000000000000000000000007f00000000000000000000000000000000000000000000000000000000000000007f00000000000000000000000000000000000000000000000000000000000000006115046116fc565b30604051602001808681526020018581526020018481526020018381526020018273ffffffffffffffffffffffffffffffffffffffff1681526020019550505050505060405160208183030381529060405280519060200120905090565b81610aea57610aea81611700565b600255565b600061113183836001611109565b600061158d611497565b8260405160200180807f190100000000000000000000000000000000000000000000000000000000000081525060020183815260200182815260200192505050604051602081830303815290604052805190602001209050919050565b60006115fc82516041146101b9611562565b60008060006020850151925060408501519150606085015160001a9050600060018783868660405160008152602001604052604051808581526020018460ff1681526020018381526020018281526020019450505050506020604051602081039080840390855afa158015611675573d6000803e3d6000fd5b50506040517fffffffffffffffffffffffffffffffffffffffffffffffffffffffffffffffe0015191505073ffffffffffffffffffffffffffffffffffffffff8116158015906116f057508773ffffffffffffffffffffffffffffffffffffffff168173ffffffffffffffffffffffffffffffffffffffff16145b98975050505050505050565b4690565b7f08c379a000000000000000000000000000000000000000000000000000000000600090815260206004526007602452600a808304818106603090810160081b83860601918390049283060160101b016642414c230000300160c81b604452610af8917f42414c0000000000000000000000000000000000000000000000000000000000906242414c90606490fdfea2646970667358221220e5238e88c5f085862aea30d725f4957df29e46b0a72d43176f09cdcc561e88c064736f6c63430007010033","opcodes":"PUSH2 0x100 PUSH1 0x40 MSTORE PUSH1 0x7 DUP1 SLOAD PUSH1 0xFF NOT AND SWAP1 SSTORE PUSH8 0xDE0B6B3A7640000 PUSH1 0x8 SSTORE CALLVALUE DUP1 ISZERO PUSH3 0x28 JUMPI PUSH1 0x0 DUP1 REVERT JUMPDEST POP PUSH1 0x40 MLOAD PUSH3 0x1CB2 CODESIZE SUB DUP1 PUSH3 0x1CB2 DUP4 CODECOPY DUP2 DUP2 ADD PUSH1 0x40 MSTORE PUSH1 0x80 DUP2 LT ISZERO PUSH3 0x4E JUMPI PUSH1 0x0 DUP1 REVERT JUMPDEST DUP2 ADD SWAP1 DUP1 DUP1 MLOAD PUSH1 0x40 MLOAD SWAP4 SWAP3 SWAP2 SWAP1 DUP5 PUSH5 0x100000000 DUP3 GT ISZERO PUSH3 0x6F JUMPI PUSH1 0x0 DUP1 REVERT JUMPDEST SWAP1 DUP4 ADD SWAP1 PUSH1 0x20 DUP3 ADD DUP6 DUP2 GT ISZERO PUSH3 0x85 JUMPI PUSH1 0x0 DUP1 REVERT JUMPDEST DUP3 MLOAD PUSH5 0x100000000 DUP2 GT DUP3 DUP3 ADD DUP9 LT OR ISZERO PUSH3 0xA0 JUMPI PUSH1 0x0 DUP1 REVERT JUMPDEST DUP3 MSTORE POP DUP2 MLOAD PUSH1 0x20 SWAP2 DUP3 ADD SWAP3 SWAP1 SWAP2 ADD SWAP1 DUP1 DUP4 DUP4 PUSH1 0x0 JUMPDEST DUP4 DUP2 LT ISZERO PUSH3 0xCF JUMPI DUP2 DUP2 ADD MLOAD DUP4 DUP3 ADD MSTORE PUSH1 0x20 ADD PUSH3 0xB5 JUMP JUMPDEST POP POP POP POP SWAP1 POP SWAP1 DUP2 ADD SWAP1 PUSH1 0x1F AND DUP1 ISZERO PUSH3 0xFD JUMPI DUP1 DUP3 SUB DUP1 MLOAD PUSH1 0x1 DUP4 PUSH1 0x20 SUB PUSH2 0x100 EXP SUB NOT AND DUP2 MSTORE PUSH1 0x20 ADD SWAP2 POP JUMPDEST POP PUSH1 0x40 MSTORE PUSH1 0x20 ADD DUP1 MLOAD PUSH1 0x40 MLOAD SWAP4 SWAP3 SWAP2 SWAP1 DUP5 PUSH5 0x100000000 DUP3 GT ISZERO PUSH3 0x121 JUMPI PUSH1 0x0 DUP1 REVERT JUMPDEST SWAP1 DUP4 ADD SWAP1 PUSH1 0x20 DUP3 ADD DUP6 DUP2 GT ISZERO PUSH3 0x137 JUMPI PUSH1 0x0 DUP1 REVERT JUMPDEST DUP3 MLOAD PUSH5 0x100000000 DUP2 GT DUP3 DUP3 ADD DUP9 LT OR ISZERO PUSH3 0x152 JUMPI PUSH1 0x0 DUP1 REVERT JUMPDEST DUP3 MSTORE POP DUP2 MLOAD PUSH1 0x20 SWAP2 DUP3 ADD SWAP3 SWAP1 SWAP2 ADD SWAP1 DUP1 DUP4 DUP4 PUSH1 0x0 JUMPDEST DUP4 DUP2 LT ISZERO PUSH3 0x181 JUMPI DUP2 DUP2 ADD MLOAD DUP4 DUP3 ADD MSTORE PUSH1 0x20 ADD PUSH3 0x167 JUMP JUMPDEST POP POP POP POP SWAP1 POP SWAP1 DUP2 ADD SWAP1 PUSH1 0x1F AND DUP1 ISZERO PUSH3 0x1AF JUMPI DUP1 DUP3 SUB DUP1 MLOAD PUSH1 0x1 DUP4 PUSH1 0x20 SUB PUSH2 0x100 EXP SUB NOT AND DUP2 MSTORE PUSH1 0x20 ADD SWAP2 POP JUMPDEST POP PUSH1 0x40 DUP2 DUP2 MSTORE PUSH1 0x20 DUP4 DUP2 ADD MLOAD SWAP4 DUP3 ADD MLOAD DUP4 DUP4 ADD SWAP1 SWAP3 MSTORE PUSH1 0x1 DUP4 MSTORE PUSH1 0x31 PUSH1 0xF8 SHL DUP2 DUP5 ADD MSTORE DUP8 MLOAD SWAP4 SWAP6 POP SWAP1 SWAP4 POP DUP7 SWAP3 DUP7 SWAP3 DUP7 SWAP3 DUP6 SWAP3 DUP4 SWAP3 SWAP2 DUP4 SWAP2 DUP8 SWAP2 PUSH3 0x1FA SWAP2 PUSH1 0x3 SWAP2 DUP6 ADD SWAP1 PUSH3 0x418 JUMP JUMPDEST POP DUP1 MLOAD PUSH3 0x210 SWAP1 PUSH1 0x4 SWAP1 PUSH1 0x20 DUP5 ADD SWAP1 PUSH3 0x418 JUMP JUMPDEST POP POP PUSH1 0x5 DUP1 SLOAD PUSH1 0xFF NOT AND PUSH1 0x12 OR SWAP1 SSTORE POP DUP2 MLOAD PUSH1 0x20 SWAP3 DUP4 ADD KECCAK256 PUSH1 0x80 MSTORE DUP1 MLOAD SWAP2 ADD KECCAK256 PUSH1 0xA0 MSTORE POP PUSH32 0x8B73C3C69BB8FE3D512ECC4CF759CC79239F7B179B0FFACAA9A75D522B39400F PUSH1 0xC0 MSTORE PUSH3 0x263 DUP2 PUSH3 0x35F JUMP JUMPDEST POP POP POP DUP1 PUSH1 0x1 PUSH1 0x1 PUSH1 0xA0 SHL SUB AND PUSH1 0xE0 DUP2 PUSH1 0x1 PUSH1 0x1 PUSH1 0xA0 SHL SUB AND PUSH1 0x60 SHL DUP2 MSTORE POP POP PUSH1 0x0 DUP2 PUSH1 0x1 PUSH1 0x1 PUSH1 0xA0 SHL SUB AND PUSH4 0x313CE567 PUSH1 0x40 MLOAD DUP2 PUSH4 0xFFFFFFFF AND PUSH1 0xE0 SHL DUP2 MSTORE PUSH1 0x4 ADD PUSH1 0x20 PUSH1 0x40 MLOAD DUP1 DUP4 SUB DUP2 DUP7 DUP1 EXTCODESIZE ISZERO DUP1 ISZERO PUSH3 0x2BF JUMPI PUSH1 0x0 DUP1 REVERT JUMPDEST POP GAS STATICCALL ISZERO DUP1 ISZERO PUSH3 0x2D4 JUMPI RETURNDATASIZE PUSH1 0x0 DUP1 RETURNDATACOPY RETURNDATASIZE PUSH1 0x0 REVERT JUMPDEST POP POP POP POP PUSH1 0x40 MLOAD RETURNDATASIZE PUSH1 0x20 DUP2 LT ISZERO PUSH3 0x2EB JUMPI PUSH1 0x0 DUP1 REVERT JUMPDEST POP MLOAD PUSH1 0xFF AND SWAP1 POP PUSH1 0x0 PUSH3 0x30D PUSH1 0x12 DUP4 PUSH3 0x375 PUSH1 0x20 SWAP1 DUP2 SHL PUSH3 0xF15 OR SWAP1 SHR JUMP JUMPDEST SWAP1 POP DUP1 PUSH1 0xA EXP PUSH8 0xDE0B6B3A7640000 MUL PUSH1 0x9 DUP2 SWAP1 SSTORE POP PUSH1 0x0 PUSH3 0x340 PUSH1 0x12 DUP7 PUSH1 0xFF AND PUSH3 0x375 PUSH1 0x20 SHL PUSH3 0xF15 OR PUSH1 0x20 SHR JUMP JUMPDEST PUSH8 0xDE0B6B3A7640000 PUSH1 0xA SWAP2 DUP3 EXP MUL SWAP1 SSTORE POP PUSH3 0x4B4 SWAP6 POP POP POP POP POP POP JUMP JUMPDEST PUSH1 0x5 DUP1 SLOAD PUSH1 0xFF NOT AND PUSH1 0xFF SWAP3 SWAP1 SWAP3 AND SWAP2 SWAP1 SWAP2 OR SWAP1 SSTORE JUMP JUMPDEST PUSH1 0x0 PUSH3 0x387 DUP4 DUP4 GT ISZERO PUSH1 0x1 PUSH3 0x38D JUMP JUMPDEST POP SWAP1 SUB SWAP1 JUMP JUMPDEST DUP2 PUSH3 0x39E JUMPI PUSH3 0x39E DUP2 PUSH3 0x3A2 JUMP JUMPDEST POP POP JUMP JUMPDEST PUSH3 0x3B4 DUP2 PUSH3 0x109053 PUSH1 0xEA SHL PUSH3 0x3B7 JUMP JUMPDEST POP JUMP JUMPDEST PUSH3 0x461BCD PUSH1 0xE5 SHL PUSH1 0x0 SWAP1 DUP2 MSTORE PUSH1 0x20 PUSH1 0x4 MSTORE PUSH1 0x7 PUSH1 0x24 MSTORE PUSH1 0xA DUP1 DUP5 DIV DUP2 DUP2 MOD PUSH1 0x30 SWAP1 DUP2 ADD PUSH1 0x8 SHL SWAP6 DUP4 SWAP1 MOD SWAP6 SWAP1 SWAP6 ADD SWAP1 DUP3 SWAP1 DIV SWAP2 DUP3 MOD DUP6 ADD PUSH1 0x10 SHL ADD PUSH1 0x23 PUSH4 0xFFFFFF00 PUSH1 0xE0 DUP7 SWAP1 SHR AND ADD PUSH1 0x18 SHL ADD SWAP1 SWAP4 ADD PUSH1 0xC8 SHL PUSH1 0x44 MSTORE PUSH1 0xE8 DUP3 SWAP1 SHR SWAP1 PUSH1 0x64 SWAP1 REVERT JUMPDEST DUP3 DUP1 SLOAD PUSH1 0x1 DUP2 PUSH1 0x1 AND ISZERO PUSH2 0x100 MUL SUB AND PUSH1 0x2 SWAP1 DIV SWAP1 PUSH1 0x0 MSTORE PUSH1 0x20 PUSH1 0x0 KECCAK256 SWAP1 PUSH1 0x1F ADD PUSH1 0x20 SWAP1 DIV DUP2 ADD SWAP3 DUP3 PUSH1 0x1F LT PUSH3 0x45B JUMPI DUP1 MLOAD PUSH1 0xFF NOT AND DUP4 DUP1 ADD OR DUP6 SSTORE PUSH3 0x48B JUMP JUMPDEST DUP3 DUP1 ADD PUSH1 0x1 ADD DUP6 SSTORE DUP3 ISZERO PUSH3 0x48B JUMPI SWAP2 DUP3 ADD JUMPDEST DUP3 DUP2 GT ISZERO PUSH3 0x48B JUMPI DUP3 MLOAD DUP3 SSTORE SWAP2 PUSH1 0x20 ADD SWAP2 SWAP1 PUSH1 0x1 ADD SWAP1 PUSH3 0x46E JUMP JUMPDEST POP PUSH3 0x499 SWAP3 SWAP2 POP PUSH3 0x49D JUMP JUMPDEST POP SWAP1 JUMP JUMPDEST JUMPDEST DUP1 DUP3 GT ISZERO PUSH3 0x499 JUMPI PUSH1 0x0 DUP2 SSTORE PUSH1 0x1 ADD PUSH3 0x49E JUMP JUMPDEST PUSH1 0x80 MLOAD PUSH1 0xA0 MLOAD PUSH1 0xC0 MLOAD PUSH1 0xE0 MLOAD PUSH1 0x60 SHR PUSH2 0x17C5 PUSH3 0x4ED PUSH1 0x0 CODECOPY DUP1 PUSH2 0xA7B MSTORE POP DUP1 PUSH2 0x149B MSTORE POP DUP1 PUSH2 0x14DD MSTORE POP DUP1 PUSH2 0x14BC MSTORE POP PUSH2 0x17C5 PUSH1 0x0 RETURN INVALID PUSH1 0x80 PUSH1 0x40 MSTORE CALLVALUE DUP1 ISZERO PUSH2 0x10 JUMPI PUSH1 0x0 DUP1 REVERT JUMPDEST POP PUSH1 0x4 CALLDATASIZE LT PUSH2 0x20B JUMPI PUSH1 0x0 CALLDATALOAD PUSH1 0xE0 SHR DUP1 PUSH4 0x6E553F65 GT PUSH2 0x12A JUMPI DUP1 PUSH4 0xA457C2D7 GT PUSH2 0xBD JUMPI DUP1 PUSH4 0xC6E6F592 GT PUSH2 0x8C JUMPI DUP1 PUSH4 0xD652E8C6 GT PUSH2 0x71 JUMPI DUP1 PUSH4 0xD652E8C6 EQ PUSH2 0x730 JUMPI DUP1 PUSH4 0xDD62ED3E EQ PUSH2 0x759 JUMPI DUP1 PUSH4 0xED24911D EQ PUSH2 0x794 JUMPI PUSH2 0x20B JUMP JUMPDEST DUP1 PUSH4 0xC6E6F592 EQ PUSH2 0x6B5 JUMPI DUP1 PUSH4 0xD505ACCF EQ PUSH2 0x6D2 JUMPI PUSH2 0x20B JUMP JUMPDEST DUP1 PUSH4 0xA457C2D7 EQ PUSH2 0x5E5 JUMPI DUP1 PUSH4 0xA9059CBB EQ PUSH2 0x61E JUMPI DUP1 PUSH4 0xB3D7F6B9 EQ PUSH2 0x657 JUMPI DUP1 PUSH4 0xBA087652 EQ PUSH2 0x674 JUMPI PUSH2 0x20B JUMP JUMPDEST DUP1 PUSH4 0x7CE3EE48 GT PUSH2 0xF9 JUMPI DUP1 PUSH4 0x7CE3EE48 EQ PUSH2 0x56F JUMPI DUP1 PUSH4 0x7ECEBE00 EQ PUSH2 0x577 JUMPI DUP1 PUSH4 0x90193B7C EQ PUSH2 0x5AA JUMPI DUP1 PUSH4 0x95D89B41 EQ PUSH2 0x5DD JUMPI PUSH2 0x20B JUMP JUMPDEST DUP1 PUSH4 0x6E553F65 EQ PUSH2 0x491 JUMPI DUP1 PUSH4 0x70A08231 EQ PUSH2 0x4CA JUMPI DUP1 PUSH4 0x79CC6790 EQ PUSH2 0x4FD JUMPI DUP1 PUSH4 0x7C602BC2 EQ PUSH2 0x536 JUMPI PUSH2 0x20B JUMP JUMPDEST DUP1 PUSH4 0x2CD10339 GT PUSH2 0x1A2 JUMPI DUP1 PUSH4 0x38D52E0F GT PUSH2 0x171 JUMPI DUP1 PUSH4 0x38D52E0F EQ PUSH2 0x3D1 JUMPI DUP1 PUSH4 0x39509351 EQ PUSH2 0x402 JUMPI DUP1 PUSH4 0x40C10F19 EQ PUSH2 0x43B JUMPI DUP1 PUSH4 0x42966C68 EQ PUSH2 0x474 JUMPI PUSH2 0x20B JUMP JUMPDEST DUP1 PUSH4 0x2CD10339 EQ PUSH2 0x36E JUMPI DUP1 PUSH4 0x313CE567 EQ PUSH2 0x38E JUMPI DUP1 PUSH4 0x34FCF437 EQ PUSH2 0x3AC JUMPI DUP1 PUSH4 0x3644E515 EQ PUSH2 0x3C9 JUMPI PUSH2 0x20B JUMP JUMPDEST DUP1 PUSH4 0x146D4EEE GT PUSH2 0x1DE JUMPI DUP1 PUSH4 0x146D4EEE EQ PUSH2 0x311 JUMPI DUP1 PUSH4 0x18160DDD EQ PUSH2 0x31B JUMPI DUP1 PUSH4 0x23B872DD EQ PUSH2 0x323 JUMPI DUP1 PUSH4 0x29478CB4 EQ PUSH2 0x366 JUMPI PUSH2 0x20B JUMP JUMPDEST DUP1 PUSH4 0x1E1D114 EQ PUSH2 0x210 JUMPI DUP1 PUSH4 0x6FDDE03 EQ PUSH2 0x22A JUMPI DUP1 PUSH4 0x7A2D13A EQ PUSH2 0x2A7 JUMPI DUP1 PUSH4 0x95EA7B3 EQ PUSH2 0x2C4 JUMPI JUMPDEST PUSH1 0x0 DUP1 REVERT JUMPDEST PUSH2 0x218 PUSH2 0x79C JUMP JUMPDEST PUSH1 0x40 DUP1 MLOAD SWAP2 DUP3 MSTORE MLOAD SWAP1 DUP2 SWAP1 SUB PUSH1 0x20 ADD SWAP1 RETURN JUMPDEST PUSH2 0x232 PUSH2 0x7A2 JUMP JUMPDEST PUSH1 0x40 DUP1 MLOAD PUSH1 0x20 DUP1 DUP3 MSTORE DUP4 MLOAD DUP2 DUP4 ADD MSTORE DUP4 MLOAD SWAP2 SWAP3 DUP4 SWAP3 SWAP1 DUP4 ADD SWAP2 DUP6 ADD SWAP1 DUP1 DUP4 DUP4 PUSH1 0x0 JUMPDEST DUP4 DUP2 LT ISZERO PUSH2 0x26C JUMPI DUP2 DUP2 ADD MLOAD DUP4 DUP3 ADD MSTORE PUSH1 0x20 ADD PUSH2 0x254 JUMP JUMPDEST POP POP POP POP SWAP1 POP SWAP1 DUP2 ADD SWAP1 PUSH1 0x1F AND DUP1 ISZERO PUSH2 0x299 JUMPI DUP1 DUP3 SUB DUP1 MLOAD PUSH1 0x1 DUP4 PUSH1 0x20 SUB PUSH2 0x100 EXP SUB NOT AND DUP2 MSTORE PUSH1 0x20 ADD SWAP2 POP JUMPDEST POP SWAP3 POP POP POP PUSH1 0x40 MLOAD DUP1 SWAP2 SUB SWAP1 RETURN JUMPDEST PUSH2 0x218 PUSH1 0x4 DUP1 CALLDATASIZE SUB PUSH1 0x20 DUP2 LT ISZERO PUSH2 0x2BD JUMPI PUSH1 0x0 DUP1 REVERT JUMPDEST POP CALLDATALOAD PUSH2 0x856 JUMP JUMPDEST PUSH2 0x2FD PUSH1 0x4 DUP1 CALLDATASIZE SUB PUSH1 0x40 DUP2 LT ISZERO PUSH2 0x2DA JUMPI PUSH1 0x0 DUP1 REVERT JUMPDEST POP PUSH20 0xFFFFFFFFFFFFFFFFFFFFFFFFFFFFFFFFFFFFFFFF DUP2 CALLDATALOAD AND SWAP1 PUSH1 0x20 ADD CALLDATALOAD PUSH2 0x867 JUMP JUMPDEST PUSH1 0x40 DUP1 MLOAD SWAP2 ISZERO ISZERO DUP3 MSTORE MLOAD SWAP1 DUP2 SWAP1 SUB PUSH1 0x20 ADD SWAP1 RETURN JUMPDEST PUSH2 0x319 PUSH2 0x87D JUMP JUMPDEST STOP JUMPDEST PUSH2 0x218 PUSH2 0x8ED JUMP JUMPDEST PUSH2 0x2FD PUSH1 0x4 DUP1 CALLDATASIZE SUB PUSH1 0x60 DUP2 LT ISZERO PUSH2 0x339 JUMPI PUSH1 0x0 DUP1 REVERT JUMPDEST POP PUSH20 0xFFFFFFFFFFFFFFFFFFFFFFFFFFFFFFFFFFFFFFFF DUP2 CALLDATALOAD DUP2 AND SWAP2 PUSH1 0x20 DUP2 ADD CALLDATALOAD SWAP1 SWAP2 AND SWAP1 PUSH1 0x40 ADD CALLDATALOAD PUSH2 0x8F3 JUMP JUMPDEST PUSH2 0x319 PUSH2 0x954 JUMP JUMPDEST PUSH2 0x319 PUSH1 0x4 DUP1 CALLDATASIZE SUB PUSH1 0x20 DUP2 LT ISZERO PUSH2 0x384 JUMPI PUSH1 0x0 DUP1 REVERT JUMPDEST POP CALLDATALOAD PUSH1 0xFF AND PUSH2 0xA1D JUMP JUMPDEST PUSH2 0x396 PUSH2 0xA5C JUMP JUMPDEST PUSH1 0x40 DUP1 MLOAD PUSH1 0xFF SWAP1 SWAP3 AND DUP3 MSTORE MLOAD SWAP1 DUP2 SWAP1 SUB PUSH1 0x20 ADD SWAP1 RETURN JUMPDEST PUSH2 0x319 PUSH1 0x4 DUP1 CALLDATASIZE SUB PUSH1 0x20 DUP2 LT ISZERO PUSH2 0x3C2 JUMPI PUSH1 0x0 DUP1 REVERT JUMPDEST POP CALLDATALOAD PUSH2 0xA65 JUMP JUMPDEST PUSH2 0x218 PUSH2 0xA6A JUMP JUMPDEST PUSH2 0x3D9 PUSH2 0xA79 JUMP JUMPDEST PUSH1 0x40 DUP1 MLOAD PUSH20 0xFFFFFFFFFFFFFFFFFFFFFFFFFFFFFFFFFFFFFFFF SWAP1 SWAP3 AND DUP3 MSTORE MLOAD SWAP1 DUP2 SWAP1 SUB PUSH1 0x20 ADD SWAP1 RETURN JUMPDEST PUSH2 0x2FD PUSH1 0x4 DUP1 CALLDATASIZE SUB PUSH1 0x40 DUP2 LT ISZERO PUSH2 0x418 JUMPI PUSH1 0x0 DUP1 REVERT JUMPDEST POP PUSH20 0xFFFFFFFFFFFFFFFFFFFFFFFFFFFFFFFFFFFFFFFF DUP2 CALLDATALOAD AND SWAP1 PUSH1 0x20 ADD CALLDATALOAD PUSH2 0xA9D JUMP JUMPDEST PUSH2 0x319 PUSH1 0x4 DUP1 CALLDATASIZE SUB PUSH1 0x40 DUP2 LT ISZERO PUSH2 0x451 JUMPI PUSH1 0x0 DUP1 REVERT JUMPDEST POP PUSH20 0xFFFFFFFFFFFFFFFFFFFFFFFFFFFFFFFFFFFFFFFF DUP2 CALLDATALOAD AND SWAP1 PUSH1 0x20 ADD CALLDATALOAD PUSH2 0xAE0 JUMP JUMPDEST PUSH2 0x319 PUSH1 0x4 DUP1 CALLDATASIZE SUB PUSH1 0x20 DUP2 LT ISZERO PUSH2 0x48A JUMPI PUSH1 0x0 DUP1 REVERT JUMPDEST POP CALLDATALOAD PUSH2 0xAEE JUMP JUMPDEST PUSH2 0x218 PUSH1 0x4 DUP1 CALLDATASIZE SUB PUSH1 0x40 DUP2 LT ISZERO PUSH2 0x4A7 JUMPI PUSH1 0x0 DUP1 REVERT JUMPDEST POP DUP1 CALLDATALOAD SWAP1 PUSH1 0x20 ADD CALLDATALOAD PUSH20 0xFFFFFFFFFFFFFFFFFFFFFFFFFFFFFFFFFFFFFFFF AND PUSH2 0xAFB JUMP JUMPDEST PUSH2 0x218 PUSH1 0x4 DUP1 CALLDATASIZE SUB PUSH1 0x20 DUP2 LT ISZERO PUSH2 0x4E0 JUMPI PUSH1 0x0 DUP1 REVERT JUMPDEST POP CALLDATALOAD PUSH20 0xFFFFFFFFFFFFFFFFFFFFFFFFFFFFFFFFFFFFFFFF AND PUSH2 0xB2A JUMP JUMPDEST PUSH2 0x319 PUSH1 0x4 DUP1 CALLDATASIZE SUB PUSH1 0x40 DUP2 LT ISZERO PUSH2 0x513 JUMPI PUSH1 0x0 DUP1 REVERT JUMPDEST POP PUSH20 0xFFFFFFFFFFFFFFFFFFFFFFFFFFFFFFFFFFFFFFFF DUP2 CALLDATALOAD AND SWAP1 PUSH1 0x20 ADD CALLDATALOAD PUSH2 0xB52 JUMP JUMPDEST PUSH2 0x319 PUSH1 0x4 DUP1 CALLDATASIZE SUB PUSH1 0x40 DUP2 LT ISZERO PUSH2 0x54C JUMPI PUSH1 0x0 DUP1 REVERT JUMPDEST POP PUSH20 0xFFFFFFFFFFFFFFFFFFFFFFFFFFFFFFFFFFFFFFFF DUP2 CALLDATALOAD AND SWAP1 PUSH1 0x20 ADD CALLDATALOAD PUSH2 0xB88 JUMP JUMPDEST PUSH2 0x319 PUSH2 0xB92 JUMP JUMPDEST PUSH2 0x218 PUSH1 0x4 DUP1 CALLDATASIZE SUB PUSH1 0x20 DUP2 LT ISZERO PUSH2 0x58D JUMPI PUSH1 0x0 DUP1 REVERT JUMPDEST POP CALLDATALOAD PUSH20 0xFFFFFFFFFFFFFFFFFFFFFFFFFFFFFFFFFFFFFFFF AND PUSH2 0xC6B JUMP JUMPDEST PUSH2 0x218 PUSH1 0x4 DUP1 CALLDATASIZE SUB PUSH1 0x20 DUP2 LT ISZERO PUSH2 0x5C0 JUMPI PUSH1 0x0 DUP1 REVERT JUMPDEST POP CALLDATALOAD PUSH20 0xFFFFFFFFFFFFFFFFFFFFFFFFFFFFFFFFFFFFFFFF AND PUSH2 0xC72 JUMP JUMPDEST PUSH2 0x232 PUSH2 0xC9A JUMP JUMPDEST PUSH2 0x2FD PUSH1 0x4 DUP1 CALLDATASIZE SUB PUSH1 0x40 DUP2 LT ISZERO PUSH2 0x5FB JUMPI PUSH1 0x0 DUP1 REVERT JUMPDEST POP PUSH20 0xFFFFFFFFFFFFFFFFFFFFFFFFFFFFFFFFFFFFFFFF DUP2 CALLDATALOAD AND SWAP1 PUSH1 0x20 ADD CALLDATALOAD PUSH2 0xD19 JUMP JUMPDEST PUSH2 0x2FD PUSH1 0x4 DUP1 CALLDATASIZE SUB PUSH1 0x40 DUP2 LT ISZERO PUSH2 0x634 JUMPI PUSH1 0x0 DUP1 REVERT JUMPDEST POP PUSH20 0xFFFFFFFFFFFFFFFFFFFFFFFFFFFFFFFFFFFFFFFF DUP2 CALLDATALOAD AND SWAP1 PUSH1 0x20 ADD CALLDATALOAD PUSH2 0xD5F JUMP JUMPDEST PUSH2 0x218 PUSH1 0x4 DUP1 CALLDATASIZE SUB PUSH1 0x20 DUP2 LT ISZERO PUSH2 0x66D JUMPI PUSH1 0x0 DUP1 REVERT JUMPDEST POP CALLDATALOAD PUSH2 0xD6C JUMP JUMPDEST PUSH2 0x218 PUSH1 0x4 DUP1 CALLDATASIZE SUB PUSH1 0x60 DUP2 LT ISZERO PUSH2 0x68A JUMPI PUSH1 0x0 DUP1 REVERT JUMPDEST POP DUP1 CALLDATALOAD SWAP1 PUSH20 0xFFFFFFFFFFFFFFFFFFFFFFFFFFFFFFFFFFFFFFFF PUSH1 0x20 DUP3 ADD CALLDATALOAD DUP2 AND SWAP2 PUSH1 0x40 ADD CALLDATALOAD AND PUSH2 0xDBA JUMP JUMPDEST PUSH2 0x218 PUSH1 0x4 DUP1 CALLDATASIZE SUB PUSH1 0x20 DUP2 LT ISZERO PUSH2 0x6CB JUMPI PUSH1 0x0 DUP1 REVERT JUMPDEST POP CALLDATALOAD PUSH2 0xDEA JUMP JUMPDEST PUSH2 0x319 PUSH1 0x4 DUP1 CALLDATASIZE SUB PUSH1 0xE0 DUP2 LT ISZERO PUSH2 0x6E8 JUMPI PUSH1 0x0 DUP1 REVERT JUMPDEST POP PUSH20 0xFFFFFFFFFFFFFFFFFFFFFFFFFFFFFFFFFFFFFFFF DUP2 CALLDATALOAD DUP2 AND SWAP2 PUSH1 0x20 DUP2 ADD CALLDATALOAD SWAP1 SWAP2 AND SWAP1 PUSH1 0x40 DUP2 ADD CALLDATALOAD SWAP1 PUSH1 0x60 DUP2 ADD CALLDATALOAD SWAP1 PUSH1 0xFF PUSH1 0x80 DUP3 ADD CALLDATALOAD AND SWAP1 PUSH1 0xA0 DUP2 ADD CALLDATALOAD SWAP1 PUSH1 0xC0 ADD CALLDATALOAD PUSH2 0xDF5 JUMP JUMPDEST PUSH2 0x738 PUSH2 0xECA JUMP JUMPDEST PUSH1 0x40 MLOAD DUP1 DUP3 PUSH1 0x3 DUP2 GT ISZERO PUSH2 0x748 JUMPI INVALID JUMPDEST DUP2 MSTORE PUSH1 0x20 ADD SWAP2 POP POP PUSH1 0x40 MLOAD DUP1 SWAP2 SUB SWAP1 RETURN JUMPDEST PUSH2 0x218 PUSH1 0x4 DUP1 CALLDATASIZE SUB PUSH1 0x40 DUP2 LT ISZERO PUSH2 0x76F JUMPI PUSH1 0x0 DUP1 REVERT JUMPDEST POP PUSH20 0xFFFFFFFFFFFFFFFFFFFFFFFFFFFFFFFFFFFFFFFF DUP2 CALLDATALOAD DUP2 AND SWAP2 PUSH1 0x20 ADD CALLDATALOAD AND PUSH2 0xED3 JUMP JUMPDEST PUSH2 0x218 PUSH2 0xF0B JUMP JUMPDEST PUSH1 0xB SLOAD SWAP1 JUMP JUMPDEST PUSH1 0x3 DUP1 SLOAD PUSH1 0x40 DUP1 MLOAD PUSH1 0x20 PUSH1 0x1F PUSH1 0x2 PUSH32 0xFFFFFFFFFFFFFFFFFFFFFFFFFFFFFFFFFFFFFFFFFFFFFFFFFFFFFFFFFFFFFFFF PUSH2 0x100 PUSH1 0x1 DUP9 AND ISZERO MUL ADD SWAP1 SWAP6 AND SWAP5 SWAP1 SWAP5 DIV SWAP4 DUP5 ADD DUP2 SWAP1 DIV DUP2 MUL DUP3 ADD DUP2 ADD SWAP1 SWAP3 MSTORE DUP3 DUP2 MSTORE PUSH1 0x60 SWAP4 SWAP1 SWAP3 SWAP1 SWAP2 DUP4 ADD DUP3 DUP3 DUP1 ISZERO PUSH2 0x84C JUMPI DUP1 PUSH1 0x1F LT PUSH2 0x821 JUMPI PUSH2 0x100 DUP1 DUP4 SLOAD DIV MUL DUP4 MSTORE SWAP2 PUSH1 0x20 ADD SWAP2 PUSH2 0x84C JUMP JUMPDEST DUP3 ADD SWAP2 SWAP1 PUSH1 0x0 MSTORE PUSH1 0x20 PUSH1 0x0 KECCAK256 SWAP1 JUMPDEST DUP2 SLOAD DUP2 MSTORE SWAP1 PUSH1 0x1 ADD SWAP1 PUSH1 0x20 ADD DUP1 DUP4 GT PUSH2 0x82F JUMPI DUP3 SWAP1 SUB PUSH1 0x1F AND DUP3 ADD SWAP2 JUMPDEST POP POP POP POP POP SWAP1 POP SWAP1 JUMP JUMPDEST PUSH1 0x0 PUSH2 0x861 DUP3 PUSH2 0xF2B JUMP JUMPDEST SWAP3 SWAP2 POP POP JUMP JUMPDEST PUSH1 0x0 PUSH2 0x874 CALLER DUP5 DUP5 PUSH2 0xF71 JUMP JUMPDEST POP PUSH1 0x1 SWAP3 SWAP2 POP POP JUMP JUMPDEST PUSH1 0x40 DUP1 MLOAD PUSH1 0x2 DUP1 DUP3 MSTORE PUSH1 0x60 DUP1 DUP4 ADD DUP5 MSTORE SWAP3 PUSH1 0x20 DUP4 ADD SWAP1 DUP1 CALLDATASIZE DUP4 CALLDATACOPY ADD SWAP1 POP POP SWAP1 POP PUSH1 0x1 DUP2 PUSH1 0x0 DUP2 MLOAD DUP2 LT PUSH2 0x8AC JUMPI INVALID JUMPDEST PUSH1 0x20 MUL PUSH1 0x20 ADD ADD DUP2 DUP2 MSTORE POP POP PUSH1 0x2 DUP2 PUSH1 0x1 DUP2 MLOAD DUP2 LT PUSH2 0x8C7 JUMPI INVALID JUMPDEST PUSH1 0x20 MUL PUSH1 0x20 ADD ADD DUP2 DUP2 MSTORE POP POP PUSH1 0x20 DUP2 MLOAD MUL PUSH4 0xFA61CC12 PUSH1 0x20 DUP4 SUB MSTORE PUSH1 0x4 DUP3 SUB PUSH1 0x24 DUP3 ADD DUP2 REVERT JUMPDEST PUSH1 0x2 SLOAD SWAP1 JUMP JUMPDEST PUSH1 0x0 PUSH2 0x900 DUP5 DUP5 DUP5 PUSH2 0xFE0 JUMP JUMPDEST PUSH20 0xFFFFFFFFFFFFFFFFFFFFFFFFFFFFFFFFFFFFFFFF DUP5 AND PUSH1 0x0 SWAP1 DUP2 MSTORE PUSH1 0x1 PUSH1 0x20 SWAP1 DUP2 MSTORE PUSH1 0x40 DUP1 DUP4 KECCAK256 CALLER DUP1 DUP6 MSTORE SWAP3 MSTORE SWAP1 SWAP2 KECCAK256 SLOAD PUSH2 0x94A SWAP2 DUP7 SWAP2 PUSH2 0x945 SWAP1 DUP7 PUSH2 0x19E PUSH2 0x1109 JUMP JUMPDEST PUSH2 0xF71 JUMP JUMPDEST POP PUSH1 0x1 SWAP4 SWAP3 POP POP POP JUMP JUMPDEST PUSH1 0x1 PUSH1 0x7 SLOAD PUSH1 0xFF AND PUSH1 0x3 DUP2 GT ISZERO PUSH2 0x967 JUMPI INVALID JUMPDEST EQ ISZERO PUSH2 0x9D4 JUMPI PUSH1 0x40 DUP1 MLOAD PUSH32 0x8C379A000000000000000000000000000000000000000000000000000000000 DUP2 MSTORE PUSH1 0x20 PUSH1 0x4 DUP3 ADD MSTORE PUSH1 0x14 PUSH1 0x24 DUP3 ADD MSTORE PUSH32 0x4E4F4E5F4D414C4943494F55535F524556455254000000000000000000000000 PUSH1 0x44 DUP3 ADD MSTORE SWAP1 MLOAD SWAP1 DUP2 SWAP1 SUB PUSH1 0x64 ADD SWAP1 REVERT JUMPDEST PUSH1 0x2 PUSH1 0x7 SLOAD PUSH1 0xFF AND PUSH1 0x3 DUP2 GT ISZERO PUSH2 0x9E7 JUMPI INVALID JUMPDEST EQ ISZERO PUSH2 0x9FA JUMPI PUSH2 0x9F5 PUSH2 0x87D JUMP JUMPDEST PUSH2 0xA1B JUMP JUMPDEST PUSH1 0x3 PUSH1 0x7 SLOAD PUSH1 0xFF AND PUSH1 0x3 DUP2 GT ISZERO PUSH2 0xA0D JUMPI INVALID JUMPDEST EQ ISZERO PUSH2 0xA1B JUMPI PUSH2 0xA1B PUSH2 0xB92 JUMP JUMPDEST JUMP JUMPDEST PUSH1 0x7 DUP1 SLOAD DUP3 SWAP2 SWAP1 PUSH32 0xFFFFFFFFFFFFFFFFFFFFFFFFFFFFFFFFFFFFFFFFFFFFFFFFFFFFFFFFFFFFFF00 AND PUSH1 0x1 DUP4 PUSH1 0x3 DUP2 GT ISZERO PUSH2 0xA54 JUMPI INVALID JUMPDEST MUL OR SWAP1 SSTORE POP POP JUMP JUMPDEST PUSH1 0x5 SLOAD PUSH1 0xFF AND SWAP1 JUMP JUMPDEST PUSH1 0x8 SSTORE JUMP JUMPDEST PUSH1 0x0 PUSH2 0xA74 PUSH2 0xF0B JUMP JUMPDEST SWAP1 POP SWAP1 JUMP JUMPDEST PUSH32 0x0 SWAP1 JUMP JUMPDEST CALLER PUSH1 0x0 DUP2 DUP2 MSTORE PUSH1 0x1 PUSH1 0x20 SWAP1 DUP2 MSTORE PUSH1 0x40 DUP1 DUP4 KECCAK256 PUSH20 0xFFFFFFFFFFFFFFFFFFFFFFFFFFFFFFFFFFFFFFFF DUP8 AND DUP5 MSTORE SWAP1 SWAP2 MSTORE DUP2 KECCAK256 SLOAD SWAP1 SWAP2 PUSH2 0x874 SWAP2 DUP6 SWAP1 PUSH2 0x945 SWAP1 DUP7 PUSH2 0x111F JUMP JUMPDEST PUSH2 0xAEA DUP3 DUP3 PUSH2 0x1138 JUMP JUMPDEST POP POP JUMP JUMPDEST PUSH2 0xAF8 CALLER DUP3 PUSH2 0x11F1 JUMP JUMPDEST POP JUMP JUMPDEST PUSH1 0x0 DUP1 PUSH2 0xB07 DUP5 PUSH2 0x12E1 JUMP JUMPDEST SWAP1 POP PUSH2 0xB13 DUP4 DUP3 PUSH2 0x1138 JUMP JUMPDEST PUSH1 0xB SLOAD PUSH2 0xB20 SWAP1 DUP6 PUSH2 0x111F JUMP JUMPDEST PUSH1 0xB SSTORE SWAP4 SWAP3 POP POP POP JUMP JUMPDEST PUSH20 0xFFFFFFFFFFFFFFFFFFFFFFFFFFFFFFFFFFFFFFFF AND PUSH1 0x0 SWAP1 DUP2 MSTORE PUSH1 0x20 DUP2 SWAP1 MSTORE PUSH1 0x40 SWAP1 KECCAK256 SLOAD SWAP1 JUMP JUMPDEST PUSH1 0x0 PUSH2 0xB6C DUP3 PUSH2 0x1A1 PUSH2 0xB65 DUP7 CALLER PUSH2 0xED3 JUMP JUMPDEST SWAP2 SWAP1 PUSH2 0x1109 JUMP JUMPDEST SWAP1 POP PUSH2 0xB79 DUP4 CALLER DUP4 PUSH2 0xF71 JUMP JUMPDEST PUSH2 0xB83 DUP4 DUP4 PUSH2 0x11F1 JUMP JUMPDEST POP POP POP JUMP JUMPDEST PUSH2 0xAEA DUP3 DUP3 PUSH2 0x11F1 JUMP JUMPDEST PUSH1 0x40 DUP1 MLOAD PUSH1 0x2 DUP1 DUP3 MSTORE PUSH1 0x60 DUP1 DUP4 ADD DUP5 MSTORE SWAP3 PUSH1 0x20 DUP4 ADD SWAP1 DUP1 CALLDATASIZE DUP4 CALLDATACOPY ADD SWAP1 POP POP SWAP1 POP PUSH1 0x1 DUP2 PUSH1 0x0 DUP2 MLOAD DUP2 LT PUSH2 0xBC1 JUMPI INVALID JUMPDEST PUSH1 0x20 MUL PUSH1 0x20 ADD ADD DUP2 DUP2 MSTORE POP POP PUSH1 0x2 DUP2 PUSH1 0x1 DUP2 MLOAD DUP2 LT PUSH2 0xBDC JUMPI INVALID JUMPDEST PUSH1 0x20 SWAP1 DUP2 MUL SWAP2 SWAP1 SWAP2 ADD DUP2 ADD SWAP2 SWAP1 SWAP2 MSTORE DUP2 MLOAD PUSH2 0x1A4 PUSH32 0xFFFFFFFFFFFFFFFFFFFFFFFFFFFFFFFFFFFFFFFFFFFFFFFFFFFFFFFFFFFFFFE0 DUP5 ADD DUP2 SWAP1 MSTORE PUSH4 0x43ADBAFB PUSH32 0xFFFFFFFFFFFFFFFFFFFFFFFFFFFFFFFFFFFFFFFFFFFFFFFFFFFFFFFFFFFFFFC0 DUP6 ADD MSTORE SWAP2 MUL PUSH32 0xFFFFFFFFFFFFFFFFFFFFFFFFFFFFFFFFFFFFFFFFFFFFFFFFFFFFFFFFFFFFFFDC DUP4 ADD PUSH1 0x44 DUP3 ADD DUP2 REVERT JUMPDEST PUSH1 0x0 PUSH2 0x861 DUP3 JUMPDEST PUSH20 0xFFFFFFFFFFFFFFFFFFFFFFFFFFFFFFFFFFFFFFFF AND PUSH1 0x0 SWAP1 DUP2 MSTORE PUSH1 0x6 PUSH1 0x20 MSTORE PUSH1 0x40 SWAP1 KECCAK256 SLOAD SWAP1 JUMP JUMPDEST PUSH1 0x4 DUP1 SLOAD PUSH1 0x40 DUP1 MLOAD PUSH1 0x20 PUSH1 0x1F PUSH1 0x2 PUSH32 0xFFFFFFFFFFFFFFFFFFFFFFFFFFFFFFFFFFFFFFFFFFFFFFFFFFFFFFFFFFFFFFFF PUSH2 0x100 PUSH1 0x1 DUP9 AND ISZERO MUL ADD SWAP1 SWAP6 AND SWAP5 SWAP1 SWAP5 DIV SWAP4 DUP5 ADD DUP2 SWAP1 DIV DUP2 MUL DUP3 ADD DUP2 ADD SWAP1 SWAP3 MSTORE DUP3 DUP2 MSTORE PUSH1 0x60 SWAP4 SWAP1 SWAP3 SWAP1 SWAP2 DUP4 ADD DUP3 DUP3 DUP1 ISZERO PUSH2 0x84C JUMPI DUP1 PUSH1 0x1F LT PUSH2 0x821 JUMPI PUSH2 0x100 DUP1 DUP4 SLOAD DIV MUL DUP4 MSTORE SWAP2 PUSH1 0x20 ADD SWAP2 PUSH2 0x84C JUMP JUMPDEST CALLER PUSH1 0x0 DUP2 DUP2 MSTORE PUSH1 0x1 PUSH1 0x20 SWAP1 DUP2 MSTORE PUSH1 0x40 DUP1 DUP4 KECCAK256 PUSH20 0xFFFFFFFFFFFFFFFFFFFFFFFFFFFFFFFFFFFFFFFF DUP8 AND DUP5 MSTORE SWAP1 SWAP2 MSTORE DUP2 KECCAK256 SLOAD SWAP1 SWAP2 PUSH2 0x874 SWAP2 DUP6 SWAP1 PUSH2 0x945 SWAP1 DUP7 PUSH2 0x19F PUSH2 0x1109 JUMP JUMPDEST PUSH1 0x0 PUSH2 0x874 CALLER DUP5 DUP5 PUSH2 0xFE0 JUMP JUMPDEST PUSH1 0x0 PUSH2 0xD76 PUSH2 0x954 JUMP JUMPDEST PUSH1 0x0 PUSH2 0xD8D PUSH1 0x8 SLOAD DUP5 PUSH2 0x1321 SWAP1 SWAP2 SWAP1 PUSH4 0xFFFFFFFF AND JUMP JUMPDEST SWAP1 POP PUSH1 0x0 PUSH2 0xDB2 PUSH1 0x9 SLOAD PUSH2 0xDAC PUSH1 0xA SLOAD DUP6 PUSH2 0x1374 SWAP1 SWAP2 SWAP1 PUSH4 0xFFFFFFFF AND JUMP JUMPDEST SWAP1 PUSH2 0x13A7 JUMP JUMPDEST SWAP5 SWAP4 POP POP POP POP JUMP JUMPDEST PUSH1 0x0 DUP1 PUSH2 0xDC6 DUP6 PUSH2 0xF2B JUMP JUMPDEST SWAP1 POP PUSH2 0xDD2 DUP4 DUP7 PUSH2 0x11F1 JUMP JUMPDEST PUSH1 0xB SLOAD PUSH2 0xDDF SWAP1 DUP3 PUSH2 0xF15 JUMP JUMPDEST PUSH1 0xB SSTORE SWAP5 SWAP4 POP POP POP POP JUMP JUMPDEST PUSH1 0x0 PUSH2 0x861 DUP3 PUSH2 0x12E1 JUMP JUMPDEST PUSH1 0x0 PUSH32 0x6E71EDAE12B1B97F4D1F60370FEF10105FA2FAAE0126114A169C64845D6126C9 DUP9 DUP9 DUP9 PUSH2 0xE24 DUP13 PUSH2 0xC72 JUMP JUMPDEST DUP10 PUSH1 0x40 MLOAD PUSH1 0x20 ADD DUP1 DUP8 DUP2 MSTORE PUSH1 0x20 ADD DUP7 PUSH20 0xFFFFFFFFFFFFFFFFFFFFFFFFFFFFFFFFFFFFFFFF AND DUP2 MSTORE PUSH1 0x20 ADD DUP6 PUSH20 0xFFFFFFFFFFFFFFFFFFFFFFFFFFFFFFFFFFFFFFFF AND DUP2 MSTORE PUSH1 0x20 ADD DUP5 DUP2 MSTORE PUSH1 0x20 ADD DUP4 DUP2 MSTORE PUSH1 0x20 ADD DUP3 DUP2 MSTORE PUSH1 0x20 ADD SWAP7 POP POP POP POP POP POP POP PUSH1 0x40 MLOAD PUSH1 0x20 DUP2 DUP4 SUB SUB DUP2 MSTORE SWAP1 PUSH1 0x40 MSTORE DUP1 MLOAD SWAP1 PUSH1 0x20 ADD KECCAK256 SWAP1 POP PUSH2 0xEB5 DUP9 DUP3 PUSH2 0xEAC DUP8 DUP8 DUP8 PUSH2 0x13F4 JUMP JUMPDEST DUP9 PUSH2 0x1F8 PUSH2 0x1433 JUMP JUMPDEST PUSH2 0xEC0 DUP9 DUP9 DUP9 PUSH2 0xF71 JUMP JUMPDEST POP POP POP POP POP POP POP POP JUMP JUMPDEST PUSH1 0x7 SLOAD PUSH1 0xFF AND DUP2 JUMP JUMPDEST PUSH20 0xFFFFFFFFFFFFFFFFFFFFFFFFFFFFFFFFFFFFFFFF SWAP2 DUP3 AND PUSH1 0x0 SWAP1 DUP2 MSTORE PUSH1 0x1 PUSH1 0x20 SWAP1 DUP2 MSTORE PUSH1 0x40 DUP1 DUP4 KECCAK256 SWAP4 SWAP1 SWAP5 AND DUP3 MSTORE SWAP2 SWAP1 SWAP2 MSTORE KECCAK256 SLOAD SWAP1 JUMP JUMPDEST PUSH1 0x0 PUSH2 0xA74 PUSH2 0x1497 JUMP JUMPDEST PUSH1 0x0 PUSH2 0xF25 DUP4 DUP4 GT ISZERO PUSH1 0x1 PUSH2 0x1562 JUMP JUMPDEST POP SWAP1 SUB SWAP1 JUMP JUMPDEST PUSH1 0x0 PUSH2 0xF35 PUSH2 0x954 JUMP JUMPDEST PUSH1 0x0 PUSH2 0xF4C PUSH1 0x8 SLOAD DUP5 PUSH2 0x1374 SWAP1 SWAP2 SWAP1 PUSH4 0xFFFFFFFF AND JUMP JUMPDEST SWAP1 POP PUSH1 0x0 PUSH2 0xDB2 PUSH1 0x9 SLOAD PUSH2 0xF6B PUSH1 0xA SLOAD DUP6 PUSH2 0x1374 SWAP1 SWAP2 SWAP1 PUSH4 0xFFFFFFFF AND JUMP JUMPDEST SWAP1 PUSH2 0x1321 JUMP JUMPDEST PUSH20 0xFFFFFFFFFFFFFFFFFFFFFFFFFFFFFFFFFFFFFFFF DUP1 DUP5 AND PUSH1 0x0 DUP2 DUP2 MSTORE PUSH1 0x1 PUSH1 0x20 SWAP1 DUP2 MSTORE PUSH1 0x40 DUP1 DUP4 KECCAK256 SWAP5 DUP8 AND DUP1 DUP5 MSTORE SWAP5 DUP3 MSTORE SWAP2 DUP3 SWAP1 KECCAK256 DUP6 SWAP1 SSTORE DUP2 MLOAD DUP6 DUP2 MSTORE SWAP2 MLOAD PUSH32 0x8C5BE1E5EBEC7D5BD14F71427D1E84F3DD0314C0F7B2291E5B200AC8C7C3B925 SWAP3 DUP2 SWAP1 SUB SWAP1 SWAP2 ADD SWAP1 LOG3 POP POP POP JUMP JUMPDEST PUSH2 0x1004 PUSH20 0xFFFFFFFFFFFFFFFFFFFFFFFFFFFFFFFFFFFFFFFF DUP5 AND ISZERO ISZERO PUSH2 0x198 PUSH2 0x1562 JUMP JUMPDEST PUSH2 0x1028 PUSH20 0xFFFFFFFFFFFFFFFFFFFFFFFFFFFFFFFFFFFFFFFF DUP4 AND ISZERO ISZERO PUSH2 0x199 PUSH2 0x1562 JUMP JUMPDEST PUSH2 0x1033 DUP4 DUP4 DUP4 PUSH2 0xB83 JUMP JUMPDEST PUSH20 0xFFFFFFFFFFFFFFFFFFFFFFFFFFFFFFFFFFFFFFFF DUP4 AND PUSH1 0x0 SWAP1 DUP2 MSTORE PUSH1 0x20 DUP2 SWAP1 MSTORE PUSH1 0x40 SWAP1 KECCAK256 SLOAD PUSH2 0x1066 SWAP1 DUP3 PUSH2 0x1A0 PUSH2 0x1109 JUMP JUMPDEST PUSH20 0xFFFFFFFFFFFFFFFFFFFFFFFFFFFFFFFFFFFFFFFF DUP1 DUP6 AND PUSH1 0x0 SWAP1 DUP2 MSTORE PUSH1 0x20 DUP2 SWAP1 MSTORE PUSH1 0x40 DUP1 DUP3 KECCAK256 SWAP4 SWAP1 SWAP4 SSTORE SWAP1 DUP5 AND DUP2 MSTORE KECCAK256 SLOAD PUSH2 0x10A2 SWAP1 DUP3 PUSH2 0x111F JUMP JUMPDEST PUSH20 0xFFFFFFFFFFFFFFFFFFFFFFFFFFFFFFFFFFFFFFFF DUP1 DUP5 AND PUSH1 0x0 DUP2 DUP2 MSTORE PUSH1 0x20 DUP2 DUP2 MSTORE PUSH1 0x40 SWAP2 DUP3 SWAP1 KECCAK256 SWAP5 SWAP1 SWAP5 SSTORE DUP1 MLOAD DUP6 DUP2 MSTORE SWAP1 MLOAD SWAP2 SWAP4 SWAP3 DUP8 AND SWAP3 PUSH32 0xDDF252AD1BE2C89B69C2B068FC378DAA952BA7F163C4A11628F55A4DF523B3EF SWAP3 SWAP2 DUP3 SWAP1 SUB ADD SWAP1 LOG3 POP POP POP JUMP JUMPDEST PUSH1 0x0 PUSH2 0x1118 DUP5 DUP5 GT ISZERO DUP4 PUSH2 0x1562 JUMP JUMPDEST POP POP SWAP1 SUB SWAP1 JUMP JUMPDEST PUSH1 0x0 DUP3 DUP3 ADD PUSH2 0x1131 DUP5 DUP3 LT ISZERO DUP4 PUSH2 0x1562 JUMP JUMPDEST SWAP4 SWAP3 POP POP POP JUMP JUMPDEST PUSH2 0x1144 PUSH1 0x0 DUP4 DUP4 PUSH2 0xB83 JUMP JUMPDEST PUSH2 0x115E PUSH2 0x1159 DUP3 PUSH2 0x1153 PUSH2 0x8ED JUMP JUMPDEST SWAP1 PUSH2 0x111F JUMP JUMPDEST PUSH2 0x1570 JUMP JUMPDEST PUSH20 0xFFFFFFFFFFFFFFFFFFFFFFFFFFFFFFFFFFFFFFFF DUP3 AND PUSH1 0x0 SWAP1 DUP2 MSTORE PUSH1 0x20 DUP2 SWAP1 MSTORE PUSH1 0x40 SWAP1 KECCAK256 SLOAD PUSH2 0x118E SWAP1 DUP3 PUSH2 0x111F JUMP JUMPDEST PUSH20 0xFFFFFFFFFFFFFFFFFFFFFFFFFFFFFFFFFFFFFFFF DUP4 AND PUSH1 0x0 DUP2 DUP2 MSTORE PUSH1 0x20 DUP2 DUP2 MSTORE PUSH1 0x40 DUP1 DUP4 KECCAK256 SWAP5 SWAP1 SWAP5 SSTORE DUP4 MLOAD DUP6 DUP2 MSTORE SWAP4 MLOAD SWAP3 SWAP4 SWAP2 SWAP3 PUSH32 0xDDF252AD1BE2C89B69C2B068FC378DAA952BA7F163C4A11628F55A4DF523B3EF SWAP3 DUP2 SWAP1 SUB SWAP1 SWAP2 ADD SWAP1 LOG3 POP POP JUMP JUMPDEST PUSH2 0x1215 PUSH20 0xFFFFFFFFFFFFFFFFFFFFFFFFFFFFFFFFFFFFFFFF DUP4 AND ISZERO ISZERO PUSH2 0x19B PUSH2 0x1562 JUMP JUMPDEST PUSH2 0x1221 DUP3 PUSH1 0x0 DUP4 PUSH2 0xB83 JUMP JUMPDEST PUSH20 0xFFFFFFFFFFFFFFFFFFFFFFFFFFFFFFFFFFFFFFFF DUP3 AND PUSH1 0x0 SWAP1 DUP2 MSTORE PUSH1 0x20 DUP2 SWAP1 MSTORE PUSH1 0x40 SWAP1 KECCAK256 SLOAD PUSH2 0x1254 SWAP1 DUP3 PUSH2 0x1B2 PUSH2 0x1109 JUMP JUMPDEST PUSH20 0xFFFFFFFFFFFFFFFFFFFFFFFFFFFFFFFFFFFFFFFF DUP4 AND PUSH1 0x0 SWAP1 DUP2 MSTORE PUSH1 0x20 DUP2 SWAP1 MSTORE PUSH1 0x40 SWAP1 KECCAK256 SSTORE PUSH2 0x128F PUSH2 0x1159 DUP3 PUSH2 0x1289 PUSH2 0x8ED JUMP JUMPDEST SWAP1 PUSH2 0x1575 JUMP JUMPDEST PUSH1 0x40 DUP1 MLOAD DUP3 DUP2 MSTORE SWAP1 MLOAD PUSH1 0x0 SWAP2 PUSH20 0xFFFFFFFFFFFFFFFFFFFFFFFFFFFFFFFFFFFFFFFF DUP6 AND SWAP2 PUSH32 0xDDF252AD1BE2C89B69C2B068FC378DAA952BA7F163C4A11628F55A4DF523B3EF SWAP2 DUP2 SWAP1 SUB PUSH1 0x20 ADD SWAP1 LOG3 POP POP JUMP JUMPDEST PUSH1 0x0 PUSH2 0x12EB PUSH2 0x954 JUMP JUMPDEST PUSH1 0x0 PUSH2 0x1302 PUSH1 0x8 SLOAD DUP5 PUSH2 0x1321 SWAP1 SWAP2 SWAP1 PUSH4 0xFFFFFFFF AND JUMP JUMPDEST SWAP1 POP PUSH1 0x0 PUSH2 0xDB2 PUSH1 0xA SLOAD PUSH2 0xF6B PUSH1 0x9 SLOAD DUP6 PUSH2 0x1374 SWAP1 SWAP2 SWAP1 PUSH4 0xFFFFFFFF AND JUMP JUMPDEST PUSH1 0x0 PUSH2 0x1330 DUP3 ISZERO ISZERO PUSH1 0x4 PUSH2 0x1562 JUMP JUMPDEST PUSH8 0xDE0B6B3A7640000 DUP4 MUL PUSH2 0x1362 DUP5 ISZERO DUP1 PUSH2 0x135B JUMPI POP PUSH8 0xDE0B6B3A7640000 DUP6 DUP4 DUP2 PUSH2 0x1358 JUMPI INVALID JUMPDEST DIV EQ JUMPDEST PUSH1 0x5 PUSH2 0x1562 JUMP JUMPDEST DUP3 DUP2 DUP2 PUSH2 0x136B JUMPI INVALID JUMPDEST DIV SWAP5 SWAP4 POP POP POP POP JUMP JUMPDEST PUSH1 0x0 DUP3 DUP3 MUL PUSH2 0x1398 DUP5 ISZERO DUP1 PUSH2 0x1391 JUMPI POP DUP4 DUP6 DUP4 DUP2 PUSH2 0x138E JUMPI INVALID JUMPDEST DIV EQ JUMPDEST PUSH1 0x3 PUSH2 0x1562 JUMP JUMPDEST PUSH8 0xDE0B6B3A7640000 DUP2 PUSH2 0x136B JUMP JUMPDEST PUSH1 0x0 PUSH2 0x13B6 DUP3 ISZERO ISZERO PUSH1 0x4 PUSH2 0x1562 JUMP JUMPDEST PUSH8 0xDE0B6B3A7640000 DUP4 MUL PUSH2 0x13DE DUP5 ISZERO DUP1 PUSH2 0x135B JUMPI POP PUSH8 0xDE0B6B3A7640000 DUP6 DUP4 DUP2 PUSH2 0x1358 JUMPI INVALID JUMPDEST PUSH1 0x1 DUP4 PUSH1 0x1 DUP4 SUB DIV ADD DUP2 ISZERO ISZERO MUL SWAP2 POP POP SWAP3 SWAP2 POP POP JUMP JUMPDEST PUSH1 0x40 DUP1 MLOAD PUSH1 0x41 DUP1 DUP3 MSTORE PUSH1 0x80 DUP3 ADD SWAP1 SWAP3 MSTORE PUSH1 0x60 SWAP2 DUP3 SWAP2 SWAP1 PUSH1 0x20 DUP3 ADD DUP2 DUP1 CALLDATASIZE DUP4 CALLDATACOPY ADD SWAP1 POP POP SWAP1 POP DUP4 PUSH1 0x20 DUP3 ADD MSTORE DUP3 PUSH1 0x40 DUP3 ADD MSTORE DUP5 PUSH1 0x60 DUP3 ADD MSTORE8 SWAP5 SWAP4 POP POP POP POP JUMP JUMPDEST PUSH1 0x0 PUSH2 0x143E DUP6 PUSH2 0x1583 JUMP JUMPDEST SWAP1 POP PUSH2 0x1454 PUSH2 0x144E DUP8 DUP4 DUP8 PUSH2 0x15EA JUMP JUMPDEST DUP4 PUSH2 0x1562 JUMP JUMPDEST PUSH2 0x1463 TIMESTAMP DUP5 LT ISZERO PUSH2 0x1B8 PUSH2 0x1562 JUMP JUMPDEST POP POP POP PUSH20 0xFFFFFFFFFFFFFFFFFFFFFFFFFFFFFFFFFFFFFFFF SWAP1 SWAP3 AND PUSH1 0x0 SWAP1 DUP2 MSTORE PUSH1 0x6 PUSH1 0x20 MSTORE PUSH1 0x40 SWAP1 KECCAK256 DUP1 SLOAD PUSH1 0x1 ADD SWAP1 SSTORE POP POP JUMP JUMPDEST PUSH1 0x0 PUSH32 0x0 PUSH32 0x0 PUSH32 0x0 PUSH2 0x1504 PUSH2 0x16FC JUMP JUMPDEST ADDRESS PUSH1 0x40 MLOAD PUSH1 0x20 ADD DUP1 DUP7 DUP2 MSTORE PUSH1 0x20 ADD DUP6 DUP2 MSTORE PUSH1 0x20 ADD DUP5 DUP2 MSTORE PUSH1 0x20 ADD DUP4 DUP2 MSTORE PUSH1 0x20 ADD DUP3 PUSH20 0xFFFFFFFFFFFFFFFFFFFFFFFFFFFFFFFFFFFFFFFF AND DUP2 MSTORE PUSH1 0x20 ADD SWAP6 POP POP POP POP POP POP PUSH1 0x40 MLOAD PUSH1 0x20 DUP2 DUP4 SUB SUB DUP2 MSTORE SWAP1 PUSH1 0x40 MSTORE DUP1 MLOAD SWAP1 PUSH1 0x20 ADD KECCAK256 SWAP1 POP SWAP1 JUMP JUMPDEST DUP2 PUSH2 0xAEA JUMPI PUSH2 0xAEA DUP2 PUSH2 0x1700 JUMP JUMPDEST PUSH1 0x2 SSTORE JUMP JUMPDEST PUSH1 0x0 PUSH2 0x1131 DUP4 DUP4 PUSH1 0x1 PUSH2 0x1109 JUMP JUMPDEST PUSH1 0x0 PUSH2 0x158D PUSH2 0x1497 JUMP JUMPDEST DUP3 PUSH1 0x40 MLOAD PUSH1 0x20 ADD DUP1 DUP1 PUSH32 0x1901000000000000000000000000000000000000000000000000000000000000 DUP2 MSTORE POP PUSH1 0x2 ADD DUP4 DUP2 MSTORE PUSH1 0x20 ADD DUP3 DUP2 MSTORE PUSH1 0x20 ADD SWAP3 POP POP POP PUSH1 0x40 MLOAD PUSH1 0x20 DUP2 DUP4 SUB SUB DUP2 MSTORE SWAP1 PUSH1 0x40 MSTORE DUP1 MLOAD SWAP1 PUSH1 0x20 ADD KECCAK256 SWAP1 POP SWAP2 SWAP1 POP JUMP JUMPDEST PUSH1 0x0 PUSH2 0x15FC DUP3 MLOAD PUSH1 0x41 EQ PUSH2 0x1B9 PUSH2 0x1562 JUMP JUMPDEST PUSH1 0x0 DUP1 PUSH1 0x0 PUSH1 0x20 DUP6 ADD MLOAD SWAP3 POP PUSH1 0x40 DUP6 ADD MLOAD SWAP2 POP PUSH1 0x60 DUP6 ADD MLOAD PUSH1 0x0 BYTE SWAP1 POP PUSH1 0x0 PUSH1 0x1 DUP8 DUP4 DUP7 DUP7 PUSH1 0x40 MLOAD PUSH1 0x0 DUP2 MSTORE PUSH1 0x20 ADD PUSH1 0x40 MSTORE PUSH1 0x40 MLOAD DUP1 DUP6 DUP2 MSTORE PUSH1 0x20 ADD DUP5 PUSH1 0xFF AND DUP2 MSTORE PUSH1 0x20 ADD DUP4 DUP2 MSTORE PUSH1 0x20 ADD DUP3 DUP2 MSTORE PUSH1 0x20 ADD SWAP5 POP POP POP POP POP PUSH1 0x20 PUSH1 0x40 MLOAD PUSH1 0x20 DUP2 SUB SWAP1 DUP1 DUP5 SUB SWAP1 DUP6 GAS STATICCALL ISZERO DUP1 ISZERO PUSH2 0x1675 JUMPI RETURNDATASIZE PUSH1 0x0 DUP1 RETURNDATACOPY RETURNDATASIZE PUSH1 0x0 REVERT JUMPDEST POP POP PUSH1 0x40 MLOAD PUSH32 0xFFFFFFFFFFFFFFFFFFFFFFFFFFFFFFFFFFFFFFFFFFFFFFFFFFFFFFFFFFFFFFE0 ADD MLOAD SWAP2 POP POP PUSH20 0xFFFFFFFFFFFFFFFFFFFFFFFFFFFFFFFFFFFFFFFF DUP2 AND ISZERO DUP1 ISZERO SWAP1 PUSH2 0x16F0 JUMPI POP DUP8 PUSH20 0xFFFFFFFFFFFFFFFFFFFFFFFFFFFFFFFFFFFFFFFF AND DUP2 PUSH20 0xFFFFFFFFFFFFFFFFFFFFFFFFFFFFFFFFFFFFFFFF AND EQ JUMPDEST SWAP9 SWAP8 POP POP POP POP POP POP POP POP JUMP JUMPDEST CHAINID SWAP1 JUMP JUMPDEST PUSH32 0x8C379A000000000000000000000000000000000000000000000000000000000 PUSH1 0x0 SWAP1 DUP2 MSTORE PUSH1 0x20 PUSH1 0x4 MSTORE PUSH1 0x7 PUSH1 0x24 MSTORE PUSH1 0xA DUP1 DUP4 DIV DUP2 DUP2 MOD PUSH1 0x30 SWAP1 DUP2 ADD PUSH1 0x8 SHL DUP4 DUP7 MOD ADD SWAP2 DUP4 SWAP1 DIV SWAP3 DUP4 MOD ADD PUSH1 0x10 SHL ADD PUSH7 0x42414C23000030 ADD PUSH1 0xC8 SHL PUSH1 0x44 MSTORE PUSH2 0xAF8 SWAP2 PUSH32 0x42414C0000000000000000000000000000000000000000000000000000000000 SWAP1 PUSH3 0x42414C SWAP1 PUSH1 0x64 SWAP1 REVERT INVALID LOG2 PUSH5 0x6970667358 0x22 SLT KECCAK256 0xE5 0x23 DUP15 DUP9 0xC5 CREATE DUP6 DUP7 0x2A 0xEA ADDRESS 0xD7 0x25 DELEGATECALL SWAP6 PUSH30 0xF29E46B0A72D43176F09CDCC561E88C064736F6C63430007010033000000 "},"methodIdentifiers":{"DOMAIN_SEPARATOR()":"3644e515","allowance(address,address)":"dd62ed3e","approve(address,uint256)":"095ea7b3","asset()":"38d52e0f","balanceOf(address)":"70a08231","burn(uint256)":"42966c68","burnFrom(address,uint256)":"79cc6790","burnWithoutAllowance(address,uint256)":"7c602bc2","convertToAssets(uint256)":"07a2d13a","convertToShares(uint256)":"c6e6f592","decimals()":"313ce567","decreaseAllowance(address,uint256)":"a457c2d7","deposit(uint256,address)":"6e553f65","getDomainSeparator()":"ed24911d","getNextNonce(address)":"90193b7c","increaseAllowance(address,uint256)":"39509351","maybeRevertMaliciously()":"29478cb4","mint(address,uint256)":"40c10f19","name()":"06fdde03","nonces(address)":"7ecebe00","permit(address,address,uint256,uint256,uint8,bytes32,bytes32)":"d505accf","previewMint(uint256)":"b3d7f6b9","redeem(uint256,address,address)":"ba087652","revertType()":"d652e8c6","setRate(uint256)":"34fcf437","setRevertType(uint8)":"2cd10339","spoofJoinExitQueryRevert()":"7ce3ee48","spoofSwapQueryRevert()":"146d4eee","symbol()":"95d89b41","totalAssets()":"01e1d114","totalSupply()":"18160ddd","transfer(address,uint256)":"a9059cbb","transferFrom(address,address,uint256)":"23b872dd"}}}}}