{"src/helpers/contracts/MockShareToken.sol":{"MockShareToken":{"abi":[{"inputs":[{"internalType":"string","name":"name","type":"string"},{"internalType":"string","name":"symbol","type":"string"},{"internalType":"address","name":"silo","type":"address"},{"internalType":"address","name":"asset","type":"address"},{"internalType":"uint8","name":"decimals","type":"uint8"}],"stateMutability":"nonpayable","type":"constructor"},{"anonymous":false,"inputs":[{"indexed":true,"internalType":"address","name":"owner","type":"address"},{"indexed":true,"internalType":"address","name":"spender","type":"address"},{"indexed":false,"internalType":"uint256","name":"value","type":"uint256"}],"name":"Approval","type":"event"},{"anonymous":false,"inputs":[{"indexed":true,"internalType":"address","name":"from","type":"address"},{"indexed":true,"internalType":"address","name":"to","type":"address"},{"indexed":false,"internalType":"uint256","name":"value","type":"uint256"}],"name":"Transfer","type":"event"},{"inputs":[],"name":"DOMAIN_SEPARATOR","outputs":[{"internalType":"bytes32","name":"","type":"bytes32"}],"stateMutability":"view","type":"function"},{"inputs":[{"internalType":"address","name":"owner","type":"address"},{"internalType":"address","name":"spender","type":"address"}],"name":"allowance","outputs":[{"internalType":"uint256","name":"","type":"uint256"}],"stateMutability":"view","type":"function"},{"inputs":[{"internalType":"address","name":"spender","type":"address"},{"internalType":"uint256","name":"amount","type":"uint256"}],"name":"approve","outputs":[{"internalType":"bool","name":"","type":"bool"}],"stateMutability":"nonpayable","type":"function"},{"inputs":[],"name":"asset","outputs":[{"internalType":"address","name":"","type":"address"}],"stateMutability":"view","type":"function"},{"inputs":[{"internalType":"address","name":"account","type":"address"}],"name":"balanceOf","outputs":[{"internalType":"uint256","name":"","type":"uint256"}],"stateMutability":"view","type":"function"},{"inputs":[{"internalType":"uint256","name":"amount","type":"uint256"}],"name":"burn","outputs":[],"stateMutability":"nonpayable","type":"function"},{"inputs":[{"internalType":"address","name":"account","type":"address"},{"internalType":"uint256","name":"amount","type":"uint256"}],"name":"burnFrom","outputs":[],"stateMutability":"nonpayable","type":"function"},{"inputs":[{"internalType":"address","name":"sender","type":"address"},{"internalType":"uint256","name":"amount","type":"uint256"}],"name":"burnWithoutAllowance","outputs":[],"stateMutability":"nonpayable","type":"function"},{"inputs":[],"name":"decimals","outputs":[{"internalType":"uint8","name":"","type":"uint8"}],"stateMutability":"view","type":"function"},{"inputs":[{"internalType":"address","name":"spender","type":"address"},{"internalType":"uint256","name":"subtractedValue","type":"uint256"}],"name":"decreaseAllowance","outputs":[{"internalType":"bool","name":"","type":"bool"}],"stateMutability":"nonpayable","type":"function"},{"inputs":[],"name":"getDomainSeparator","outputs":[{"internalType":"bytes32","name":"","type":"bytes32"}],"stateMutability":"view","type":"function"},{"inputs":[{"internalType":"address","name":"account","type":"address"}],"name":"getNextNonce","outputs":[{"internalType":"uint256","name":"","type":"uint256"}],"stateMutability":"view","type":"function"},{"inputs":[{"internalType":"address","name":"spender","type":"address"},{"internalType":"uint256","name":"addedValue","type":"uint256"}],"name":"increaseAllowance","outputs":[{"internalType":"bool","name":"","type":"bool"}],"stateMutability":"nonpayable","type":"function"},{"inputs":[],"name":"maybeRevertMaliciously","outputs":[],"stateMutability":"view","type":"function"},{"inputs":[{"internalType":"address","name":"recipient","type":"address"},{"internalType":"uint256","name":"amount","type":"uint256"}],"name":"mint","outputs":[],"stateMutability":"nonpayable","type":"function"},{"inputs":[],"name":"name","outputs":[{"internalType":"string","name":"","type":"string"}],"stateMutability":"view","type":"function"},{"inputs":[{"internalType":"address","name":"owner","type":"address"}],"name":"nonces","outputs":[{"internalType":"uint256","name":"","type":"uint256"}],"stateMutability":"view","type":"function"},{"inputs":[{"internalType":"address","name":"owner","type":"address"},{"internalType":"address","name":"spender","type":"address"},{"internalType":"uint256","name":"value","type":"uint256"},{"internalType":"uint256","name":"deadline","type":"uint256"},{"internalType":"uint8","name":"v","type":"uint8"},{"internalType":"bytes32","name":"r","type":"bytes32"},{"internalType":"bytes32","name":"s","type":"bytes32"}],"name":"permit","outputs":[],"stateMutability":"nonpayable","type":"function"},{"inputs":[],"name":"revertType","outputs":[{"internalType":"enum MaliciousQueryReverter.RevertType","name":"","type":"uint8"}],"stateMutability":"view","type":"function"},{"inputs":[{"internalType":"enum MaliciousQueryReverter.RevertType","name":"newRevertType","type":"uint8"}],"name":"setRevertType","outputs":[],"stateMutability":"nonpayable","type":"function"},{"inputs":[{"internalType":"uint256","name":"supply","type":"uint256"}],"name":"setTotalSupply","outputs":[],"stateMutability":"nonpayable","type":"function"},{"inputs":[],"name":"silo","outputs":[{"internalType":"address","name":"","type":"address"}],"stateMutability":"view","type":"function"},{"inputs":[],"name":"spoofJoinExitQueryRevert","outputs":[],"stateMutability":"pure","type":"function"},{"inputs":[],"name":"spoofSwapQueryRevert","outputs":[],"stateMutability":"pure","type":"function"},{"inputs":[],"name":"symbol","outputs":[{"internalType":"string","name":"","type":"string"}],"stateMutability":"view","type":"function"},{"inputs":[],"name":"totalSupply","outputs":[{"internalType":"uint256","name":"","type":"uint256"}],"stateMutability":"view","type":"function"},{"inputs":[{"internalType":"address","name":"recipient","type":"address"},{"internalType":"uint256","name":"amount","type":"uint256"}],"name":"transfer","outputs":[{"internalType":"bool","name":"","type":"bool"}],"stateMutability":"nonpayable","type":"function"},{"inputs":[{"internalType":"address","name":"sender","type":"address"},{"internalType":"address","name":"recipient","type":"address"},{"internalType":"uint256","name":"amount","type":"uint256"}],"name":"transferFrom","outputs":[{"internalType":"bool","name":"","type":"bool"}],"stateMutability":"nonpayable","type":"function"}],"evm":{"bytecode":{"linkReferences":{},"object":"6101206040526007805460ff191690553480156200001c57600080fd5b506040516200183f3803806200183f833981810160405260a08110156200004257600080fd5b81019080805160405193929190846401000000008211156200006357600080fd5b9083019060208201858111156200007957600080fd5b82516401000000008111828201881017156200009457600080fd5b82525081516020918201929091019080838360005b83811015620000c3578181015183820152602001620000a9565b50505050905090810190601f168015620000f15780820380516001836020036101000a031916815260200191505b50604052602001805160405193929190846401000000008211156200011557600080fd5b9083019060208201858111156200012b57600080fd5b82516401000000008111828201881017156200014657600080fd5b82525081516020918201929091019080838360005b83811015620001755781810151838201526020016200015b565b50505050905090810190601f168015620001a35780820380516001836020036101000a031916815260200191505b5060408181526020838101518483015160609095015184840190935260018452603160f81b828501528851909650939450909287928792859285928392909183918791620001f891600391908501906200029f565b5080516200020e9060049060208401906200029f565b50506005805460ff19166012179055508151602092830120608052805191012060a052507f8b73c3c69bb8fe3d512ecc4cf759cc79239f7b179b0ffacaa9a75d522b39400f60c052620002618162000289565b50505050606091821b6001600160601b031990811660e052911b1661010052506200033b9050565b6005805460ff191660ff92909216919091179055565b828054600181600116156101000203166002900490600052602060002090601f016020900481019282601f10620002e257805160ff191683800117855562000312565b8280016001018555821562000312579182015b8281111562000312578251825591602001919060010190620002f5565b506200032092915062000324565b5090565b5b8082111562000320576000815560010162000325565b60805160a05160c05160e05160601c6101005160601c6114be620003816000398061095d525080610d4c5250806111945250806111d65250806111b552506114be6000f3fe608060405234801561001057600080fd5b50600436106101c45760003560e01c806379cc6790116100f9578063a9059cbb11610097578063dd62ed3e11610071578063dd62ed3e1461061c578063eb3beb2914610657578063ed24911d1461065f578063f7ea7a3d14610667576101c4565b8063a9059cbb1461055c578063d505accf14610595578063d652e8c6146105f3576101c4565b80637ecebe00116100d35780637ecebe00146104b557806390193b7c146104e857806395d89b411461051b578063a457c2d714610523576101c4565b806379cc67901461043b5780637c602bc2146104745780637ce3ee48146104ad576101c4565b8063313ce567116101665780633950935111610140578063395093511461037957806340c10f19146103b257806342966c68146103eb57806370a0823114610408576101c4565b8063313ce567146103225780633644e5151461034057806338d52e0f14610348576101c4565b806318160ddd116101a257806318160ddd1461029d57806323b872dd146102b757806329478cb4146102fa5780632cd1033914610302576101c4565b806306fdde03146101c9578063095ea7b314610246578063146d4eee14610293575b600080fd5b6101d1610684565b6040805160208082528351818301528351919283929083019185019080838360005b8381101561020b5781810151838201526020016101f3565b50505050905090810190601f1680156102385780820380516001836020036101000a031916815260200191505b509250505060405180910390f35b61027f6004803603604081101561025c57600080fd5b5073ffffffffffffffffffffffffffffffffffffffff8135169060200135610738565b604080519115158252519081900360200190f35b61029b61074e565b005b6102a56107be565b60408051918252519081900360200190f35b61027f600480360360608110156102cd57600080fd5b5073ffffffffffffffffffffffffffffffffffffffff8135811691602081013590911690604001356107cf565b61029b610830565b61029b6004803603602081101561031857600080fd5b503560ff166108f9565b61032a610938565b6040805160ff9092168252519081900360200190f35b6102a5610941565b610350610950565b6040805173ffffffffffffffffffffffffffffffffffffffff9092168252519081900360200190f35b61027f6004803603604081101561038f57600080fd5b5073ffffffffffffffffffffffffffffffffffffffff813516906020013561097f565b61029b600480360360408110156103c857600080fd5b5073ffffffffffffffffffffffffffffffffffffffff81351690602001356109c2565b61029b6004803603602081101561040157600080fd5b50356109d0565b6102a56004803603602081101561041e57600080fd5b503573ffffffffffffffffffffffffffffffffffffffff166109dd565b61029b6004803603604081101561045157600080fd5b5073ffffffffffffffffffffffffffffffffffffffff8135169060200135610a05565b61029b6004803603604081101561048a57600080fd5b5073ffffffffffffffffffffffffffffffffffffffff8135169060200135610a3b565b61029b610a45565b6102a5600480360360208110156104cb57600080fd5b503573ffffffffffffffffffffffffffffffffffffffff16610b1e565b6102a5600480360360208110156104fe57600080fd5b503573ffffffffffffffffffffffffffffffffffffffff16610b2f565b6101d1610b57565b61027f6004803603604081101561053957600080fd5b5073ffffffffffffffffffffffffffffffffffffffff8135169060200135610bd6565b61027f6004803603604081101561057257600080fd5b5073ffffffffffffffffffffffffffffffffffffffff8135169060200135610c1c565b61029b600480360360e08110156105ab57600080fd5b5073ffffffffffffffffffffffffffffffffffffffff813581169160208101359091169060408101359060608101359060ff6080820135169060a08101359060c00135610c29565b6105fb610cfe565b6040518082600381111561060b57fe5b815260200191505060405180910390f35b6102a56004803603604081101561063257600080fd5b5073ffffffffffffffffffffffffffffffffffffffff81358116916020013516610d07565b610350610d3f565b6102a5610d6e565b61029b6004803603602081101561067d57600080fd5b5035610d78565b60038054604080516020601f60027fffffffffffffffffffffffffffffffffffffffffffffffffffffffffffffffff61010060018816150201909516949094049384018190048102820181019092528281526060939092909183018282801561072e5780601f106107035761010080835404028352916020019161072e565b820191906000526020600020905b81548152906001019060200180831161071157829003601f168201915b5050505050905090565b6000610745338484610d7d565b50600192915050565b604080516002808252606080830184529260208301908036833701905050905060018160008151811061077d57fe5b60200260200101818152505060028160018151811061079857fe5b602002602001018181525050602081510263fa61cc126020830352600482036024820181fd5b60006107c8610830565b5060085490565b60006107dc848484610dec565b73ffffffffffffffffffffffffffffffffffffffff8416600090815260016020908152604080832033808552925290912054610826918691610821908661019e610f15565b610d7d565b5060019392505050565b600160075460ff16600381111561084357fe5b14156108b057604080517f08c379a000000000000000000000000000000000000000000000000000000000815260206004820152601460248201527f4e4f4e5f4d414c4943494f55535f524556455254000000000000000000000000604482015290519081900360640190fd5b600260075460ff1660038111156108c357fe5b14156108d6576108d161074e565b6108f7565b600360075460ff1660038111156108e957fe5b14156108f7576108f7610a45565b565b600780548291907fffffffffffffffffffffffffffffffffffffffffffffffffffffffffffffff0016600183600381111561093057fe5b021790555050565b60055460ff1690565b600061094b610d6e565b905090565b600061095a610830565b507f000000000000000000000000000000000000000000000000000000000000000090565b33600081815260016020908152604080832073ffffffffffffffffffffffffffffffffffffffff8716845290915281205490916107459185906108219086610f2b565b6109cc8282610f44565b5050565b6109da3382610ffd565b50565b73ffffffffffffffffffffffffffffffffffffffff1660009081526020819052604090205490565b6000610a1f826101a1610a188633610d07565b9190610f15565b9050610a2c833383610d7d565b610a368383610ffd565b505050565b6109cc8282610ffd565b6040805160028082526060808301845292602083019080368337019050509050600181600081518110610a7457fe5b602002602001018181525050600281600181518110610a8f57fe5b60209081029190910181019190915281516101a47fffffffffffffffffffffffffffffffffffffffffffffffffffffffffffffffe084018190526343adbafb7fffffffffffffffffffffffffffffffffffffffffffffffffffffffffffffffc085015291027fffffffffffffffffffffffffffffffffffffffffffffffffffffffffffffffdc83016044820181fd5b6000610b2982610b2f565b92915050565b73ffffffffffffffffffffffffffffffffffffffff1660009081526006602052604090205490565b60048054604080516020601f60027fffffffffffffffffffffffffffffffffffffffffffffffffffffffffffffffff61010060018816150201909516949094049384018190048102820181019092528281526060939092909183018282801561072e5780601f106107035761010080835404028352916020019161072e565b33600081815260016020908152604080832073ffffffffffffffffffffffffffffffffffffffff871684529091528120549091610745918590610821908661019f610f15565b6000610745338484610dec565b60007f6e71edae12b1b97f4d1f60370fef10105fa2faae0126114a169c64845d6126c9888888610c588c610b2f565b89604051602001808781526020018673ffffffffffffffffffffffffffffffffffffffff1681526020018573ffffffffffffffffffffffffffffffffffffffff1681526020018481526020018381526020018281526020019650505050505050604051602081830303815290604052805190602001209050610ce98882610ce08787876110ed565b886101f861112c565b610cf4888888610d7d565b5050505050505050565b60075460ff1681565b73ffffffffffffffffffffffffffffffffffffffff918216600090815260016020908152604080832093909416825291909152205490565b6000610d49610830565b507f000000000000000000000000000000000000000000000000000000000000000090565b600061094b611190565b600855565b73ffffffffffffffffffffffffffffffffffffffff808416600081815260016020908152604080832094871680845294825291829020859055815185815291517f8c5be1e5ebec7d5bd14f71427d1e84f3dd0314c0f7b2291e5b200ac8c7c3b9259281900390910190a3505050565b610e1073ffffffffffffffffffffffffffffffffffffffff8416151561019861125b565b610e3473ffffffffffffffffffffffffffffffffffffffff8316151561019961125b565b610e3f838383610a36565b73ffffffffffffffffffffffffffffffffffffffff8316600090815260208190526040902054610e7290826101a0610f15565b73ffffffffffffffffffffffffffffffffffffffff8085166000908152602081905260408082209390935590841681522054610eae9082610f2b565b73ffffffffffffffffffffffffffffffffffffffff8084166000818152602081815260409182902094909455805185815290519193928716927fddf252ad1be2c89b69c2b068fc378daa952ba7f163c4a11628f55a4df523b3ef92918290030190a3505050565b6000610f24848411158361125b565b5050900390565b6000828201610f3d848210158361125b565b9392505050565b610f5060008383610a36565b610f6a610f6582610f5f6107be565b90610f2b565b611269565b73ffffffffffffffffffffffffffffffffffffffff8216600090815260208190526040902054610f9a9082610f2b565b73ffffffffffffffffffffffffffffffffffffffff83166000818152602081815260408083209490945583518581529351929391927fddf252ad1be2c89b69c2b068fc378daa952ba7f163c4a11628f55a4df523b3ef9281900390910190a35050565b61102173ffffffffffffffffffffffffffffffffffffffff8316151561019b61125b565b61102d82600083610a36565b73ffffffffffffffffffffffffffffffffffffffff821660009081526020819052604090205461106090826101b2610f15565b73ffffffffffffffffffffffffffffffffffffffff831660009081526020819052604090205561109b610f65826110956107be565b9061126e565b60408051828152905160009173ffffffffffffffffffffffffffffffffffffffff8516917fddf252ad1be2c89b69c2b068fc378daa952ba7f163c4a11628f55a4df523b3ef9181900360200190a35050565b60408051604180825260808201909252606091829190602082018180368337019050509050836020820152826040820152846060820153949350505050565b60006111378561127c565b905061114d6111478783876112e3565b8361125b565b61115c428410156101b861125b565b50505073ffffffffffffffffffffffffffffffffffffffff9092166000908152600660205260409020805460010190555050565b60007f00000000000000000000000000000000000000000000000000000000000000007f00000000000000000000000000000000000000000000000000000000000000007f00000000000000000000000000000000000000000000000000000000000000006111fd6113f5565b30604051602001808681526020018581526020018481526020018381526020018273ffffffffffffffffffffffffffffffffffffffff1681526020019550505050505060405160208183030381529060405280519060200120905090565b816109cc576109cc816113f9565b600255565b6000610f3d83836001610f15565b6000611286611190565b8260405160200180807f190100000000000000000000000000000000000000000000000000000000000081525060020183815260200182815260200192505050604051602081830303815290604052805190602001209050919050565b60006112f582516041146101b961125b565b60008060006020850151925060408501519150606085015160001a9050600060018783868660405160008152602001604052604051808581526020018460ff1681526020018381526020018281526020019450505050506020604051602081039080840390855afa15801561136e573d6000803e3d6000fd5b50506040517fffffffffffffffffffffffffffffffffffffffffffffffffffffffffffffffe0015191505073ffffffffffffffffffffffffffffffffffffffff8116158015906113e957508773ffffffffffffffffffffffffffffffffffffffff168173ffffffffffffffffffffffffffffffffffffffff16145b98975050505050505050565b4690565b7f08c379a000000000000000000000000000000000000000000000000000000000600090815260206004526007602452600a808304818106603090810160081b83860601918390049283060160101b016642414c230000300160c81b6044526109da917f42414c0000000000000000000000000000000000000000000000000000000000906242414c90606490fdfea2646970667358221220024157d3c207cd36f59919459b82c3b95a5c5ed3f0d527f00c5a6ba2342d5f5264736f6c63430007010033","opcodes":"PUSH2 0x120 PUSH1 0x40 MSTORE PUSH1 0x7 DUP1 SLOAD PUSH1 0xFF NOT AND SWAP1 SSTORE CALLVALUE DUP1 ISZERO PUSH3 0x1C JUMPI PUSH1 0x0 DUP1 REVERT JUMPDEST POP PUSH1 0x40 MLOAD PUSH3 0x183F CODESIZE SUB DUP1 PUSH3 0x183F DUP4 CODECOPY DUP2 DUP2 ADD PUSH1 0x40 MSTORE PUSH1 0xA0 DUP2 LT ISZERO PUSH3 0x42 JUMPI PUSH1 0x0 DUP1 REVERT JUMPDEST DUP2 ADD SWAP1 DUP1 DUP1 MLOAD PUSH1 0x40 MLOAD SWAP4 SWAP3 SWAP2 SWAP1 DUP5 PUSH5 0x100000000 DUP3 GT ISZERO PUSH3 0x63 JUMPI PUSH1 0x0 DUP1 REVERT JUMPDEST SWAP1 DUP4 ADD SWAP1 PUSH1 0x20 DUP3 ADD DUP6 DUP2 GT ISZERO PUSH3 0x79 JUMPI PUSH1 0x0 DUP1 REVERT JUMPDEST DUP3 MLOAD PUSH5 0x100000000 DUP2 GT DUP3 DUP3 ADD DUP9 LT OR ISZERO PUSH3 0x94 JUMPI PUSH1 0x0 DUP1 REVERT JUMPDEST DUP3 MSTORE POP DUP2 MLOAD PUSH1 0x20 SWAP2 DUP3 ADD SWAP3 SWAP1 SWAP2 ADD SWAP1 DUP1 DUP4 DUP4 PUSH1 0x0 JUMPDEST DUP4 DUP2 LT ISZERO PUSH3 0xC3 JUMPI DUP2 DUP2 ADD MLOAD DUP4 DUP3 ADD MSTORE PUSH1 0x20 ADD PUSH3 0xA9 JUMP JUMPDEST POP POP POP POP SWAP1 POP SWAP1 DUP2 ADD SWAP1 PUSH1 0x1F AND DUP1 ISZERO PUSH3 0xF1 JUMPI DUP1 DUP3 SUB DUP1 MLOAD PUSH1 0x1 DUP4 PUSH1 0x20 SUB PUSH2 0x100 EXP SUB NOT AND DUP2 MSTORE PUSH1 0x20 ADD SWAP2 POP JUMPDEST POP PUSH1 0x40 MSTORE PUSH1 0x20 ADD DUP1 MLOAD PUSH1 0x40 MLOAD SWAP4 SWAP3 SWAP2 SWAP1 DUP5 PUSH5 0x100000000 DUP3 GT ISZERO PUSH3 0x115 JUMPI PUSH1 0x0 DUP1 REVERT JUMPDEST SWAP1 DUP4 ADD SWAP1 PUSH1 0x20 DUP3 ADD DUP6 DUP2 GT ISZERO PUSH3 0x12B JUMPI PUSH1 0x0 DUP1 REVERT JUMPDEST DUP3 MLOAD PUSH5 0x100000000 DUP2 GT DUP3 DUP3 ADD DUP9 LT OR ISZERO PUSH3 0x146 JUMPI PUSH1 0x0 DUP1 REVERT JUMPDEST DUP3 MSTORE POP DUP2 MLOAD PUSH1 0x20 SWAP2 DUP3 ADD SWAP3 SWAP1 SWAP2 ADD SWAP1 DUP1 DUP4 DUP4 PUSH1 0x0 JUMPDEST DUP4 DUP2 LT ISZERO PUSH3 0x175 JUMPI DUP2 DUP2 ADD MLOAD DUP4 DUP3 ADD MSTORE PUSH1 0x20 ADD PUSH3 0x15B JUMP JUMPDEST POP POP POP POP SWAP1 POP SWAP1 DUP2 ADD SWAP1 PUSH1 0x1F AND DUP1 ISZERO PUSH3 0x1A3 JUMPI DUP1 DUP3 SUB DUP1 MLOAD PUSH1 0x1 DUP4 PUSH1 0x20 SUB PUSH2 0x100 EXP SUB NOT AND DUP2 MSTORE PUSH1 0x20 ADD SWAP2 POP JUMPDEST POP PUSH1 0x40 DUP2 DUP2 MSTORE PUSH1 0x20 DUP4 DUP2 ADD MLOAD DUP5 DUP4 ADD MLOAD PUSH1 0x60 SWAP1 SWAP6 ADD MLOAD DUP5 DUP5 ADD SWAP1 SWAP4 MSTORE PUSH1 0x1 DUP5 MSTORE PUSH1 0x31 PUSH1 0xF8 SHL DUP3 DUP6 ADD MSTORE DUP9 MLOAD SWAP1 SWAP7 POP SWAP4 SWAP5 POP SWAP1 SWAP3 DUP8 SWAP3 DUP8 SWAP3 DUP6 SWAP3 DUP6 SWAP3 DUP4 SWAP3 SWAP1 SWAP2 DUP4 SWAP2 DUP8 SWAP2 PUSH3 0x1F8 SWAP2 PUSH1 0x3 SWAP2 SWAP1 DUP6 ADD SWAP1 PUSH3 0x29F JUMP JUMPDEST POP DUP1 MLOAD PUSH3 0x20E SWAP1 PUSH1 0x4 SWAP1 PUSH1 0x20 DUP5 ADD SWAP1 PUSH3 0x29F JUMP JUMPDEST POP POP PUSH1 0x5 DUP1 SLOAD PUSH1 0xFF NOT AND PUSH1 0x12 OR SWAP1 SSTORE POP DUP2 MLOAD PUSH1 0x20 SWAP3 DUP4 ADD KECCAK256 PUSH1 0x80 MSTORE DUP1 MLOAD SWAP2 ADD KECCAK256 PUSH1 0xA0 MSTORE POP PUSH32 0x8B73C3C69BB8FE3D512ECC4CF759CC79239F7B179B0FFACAA9A75D522B39400F PUSH1 0xC0 MSTORE PUSH3 0x261 DUP2 PUSH3 0x289 JUMP JUMPDEST POP POP POP POP PUSH1 0x60 SWAP2 DUP3 SHL PUSH1 0x1 PUSH1 0x1 PUSH1 0x60 SHL SUB NOT SWAP1 DUP2 AND PUSH1 0xE0 MSTORE SWAP2 SHL AND PUSH2 0x100 MSTORE POP PUSH3 0x33B SWAP1 POP JUMP JUMPDEST PUSH1 0x5 DUP1 SLOAD PUSH1 0xFF NOT AND PUSH1 0xFF SWAP3 SWAP1 SWAP3 AND SWAP2 SWAP1 SWAP2 OR SWAP1 SSTORE JUMP JUMPDEST DUP3 DUP1 SLOAD PUSH1 0x1 DUP2 PUSH1 0x1 AND ISZERO PUSH2 0x100 MUL SUB AND PUSH1 0x2 SWAP1 DIV SWAP1 PUSH1 0x0 MSTORE PUSH1 0x20 PUSH1 0x0 KECCAK256 SWAP1 PUSH1 0x1F ADD PUSH1 0x20 SWAP1 DIV DUP2 ADD SWAP3 DUP3 PUSH1 0x1F LT PUSH3 0x2E2 JUMPI DUP1 MLOAD PUSH1 0xFF NOT AND DUP4 DUP1 ADD OR DUP6 SSTORE PUSH3 0x312 JUMP JUMPDEST DUP3 DUP1 ADD PUSH1 0x1 ADD DUP6 SSTORE DUP3 ISZERO PUSH3 0x312 JUMPI SWAP2 DUP3 ADD JUMPDEST DUP3 DUP2 GT ISZERO PUSH3 0x312 JUMPI DUP3 MLOAD DUP3 SSTORE SWAP2 PUSH1 0x20 ADD SWAP2 SWAP1 PUSH1 0x1 ADD SWAP1 PUSH3 0x2F5 JUMP JUMPDEST POP PUSH3 0x320 SWAP3 SWAP2 POP PUSH3 0x324 JUMP JUMPDEST POP SWAP1 JUMP JUMPDEST JUMPDEST DUP1 DUP3 GT ISZERO PUSH3 0x320 JUMPI PUSH1 0x0 DUP2 SSTORE PUSH1 0x1 ADD PUSH3 0x325 JUMP JUMPDEST PUSH1 0x80 MLOAD PUSH1 0xA0 MLOAD PUSH1 0xC0 MLOAD PUSH1 0xE0 MLOAD PUSH1 0x60 SHR PUSH2 0x100 MLOAD PUSH1 0x60 SHR PUSH2 0x14BE PUSH3 0x381 PUSH1 0x0 CODECOPY DUP1 PUSH2 0x95D MSTORE POP DUP1 PUSH2 0xD4C MSTORE POP DUP1 PUSH2 0x1194 MSTORE POP DUP1 PUSH2 0x11D6 MSTORE POP DUP1 PUSH2 0x11B5 MSTORE POP PUSH2 0x14BE PUSH1 0x0 RETURN INVALID PUSH1 0x80 PUSH1 0x40 MSTORE CALLVALUE DUP1 ISZERO PUSH2 0x10 JUMPI PUSH1 0x0 DUP1 REVERT JUMPDEST POP PUSH1 0x4 CALLDATASIZE LT PUSH2 0x1C4 JUMPI PUSH1 0x0 CALLDATALOAD PUSH1 0xE0 SHR DUP1 PUSH4 0x79CC6790 GT PUSH2 0xF9 JUMPI DUP1 PUSH4 0xA9059CBB GT PUSH2 0x97 JUMPI DUP1 PUSH4 0xDD62ED3E GT PUSH2 0x71 JUMPI DUP1 PUSH4 0xDD62ED3E EQ PUSH2 0x61C JUMPI DUP1 PUSH4 0xEB3BEB29 EQ PUSH2 0x657 JUMPI DUP1 PUSH4 0xED24911D EQ PUSH2 0x65F JUMPI DUP1 PUSH4 0xF7EA7A3D EQ PUSH2 0x667 JUMPI PUSH2 0x1C4 JUMP JUMPDEST DUP1 PUSH4 0xA9059CBB EQ PUSH2 0x55C JUMPI DUP1 PUSH4 0xD505ACCF EQ PUSH2 0x595 JUMPI DUP1 PUSH4 0xD652E8C6 EQ PUSH2 0x5F3 JUMPI PUSH2 0x1C4 JUMP JUMPDEST DUP1 PUSH4 0x7ECEBE00 GT PUSH2 0xD3 JUMPI DUP1 PUSH4 0x7ECEBE00 EQ PUSH2 0x4B5 JUMPI DUP1 PUSH4 0x90193B7C EQ PUSH2 0x4E8 JUMPI DUP1 PUSH4 0x95D89B41 EQ PUSH2 0x51B JUMPI DUP1 PUSH4 0xA457C2D7 EQ PUSH2 0x523 JUMPI PUSH2 0x1C4 JUMP JUMPDEST DUP1 PUSH4 0x79CC6790 EQ PUSH2 0x43B JUMPI DUP1 PUSH4 0x7C602BC2 EQ PUSH2 0x474 JUMPI DUP1 PUSH4 0x7CE3EE48 EQ PUSH2 0x4AD JUMPI PUSH2 0x1C4 JUMP JUMPDEST DUP1 PUSH4 0x313CE567 GT PUSH2 0x166 JUMPI DUP1 PUSH4 0x39509351 GT PUSH2 0x140 JUMPI DUP1 PUSH4 0x39509351 EQ PUSH2 0x379 JUMPI DUP1 PUSH4 0x40C10F19 EQ PUSH2 0x3B2 JUMPI DUP1 PUSH4 0x42966C68 EQ PUSH2 0x3EB JUMPI DUP1 PUSH4 0x70A08231 EQ PUSH2 0x408 JUMPI PUSH2 0x1C4 JUMP JUMPDEST DUP1 PUSH4 0x313CE567 EQ PUSH2 0x322 JUMPI DUP1 PUSH4 0x3644E515 EQ PUSH2 0x340 JUMPI DUP1 PUSH4 0x38D52E0F EQ PUSH2 0x348 JUMPI PUSH2 0x1C4 JUMP JUMPDEST DUP1 PUSH4 0x18160DDD GT PUSH2 0x1A2 JUMPI DUP1 PUSH4 0x18160DDD EQ PUSH2 0x29D JUMPI DUP1 PUSH4 0x23B872DD EQ PUSH2 0x2B7 JUMPI DUP1 PUSH4 0x29478CB4 EQ PUSH2 0x2FA JUMPI DUP1 PUSH4 0x2CD10339 EQ PUSH2 0x302 JUMPI PUSH2 0x1C4 JUMP JUMPDEST DUP1 PUSH4 0x6FDDE03 EQ PUSH2 0x1C9 JUMPI DUP1 PUSH4 0x95EA7B3 EQ PUSH2 0x246 JUMPI DUP1 PUSH4 0x146D4EEE EQ PUSH2 0x293 JUMPI JUMPDEST PUSH1 0x0 DUP1 REVERT JUMPDEST PUSH2 0x1D1 PUSH2 0x684 JUMP JUMPDEST PUSH1 0x40 DUP1 MLOAD PUSH1 0x20 DUP1 DUP3 MSTORE DUP4 MLOAD DUP2 DUP4 ADD MSTORE DUP4 MLOAD SWAP2 SWAP3 DUP4 SWAP3 SWAP1 DUP4 ADD SWAP2 DUP6 ADD SWAP1 DUP1 DUP4 DUP4 PUSH1 0x0 JUMPDEST DUP4 DUP2 LT ISZERO PUSH2 0x20B JUMPI DUP2 DUP2 ADD MLOAD DUP4 DUP3 ADD MSTORE PUSH1 0x20 ADD PUSH2 0x1F3 JUMP JUMPDEST POP POP POP POP SWAP1 POP SWAP1 DUP2 ADD SWAP1 PUSH1 0x1F AND DUP1 ISZERO PUSH2 0x238 JUMPI DUP1 DUP3 SUB DUP1 MLOAD PUSH1 0x1 DUP4 PUSH1 0x20 SUB PUSH2 0x100 EXP SUB NOT AND DUP2 MSTORE PUSH1 0x20 ADD SWAP2 POP JUMPDEST POP SWAP3 POP POP POP PUSH1 0x40 MLOAD DUP1 SWAP2 SUB SWAP1 RETURN JUMPDEST PUSH2 0x27F PUSH1 0x4 DUP1 CALLDATASIZE SUB PUSH1 0x40 DUP2 LT ISZERO PUSH2 0x25C JUMPI PUSH1 0x0 DUP1 REVERT JUMPDEST POP PUSH20 0xFFFFFFFFFFFFFFFFFFFFFFFFFFFFFFFFFFFFFFFF DUP2 CALLDATALOAD AND SWAP1 PUSH1 0x20 ADD CALLDATALOAD PUSH2 0x738 JUMP JUMPDEST PUSH1 0x40 DUP1 MLOAD SWAP2 ISZERO ISZERO DUP3 MSTORE MLOAD SWAP1 DUP2 SWAP1 SUB PUSH1 0x20 ADD SWAP1 RETURN JUMPDEST PUSH2 0x29B PUSH2 0x74E JUMP JUMPDEST STOP JUMPDEST PUSH2 0x2A5 PUSH2 0x7BE JUMP JUMPDEST PUSH1 0x40 DUP1 MLOAD SWAP2 DUP3 MSTORE MLOAD SWAP1 DUP2 SWAP1 SUB PUSH1 0x20 ADD SWAP1 RETURN JUMPDEST PUSH2 0x27F PUSH1 0x4 DUP1 CALLDATASIZE SUB PUSH1 0x60 DUP2 LT ISZERO PUSH2 0x2CD JUMPI PUSH1 0x0 DUP1 REVERT JUMPDEST POP PUSH20 0xFFFFFFFFFFFFFFFFFFFFFFFFFFFFFFFFFFFFFFFF DUP2 CALLDATALOAD DUP2 AND SWAP2 PUSH1 0x20 DUP2 ADD CALLDATALOAD SWAP1 SWAP2 AND SWAP1 PUSH1 0x40 ADD CALLDATALOAD PUSH2 0x7CF JUMP JUMPDEST PUSH2 0x29B PUSH2 0x830 JUMP JUMPDEST PUSH2 0x29B PUSH1 0x4 DUP1 CALLDATASIZE SUB PUSH1 0x20 DUP2 LT ISZERO PUSH2 0x318 JUMPI PUSH1 0x0 DUP1 REVERT JUMPDEST POP CALLDATALOAD PUSH1 0xFF AND PUSH2 0x8F9 JUMP JUMPDEST PUSH2 0x32A PUSH2 0x938 JUMP JUMPDEST PUSH1 0x40 DUP1 MLOAD PUSH1 0xFF SWAP1 SWAP3 AND DUP3 MSTORE MLOAD SWAP1 DUP2 SWAP1 SUB PUSH1 0x20 ADD SWAP1 RETURN JUMPDEST PUSH2 0x2A5 PUSH2 0x941 JUMP JUMPDEST PUSH2 0x350 PUSH2 0x950 JUMP JUMPDEST PUSH1 0x40 DUP1 MLOAD PUSH20 0xFFFFFFFFFFFFFFFFFFFFFFFFFFFFFFFFFFFFFFFF SWAP1 SWAP3 AND DUP3 MSTORE MLOAD SWAP1 DUP2 SWAP1 SUB PUSH1 0x20 ADD SWAP1 RETURN JUMPDEST PUSH2 0x27F PUSH1 0x4 DUP1 CALLDATASIZE SUB PUSH1 0x40 DUP2 LT ISZERO PUSH2 0x38F JUMPI PUSH1 0x0 DUP1 REVERT JUMPDEST POP PUSH20 0xFFFFFFFFFFFFFFFFFFFFFFFFFFFFFFFFFFFFFFFF DUP2 CALLDATALOAD AND SWAP1 PUSH1 0x20 ADD CALLDATALOAD PUSH2 0x97F JUMP JUMPDEST PUSH2 0x29B PUSH1 0x4 DUP1 CALLDATASIZE SUB PUSH1 0x40 DUP2 LT ISZERO PUSH2 0x3C8 JUMPI PUSH1 0x0 DUP1 REVERT JUMPDEST POP PUSH20 0xFFFFFFFFFFFFFFFFFFFFFFFFFFFFFFFFFFFFFFFF DUP2 CALLDATALOAD AND SWAP1 PUSH1 0x20 ADD CALLDATALOAD PUSH2 0x9C2 JUMP JUMPDEST PUSH2 0x29B PUSH1 0x4 DUP1 CALLDATASIZE SUB PUSH1 0x20 DUP2 LT ISZERO PUSH2 0x401 JUMPI PUSH1 0x0 DUP1 REVERT JUMPDEST POP CALLDATALOAD PUSH2 0x9D0 JUMP JUMPDEST PUSH2 0x2A5 PUSH1 0x4 DUP1 CALLDATASIZE SUB PUSH1 0x20 DUP2 LT ISZERO PUSH2 0x41E JUMPI PUSH1 0x0 DUP1 REVERT JUMPDEST POP CALLDATALOAD PUSH20 0xFFFFFFFFFFFFFFFFFFFFFFFFFFFFFFFFFFFFFFFF AND PUSH2 0x9DD JUMP JUMPDEST PUSH2 0x29B PUSH1 0x4 DUP1 CALLDATASIZE SUB PUSH1 0x40 DUP2 LT ISZERO PUSH2 0x451 JUMPI PUSH1 0x0 DUP1 REVERT JUMPDEST POP PUSH20 0xFFFFFFFFFFFFFFFFFFFFFFFFFFFFFFFFFFFFFFFF DUP2 CALLDATALOAD AND SWAP1 PUSH1 0x20 ADD CALLDATALOAD PUSH2 0xA05 JUMP JUMPDEST PUSH2 0x29B PUSH1 0x4 DUP1 CALLDATASIZE SUB PUSH1 0x40 DUP2 LT ISZERO PUSH2 0x48A JUMPI PUSH1 0x0 DUP1 REVERT JUMPDEST POP PUSH20 0xFFFFFFFFFFFFFFFFFFFFFFFFFFFFFFFFFFFFFFFF DUP2 CALLDATALOAD AND SWAP1 PUSH1 0x20 ADD CALLDATALOAD PUSH2 0xA3B JUMP JUMPDEST PUSH2 0x29B PUSH2 0xA45 JUMP JUMPDEST PUSH2 0x2A5 PUSH1 0x4 DUP1 CALLDATASIZE SUB PUSH1 0x20 DUP2 LT ISZERO PUSH2 0x4CB JUMPI PUSH1 0x0 DUP1 REVERT JUMPDEST POP CALLDATALOAD PUSH20 0xFFFFFFFFFFFFFFFFFFFFFFFFFFFFFFFFFFFFFFFF AND PUSH2 0xB1E JUMP JUMPDEST PUSH2 0x2A5 PUSH1 0x4 DUP1 CALLDATASIZE SUB PUSH1 0x20 DUP2 LT ISZERO PUSH2 0x4FE JUMPI PUSH1 0x0 DUP1 REVERT JUMPDEST POP CALLDATALOAD PUSH20 0xFFFFFFFFFFFFFFFFFFFFFFFFFFFFFFFFFFFFFFFF AND PUSH2 0xB2F JUMP JUMPDEST PUSH2 0x1D1 PUSH2 0xB57 JUMP JUMPDEST PUSH2 0x27F PUSH1 0x4 DUP1 CALLDATASIZE SUB PUSH1 0x40 DUP2 LT ISZERO PUSH2 0x539 JUMPI PUSH1 0x0 DUP1 REVERT JUMPDEST POP PUSH20 0xFFFFFFFFFFFFFFFFFFFFFFFFFFFFFFFFFFFFFFFF DUP2 CALLDATALOAD AND SWAP1 PUSH1 0x20 ADD CALLDATALOAD PUSH2 0xBD6 JUMP JUMPDEST PUSH2 0x27F PUSH1 0x4 DUP1 CALLDATASIZE SUB PUSH1 0x40 DUP2 LT ISZERO PUSH2 0x572 JUMPI PUSH1 0x0 DUP1 REVERT JUMPDEST POP PUSH20 0xFFFFFFFFFFFFFFFFFFFFFFFFFFFFFFFFFFFFFFFF DUP2 CALLDATALOAD AND SWAP1 PUSH1 0x20 ADD CALLDATALOAD PUSH2 0xC1C JUMP JUMPDEST PUSH2 0x29B PUSH1 0x4 DUP1 CALLDATASIZE SUB PUSH1 0xE0 DUP2 LT ISZERO PUSH2 0x5AB JUMPI PUSH1 0x0 DUP1 REVERT JUMPDEST POP PUSH20 0xFFFFFFFFFFFFFFFFFFFFFFFFFFFFFFFFFFFFFFFF DUP2 CALLDATALOAD DUP2 AND SWAP2 PUSH1 0x20 DUP2 ADD CALLDATALOAD SWAP1 SWAP2 AND SWAP1 PUSH1 0x40 DUP2 ADD CALLDATALOAD SWAP1 PUSH1 0x60 DUP2 ADD CALLDATALOAD SWAP1 PUSH1 0xFF PUSH1 0x80 DUP3 ADD CALLDATALOAD AND SWAP1 PUSH1 0xA0 DUP2 ADD CALLDATALOAD SWAP1 PUSH1 0xC0 ADD CALLDATALOAD PUSH2 0xC29 JUMP JUMPDEST PUSH2 0x5FB PUSH2 0xCFE JUMP JUMPDEST PUSH1 0x40 MLOAD DUP1 DUP3 PUSH1 0x3 DUP2 GT ISZERO PUSH2 0x60B JUMPI INVALID JUMPDEST DUP2 MSTORE PUSH1 0x20 ADD SWAP2 POP POP PUSH1 0x40 MLOAD DUP1 SWAP2 SUB SWAP1 RETURN JUMPDEST PUSH2 0x2A5 PUSH1 0x4 DUP1 CALLDATASIZE SUB PUSH1 0x40 DUP2 LT ISZERO PUSH2 0x632 JUMPI PUSH1 0x0 DUP1 REVERT JUMPDEST POP PUSH20 0xFFFFFFFFFFFFFFFFFFFFFFFFFFFFFFFFFFFFFFFF DUP2 CALLDATALOAD DUP2 AND SWAP2 PUSH1 0x20 ADD CALLDATALOAD AND PUSH2 0xD07 JUMP JUMPDEST PUSH2 0x350 PUSH2 0xD3F JUMP JUMPDEST PUSH2 0x2A5 PUSH2 0xD6E JUMP JUMPDEST PUSH2 0x29B PUSH1 0x4 DUP1 CALLDATASIZE SUB PUSH1 0x20 DUP2 LT ISZERO PUSH2 0x67D JUMPI PUSH1 0x0 DUP1 REVERT JUMPDEST POP CALLDATALOAD PUSH2 0xD78 JUMP JUMPDEST PUSH1 0x3 DUP1 SLOAD PUSH1 0x40 DUP1 MLOAD PUSH1 0x20 PUSH1 0x1F PUSH1 0x2 PUSH32 0xFFFFFFFFFFFFFFFFFFFFFFFFFFFFFFFFFFFFFFFFFFFFFFFFFFFFFFFFFFFFFFFF PUSH2 0x100 PUSH1 0x1 DUP9 AND ISZERO MUL ADD SWAP1 SWAP6 AND SWAP5 SWAP1 SWAP5 DIV SWAP4 DUP5 ADD DUP2 SWAP1 DIV DUP2 MUL DUP3 ADD DUP2 ADD SWAP1 SWAP3 MSTORE DUP3 DUP2 MSTORE PUSH1 0x60 SWAP4 SWAP1 SWAP3 SWAP1 SWAP2 DUP4 ADD DUP3 DUP3 DUP1 ISZERO PUSH2 0x72E JUMPI DUP1 PUSH1 0x1F LT PUSH2 0x703 JUMPI PUSH2 0x100 DUP1 DUP4 SLOAD DIV MUL DUP4 MSTORE SWAP2 PUSH1 0x20 ADD SWAP2 PUSH2 0x72E JUMP JUMPDEST DUP3 ADD SWAP2 SWAP1 PUSH1 0x0 MSTORE PUSH1 0x20 PUSH1 0x0 KECCAK256 SWAP1 JUMPDEST DUP2 SLOAD DUP2 MSTORE SWAP1 PUSH1 0x1 ADD SWAP1 PUSH1 0x20 ADD DUP1 DUP4 GT PUSH2 0x711 JUMPI DUP3 SWAP1 SUB PUSH1 0x1F AND DUP3 ADD SWAP2 JUMPDEST POP POP POP POP POP SWAP1 POP SWAP1 JUMP JUMPDEST PUSH1 0x0 PUSH2 0x745 CALLER DUP5 DUP5 PUSH2 0xD7D JUMP JUMPDEST POP PUSH1 0x1 SWAP3 SWAP2 POP POP JUMP JUMPDEST PUSH1 0x40 DUP1 MLOAD PUSH1 0x2 DUP1 DUP3 MSTORE PUSH1 0x60 DUP1 DUP4 ADD DUP5 MSTORE SWAP3 PUSH1 0x20 DUP4 ADD SWAP1 DUP1 CALLDATASIZE DUP4 CALLDATACOPY ADD SWAP1 POP POP SWAP1 POP PUSH1 0x1 DUP2 PUSH1 0x0 DUP2 MLOAD DUP2 LT PUSH2 0x77D JUMPI INVALID JUMPDEST PUSH1 0x20 MUL PUSH1 0x20 ADD ADD DUP2 DUP2 MSTORE POP POP PUSH1 0x2 DUP2 PUSH1 0x1 DUP2 MLOAD DUP2 LT PUSH2 0x798 JUMPI INVALID JUMPDEST PUSH1 0x20 MUL PUSH1 0x20 ADD ADD DUP2 DUP2 MSTORE POP POP PUSH1 0x20 DUP2 MLOAD MUL PUSH4 0xFA61CC12 PUSH1 0x20 DUP4 SUB MSTORE PUSH1 0x4 DUP3 SUB PUSH1 0x24 DUP3 ADD DUP2 REVERT JUMPDEST PUSH1 0x0 PUSH2 0x7C8 PUSH2 0x830 JUMP JUMPDEST POP PUSH1 0x8 SLOAD SWAP1 JUMP JUMPDEST PUSH1 0x0 PUSH2 0x7DC DUP5 DUP5 DUP5 PUSH2 0xDEC JUMP JUMPDEST PUSH20 0xFFFFFFFFFFFFFFFFFFFFFFFFFFFFFFFFFFFFFFFF DUP5 AND PUSH1 0x0 SWAP1 DUP2 MSTORE PUSH1 0x1 PUSH1 0x20 SWAP1 DUP2 MSTORE PUSH1 0x40 DUP1 DUP4 KECCAK256 CALLER DUP1 DUP6 MSTORE SWAP3 MSTORE SWAP1 SWAP2 KECCAK256 SLOAD PUSH2 0x826 SWAP2 DUP7 SWAP2 PUSH2 0x821 SWAP1 DUP7 PUSH2 0x19E PUSH2 0xF15 JUMP JUMPDEST PUSH2 0xD7D JUMP JUMPDEST POP PUSH1 0x1 SWAP4 SWAP3 POP POP POP JUMP JUMPDEST PUSH1 0x1 PUSH1 0x7 SLOAD PUSH1 0xFF AND PUSH1 0x3 DUP2 GT ISZERO PUSH2 0x843 JUMPI INVALID JUMPDEST EQ ISZERO PUSH2 0x8B0 JUMPI PUSH1 0x40 DUP1 MLOAD PUSH32 0x8C379A000000000000000000000000000000000000000000000000000000000 DUP2 MSTORE PUSH1 0x20 PUSH1 0x4 DUP3 ADD MSTORE PUSH1 0x14 PUSH1 0x24 DUP3 ADD MSTORE PUSH32 0x4E4F4E5F4D414C4943494F55535F524556455254000000000000000000000000 PUSH1 0x44 DUP3 ADD MSTORE SWAP1 MLOAD SWAP1 DUP2 SWAP1 SUB PUSH1 0x64 ADD SWAP1 REVERT JUMPDEST PUSH1 0x2 PUSH1 0x7 SLOAD PUSH1 0xFF AND PUSH1 0x3 DUP2 GT ISZERO PUSH2 0x8C3 JUMPI INVALID JUMPDEST EQ ISZERO PUSH2 0x8D6 JUMPI PUSH2 0x8D1 PUSH2 0x74E JUMP JUMPDEST PUSH2 0x8F7 JUMP JUMPDEST PUSH1 0x3 PUSH1 0x7 SLOAD PUSH1 0xFF AND PUSH1 0x3 DUP2 GT ISZERO PUSH2 0x8E9 JUMPI INVALID JUMPDEST EQ ISZERO PUSH2 0x8F7 JUMPI PUSH2 0x8F7 PUSH2 0xA45 JUMP JUMPDEST JUMP JUMPDEST PUSH1 0x7 DUP1 SLOAD DUP3 SWAP2 SWAP1 PUSH32 0xFFFFFFFFFFFFFFFFFFFFFFFFFFFFFFFFFFFFFFFFFFFFFFFFFFFFFFFFFFFFFF00 AND PUSH1 0x1 DUP4 PUSH1 0x3 DUP2 GT ISZERO PUSH2 0x930 JUMPI INVALID JUMPDEST MUL OR SWAP1 SSTORE POP POP JUMP JUMPDEST PUSH1 0x5 SLOAD PUSH1 0xFF AND SWAP1 JUMP JUMPDEST PUSH1 0x0 PUSH2 0x94B PUSH2 0xD6E JUMP JUMPDEST SWAP1 POP SWAP1 JUMP JUMPDEST PUSH1 0x0 PUSH2 0x95A PUSH2 0x830 JUMP JUMPDEST POP PUSH32 0x0 SWAP1 JUMP JUMPDEST CALLER PUSH1 0x0 DUP2 DUP2 MSTORE PUSH1 0x1 PUSH1 0x20 SWAP1 DUP2 MSTORE PUSH1 0x40 DUP1 DUP4 KECCAK256 PUSH20 0xFFFFFFFFFFFFFFFFFFFFFFFFFFFFFFFFFFFFFFFF DUP8 AND DUP5 MSTORE SWAP1 SWAP2 MSTORE DUP2 KECCAK256 SLOAD SWAP1 SWAP2 PUSH2 0x745 SWAP2 DUP6 SWAP1 PUSH2 0x821 SWAP1 DUP7 PUSH2 0xF2B JUMP JUMPDEST PUSH2 0x9CC DUP3 DUP3 PUSH2 0xF44 JUMP JUMPDEST POP POP JUMP JUMPDEST PUSH2 0x9DA CALLER DUP3 PUSH2 0xFFD JUMP JUMPDEST POP JUMP JUMPDEST PUSH20 0xFFFFFFFFFFFFFFFFFFFFFFFFFFFFFFFFFFFFFFFF AND PUSH1 0x0 SWAP1 DUP2 MSTORE PUSH1 0x20 DUP2 SWAP1 MSTORE PUSH1 0x40 SWAP1 KECCAK256 SLOAD SWAP1 JUMP JUMPDEST PUSH1 0x0 PUSH2 0xA1F DUP3 PUSH2 0x1A1 PUSH2 0xA18 DUP7 CALLER PUSH2 0xD07 JUMP JUMPDEST SWAP2 SWAP1 PUSH2 0xF15 JUMP JUMPDEST SWAP1 POP PUSH2 0xA2C DUP4 CALLER DUP4 PUSH2 0xD7D JUMP JUMPDEST PUSH2 0xA36 DUP4 DUP4 PUSH2 0xFFD JUMP JUMPDEST POP POP POP JUMP JUMPDEST PUSH2 0x9CC DUP3 DUP3 PUSH2 0xFFD JUMP JUMPDEST PUSH1 0x40 DUP1 MLOAD PUSH1 0x2 DUP1 DUP3 MSTORE PUSH1 0x60 DUP1 DUP4 ADD DUP5 MSTORE SWAP3 PUSH1 0x20 DUP4 ADD SWAP1 DUP1 CALLDATASIZE DUP4 CALLDATACOPY ADD SWAP1 POP POP SWAP1 POP PUSH1 0x1 DUP2 PUSH1 0x0 DUP2 MLOAD DUP2 LT PUSH2 0xA74 JUMPI INVALID JUMPDEST PUSH1 0x20 MUL PUSH1 0x20 ADD ADD DUP2 DUP2 MSTORE POP POP PUSH1 0x2 DUP2 PUSH1 0x1 DUP2 MLOAD DUP2 LT PUSH2 0xA8F JUMPI INVALID JUMPDEST PUSH1 0x20 SWAP1 DUP2 MUL SWAP2 SWAP1 SWAP2 ADD DUP2 ADD SWAP2 SWAP1 SWAP2 MSTORE DUP2 MLOAD PUSH2 0x1A4 PUSH32 0xFFFFFFFFFFFFFFFFFFFFFFFFFFFFFFFFFFFFFFFFFFFFFFFFFFFFFFFFFFFFFFE0 DUP5 ADD DUP2 SWAP1 MSTORE PUSH4 0x43ADBAFB PUSH32 0xFFFFFFFFFFFFFFFFFFFFFFFFFFFFFFFFFFFFFFFFFFFFFFFFFFFFFFFFFFFFFFC0 DUP6 ADD MSTORE SWAP2 MUL PUSH32 0xFFFFFFFFFFFFFFFFFFFFFFFFFFFFFFFFFFFFFFFFFFFFFFFFFFFFFFFFFFFFFFDC DUP4 ADD PUSH1 0x44 DUP3 ADD DUP2 REVERT JUMPDEST PUSH1 0x0 PUSH2 0xB29 DUP3 PUSH2 0xB2F JUMP JUMPDEST SWAP3 SWAP2 POP POP JUMP JUMPDEST PUSH20 0xFFFFFFFFFFFFFFFFFFFFFFFFFFFFFFFFFFFFFFFF AND PUSH1 0x0 SWAP1 DUP2 MSTORE PUSH1 0x6 PUSH1 0x20 MSTORE PUSH1 0x40 SWAP1 KECCAK256 SLOAD SWAP1 JUMP JUMPDEST PUSH1 0x4 DUP1 SLOAD PUSH1 0x40 DUP1 MLOAD PUSH1 0x20 PUSH1 0x1F PUSH1 0x2 PUSH32 0xFFFFFFFFFFFFFFFFFFFFFFFFFFFFFFFFFFFFFFFFFFFFFFFFFFFFFFFFFFFFFFFF PUSH2 0x100 PUSH1 0x1 DUP9 AND ISZERO MUL ADD SWAP1 SWAP6 AND SWAP5 SWAP1 SWAP5 DIV SWAP4 DUP5 ADD DUP2 SWAP1 DIV DUP2 MUL DUP3 ADD DUP2 ADD SWAP1 SWAP3 MSTORE DUP3 DUP2 MSTORE PUSH1 0x60 SWAP4 SWAP1 SWAP3 SWAP1 SWAP2 DUP4 ADD DUP3 DUP3 DUP1 ISZERO PUSH2 0x72E JUMPI DUP1 PUSH1 0x1F LT PUSH2 0x703 JUMPI PUSH2 0x100 DUP1 DUP4 SLOAD DIV MUL DUP4 MSTORE SWAP2 PUSH1 0x20 ADD SWAP2 PUSH2 0x72E JUMP JUMPDEST CALLER PUSH1 0x0 DUP2 DUP2 MSTORE PUSH1 0x1 PUSH1 0x20 SWAP1 DUP2 MSTORE PUSH1 0x40 DUP1 DUP4 KECCAK256 PUSH20 0xFFFFFFFFFFFFFFFFFFFFFFFFFFFFFFFFFFFFFFFF DUP8 AND DUP5 MSTORE SWAP1 SWAP2 MSTORE DUP2 KECCAK256 SLOAD SWAP1 SWAP2 PUSH2 0x745 SWAP2 DUP6 SWAP1 PUSH2 0x821 SWAP1 DUP7 PUSH2 0x19F PUSH2 0xF15 JUMP JUMPDEST PUSH1 0x0 PUSH2 0x745 CALLER DUP5 DUP5 PUSH2 0xDEC JUMP JUMPDEST PUSH1 0x0 PUSH32 0x6E71EDAE12B1B97F4D1F60370FEF10105FA2FAAE0126114A169C64845D6126C9 DUP9 DUP9 DUP9 PUSH2 0xC58 DUP13 PUSH2 0xB2F JUMP JUMPDEST DUP10 PUSH1 0x40 MLOAD PUSH1 0x20 ADD DUP1 DUP8 DUP2 MSTORE PUSH1 0x20 ADD DUP7 PUSH20 0xFFFFFFFFFFFFFFFFFFFFFFFFFFFFFFFFFFFFFFFF AND DUP2 MSTORE PUSH1 0x20 ADD DUP6 PUSH20 0xFFFFFFFFFFFFFFFFFFFFFFFFFFFFFFFFFFFFFFFF AND DUP2 MSTORE PUSH1 0x20 ADD DUP5 DUP2 MSTORE PUSH1 0x20 ADD DUP4 DUP2 MSTORE PUSH1 0x20 ADD DUP3 DUP2 MSTORE PUSH1 0x20 ADD SWAP7 POP POP POP POP POP POP POP PUSH1 0x40 MLOAD PUSH1 0x20 DUP2 DUP4 SUB SUB DUP2 MSTORE SWAP1 PUSH1 0x40 MSTORE DUP1 MLOAD SWAP1 PUSH1 0x20 ADD KECCAK256 SWAP1 POP PUSH2 0xCE9 DUP9 DUP3 PUSH2 0xCE0 DUP8 DUP8 DUP8 PUSH2 0x10ED JUMP JUMPDEST DUP9 PUSH2 0x1F8 PUSH2 0x112C JUMP JUMPDEST PUSH2 0xCF4 DUP9 DUP9 DUP9 PUSH2 0xD7D JUMP JUMPDEST POP POP POP POP POP POP POP POP JUMP JUMPDEST PUSH1 0x7 SLOAD PUSH1 0xFF AND DUP2 JUMP JUMPDEST PUSH20 0xFFFFFFFFFFFFFFFFFFFFFFFFFFFFFFFFFFFFFFFF SWAP2 DUP3 AND PUSH1 0x0 SWAP1 DUP2 MSTORE PUSH1 0x1 PUSH1 0x20 SWAP1 DUP2 MSTORE PUSH1 0x40 DUP1 DUP4 KECCAK256 SWAP4 SWAP1 SWAP5 AND DUP3 MSTORE SWAP2 SWAP1 SWAP2 MSTORE KECCAK256 SLOAD SWAP1 JUMP JUMPDEST PUSH1 0x0 PUSH2 0xD49 PUSH2 0x830 JUMP JUMPDEST POP PUSH32 0x0 SWAP1 JUMP JUMPDEST PUSH1 0x0 PUSH2 0x94B PUSH2 0x1190 JUMP JUMPDEST PUSH1 0x8 SSTORE JUMP JUMPDEST PUSH20 0xFFFFFFFFFFFFFFFFFFFFFFFFFFFFFFFFFFFFFFFF DUP1 DUP5 AND PUSH1 0x0 DUP2 DUP2 MSTORE PUSH1 0x1 PUSH1 0x20 SWAP1 DUP2 MSTORE PUSH1 0x40 DUP1 DUP4 KECCAK256 SWAP5 DUP8 AND DUP1 DUP5 MSTORE SWAP5 DUP3 MSTORE SWAP2 DUP3 SWAP1 KECCAK256 DUP6 SWAP1 SSTORE DUP2 MLOAD DUP6 DUP2 MSTORE SWAP2 MLOAD PUSH32 0x8C5BE1E5EBEC7D5BD14F71427D1E84F3DD0314C0F7B2291E5B200AC8C7C3B925 SWAP3 DUP2 SWAP1 SUB SWAP1 SWAP2 ADD SWAP1 LOG3 POP POP POP JUMP JUMPDEST PUSH2 0xE10 PUSH20 0xFFFFFFFFFFFFFFFFFFFFFFFFFFFFFFFFFFFFFFFF DUP5 AND ISZERO ISZERO PUSH2 0x198 PUSH2 0x125B JUMP JUMPDEST PUSH2 0xE34 PUSH20 0xFFFFFFFFFFFFFFFFFFFFFFFFFFFFFFFFFFFFFFFF DUP4 AND ISZERO ISZERO PUSH2 0x199 PUSH2 0x125B JUMP JUMPDEST PUSH2 0xE3F DUP4 DUP4 DUP4 PUSH2 0xA36 JUMP JUMPDEST PUSH20 0xFFFFFFFFFFFFFFFFFFFFFFFFFFFFFFFFFFFFFFFF DUP4 AND PUSH1 0x0 SWAP1 DUP2 MSTORE PUSH1 0x20 DUP2 SWAP1 MSTORE PUSH1 0x40 SWAP1 KECCAK256 SLOAD PUSH2 0xE72 SWAP1 DUP3 PUSH2 0x1A0 PUSH2 0xF15 JUMP JUMPDEST PUSH20 0xFFFFFFFFFFFFFFFFFFFFFFFFFFFFFFFFFFFFFFFF DUP1 DUP6 AND PUSH1 0x0 SWAP1 DUP2 MSTORE PUSH1 0x20 DUP2 SWAP1 MSTORE PUSH1 0x40 DUP1 DUP3 KECCAK256 SWAP4 SWAP1 SWAP4 SSTORE SWAP1 DUP5 AND DUP2 MSTORE KECCAK256 SLOAD PUSH2 0xEAE SWAP1 DUP3 PUSH2 0xF2B JUMP JUMPDEST PUSH20 0xFFFFFFFFFFFFFFFFFFFFFFFFFFFFFFFFFFFFFFFF DUP1 DUP5 AND PUSH1 0x0 DUP2 DUP2 MSTORE PUSH1 0x20 DUP2 DUP2 MSTORE PUSH1 0x40 SWAP2 DUP3 SWAP1 KECCAK256 SWAP5 SWAP1 SWAP5 SSTORE DUP1 MLOAD DUP6 DUP2 MSTORE SWAP1 MLOAD SWAP2 SWAP4 SWAP3 DUP8 AND SWAP3 PUSH32 0xDDF252AD1BE2C89B69C2B068FC378DAA952BA7F163C4A11628F55A4DF523B3EF SWAP3 SWAP2 DUP3 SWAP1 SUB ADD SWAP1 LOG3 POP POP POP JUMP JUMPDEST PUSH1 0x0 PUSH2 0xF24 DUP5 DUP5 GT ISZERO DUP4 PUSH2 0x125B JUMP JUMPDEST POP POP SWAP1 SUB SWAP1 JUMP JUMPDEST PUSH1 0x0 DUP3 DUP3 ADD PUSH2 0xF3D DUP5 DUP3 LT ISZERO DUP4 PUSH2 0x125B JUMP JUMPDEST SWAP4 SWAP3 POP POP POP JUMP JUMPDEST PUSH2 0xF50 PUSH1 0x0 DUP4 DUP4 PUSH2 0xA36 JUMP JUMPDEST PUSH2 0xF6A PUSH2 0xF65 DUP3 PUSH2 0xF5F PUSH2 0x7BE JUMP JUMPDEST SWAP1 PUSH2 0xF2B JUMP JUMPDEST PUSH2 0x1269 JUMP JUMPDEST PUSH20 0xFFFFFFFFFFFFFFFFFFFFFFFFFFFFFFFFFFFFFFFF DUP3 AND PUSH1 0x0 SWAP1 DUP2 MSTORE PUSH1 0x20 DUP2 SWAP1 MSTORE PUSH1 0x40 SWAP1 KECCAK256 SLOAD PUSH2 0xF9A SWAP1 DUP3 PUSH2 0xF2B JUMP JUMPDEST PUSH20 0xFFFFFFFFFFFFFFFFFFFFFFFFFFFFFFFFFFFFFFFF DUP4 AND PUSH1 0x0 DUP2 DUP2 MSTORE PUSH1 0x20 DUP2 DUP2 MSTORE PUSH1 0x40 DUP1 DUP4 KECCAK256 SWAP5 SWAP1 SWAP5 SSTORE DUP4 MLOAD DUP6 DUP2 MSTORE SWAP4 MLOAD SWAP3 SWAP4 SWAP2 SWAP3 PUSH32 0xDDF252AD1BE2C89B69C2B068FC378DAA952BA7F163C4A11628F55A4DF523B3EF SWAP3 DUP2 SWAP1 SUB SWAP1 SWAP2 ADD SWAP1 LOG3 POP POP JUMP JUMPDEST PUSH2 0x1021 PUSH20 0xFFFFFFFFFFFFFFFFFFFFFFFFFFFFFFFFFFFFFFFF DUP4 AND ISZERO ISZERO PUSH2 0x19B PUSH2 0x125B JUMP JUMPDEST PUSH2 0x102D DUP3 PUSH1 0x0 DUP4 PUSH2 0xA36 JUMP JUMPDEST PUSH20 0xFFFFFFFFFFFFFFFFFFFFFFFFFFFFFFFFFFFFFFFF DUP3 AND PUSH1 0x0 SWAP1 DUP2 MSTORE PUSH1 0x20 DUP2 SWAP1 MSTORE PUSH1 0x40 SWAP1 KECCAK256 SLOAD PUSH2 0x1060 SWAP1 DUP3 PUSH2 0x1B2 PUSH2 0xF15 JUMP JUMPDEST PUSH20 0xFFFFFFFFFFFFFFFFFFFFFFFFFFFFFFFFFFFFFFFF DUP4 AND PUSH1 0x0 SWAP1 DUP2 MSTORE PUSH1 0x20 DUP2 SWAP1 MSTORE PUSH1 0x40 SWAP1 KECCAK256 SSTORE PUSH2 0x109B PUSH2 0xF65 DUP3 PUSH2 0x1095 PUSH2 0x7BE JUMP JUMPDEST SWAP1 PUSH2 0x126E JUMP JUMPDEST PUSH1 0x40 DUP1 MLOAD DUP3 DUP2 MSTORE SWAP1 MLOAD PUSH1 0x0 SWAP2 PUSH20 0xFFFFFFFFFFFFFFFFFFFFFFFFFFFFFFFFFFFFFFFF DUP6 AND SWAP2 PUSH32 0xDDF252AD1BE2C89B69C2B068FC378DAA952BA7F163C4A11628F55A4DF523B3EF SWAP2 DUP2 SWAP1 SUB PUSH1 0x20 ADD SWAP1 LOG3 POP POP JUMP JUMPDEST PUSH1 0x40 DUP1 MLOAD PUSH1 0x41 DUP1 DUP3 MSTORE PUSH1 0x80 DUP3 ADD SWAP1 SWAP3 MSTORE PUSH1 0x60 SWAP2 DUP3 SWAP2 SWAP1 PUSH1 0x20 DUP3 ADD DUP2 DUP1 CALLDATASIZE DUP4 CALLDATACOPY ADD SWAP1 POP POP SWAP1 POP DUP4 PUSH1 0x20 DUP3 ADD MSTORE DUP3 PUSH1 0x40 DUP3 ADD MSTORE DUP5 PUSH1 0x60 DUP3 ADD MSTORE8 SWAP5 SWAP4 POP POP POP POP JUMP JUMPDEST PUSH1 0x0 PUSH2 0x1137 DUP6 PUSH2 0x127C JUMP JUMPDEST SWAP1 POP PUSH2 0x114D PUSH2 0x1147 DUP8 DUP4 DUP8 PUSH2 0x12E3 JUMP JUMPDEST DUP4 PUSH2 0x125B JUMP JUMPDEST PUSH2 0x115C TIMESTAMP DUP5 LT ISZERO PUSH2 0x1B8 PUSH2 0x125B JUMP JUMPDEST POP POP POP PUSH20 0xFFFFFFFFFFFFFFFFFFFFFFFFFFFFFFFFFFFFFFFF SWAP1 SWAP3 AND PUSH1 0x0 SWAP1 DUP2 MSTORE PUSH1 0x6 PUSH1 0x20 MSTORE PUSH1 0x40 SWAP1 KECCAK256 DUP1 SLOAD PUSH1 0x1 ADD SWAP1 SSTORE POP POP JUMP JUMPDEST PUSH1 0x0 PUSH32 0x0 PUSH32 0x0 PUSH32 0x0 PUSH2 0x11FD PUSH2 0x13F5 JUMP JUMPDEST ADDRESS PUSH1 0x40 MLOAD PUSH1 0x20 ADD DUP1 DUP7 DUP2 MSTORE PUSH1 0x20 ADD DUP6 DUP2 MSTORE PUSH1 0x20 ADD DUP5 DUP2 MSTORE PUSH1 0x20 ADD DUP4 DUP2 MSTORE PUSH1 0x20 ADD DUP3 PUSH20 0xFFFFFFFFFFFFFFFFFFFFFFFFFFFFFFFFFFFFFFFF AND DUP2 MSTORE PUSH1 0x20 ADD SWAP6 POP POP POP POP POP POP PUSH1 0x40 MLOAD PUSH1 0x20 DUP2 DUP4 SUB SUB DUP2 MSTORE SWAP1 PUSH1 0x40 MSTORE DUP1 MLOAD SWAP1 PUSH1 0x20 ADD KECCAK256 SWAP1 POP SWAP1 JUMP JUMPDEST DUP2 PUSH2 0x9CC JUMPI PUSH2 0x9CC DUP2 PUSH2 0x13F9 JUMP JUMPDEST PUSH1 0x2 SSTORE JUMP JUMPDEST PUSH1 0x0 PUSH2 0xF3D DUP4 DUP4 PUSH1 0x1 PUSH2 0xF15 JUMP JUMPDEST PUSH1 0x0 PUSH2 0x1286 PUSH2 0x1190 JUMP JUMPDEST DUP3 PUSH1 0x40 MLOAD PUSH1 0x20 ADD DUP1 DUP1 PUSH32 0x1901000000000000000000000000000000000000000000000000000000000000 DUP2 MSTORE POP PUSH1 0x2 ADD DUP4 DUP2 MSTORE PUSH1 0x20 ADD DUP3 DUP2 MSTORE PUSH1 0x20 ADD SWAP3 POP POP POP PUSH1 0x40 MLOAD PUSH1 0x20 DUP2 DUP4 SUB SUB DUP2 MSTORE SWAP1 PUSH1 0x40 MSTORE DUP1 MLOAD SWAP1 PUSH1 0x20 ADD KECCAK256 SWAP1 POP SWAP2 SWAP1 POP JUMP JUMPDEST PUSH1 0x0 PUSH2 0x12F5 DUP3 MLOAD PUSH1 0x41 EQ PUSH2 0x1B9 PUSH2 0x125B JUMP JUMPDEST PUSH1 0x0 DUP1 PUSH1 0x0 PUSH1 0x20 DUP6 ADD MLOAD SWAP3 POP PUSH1 0x40 DUP6 ADD MLOAD SWAP2 POP PUSH1 0x60 DUP6 ADD MLOAD PUSH1 0x0 BYTE SWAP1 POP PUSH1 0x0 PUSH1 0x1 DUP8 DUP4 DUP7 DUP7 PUSH1 0x40 MLOAD PUSH1 0x0 DUP2 MSTORE PUSH1 0x20 ADD PUSH1 0x40 MSTORE PUSH1 0x40 MLOAD DUP1 DUP6 DUP2 MSTORE PUSH1 0x20 ADD DUP5 PUSH1 0xFF AND DUP2 MSTORE PUSH1 0x20 ADD DUP4 DUP2 MSTORE PUSH1 0x20 ADD DUP3 DUP2 MSTORE PUSH1 0x20 ADD SWAP5 POP POP POP POP POP PUSH1 0x20 PUSH1 0x40 MLOAD PUSH1 0x20 DUP2 SUB SWAP1 DUP1 DUP5 SUB SWAP1 DUP6 GAS STATICCALL ISZERO DUP1 ISZERO PUSH2 0x136E JUMPI RETURNDATASIZE PUSH1 0x0 DUP1 RETURNDATACOPY RETURNDATASIZE PUSH1 0x0 REVERT JUMPDEST POP POP PUSH1 0x40 MLOAD PUSH32 0xFFFFFFFFFFFFFFFFFFFFFFFFFFFFFFFFFFFFFFFFFFFFFFFFFFFFFFFFFFFFFFE0 ADD MLOAD SWAP2 POP POP PUSH20 0xFFFFFFFFFFFFFFFFFFFFFFFFFFFFFFFFFFFFFFFF DUP2 AND ISZERO DUP1 ISZERO SWAP1 PUSH2 0x13E9 JUMPI POP DUP8 PUSH20 0xFFFFFFFFFFFFFFFFFFFFFFFFFFFFFFFFFFFFFFFF AND DUP2 PUSH20 0xFFFFFFFFFFFFFFFFFFFFFFFFFFFFFFFFFFFFFFFF AND EQ JUMPDEST SWAP9 SWAP8 POP POP POP POP POP POP POP POP JUMP JUMPDEST CHAINID SWAP1 JUMP JUMPDEST PUSH32 0x8C379A000000000000000000000000000000000000000000000000000000000 PUSH1 0x0 SWAP1 DUP2 MSTORE PUSH1 0x20 PUSH1 0x4 MSTORE PUSH1 0x7 PUSH1 0x24 MSTORE PUSH1 0xA DUP1 DUP4 DIV DUP2 DUP2 MOD PUSH1 0x30 SWAP1 DUP2 ADD PUSH1 0x8 SHL DUP4 DUP7 MOD ADD SWAP2 DUP4 SWAP1 DIV SWAP3 DUP4 MOD ADD PUSH1 0x10 SHL ADD PUSH7 0x42414C23000030 ADD PUSH1 0xC8 SHL PUSH1 0x44 MSTORE PUSH2 0x9DA SWAP2 PUSH32 0x42414C0000000000000000000000000000000000000000000000000000000000 SWAP1 PUSH3 0x42414C SWAP1 PUSH1 0x64 SWAP1 REVERT INVALID LOG2 PUSH5 0x6970667358 0x22 SLT KECCAK256 MUL COINBASE JUMPI 0xD3 0xC2 SMOD 0xCD CALLDATASIZE CREATE2 SWAP10 NOT GASLIMIT SWAP12 DUP3 0xC3 0xB9 GAS 0x5C 0x5E 0xD3 CREATE 0xD5 0x27 CREATE 0xC GAS PUSH12 0xA2342D5F5264736F6C634300 SMOD ADD STOP CALLER "},"methodIdentifiers":{"DOMAIN_SEPARATOR()":"3644e515","allowance(address,address)":"dd62ed3e","approve(address,uint256)":"095ea7b3","asset()":"38d52e0f","balanceOf(address)":"70a08231","burn(uint256)":"42966c68","burnFrom(address,uint256)":"79cc6790","burnWithoutAllowance(address,uint256)":"7c602bc2","decimals()":"313ce567","decreaseAllowance(address,uint256)":"a457c2d7","getDomainSeparator()":"ed24911d","getNextNonce(address)":"90193b7c","increaseAllowance(address,uint256)":"39509351","maybeRevertMaliciously()":"29478cb4","mint(address,uint256)":"40c10f19","name()":"06fdde03","nonces(address)":"7ecebe00","permit(address,address,uint256,uint256,uint8,bytes32,bytes32)":"d505accf","revertType()":"d652e8c6","setRevertType(uint8)":"2cd10339","setTotalSupply(uint256)":"f7ea7a3d","silo()":"eb3beb29","spoofJoinExitQueryRevert()":"7ce3ee48","spoofSwapQueryRevert()":"146d4eee","symbol()":"95d89b41","totalSupply()":"18160ddd","transfer(address,uint256)":"a9059cbb","transferFrom(address,address,uint256)":"23b872dd"}}}}}