{"src/helpers/contracts/MockOmniVotingEscrow.sol":{"MockOmniVotingEscrow":{"abi":[{"anonymous":false,"inputs":[{"indexed":false,"internalType":"address","name":"user","type":"address"},{"indexed":false,"internalType":"uint16","name":"chainId","type":"uint16"},{"indexed":false,"internalType":"address","name":"refundAddress","type":"address"}],"name":"SendUserBalance","type":"event"},{"inputs":[{"internalType":"uint16","name":"","type":"uint16"},{"internalType":"bool","name":"","type":"bool"},{"internalType":"bytes","name":"","type":"bytes"}],"name":"estimateSendUserBalance","outputs":[{"internalType":"uint256","name":"nativeFee","type":"uint256"},{"internalType":"uint256","name":"zroFee","type":"uint256"}],"stateMutability":"view","type":"function"},{"inputs":[{"internalType":"address","name":"_user","type":"address"},{"internalType":"uint16","name":"_dstChainId","type":"uint16"},{"internalType":"address payable","name":"_refundAddress","type":"address"},{"internalType":"address","name":"","type":"address"},{"internalType":"bytes","name":"","type":"bytes"}],"name":"sendUserBalance","outputs":[],"stateMutability":"payable","type":"function"},{"inputs":[{"internalType":"uint256","name":"nativeFee","type":"uint256"}],"name":"setNativeFee","outputs":[],"stateMutability":"nonpayable","type":"function"}],"evm":{"bytecode":{"linkReferences":{},"object":"608060405234801561001057600080fd5b5061035b806100206000396000f3fe6080604052600436106100345760003560e01c80634a7594891461003957806365d092d01461004e578063b91a1e8f14610085575b600080fd5b61004c610047366004610113565b6100a5565b005b34801561005a57600080fd5b5061006e610069366004610216565b6100e7565b60405161007c9291906102f2565b60405180910390f35b34801561009157600080fd5b5061004c6100a03660046102a6565b6100f6565b7fa206926db6e16f74367ba3a60acd9ad3e8e02ca873107bfb00414052a5cbe1788585856040516100d8939291906102be565b60405180910390a15050505050565b60005460015494509492505050565b600055565b803561ffff8116811461010d57600080fd5b92915050565b600080600080600060a0868803121561012a578081fd5b853561013581610300565b94506020610145888883016100fb565b9450604087013561015581610300565b9350606087013561016581610300565b9250608087013567ffffffffffffffff80821115610181578384fd5b818901915089601f830112610194578384fd5b8135818111156101a2578485fd5b604051847fffffffffffffffffffffffffffffffffffffffffffffffffffffffffffffffe0601f84011682010181811084821117156101df578687fd5b60405281815283820185018c10156101f5578586fd5b81858501868301378585838301015280955050505050509295509295909350565b6000806000806060858703121561022b578384fd5b61023586866100fb565b935060208501358015158114610249578384fd5b9250604085013567ffffffffffffffff80821115610265578384fd5b818701915087601f830112610278578384fd5b813581811115610286578485fd5b886020828501011115610297578485fd5b95989497505060200194505050565b6000602082840312156102b7578081fd5b5035919050565b73ffffffffffffffffffffffffffffffffffffffff938416815261ffff929092166020830152909116604082015260600190565b918252602082015260400190565b73ffffffffffffffffffffffffffffffffffffffff8116811461032257600080fd5b5056fea2646970667358221220f47e88ebca071b79e6c1b5db0177d37518945d7a45f18e18f316f0a6290d811964736f6c63430007010033","opcodes":"PUSH1 0x80 PUSH1 0x40 MSTORE CALLVALUE DUP1 ISZERO PUSH2 0x10 JUMPI PUSH1 0x0 DUP1 REVERT JUMPDEST POP PUSH2 0x35B DUP1 PUSH2 0x20 PUSH1 0x0 CODECOPY PUSH1 0x0 RETURN INVALID PUSH1 0x80 PUSH1 0x40 MSTORE PUSH1 0x4 CALLDATASIZE LT PUSH2 0x34 JUMPI PUSH1 0x0 CALLDATALOAD PUSH1 0xE0 SHR DUP1 PUSH4 0x4A759489 EQ PUSH2 0x39 JUMPI DUP1 PUSH4 0x65D092D0 EQ PUSH2 0x4E JUMPI DUP1 PUSH4 0xB91A1E8F EQ PUSH2 0x85 JUMPI JUMPDEST PUSH1 0x0 DUP1 REVERT JUMPDEST PUSH2 0x4C PUSH2 0x47 CALLDATASIZE PUSH1 0x4 PUSH2 0x113 JUMP JUMPDEST PUSH2 0xA5 JUMP JUMPDEST STOP JUMPDEST CALLVALUE DUP1 ISZERO PUSH2 0x5A JUMPI PUSH1 0x0 DUP1 REVERT JUMPDEST POP PUSH2 0x6E PUSH2 0x69 CALLDATASIZE PUSH1 0x4 PUSH2 0x216 JUMP JUMPDEST PUSH2 0xE7 JUMP JUMPDEST PUSH1 0x40 MLOAD PUSH2 0x7C SWAP3 SWAP2 SWAP1 PUSH2 0x2F2 JUMP JUMPDEST PUSH1 0x40 MLOAD DUP1 SWAP2 SUB SWAP1 RETURN JUMPDEST CALLVALUE DUP1 ISZERO PUSH2 0x91 JUMPI PUSH1 0x0 DUP1 REVERT JUMPDEST POP PUSH2 0x4C PUSH2 0xA0 CALLDATASIZE PUSH1 0x4 PUSH2 0x2A6 JUMP JUMPDEST PUSH2 0xF6 JUMP JUMPDEST PUSH32 0xA206926DB6E16F74367BA3A60ACD9AD3E8E02CA873107BFB00414052A5CBE178 DUP6 DUP6 DUP6 PUSH1 0x40 MLOAD PUSH2 0xD8 SWAP4 SWAP3 SWAP2 SWAP1 PUSH2 0x2BE JUMP JUMPDEST PUSH1 0x40 MLOAD DUP1 SWAP2 SUB SWAP1 LOG1 POP POP POP POP POP JUMP JUMPDEST PUSH1 0x0 SLOAD PUSH1 0x1 SLOAD SWAP5 POP SWAP5 SWAP3 POP POP POP JUMP JUMPDEST PUSH1 0x0 SSTORE JUMP JUMPDEST DUP1 CALLDATALOAD PUSH2 0xFFFF DUP2 AND DUP2 EQ PUSH2 0x10D JUMPI PUSH1 0x0 DUP1 REVERT JUMPDEST SWAP3 SWAP2 POP POP JUMP JUMPDEST PUSH1 0x0 DUP1 PUSH1 0x0 DUP1 PUSH1 0x0 PUSH1 0xA0 DUP7 DUP9 SUB SLT ISZERO PUSH2 0x12A JUMPI DUP1 DUP2 REVERT JUMPDEST DUP6 CALLDATALOAD PUSH2 0x135 DUP2 PUSH2 0x300 JUMP JUMPDEST SWAP5 POP PUSH1 0x20 PUSH2 0x145 DUP9 DUP9 DUP4 ADD PUSH2 0xFB JUMP JUMPDEST SWAP5 POP PUSH1 0x40 DUP8 ADD CALLDATALOAD PUSH2 0x155 DUP2 PUSH2 0x300 JUMP JUMPDEST SWAP4 POP PUSH1 0x60 DUP8 ADD CALLDATALOAD PUSH2 0x165 DUP2 PUSH2 0x300 JUMP JUMPDEST SWAP3 POP PUSH1 0x80 DUP8 ADD CALLDATALOAD PUSH8 0xFFFFFFFFFFFFFFFF DUP1 DUP3 GT ISZERO PUSH2 0x181 JUMPI DUP4 DUP5 REVERT JUMPDEST DUP2 DUP10 ADD SWAP2 POP DUP10 PUSH1 0x1F DUP4 ADD SLT PUSH2 0x194 JUMPI DUP4 DUP5 REVERT JUMPDEST DUP2 CALLDATALOAD DUP2 DUP2 GT ISZERO PUSH2 0x1A2 JUMPI DUP5 DUP6 REVERT JUMPDEST PUSH1 0x40 MLOAD DUP5 PUSH32 0xFFFFFFFFFFFFFFFFFFFFFFFFFFFFFFFFFFFFFFFFFFFFFFFFFFFFFFFFFFFFFFE0 PUSH1 0x1F DUP5 ADD AND DUP3 ADD ADD DUP2 DUP2 LT DUP5 DUP3 GT OR ISZERO PUSH2 0x1DF JUMPI DUP7 DUP8 REVERT JUMPDEST PUSH1 0x40 MSTORE DUP2 DUP2 MSTORE DUP4 DUP3 ADD DUP6 ADD DUP13 LT ISZERO PUSH2 0x1F5 JUMPI DUP6 DUP7 REVERT JUMPDEST DUP2 DUP6 DUP6 ADD DUP7 DUP4 ADD CALLDATACOPY DUP6 DUP6 DUP4 DUP4 ADD ADD MSTORE DUP1 SWAP6 POP POP POP POP POP POP SWAP3 SWAP6 POP SWAP3 SWAP6 SWAP1 SWAP4 POP JUMP JUMPDEST PUSH1 0x0 DUP1 PUSH1 0x0 DUP1 PUSH1 0x60 DUP6 DUP8 SUB SLT ISZERO PUSH2 0x22B JUMPI DUP4 DUP5 REVERT JUMPDEST PUSH2 0x235 DUP7 DUP7 PUSH2 0xFB JUMP JUMPDEST SWAP4 POP PUSH1 0x20 DUP6 ADD CALLDATALOAD DUP1 ISZERO ISZERO DUP2 EQ PUSH2 0x249 JUMPI DUP4 DUP5 REVERT JUMPDEST SWAP3 POP PUSH1 0x40 DUP6 ADD CALLDATALOAD PUSH8 0xFFFFFFFFFFFFFFFF DUP1 DUP3 GT ISZERO PUSH2 0x265 JUMPI DUP4 DUP5 REVERT JUMPDEST DUP2 DUP8 ADD SWAP2 POP DUP8 PUSH1 0x1F DUP4 ADD SLT PUSH2 0x278 JUMPI DUP4 DUP5 REVERT JUMPDEST DUP2 CALLDATALOAD DUP2 DUP2 GT ISZERO PUSH2 0x286 JUMPI DUP5 DUP6 REVERT JUMPDEST DUP9 PUSH1 0x20 DUP3 DUP6 ADD ADD GT ISZERO PUSH2 0x297 JUMPI DUP5 DUP6 REVERT JUMPDEST SWAP6 SWAP9 SWAP5 SWAP8 POP POP PUSH1 0x20 ADD SWAP5 POP POP POP JUMP JUMPDEST PUSH1 0x0 PUSH1 0x20 DUP3 DUP5 SUB SLT ISZERO PUSH2 0x2B7 JUMPI DUP1 DUP2 REVERT JUMPDEST POP CALLDATALOAD SWAP2 SWAP1 POP JUMP JUMPDEST PUSH20 0xFFFFFFFFFFFFFFFFFFFFFFFFFFFFFFFFFFFFFFFF SWAP4 DUP5 AND DUP2 MSTORE PUSH2 0xFFFF SWAP3 SWAP1 SWAP3 AND PUSH1 0x20 DUP4 ADD MSTORE SWAP1 SWAP2 AND PUSH1 0x40 DUP3 ADD MSTORE PUSH1 0x60 ADD SWAP1 JUMP JUMPDEST SWAP2 DUP3 MSTORE PUSH1 0x20 DUP3 ADD MSTORE PUSH1 0x40 ADD SWAP1 JUMP JUMPDEST PUSH20 0xFFFFFFFFFFFFFFFFFFFFFFFFFFFFFFFFFFFFFFFF DUP2 AND DUP2 EQ PUSH2 0x322 JUMPI PUSH1 0x0 DUP1 REVERT JUMPDEST POP JUMP INVALID LOG2 PUSH5 0x6970667358 0x22 SLT KECCAK256 DELEGATECALL PUSH31 0x88EBCA071B79E6C1B5DB0177D37518945D7A45F18E18F316F0A6290D811964 PUSH20 0x6F6C634300070100330000000000000000000000 "},"methodIdentifiers":{"estimateSendUserBalance(uint16,bool,bytes)":"65d092d0","sendUserBalance(address,uint16,address,address,bytes)":"4a759489","setNativeFee(uint256)":"b91a1e8f"}}}}}