{
  "_format": "hh-sol-artifact-1",
  "contractName": "MockL2VotingEscrow",
  "sourceName": "src/helpers/contracts/MockL2VotingEscrow.sol",
  "abi": [
    {
      "anonymous": false,
      "inputs": [
        {
          "indexed": true,
          "internalType": "address",
          "name": "owner",
          "type": "address"
        },
        {
          "indexed": true,
          "internalType": "address",
          "name": "spender",
          "type": "address"
        },
        {
          "indexed": false,
          "internalType": "uint256",
          "name": "value",
          "type": "uint256"
        }
      ],
      "name": "Approval",
      "type": "event"
    },
    {
      "anonymous": false,
      "inputs": [
        {
          "indexed": true,
          "internalType": "address",
          "name": "from",
          "type": "address"
        },
        {
          "indexed": true,
          "internalType": "address",
          "name": "to",
          "type": "address"
        },
        {
          "indexed": false,
          "internalType": "uint256",
          "name": "value",
          "type": "uint256"
        }
      ],
      "name": "Transfer",
      "type": "event"
    },
    {
      "inputs": [
        {
          "internalType": "address",
          "name": "user",
          "type": "address"
        }
      ],
      "name": "adjusted_balance_of",
      "outputs": [
        {
          "internalType": "uint256",
          "name": "",
          "type": "uint256"
        }
      ],
      "stateMutability": "view",
      "type": "function"
    },
    {
      "inputs": [
        {
          "internalType": "address",
          "name": "",
          "type": "address"
        },
        {
          "internalType": "address",
          "name": "user",
          "type": "address"
        }
      ],
      "name": "allowance",
      "outputs": [
        {
          "internalType": "uint256",
          "name": "",
          "type": "uint256"
        }
      ],
      "stateMutability": "view",
      "type": "function"
    },
    {
      "inputs": [
        {
          "internalType": "address",
          "name": "",
          "type": "address"
        },
        {
          "internalType": "uint256",
          "name": "",
          "type": "uint256"
        }
      ],
      "name": "approve",
      "outputs": [
        {
          "internalType": "bool",
          "name": "",
          "type": "bool"
        }
      ],
      "stateMutability": "pure",
      "type": "function"
    },
    {
      "inputs": [
        {
          "internalType": "address",
          "name": "user",
          "type": "address"
        }
      ],
      "name": "balanceOf",
      "outputs": [
        {
          "internalType": "uint256",
          "name": "",
          "type": "uint256"
        }
      ],
      "stateMutability": "view",
      "type": "function"
    },
    {
      "inputs": [
        {
          "internalType": "uint256",
          "name": "value",
          "type": "uint256"
        },
        {
          "internalType": "uint256",
          "name": "",
          "type": "uint256"
        }
      ],
      "name": "create_lock",
      "outputs": [],
      "stateMutability": "nonpayable",
      "type": "function"
    },
    {
      "inputs": [],
      "name": "totalSupply",
      "outputs": [
        {
          "internalType": "uint256",
          "name": "",
          "type": "uint256"
        }
      ],
      "stateMutability": "view",
      "type": "function"
    },
    {
      "inputs": [
        {
          "internalType": "address",
          "name": "",
          "type": "address"
        },
        {
          "internalType": "uint256",
          "name": "",
          "type": "uint256"
        }
      ],
      "name": "transfer",
      "outputs": [
        {
          "internalType": "bool",
          "name": "",
          "type": "bool"
        }
      ],
      "stateMutability": "pure",
      "type": "function"
    },
    {
      "inputs": [
        {
          "internalType": "address",
          "name": "",
          "type": "address"
        },
        {
          "internalType": "address",
          "name": "",
          "type": "address"
        },
        {
          "internalType": "uint256",
          "name": "",
          "type": "uint256"
        }
      ],
      "name": "transferFrom",
      "outputs": [
        {
          "internalType": "bool",
          "name": "",
          "type": "bool"
        }
      ],
      "stateMutability": "pure",
      "type": "function"
    }
  ],
  "bytecode": "0x608060405234801561001057600080fd5b50610348806100206000396000f3fe608060405234801561001057600080fd5b50600436106100885760003560e01c806370a082311161005b57806370a082311461015c578063a9059cbb1461008d578063bbf7408a1461015c578063dd62ed3e1461018f57610088565b8063095ea7b31461008d57806318160ddd146100da57806323b872dd146100f457806365fc387314610137575b600080fd5b6100c6600480360360408110156100a357600080fd5b5073ffffffffffffffffffffffffffffffffffffffff81351690602001356101ca565b604080519115158252519081900360200190f35b6100e26101dd565b60408051918252519081900360200190f35b6100c66004803603606081101561010a57600080fd5b5073ffffffffffffffffffffffffffffffffffffffff8135811691602081013590911690604001356101e3565b61015a6004803603604081101561014d57600080fd5b50803590602001356101f7565b005b6100e26004803603602081101561017257600080fd5b503573ffffffffffffffffffffffffffffffffffffffff16610218565b6100e2600480360360408110156101a557600080fd5b5073ffffffffffffffffffffffffffffffffffffffff81358116916020013516610240565b60006101d76103e661026a565b92915050565b60015490565b60006101f06103e661026a565b9392505050565b50336000908152602081905260409020805482019055600180549091019055565b73ffffffffffffffffffffffffffffffffffffffff1660009081526020819052604090205490565b73ffffffffffffffffffffffffffffffffffffffff16600090815260208190526040902054919050565b610294817f42414c0000000000000000000000000000000000000000000000000000000000610297565b50565b7f08c379a000000000000000000000000000000000000000000000000000000000600090815260206004526007602452600a808404818106603090810160081b958390069590950190829004918206850160101b01602363ffffff0060e086901c160160181b0190930160c81b60445260e882901c90606490fdfea2646970667358221220f33a082cdc8325057634a64c800395ac36d88cb4ad1884309e29634eda1f95bf64736f6c63430007010033",
  "linkReferences": {},
  "deployedLinkReferences": {}
}