{
  "_format": "hh-sol-artifact-1",
  "contractName": "MockYearnTokenVault",
  "sourceName": "src/helpers/contracts/MockYearnTokenVault.sol",
  "abi": [
    {
      "inputs": [
        {
          "internalType": "string",
          "name": "name",
          "type": "string"
        },
        {
          "internalType": "string",
          "name": "symbol",
          "type": "string"
        },
        {
          "internalType": "uint8",
          "name": "decimals",
          "type": "uint8"
        },
        {
          "internalType": "address",
          "name": "underlyingAsset",
          "type": "address"
        }
      ],
      "stateMutability": "nonpayable",
      "type": "constructor"
    },
    {
      "anonymous": false,
      "inputs": [
        {
          "indexed": true,
          "internalType": "address",
          "name": "owner",
          "type": "address"
        },
        {
          "indexed": true,
          "internalType": "address",
          "name": "spender",
          "type": "address"
        },
        {
          "indexed": false,
          "internalType": "uint256",
          "name": "value",
          "type": "uint256"
        }
      ],
      "name": "Approval",
      "type": "event"
    },
    {
      "anonymous": false,
      "inputs": [
        {
          "indexed": true,
          "internalType": "address",
          "name": "from",
          "type": "address"
        },
        {
          "indexed": true,
          "internalType": "address",
          "name": "to",
          "type": "address"
        },
        {
          "indexed": false,
          "internalType": "uint256",
          "name": "value",
          "type": "uint256"
        }
      ],
      "name": "Transfer",
      "type": "event"
    },
    {
      "inputs": [],
      "name": "DOMAIN_SEPARATOR",
      "outputs": [
        {
          "internalType": "bytes32",
          "name": "",
          "type": "bytes32"
        }
      ],
      "stateMutability": "view",
      "type": "function"
    },
    {
      "inputs": [
        {
          "internalType": "address",
          "name": "owner",
          "type": "address"
        },
        {
          "internalType": "address",
          "name": "spender",
          "type": "address"
        }
      ],
      "name": "allowance",
      "outputs": [
        {
          "internalType": "uint256",
          "name": "",
          "type": "uint256"
        }
      ],
      "stateMutability": "view",
      "type": "function"
    },
    {
      "inputs": [
        {
          "internalType": "address",
          "name": "spender",
          "type": "address"
        },
        {
          "internalType": "uint256",
          "name": "amount",
          "type": "uint256"
        }
      ],
      "name": "approve",
      "outputs": [
        {
          "internalType": "bool",
          "name": "",
          "type": "bool"
        }
      ],
      "stateMutability": "nonpayable",
      "type": "function"
    },
    {
      "inputs": [
        {
          "internalType": "address",
          "name": "account",
          "type": "address"
        }
      ],
      "name": "balanceOf",
      "outputs": [
        {
          "internalType": "uint256",
          "name": "",
          "type": "uint256"
        }
      ],
      "stateMutability": "view",
      "type": "function"
    },
    {
      "inputs": [
        {
          "internalType": "uint256",
          "name": "amount",
          "type": "uint256"
        }
      ],
      "name": "burn",
      "outputs": [],
      "stateMutability": "nonpayable",
      "type": "function"
    },
    {
      "inputs": [
        {
          "internalType": "address",
          "name": "account",
          "type": "address"
        },
        {
          "internalType": "uint256",
          "name": "amount",
          "type": "uint256"
        }
      ],
      "name": "burnFrom",
      "outputs": [],
      "stateMutability": "nonpayable",
      "type": "function"
    },
    {
      "inputs": [
        {
          "internalType": "address",
          "name": "sender",
          "type": "address"
        },
        {
          "internalType": "uint256",
          "name": "amount",
          "type": "uint256"
        }
      ],
      "name": "burnWithoutAllowance",
      "outputs": [],
      "stateMutability": "nonpayable",
      "type": "function"
    },
    {
      "inputs": [],
      "name": "decimals",
      "outputs": [
        {
          "internalType": "uint8",
          "name": "",
          "type": "uint8"
        }
      ],
      "stateMutability": "view",
      "type": "function"
    },
    {
      "inputs": [
        {
          "internalType": "address",
          "name": "spender",
          "type": "address"
        },
        {
          "internalType": "uint256",
          "name": "subtractedValue",
          "type": "uint256"
        }
      ],
      "name": "decreaseAllowance",
      "outputs": [
        {
          "internalType": "bool",
          "name": "",
          "type": "bool"
        }
      ],
      "stateMutability": "nonpayable",
      "type": "function"
    },
    {
      "inputs": [
        {
          "internalType": "uint256",
          "name": "_amount",
          "type": "uint256"
        },
        {
          "internalType": "address",
          "name": "recipient",
          "type": "address"
        }
      ],
      "name": "deposit",
      "outputs": [
        {
          "internalType": "uint256",
          "name": "",
          "type": "uint256"
        }
      ],
      "stateMutability": "nonpayable",
      "type": "function"
    },
    {
      "inputs": [],
      "name": "getDomainSeparator",
      "outputs": [
        {
          "internalType": "bytes32",
          "name": "",
          "type": "bytes32"
        }
      ],
      "stateMutability": "view",
      "type": "function"
    },
    {
      "inputs": [
        {
          "internalType": "address",
          "name": "account",
          "type": "address"
        }
      ],
      "name": "getNextNonce",
      "outputs": [
        {
          "internalType": "uint256",
          "name": "",
          "type": "uint256"
        }
      ],
      "stateMutability": "view",
      "type": "function"
    },
    {
      "inputs": [
        {
          "internalType": "address",
          "name": "spender",
          "type": "address"
        },
        {
          "internalType": "uint256",
          "name": "addedValue",
          "type": "uint256"
        }
      ],
      "name": "increaseAllowance",
      "outputs": [
        {
          "internalType": "bool",
          "name": "",
          "type": "bool"
        }
      ],
      "stateMutability": "nonpayable",
      "type": "function"
    },
    {
      "inputs": [],
      "name": "lastReport",
      "outputs": [
        {
          "internalType": "uint256",
          "name": "",
          "type": "uint256"
        }
      ],
      "stateMutability": "view",
      "type": "function"
    },
    {
      "inputs": [],
      "name": "lockedProfit",
      "outputs": [
        {
          "internalType": "uint256",
          "name": "",
          "type": "uint256"
        }
      ],
      "stateMutability": "view",
      "type": "function"
    },
    {
      "inputs": [],
      "name": "lockedProfitDegradation",
      "outputs": [
        {
          "internalType": "uint256",
          "name": "",
          "type": "uint256"
        }
      ],
      "stateMutability": "view",
      "type": "function"
    },
    {
      "inputs": [],
      "name": "maybeRevertMaliciously",
      "outputs": [],
      "stateMutability": "view",
      "type": "function"
    },
    {
      "inputs": [
        {
          "internalType": "address",
          "name": "recipient",
          "type": "address"
        },
        {
          "internalType": "uint256",
          "name": "amount",
          "type": "uint256"
        }
      ],
      "name": "mint",
      "outputs": [],
      "stateMutability": "nonpayable",
      "type": "function"
    },
    {
      "inputs": [],
      "name": "name",
      "outputs": [
        {
          "internalType": "string",
          "name": "",
          "type": "string"
        }
      ],
      "stateMutability": "view",
      "type": "function"
    },
    {
      "inputs": [
        {
          "internalType": "address",
          "name": "owner",
          "type": "address"
        }
      ],
      "name": "nonces",
      "outputs": [
        {
          "internalType": "uint256",
          "name": "",
          "type": "uint256"
        }
      ],
      "stateMutability": "view",
      "type": "function"
    },
    {
      "inputs": [
        {
          "internalType": "address",
          "name": "owner",
          "type": "address"
        },
        {
          "internalType": "address",
          "name": "spender",
          "type": "address"
        },
        {
          "internalType": "uint256",
          "name": "value",
          "type": "uint256"
        },
        {
          "internalType": "uint256",
          "name": "deadline",
          "type": "uint256"
        },
        {
          "internalType": "uint8",
          "name": "v",
          "type": "uint8"
        },
        {
          "internalType": "bytes32",
          "name": "r",
          "type": "bytes32"
        },
        {
          "internalType": "bytes32",
          "name": "s",
          "type": "bytes32"
        }
      ],
      "name": "permit",
      "outputs": [],
      "stateMutability": "nonpayable",
      "type": "function"
    },
    {
      "inputs": [],
      "name": "pricePerShare",
      "outputs": [
        {
          "internalType": "uint256",
          "name": "",
          "type": "uint256"
        }
      ],
      "stateMutability": "view",
      "type": "function"
    },
    {
      "inputs": [],
      "name": "revertType",
      "outputs": [
        {
          "internalType": "enum MaliciousQueryReverter.RevertType",
          "name": "",
          "type": "uint8"
        }
      ],
      "stateMutability": "view",
      "type": "function"
    },
    {
      "inputs": [
        {
          "internalType": "enum MaliciousQueryReverter.RevertType",
          "name": "newRevertType",
          "type": "uint8"
        }
      ],
      "name": "setRevertType",
      "outputs": [],
      "stateMutability": "nonpayable",
      "type": "function"
    },
    {
      "inputs": [
        {
          "internalType": "uint256",
          "name": "_newTotalAssets",
          "type": "uint256"
        }
      ],
      "name": "setTotalAssets",
      "outputs": [],
      "stateMutability": "nonpayable",
      "type": "function"
    },
    {
      "inputs": [],
      "name": "spoofJoinExitQueryRevert",
      "outputs": [],
      "stateMutability": "pure",
      "type": "function"
    },
    {
      "inputs": [],
      "name": "spoofSwapQueryRevert",
      "outputs": [],
      "stateMutability": "pure",
      "type": "function"
    },
    {
      "inputs": [],
      "name": "symbol",
      "outputs": [
        {
          "internalType": "string",
          "name": "",
          "type": "string"
        }
      ],
      "stateMutability": "view",
      "type": "function"
    },
    {
      "inputs": [],
      "name": "token",
      "outputs": [
        {
          "internalType": "address",
          "name": "",
          "type": "address"
        }
      ],
      "stateMutability": "view",
      "type": "function"
    },
    {
      "inputs": [],
      "name": "totalAssets",
      "outputs": [
        {
          "internalType": "uint256",
          "name": "",
          "type": "uint256"
        }
      ],
      "stateMutability": "view",
      "type": "function"
    },
    {
      "inputs": [],
      "name": "totalSupply",
      "outputs": [
        {
          "internalType": "uint256",
          "name": "",
          "type": "uint256"
        }
      ],
      "stateMutability": "view",
      "type": "function"
    },
    {
      "inputs": [
        {
          "internalType": "address",
          "name": "recipient",
          "type": "address"
        },
        {
          "internalType": "uint256",
          "name": "amount",
          "type": "uint256"
        }
      ],
      "name": "transfer",
      "outputs": [
        {
          "internalType": "bool",
          "name": "",
          "type": "bool"
        }
      ],
      "stateMutability": "nonpayable",
      "type": "function"
    },
    {
      "inputs": [
        {
          "internalType": "address",
          "name": "sender",
          "type": "address"
        },
        {
          "internalType": "address",
          "name": "recipient",
          "type": "address"
        },
        {
          "internalType": "uint256",
          "name": "amount",
          "type": "uint256"
        }
      ],
      "name": "transferFrom",
      "outputs": [
        {
          "internalType": "bool",
          "name": "",
          "type": "bool"
        }
      ],
      "stateMutability": "nonpayable",
      "type": "function"
    },
    {
      "inputs": [
        {
          "internalType": "uint256",
          "name": "maxShares",
          "type": "uint256"
        },
        {
          "internalType": "address",
          "name": "recipient",
          "type": "address"
        }
      ],
      "name": "withdraw",
      "outputs": [
        {
          "internalType": "uint256",
          "name": "",
          "type": "uint256"
        }
      ],
      "stateMutability": "nonpayable",
      "type": "function"
    }
  ],
  "bytecode": "0x6101006040526007805460ff191690553480156200001c57600080fd5b5060405162001b7938038062001b79833981810160405260808110156200004257600080fd5b81019080805160405193929190846401000000008211156200006357600080fd5b9083019060208201858111156200007957600080fd5b82516401000000008111828201881017156200009457600080fd5b82525081516020918201929091019080838360005b83811015620000c3578181015183820152602001620000a9565b50505050905090810190601f168015620000f15780820380516001836020036101000a031916815260200191505b50604052602001805160405193929190846401000000008211156200011557600080fd5b9083019060208201858111156200012b57600080fd5b82516401000000008111828201881017156200014657600080fd5b82525081516020918201929091019080838360005b83811015620001755781810151838201526020016200015b565b50505050905090810190601f168015620001a35780820380516001836020036101000a031916815260200191505b5060408181526020838101519382015183830190925260018352603160f81b818401528751939550909350869286928692859283929183918791620001ee9160039185019062000295565b5080516200020490600490602084019062000295565b50506005805460ff19166012179055508151602092830120608052805191012060a052507f8b73c3c69bb8fe3d512ecc4cf759cc79239f7b179b0ffacaa9a75d522b39400f60c05262000257816200027f565b50505060601b6001600160601b03191660e0525050670de0b6b3a7640000600a555062000331565b6005805460ff191660ff92909216919091179055565b828054600181600116156101000203166002900490600052602060002090601f016020900481019282601f10620002d857805160ff191683800117855562000308565b8280016001018555821562000308579182015b8281111562000308578251825591602001919060010190620002eb565b50620003169291506200031a565b5090565b5b808211156200031657600081556001016200031b565b60805160a05160c05160e05160601c61180562000374600039806107a95280610c2652806110a35250806114db52508061151d5250806114fc52506118056000f3fe608060405234801561001057600080fd5b50600436106102255760003560e01c80636e553f651161012a57806399530b06116100bd578063d505accf1161008c578063dd62ed3e11610071578063dd62ed3e14610703578063ed24911d1461073e578063fc0c546a1461074657610225565b8063d505accf1461067c578063d652e8c6146106da57610225565b806399530b06146105fa578063a457c2d714610602578063a9059cbb1461063b578063c3535b521461067457610225565b80637ce3ee48116100f95780637ce3ee48146105845780637ecebe001461058c57806390193b7c146105bf57806395d89b41146105f257610225565b80636e553f65146104a657806370a08231146104df57806379cc6790146105125780637c602bc21461054b57610225565b806329478cb4116101bd578063395093511161018c5780634223271611610171578063422327161461047957806342966c681461048157806344b813961461049e57610225565b8063395093511461040757806340c10f191461044057610225565b806329478cb4146103b95780632cd10339146103c1578063313ce567146103e15780633644e515146103ff57610225565b8063146d4eee116101f9578063146d4eee146103475780631765b3131461035157806318160ddd1461036e57806323b872dd1461037657610225565b8062f714ce1461022a57806301e1d1141461027557806306fdde031461027d578063095ea7b3146102fa575b600080fd5b6102636004803603604081101561024057600080fd5b508035906020013573ffffffffffffffffffffffffffffffffffffffff16610777565b60408051918252519081900360200190f35b61026361086c565b61028561087e565b6040805160208082528351818301528351919283929083019185019080838360005b838110156102bf5781810151838201526020016102a7565b50505050905090810190601f1680156102ec5780820380516001836020036101000a031916815260200191505b509250505060405180910390f35b6103336004803603604081101561031057600080fd5b5073ffffffffffffffffffffffffffffffffffffffff8135169060200135610932565b604080519115158252519081900360200190f35b61034f610948565b005b61034f6004803603602081101561036757600080fd5b50356109b8565b6102636109bd565b6103336004803603606081101561038c57600080fd5b5073ffffffffffffffffffffffffffffffffffffffff8135811691602081013590911690604001356109d4565b61034f610a35565b61034f600480360360208110156103d757600080fd5b503560ff16610afe565b6103e9610b3d565b6040805160ff9092168252519081900360200190f35b610263610b46565b6103336004803603604081101561041d57600080fd5b5073ffffffffffffffffffffffffffffffffffffffff8135169060200135610b50565b61034f6004803603604081101561045657600080fd5b5073ffffffffffffffffffffffffffffffffffffffff8135169060200135610b93565b610263610ba1565b61034f6004803603602081101561049757600080fd5b5035610bb2565b610263610bbf565b610263600480360360408110156104bc57600080fd5b508035906020013573ffffffffffffffffffffffffffffffffffffffff16610bd0565b610263600480360360208110156104f557600080fd5b503573ffffffffffffffffffffffffffffffffffffffff16610cd0565b61034f6004803603604081101561052857600080fd5b5073ffffffffffffffffffffffffffffffffffffffff8135169060200135610cf8565b61034f6004803603604081101561056157600080fd5b5073ffffffffffffffffffffffffffffffffffffffff8135169060200135610d2e565b61034f610d38565b610263600480360360208110156105a257600080fd5b503573ffffffffffffffffffffffffffffffffffffffff16610e11565b610263600480360360208110156105d557600080fd5b503573ffffffffffffffffffffffffffffffffffffffff16610e22565b610285610e4a565b610263610ec9565b6103336004803603604081101561061857600080fd5b5073ffffffffffffffffffffffffffffffffffffffff8135169060200135610f1d565b6103336004803603604081101561065157600080fd5b5073ffffffffffffffffffffffffffffffffffffffff8135169060200135610f63565b610263610f70565b61034f600480360360e081101561069257600080fd5b5073ffffffffffffffffffffffffffffffffffffffff813581169160208101359091169060408101359060608101359060ff6080820135169060a08101359060c00135610f81565b6106e2611056565b604051808260038111156106f257fe5b815260200191505060405180910390f35b6102636004803603604081101561071957600080fd5b5073ffffffffffffffffffffffffffffffffffffffff8135811691602001351661105f565b610263611097565b61074e6110a1565b6040805173ffffffffffffffffffffffffffffffffffffffff9092168252519081900360200190f35b600061078333846110c5565b600061078d610b3d565b60ff16600a0a61079b610ec9565b8502816107a457fe5b0490507f000000000000000000000000000000000000000000000000000000000000000073ffffffffffffffffffffffffffffffffffffffff1663a9059cbb84836040518363ffffffff1660e01b8152600401808373ffffffffffffffffffffffffffffffffffffffff16815260200182815260200192505050602060405180830381600087803b15801561083857600080fd5b505af115801561084c573d6000803e3d6000fd5b505050506040513d602081101561086257600080fd5b5090949350505050565b6000610876610a35565b50600b545b90565b60038054604080516020601f60027fffffffffffffffffffffffffffffffffffffffffffffffffffffffffffffffff6101006001881615020190951694909404938401819004810282018101909252828152606093909290918301828280156109285780601f106108fd57610100808354040283529160200191610928565b820191906000526020600020905b81548152906001019060200180831161090b57829003601f168201915b5050505050905090565b600061093f3384846111ba565b50600192915050565b604080516002808252606080830184529260208301908036833701905050905060018160008151811061097757fe5b60200260200101818152505060028160018151811061099257fe5b602002602001018181525050602081510263fa61cc126020830352600482036024820181fd5b600b55565b60006109c7610a35565b6109cf611229565b905090565b60006109e184848461122f565b73ffffffffffffffffffffffffffffffffffffffff8416600090815260016020908152604080832033808552925290912054610a2b918691610a26908661019e611358565b6111ba565b5060019392505050565b600160075460ff166003811115610a4857fe5b1415610ab557604080517f08c379a000000000000000000000000000000000000000000000000000000000815260206004820152601460248201527f4e4f4e5f4d414c4943494f55535f524556455254000000000000000000000000604482015290519081900360640190fd5b600260075460ff166003811115610ac857fe5b1415610adb57610ad6610948565b610afc565b600360075460ff166003811115610aee57fe5b1415610afc57610afc610d38565b565b600780548291907fffffffffffffffffffffffffffffffffffffffffffffffffffffffffffffff00166001836003811115610b3557fe5b021790555050565b60055460ff1690565b60006109cf611097565b33600081815260016020908152604080832073ffffffffffffffffffffffffffffffffffffffff87168452909152812054909161093f918590610a26908661136e565b610b9d8282611380565b5050565b6000610bab610a35565b50600a5490565b610bbc33826110c5565b50565b6000610bc9610a35565b5060095490565b604080517f23b872dd00000000000000000000000000000000000000000000000000000000815233600482015230602482015260448101849052905160009173ffffffffffffffffffffffffffffffffffffffff7f000000000000000000000000000000000000000000000000000000000000000016916323b872dd9160648082019260209290919082900301818787803b158015610c6e57600080fd5b505af1158015610c82573d6000803e3d6000fd5b505050506040513d6020811015610c9857600080fd5b5060009050610ca5610ec9565b610cad610b3d565b60ff16600a0a850281610cbc57fe5b049050610cc98382611380565b9392505050565b73ffffffffffffffffffffffffffffffffffffffff1660009081526020819052604090205490565b6000610d12826101a1610d0b863361105f565b9190611358565b9050610d1f8333836111ba565b610d2983836110c5565b505050565b610b9d82826110c5565b6040805160028082526060808301845292602083019080368337019050509050600181600081518110610d6757fe5b602002602001018181525050600281600181518110610d8257fe5b60209081029190910181019190915281516101a47fffffffffffffffffffffffffffffffffffffffffffffffffffffffffffffffe084018190526343adbafb7fffffffffffffffffffffffffffffffffffffffffffffffffffffffffffffffc085015291027fffffffffffffffffffffffffffffffffffffffffffffffffffffffffffffffdc83016044820181fd5b6000610e1c82610e22565b92915050565b73ffffffffffffffffffffffffffffffffffffffff1660009081526006602052604090205490565b60048054604080516020601f60027fffffffffffffffffffffffffffffffffffffffffffffffffffffffffffffffff6101006001881615020190951694909404938401819004810282018101909252828152606093909290918301828280156109285780601f106108fd57610100808354040283529160200191610928565b6000610ed3610a35565b6000610edd6109bd565b905080610efa57610eec610b3d565b60ff16600a0a91505061087b565b80600b54610f06610b3d565b60ff16600a0a0281610f1457fe5b0491505061087b565b33600081815260016020908152604080832073ffffffffffffffffffffffffffffffffffffffff87168452909152812054909161093f918590610a26908661019f611358565b600061093f33848461122f565b6000610f7a610a35565b5060085490565b60007f6e71edae12b1b97f4d1f60370fef10105fa2faae0126114a169c64845d6126c9888888610fb08c610e22565b89604051602001808781526020018673ffffffffffffffffffffffffffffffffffffffff1681526020018573ffffffffffffffffffffffffffffffffffffffff16815260200184815260200183815260200182815260200196505050505050506040516020818303038152906040528051906020012090506110418882611038878787611434565b886101f8611473565b61104c8888886111ba565b5050505050505050565b60075460ff1681565b73ffffffffffffffffffffffffffffffffffffffff918216600090815260016020908152604080832093909416825291909152205490565b60006109cf6114d7565b7f000000000000000000000000000000000000000000000000000000000000000090565b6110e973ffffffffffffffffffffffffffffffffffffffff8316151561019b6115a2565b6110f582600083610d29565b73ffffffffffffffffffffffffffffffffffffffff821660009081526020819052604090205461112890826101b2611358565b73ffffffffffffffffffffffffffffffffffffffff83166000908152602081905260409020556111686111638261115d6109bd565b906115b0565b6115be565b60408051828152905160009173ffffffffffffffffffffffffffffffffffffffff8516917fddf252ad1be2c89b69c2b068fc378daa952ba7f163c4a11628f55a4df523b3ef9181900360200190a35050565b73ffffffffffffffffffffffffffffffffffffffff808416600081815260016020908152604080832094871680845294825291829020859055815185815291517f8c5be1e5ebec7d5bd14f71427d1e84f3dd0314c0f7b2291e5b200ac8c7c3b9259281900390910190a3505050565b60025490565b61125373ffffffffffffffffffffffffffffffffffffffff841615156101986115a2565b61127773ffffffffffffffffffffffffffffffffffffffff831615156101996115a2565b611282838383610d29565b73ffffffffffffffffffffffffffffffffffffffff83166000908152602081905260409020546112b590826101a0611358565b73ffffffffffffffffffffffffffffffffffffffff80851660009081526020819052604080822093909355908416815220546112f1908261136e565b73ffffffffffffffffffffffffffffffffffffffff8084166000818152602081815260409182902094909455805185815290519193928716927fddf252ad1be2c89b69c2b068fc378daa952ba7f163c4a11628f55a4df523b3ef92918290030190a3505050565b600061136784841115836115a2565b5050900390565b6000828201610cc984821015836115a2565b61138c60008383610d29565b6113a16111638261139b6109bd565b9061136e565b73ffffffffffffffffffffffffffffffffffffffff82166000908152602081905260409020546113d1908261136e565b73ffffffffffffffffffffffffffffffffffffffff83166000818152602081815260408083209490945583518581529351929391927fddf252ad1be2c89b69c2b068fc378daa952ba7f163c4a11628f55a4df523b3ef9281900390910190a35050565b60408051604180825260808201909252606091829190602082018180368337019050509050836020820152826040820152846060820153949350505050565b600061147e856115c3565b905061149461148e87838761162a565b836115a2565b6114a3428410156101b86115a2565b50505073ffffffffffffffffffffffffffffffffffffffff9092166000908152600660205260409020805460010190555050565b60007f00000000000000000000000000000000000000000000000000000000000000007f00000000000000000000000000000000000000000000000000000000000000007f000000000000000000000000000000000000000000000000000000000000000061154461173c565b30604051602001808681526020018581526020018481526020018381526020018273ffffffffffffffffffffffffffffffffffffffff1681526020019550505050505060405160208183030381529060405280519060200120905090565b81610b9d57610b9d81611740565b6000610cc983836001611358565b600255565b60006115cd6114d7565b8260405160200180807f190100000000000000000000000000000000000000000000000000000000000081525060020183815260200182815260200192505050604051602081830303815290604052805190602001209050919050565b600061163c82516041146101b96115a2565b60008060006020850151925060408501519150606085015160001a9050600060018783868660405160008152602001604052604051808581526020018460ff1681526020018381526020018281526020019450505050506020604051602081039080840390855afa1580156116b5573d6000803e3d6000fd5b50506040517fffffffffffffffffffffffffffffffffffffffffffffffffffffffffffffffe0015191505073ffffffffffffffffffffffffffffffffffffffff81161580159061173057508773ffffffffffffffffffffffffffffffffffffffff168173ffffffffffffffffffffffffffffffffffffffff16145b98975050505050505050565b4690565b7f08c379a000000000000000000000000000000000000000000000000000000000600090815260206004526007602452600a808304818106603090810160081b83860601918390049283060160101b016642414c230000300160c81b604452610bbc917f42414c0000000000000000000000000000000000000000000000000000000000906242414c90606490fdfea26469706673582212208e90d80da63fd44461a6806f33f01812bce1f1083b62b617ec6489a6cf7ccfcf64736f6c63430007010033",
  "linkReferences": {},
  "deployedLinkReferences": {}
}