{
  "_format": "hh-sol-artifact-1",
  "contractName": "MockAaveLendingPool",
  "sourceName": "src/helpers/contracts/MockAaveLendingPool.sol",
  "abi": [
    {
      "inputs": [
        {
          "internalType": "address",
          "name": "",
          "type": "address"
        }
      ],
      "name": "getReserveNormalizedIncome",
      "outputs": [
        {
          "internalType": "uint256",
          "name": "",
          "type": "uint256"
        }
      ],
      "stateMutability": "view",
      "type": "function"
    },
    {
      "inputs": [],
      "name": "maybeRevertMaliciously",
      "outputs": [],
      "stateMutability": "view",
      "type": "function"
    },
    {
      "inputs": [],
      "name": "revertType",
      "outputs": [
        {
          "internalType": "enum MaliciousQueryReverter.RevertType",
          "name": "",
          "type": "uint8"
        }
      ],
      "stateMutability": "view",
      "type": "function"
    },
    {
      "inputs": [
        {
          "internalType": "uint256",
          "name": "newRate",
          "type": "uint256"
        }
      ],
      "name": "setReserveNormalizedIncome",
      "outputs": [],
      "stateMutability": "nonpayable",
      "type": "function"
    },
    {
      "inputs": [
        {
          "internalType": "enum MaliciousQueryReverter.RevertType",
          "name": "newRevertType",
          "type": "uint8"
        }
      ],
      "name": "setRevertType",
      "outputs": [],
      "stateMutability": "nonpayable",
      "type": "function"
    },
    {
      "inputs": [],
      "name": "spoofJoinExitQueryRevert",
      "outputs": [],
      "stateMutability": "pure",
      "type": "function"
    },
    {
      "inputs": [],
      "name": "spoofSwapQueryRevert",
      "outputs": [],
      "stateMutability": "pure",
      "type": "function"
    }
  ],
  "bytecode": "0x60806040526000805460ff191690556b033b2e3c9fd0803ce800000060015534801561002a57600080fd5b506103ee8061003a6000396000f3fe608060405234801561001057600080fd5b506004361061007d5760003560e01c80632cd103391161005b5780632cd10339146100b15780637ce3ee48146100d1578063d15e0053146100d9578063d652e8c61461011e5761007d565b8063146d4eee146100825780631bfec0001461008c57806329478cb4146100a9575b600080fd5b61008a610147565b005b61008a600480360360208110156100a257600080fd5b50356101b7565b61008a6101bc565b61008a600480360360208110156100c757600080fd5b503560ff16610285565b61008a6102c4565b61010c600480360360208110156100ef57600080fd5b503573ffffffffffffffffffffffffffffffffffffffff1661039d565b60408051918252519081900360200190f35b6101266103af565b6040518082600381111561013657fe5b815260200191505060405180910390f35b604080516002808252606080830184529260208301908036833701905050905060018160008151811061017657fe5b60200260200101818152505060028160018151811061019157fe5b602002602001018181525050602081510263fa61cc126020830352600482036024820181fd5b600155565b600160005460ff1660038111156101cf57fe5b141561023c57604080517f08c379a000000000000000000000000000000000000000000000000000000000815260206004820152601460248201527f4e4f4e5f4d414c4943494f55535f524556455254000000000000000000000000604482015290519081900360640190fd5b600260005460ff16600381111561024f57fe5b14156102625761025d610147565b610283565b600360005460ff16600381111561027557fe5b1415610283576102836102c4565b565b600080548291907fffffffffffffffffffffffffffffffffffffffffffffffffffffffffffffff001660018360038111156102bc57fe5b021790555050565b60408051600280825260608083018452926020830190803683370190505090506001816000815181106102f357fe5b60200260200101818152505060028160018151811061030e57fe5b60209081029190910181019190915281516101a47fffffffffffffffffffffffffffffffffffffffffffffffffffffffffffffffe084018190526343adbafb7fffffffffffffffffffffffffffffffffffffffffffffffffffffffffffffffc085015291027fffffffffffffffffffffffffffffffffffffffffffffffffffffffffffffffdc83016044820181fd5b60006103a76101bc565b505060015490565b60005460ff168156fea264697066735822122039004d2b0bf3dc4d3bf7cfd29325879ca80bb996f8e1e74061d0b796a98630bd64736f6c63430007010033",
  "linkReferences": {},
  "deployedLinkReferences": {}
}